{"contracts/libraries/bitsaveHelperLib.sol":{"BitsaveHelperLib":{"abi":[{"inputs":[],"name":"AmountNotEnough","type":"error"},{"inputs":[],"name":"CallNotFromBitsave","type":"error"},{"inputs":[{"internalType":"string","name":"","type":"string"}],"name":"CanNotWithdrawToken","type":"error"},{"inputs":[],"name":"InvalidSaving","type":"error"},{"inputs":[],"name":"InvalidTime","type":"error"},{"inputs":[],"name":"MasterCallRequired","type":"error"},{"inputs":[],"name":"NotEnoughToPayGasFee","type":"error"},{"inputs":[{"internalType":"string","name":"","type":"string"}],"name":"NotSupported","type":"error"},{"inputs":[],"name":"UserNotRegistered","type":"error"},{"inputs":[],"name":"WrongGasContract","type":"error"},{"anonymous":false,"inputs":[{"indexed":false,"internalType":"address","name":"userAddress","type":"address"}],"name":"JoinedBitsave","type":"event"},{"anonymous":false,"inputs":[{"indexed":false,"internalType":"address","name":"","type":"address"},{"indexed":false,"internalType":"uint256","name":"","type":"uint256"}],"name":"Received","type":"event"},{"anonymous":false,"inputs":[{"indexed":false,"internalType":"string","name":"nameOfSaving","type":"string"},{"indexed":false,"internalType":"uint256","name":"amount","type":"uint256"},{"indexed":false,"internalType":"address","name":"token","type":"address"}],"name":"SavingCreated","type":"event"},{"anonymous":false,"inputs":[{"indexed":false,"internalType":"string","name":"nameOfSaving","type":"string"},{"indexed":false,"internalType":"uint256","name":"amountAdded","type":"uint256"},{"indexed":false,"internalType":"uint256","name":"totalAmountNow","type":"uint256"},{"indexed":false,"internalType":"address","name":"token","type":"address"}],"name":"SavingIncremented","type":"event"},{"anonymous":false,"inputs":[{"indexed":false,"internalType":"string","name":"nameOfSaving","type":"string"}],"name":"SavingWithdrawn","type":"event"},{"anonymous":false,"inputs":[{"indexed":true,"internalType":"address","name":"from","type":"address"},{"indexed":false,"internalType":"address","name":"to","type":"address"},{"indexed":false,"internalType":"uint256","name":"amount","type":"uint256"}],"name":"TokenWithdrawal","type":"event"},{"inputs":[],"name":"maxSupply","outputs":[{"internalType":"uint256","name":"","type":"uint256"}],"stateMutability":"view","type":"function"},{"inputs":[],"name":"totalSupply","outputs":[{"internalType":"uint256","name":"","type":"uint256"}],"stateMutability":"view","type":"function"},{"inputs":[],"name":"txnCharge","outputs":[{"internalType":"uint256","name":"","type":"uint256"}],"stateMutability":"view","type":"function"},{"inputs":[],"name":"yearInSeconds","outputs":[{"internalType":"uint256","name":"","type":"uint256"}],"stateMutability":"view","type":"function"}],"evm":{"bytecode":{"linkReferences":{},"object":"61015f610053600b82828239805160001a607314610046577f4e487b7100000000000000000000000000000000000000000000000000000000600052600060045260246000fd5b30600052607381538281f3fe73000000000000000000000000000000000000000030146080604052600436106100565760003560e01c806318160ddd1461005b57806335747b0d146100795780634059d59614610097578063d5abeb01146100b5575b600080fd5b6100636100d3565b604051610070919061010e565b60405180910390f35b6100816100da565b60405161008e919061010e565b60405180910390f35b61009f6100e5565b6040516100ac919061010e565b60405180910390f35b6100bd6100ed565b6040516100ca919061010e565b60405180910390f35b62e4e1c081565b66470de4df82000081565b6301e1338081565b6305f5e10081565b6000819050919050565b610108816100f5565b82525050565b600060208201905061012360008301846100ff565b9291505056fea2646970667358221220aa346ef761de7068e47a5678c3804337a6a0828129d6f15a43b314311eb357d164736f6c63430008170033","opcodes":"PUSH2 0x15F PUSH2 0x53 PUSH1 0xB DUP3 DUP3 DUP3 CODECOPY DUP1 MLOAD PUSH1 0x0 BYTE PUSH1 0x73 EQ PUSH2 0x46 JUMPI PUSH32 0x4E487B7100000000000000000000000000000000000000000000000000000000 PUSH1 0x0 MSTORE PUSH1 0x0 PUSH1 0x4 MSTORE PUSH1 0x24 PUSH1 0x0 REVERT JUMPDEST ADDRESS PUSH1 0x0 MSTORE PUSH1 0x73 DUP2 MSTORE8 DUP3 DUP2 RETURN INVALID PUSH20 0x0 ADDRESS EQ PUSH1 0x80 PUSH1 0x40 MSTORE PUSH1 0x4 CALLDATASIZE LT PUSH2 0x56 JUMPI PUSH1 0x0 CALLDATALOAD PUSH1 0xE0 SHR DUP1 PUSH4 0x18160DDD EQ PUSH2 0x5B JUMPI DUP1 PUSH4 0x35747B0D EQ PUSH2 0x79 JUMPI DUP1 PUSH4 0x4059D596 EQ PUSH2 0x97 JUMPI DUP1 PUSH4 0xD5ABEB01 EQ PUSH2 0xB5 JUMPI JUMPDEST PUSH1 0x0 DUP1 REVERT JUMPDEST PUSH2 0x63 PUSH2 0xD3 JUMP JUMPDEST PUSH1 0x40 MLOAD PUSH2 0x70 SWAP2 SWAP1 PUSH2 0x10E JUMP JUMPDEST PUSH1 0x40 MLOAD DUP1 SWAP2 SUB SWAP1 RETURN JUMPDEST PUSH2 0x81 PUSH2 0xDA JUMP JUMPDEST PUSH1 0x40 MLOAD PUSH2 0x8E SWAP2 SWAP1 PUSH2 0x10E JUMP JUMPDEST PUSH1 0x40 MLOAD DUP1 SWAP2 SUB SWAP1 RETURN JUMPDEST PUSH2 0x9F PUSH2 0xE5 JUMP JUMPDEST PUSH1 0x40 MLOAD PUSH2 0xAC SWAP2 SWAP1 PUSH2 0x10E JUMP JUMPDEST PUSH1 0x40 MLOAD DUP1 SWAP2 SUB SWAP1 RETURN JUMPDEST PUSH2 0xBD PUSH2 0xED JUMP JUMPDEST PUSH1 0x40 MLOAD PUSH2 0xCA SWAP2 SWAP1 PUSH2 0x10E JUMP JUMPDEST PUSH1 0x40 MLOAD DUP1 SWAP2 SUB SWAP1 RETURN JUMPDEST PUSH3 0xE4E1C0 DUP2 JUMP JUMPDEST PUSH7 0x470DE4DF820000 DUP2 JUMP JUMPDEST PUSH4 0x1E13380 DUP2 JUMP JUMPDEST PUSH4 0x5F5E100 DUP2 JUMP JUMPDEST PUSH1 0x0 DUP2 SWAP1 POP SWAP2 SWAP1 POP JUMP JUMPDEST PUSH2 0x108 DUP2 PUSH2 0xF5 JUMP JUMPDEST DUP3 MSTORE POP POP JUMP JUMPDEST PUSH1 0x0 PUSH1 0x20 DUP3 ADD SWAP1 POP PUSH2 0x123 PUSH1 0x0 DUP4 ADD DUP5 PUSH2 0xFF JUMP JUMPDEST SWAP3 SWAP2 POP POP JUMP INVALID LOG2 PUSH5 0x6970667358 0x22 SLT KECCAK256 0xAA CALLVALUE PUSH15 0xF761DE7068E47A5678C3804337A6A0 DUP3 DUP2 0x29 0xD6 CALL GAS NUMBER 0xB3 EQ BALANCE 0x1E 0xB3 JUMPI 0xD1 PUSH5 0x736F6C6343 STOP ADDMOD OR STOP CALLER "},"methodIdentifiers":{"maxSupply()":"d5abeb01","totalSupply()":"18160ddd","txnCharge()":"35747b0d","yearInSeconds()":"4059d596"}}}}}