{"contracts/Bitsave.sol":{"Bitsave":{"abi":[{"inputs":[{"internalType":"address","name":"_stableCoin","type":"address"},{"internalType":"address","name":"_csToken","type":"address"}],"stateMutability":"payable","type":"constructor"},{"inputs":[],"name":"AmountNotEnough","type":"error"},{"inputs":[],"name":"CallNotFromBitsave","type":"error"},{"inputs":[{"internalType":"string","name":"","type":"string"}],"name":"CanNotWithdrawToken","type":"error"},{"inputs":[],"name":"InvalidTime","type":"error"},{"inputs":[],"name":"MasterCallRequired","type":"error"},{"inputs":[],"name":"NotEnoughToPayGasFee","type":"error"},{"inputs":[{"internalType":"string","name":"","type":"string"}],"name":"NotSupported","type":"error"},{"inputs":[],"name":"UserNotRegistered","type":"error"},{"anonymous":false,"inputs":[{"indexed":false,"internalType":"address","name":"userAddress","type":"address"}],"name":"JoinedBitsave","type":"event"},{"anonymous":false,"inputs":[{"indexed":false,"internalType":"string","name":"nameOfSaving","type":"string"},{"indexed":false,"internalType":"uint256","name":"amount","type":"uint256"},{"indexed":false,"internalType":"address","name":"token","type":"address"}],"name":"SavingCreated","type":"event"},{"anonymous":false,"inputs":[{"indexed":true,"internalType":"address","name":"from","type":"address"},{"indexed":false,"internalType":"address","name":"to","type":"address"},{"indexed":false,"internalType":"uint256","name":"amount","type":"uint256"}],"name":"TokenWithdrawal","type":"event"},{"inputs":[],"name":"ChildContractGasFee","outputs":[{"internalType":"uint256","name":"","type":"uint256"}],"stateMutability":"view","type":"function"},{"inputs":[],"name":"JoinLimitFee","outputs":[{"internalType":"uint256","name":"","type":"uint256"}],"stateMutability":"view","type":"function"},{"inputs":[],"name":"SavingFee","outputs":[{"internalType":"uint256","name":"","type":"uint256"}],"stateMutability":"view","type":"function"},{"inputs":[{"internalType":"string","name":"nameOfSaving","type":"string"},{"internalType":"uint256","name":"maturityTime","type":"uint256"},{"internalType":"uint8","name":"penaltyPercentage","type":"uint8"},{"internalType":"bool","name":"safeMode","type":"bool"},{"internalType":"address","name":"tokenToSave","type":"address"},{"internalType":"uint256","name":"amount","type":"uint256"}],"name":"createSaving","outputs":[],"stateMutability":"payable","type":"function"},{"inputs":[],"name":"csToken","outputs":[{"internalType":"contract IERC20","name":"","type":"address"}],"stateMutability":"view","type":"function"},{"inputs":[],"name":"currentTotalValueLocked","outputs":[{"internalType":"uint256","name":"","type":"uint256"}],"stateMutability":"view","type":"function"},{"inputs":[],"name":"currentVaultState","outputs":[{"internalType":"uint256","name":"","type":"uint256"}],"stateMutability":"view","type":"function"},{"inputs":[{"internalType":"uint256","name":"_newCurrentVaultState","type":"uint256"},{"internalType":"uint256","name":"_newTotalValueLocked","type":"uint256"}],"name":"editInternalData","outputs":[],"stateMutability":"nonpayable","type":"function"},{"inputs":[],"name":"getUserChildContractAddress","outputs":[{"internalType":"address","name":"","type":"address"}],"stateMutability":"view","type":"function"},{"inputs":[{"internalType":"string","name":"nameOfSavings","type":"string"},{"internalType":"address","name":"tokenToRetrieve","type":"address"},{"internalType":"uint256","name":"amount","type":"uint256"}],"name":"incrementSaving","outputs":[],"stateMutability":"payable","type":"function"},{"inputs":[],"name":"joinBitsave","outputs":[{"internalType":"address","name":"","type":"address"}],"stateMutability":"payable","type":"function"},{"inputs":[],"name":"masterAddress","outputs":[{"internalType":"address","name":"","type":"address"}],"stateMutability":"view","type":"function"},{"inputs":[],"name":"rewardPool","outputs":[{"internalType":"uint256","name":"","type":"uint256"}],"stateMutability":"view","type":"function"},{"inputs":[{"internalType":"address","name":"originalToken","type":"address"},{"internalType":"uint256","name":"amount","type":"uint256"},{"internalType":"address","name":"ownerAddress","type":"address"}],"name":"sendAsOriginalToken","outputs":[],"stateMutability":"payable","type":"function"},{"inputs":[],"name":"stableCoin","outputs":[{"internalType":"contract IERC20","name":"","type":"address"}],"stateMutability":"view","type":"function"},{"inputs":[],"name":"userCount","outputs":[{"internalType":"uint256","name":"","type":"uint256"}],"stateMutability":"view","type":"function"},{"inputs":[{"internalType":"string","name":"nameOfSavings","type":"string"}],"name":"withdrawSaving","outputs":[{"internalType":"bool","name":"","type":"bool"}],"stateMutability":"nonpayable","type":"function"},{"stateMutability":"payable","type":"receive"}],"evm":{"bytecode":{"linkReferences":{},"object":"60806040526040516200518238038062005182833981810160405281019062000029919062000182565b816000806101000a81548173ffffffffffffffffffffffffffffffffffffffff021916908373ffffffffffffffffffffffffffffffffffffffff16021790555080600160006101000a81548173ffffffffffffffffffffffffffffffffffffffff021916908373ffffffffffffffffffffffffffffffffffffffff16021790555033600260006101000a81548173ffffffffffffffffffffffffffffffffffffffff021916908373ffffffffffffffffffffffffffffffffffffffff16021790555060006003819055506000600581905550629896806006819055506301c9c3806007819055505050620001c9565b600080fd5b600073ffffffffffffffffffffffffffffffffffffffff82169050919050565b60006200014a826200011d565b9050919050565b6200015c816200013d565b81146200016857600080fd5b50565b6000815190506200017c8162000151565b92915050565b600080604083850312156200019c576200019b62000118565b5b6000620001ac858286016200016b565b9250506020620001bf858286016200016b565b9150509250929050565b614fa980620001d96000396000f3fe6080604052600436106200011b5760003560e01c806384762b0b11620000a3578063d365a08e116200006d578063d365a08e146200034c578063de35c372146200037c578063e04605fd146200039c578063ea41367214620003cc578063fed0b92514620003fc5762000123565b806384762b0b146200028e578063992642e514620002be578063a9e944ac14620002ee578063bf66bfc7146200031c5762000123565b8063372f910111620000e5578063372f910114620001ca5780634c3fa304146200020e5780636405350a146200023e57806366666aa9146200025e5762000123565b806302500739146200012857806307973ccf146200015857806316f94d5d14620001885780631fdc181f14620001aa5762000123565b366200012357005b600080fd5b3480156200013557600080fd5b50620001406200042c565b6040516200014f9190620015a1565b60405180910390f35b3480156200016557600080fd5b506200017062000432565b6040516200017f9190620015a1565b60405180910390f35b6200019262000438565b604051620001a1919062001603565b60405180910390f35b620001c86004803603810190620001c29190620017f8565b6200065f565b005b348015620001d757600080fd5b50620001f66004803603810190620001f0919062001873565b62000a33565b604051620002059190620018e1565b60405180910390f35b3480156200021b57600080fd5b506200022662000bf2565b604051620002359190620015a1565b60405180910390f35b6200025c60048036038101906200025691906200196d565b62000bf8565b005b3480156200026b57600080fd5b506200027662000ef6565b604051620002859190620015a1565b60405180910390f35b3480156200029b57600080fd5b50620002a662000efc565b604051620002b59190620015a1565b60405180910390f35b348015620002cb57600080fd5b50620002d662000f06565b604051620002e5919062001a93565b60405180910390f35b348015620002fb57600080fd5b506200031a600480360381019062000314919062001ab0565b62000f2a565b005b3480156200032957600080fd5b506200033462000fc4565b604051620003439190620015a1565b60405180910390f35b3480156200035957600080fd5b506200036462000fdc565b60405162000373919062001603565b60405180910390f35b6200039a600480360381019062000394919062001af7565b62001002565b005b348015620003a957600080fd5b50620003b46200113c565b604051620003c3919062001a93565b60405180910390f35b348015620003d957600080fd5b50620003e462001162565b604051620003f3919062001603565b60405180910390f35b3480156200040957600080fd5b5062000414620011c9565b604051620004239190620015a1565b60405180910390f35b60075481565b60055481565b6000803390506000600460008373ffffffffffffffffffffffffffffffffffffffff1673ffffffffffffffffffffffffffffffffffffffff16815260200190815260200160002060009054906101000a900473ffffffffffffffffffffffffffffffffffffffff169050600073ffffffffffffffffffffffffffffffffffffffff168173ffffffffffffffffffffffffffffffffffffffff1614620004e25780925050506200065c565b655af3107a400034101562000523576040517fcb6e851c00000000000000000000000000000000000000000000000000000000815260040160405180910390fd5b60003360008054906101000a900473ffffffffffffffffffffffffffffffffffffffff16604051620005559062001578565b6200056292919062001b53565b604051809103906000f0801580156200057f573d6000803e3d6000fd5b50905080600460008573ffffffffffffffffffffffffffffffffffffffff1673ffffffffffffffffffffffffffffffffffffffff16815260200190815260200160002060006101000a81548173ffffffffffffffffffffffffffffffffffffffff021916908373ffffffffffffffffffffffffffffffffffffffff16021790555060016005600082825462000615919062001baf565b925050819055507f0c5c0c4d53b63790e32770cf47fd115d706000fd7ab63fbdc8d176c5020d6b46836040516200064d919062001603565b60405180910390a18093505050505b90565b33600073ffffffffffffffffffffffffffffffffffffffff16600460008373ffffffffffffffffffffffffffffffffffffffff1673ffffffffffffffffffffffffffffffffffffffff16815260200190815260200160002060009054906101000a900473ffffffffffffffffffffffffffffffffffffffff1673ffffffffffffffffffffffffffffffffffffffff160362000726576040517f2163950f00000000000000000000000000000000000000000000000000000000815260040160405180910390fd5b6000600460003373ffffffffffffffffffffffffffffffffffffffff1673ffffffffffffffffffffffffffffffffffffffff16815260200190815260200160002060009054906101000a900473ffffffffffffffffffffffffffffffffffffffff169050600081905060008173ffffffffffffffffffffffffffffffffffffffff1663e18f5f65886040518263ffffffff1660e01b8152600401620007cc919062001c73565b602060405180830381865afa158015620007ea573d6000803e3d6000fd5b505050506040513d601f19601f8201168201806040525081019062000810919062001cae565b905060008073ffffffffffffffffffffffffffffffffffffffff168273ffffffffffffffffffffffffffffffffffffffff16149050600086905060008473ffffffffffffffffffffffffffffffffffffffff16631bb862a58b6040518263ffffffff1660e01b815260040162000887919062001c73565b602060405180830381865afa158015620008a5573d6000803e3d6000fd5b505050506040513d601f19601f82011682018060405250810190620008cb919062001cf7565b90508015620008f85760008054906101000a900473ffffffffffffffffffffffffffffffffffffffff1698505b8262000953576200090b86838b620011d3565b6200094d576040517f08c379a0000000000000000000000000000000000000000000000000000000008152600401620009449062001d79565b60405180910390fd5b62000957565b3491505b8473ffffffffffffffffffffffffffffffffffffffff1663dc2379b98462000994576014655af3107a40006200098e919062001dca565b620009b7565b836014655af3107a4000620009aa919062001dca565b620009b6919062001baf565b5b8c8b6006546007546040518663ffffffff1660e01b8152600401620009e0949392919062001e02565b60206040518083038185885af1158015620009ff573d6000803e3d6000fd5b50505050506040513d601f19601f8201168201806040525081019062000a26919062001e6d565b5050505050505050505050565b600033600073ffffffffffffffffffffffffffffffffffffffff16600460008373ffffffffffffffffffffffffffffffffffffffff1673ffffffffffffffffffffffffffffffffffffffff16815260200190815260200160002060009054906101000a900473ffffffffffffffffffffffffffffffffffffffff1673ffffffffffffffffffffffffffffffffffffffff160362000afc576040517f2163950f00000000000000000000000000000000000000000000000000000000815260040160405180910390fd5b6000600460003373ffffffffffffffffffffffffffffffffffffffff1673ffffffffffffffffffffffffffffffffffffffff16815260200190815260200160002060009054906101000a900473ffffffffffffffffffffffffffffffffffffffff1690508073ffffffffffffffffffffffffffffffffffffffff1663372f9101856040518263ffffffff1660e01b815260040162000b9b919062001c73565b6000604051808303816000875af115801562000bbb573d6000803e3d6000fd5b505050506040513d6000823e3d601f19601f8201168201806040525081019062000be6919062001f1d565b50600192505050919050565b60065481565b33600073ffffffffffffffffffffffffffffffffffffffff16600460008373ffffffffffffffffffffffffffffffffffffffff1673ffffffffffffffffffffffffffffffffffffffff16815260200190815260200160002060009054906101000a900473ffffffffffffffffffffffffffffffffffffffff1673ffffffffffffffffffffffffffffffffffffffff160362000cbf576040517f2163950f00000000000000000000000000000000000000000000000000000000815260040160405180910390fd5b655af3107a400034101562000d00576040517fd0c279a200000000000000000000000000000000000000000000000000000000815260040160405180910390fd5b8542111562000d3b576040517f6f7eac2600000000000000000000000000000000000000000000000000000000815260040160405180910390fd5b831562000d7f576040517f329e2f1500000000000000000000000000000000000000000000000000000000815260040162000d769062001fbe565b60405180910390fd5b600062000d8c3362001266565b9050600062000d9d848684620012cf565b905060008290508073ffffffffffffffffffffffffffffffffffffffff1663436d4a6d600073ffffffffffffffffffffffffffffffffffffffff168873ffffffffffffffffffffffffffffffffffffffff161462000e10576014655af3107a400062000e0a919062001dca565b62000e33565b836014655af3107a400062000e26919062001dca565b62000e32919062001baf565b5b8c8c428d8c898f6006546007546040518b63ffffffff1660e01b815260040162000e669998979695949392919062001ff1565b60206040518083038185885af115801562000e85573d6000803e3d6000fd5b50505050506040513d601f19601f8201168201806040525081019062000eac919062001e6d565b507f4ad85a69286191006ea05981ae1848070dbf232e5e00ffdda4b857c16097f0d78a838860405162000ee29392919062002097565b60405180910390a150505050505050505050565b60035481565b655af3107a400081565b60008054906101000a900473ffffffffffffffffffffffffffffffffffffffff1681565b600260009054906101000a900473ffffffffffffffffffffffffffffffffffffffff1673ffffffffffffffffffffffffffffffffffffffff163373ffffffffffffffffffffffffffffffffffffffff161462000fb2576040517f33662b3400000000000000000000000000000000000000000000000000000000815260040160405180910390fd5b81600681905550806007819055505050565b6014655af3107a400062000fd9919062001dca565b81565b600260009054906101000a900473ffffffffffffffffffffffffffffffffffffffff1681565b806000600460008373ffffffffffffffffffffffffffffffffffffffff1673ffffffffffffffffffffffffffffffffffffffff16815260200190815260200160002060009054906101000a900473ffffffffffffffffffffffffffffffffffffffff169050600073ffffffffffffffffffffffffffffffffffffffff168173ffffffffffffffffffffffffffffffffffffffff161480620010cf57503373ffffffffffffffffffffffffffffffffffffffff168173ffffffffffffffffffffffffffffffffffffffff1614155b1562001107576040517f229e1dbd00000000000000000000000000000000000000000000000000000000815260040160405180910390fd5b620011343360008054906101000a900473ffffffffffffffffffffffffffffffffffffffff168662001422565b505050505050565b600160009054906101000a900473ffffffffffffffffffffffffffffffffffffffff1681565b6000600460003373ffffffffffffffffffffffffffffffffffffffff1673ffffffffffffffffffffffffffffffffffffffff16815260200190815260200160002060009054906101000a900473ffffffffffffffffffffffffffffffffffffffff16905090565b655af3107a400081565b6000808290508073ffffffffffffffffffffffffffffffffffffffff1663095ea7b386866040518363ffffffff1660e01b815260040162001216929190620020db565b6020604051808303816000875af115801562001236573d6000803e3d6000fd5b505050506040513d601f19601f820116820180604052508101906200125c919062001cf7565b9150509392505050565b6000600460008373ffffffffffffffffffffffffffffffffffffffff1673ffffffffffffffffffffffffffffffffffffffff16815260200190815260200160002060009054906101000a900473ffffffffffffffffffffffffffffffffffffffff169050919050565b60008073ffffffffffffffffffffffffffffffffffffffff168373ffffffffffffffffffffffffffffffffffffffff1614620014015760006200131433858762001422565b90508062001359576040517fec866729000000000000000000000000000000000000000000000000000000008152600401620013509062002158565b60405180910390fd5b3373ffffffffffffffffffffffffffffffffffffffff167f42856d0378dde02337bb59ae41747abc77ded8ebdbbc5cbdd1e53693b75549383087604051620013a3929190620020db565b60405180910390a2620013b8838686620011d3565b620013fa576040517f08c379a0000000000000000000000000000000000000000000000000000000008152600401620013f19062001d79565b60405180910390fd5b5062001418565b655af3107a4000346200141591906200217a565b93505b8390509392505050565b6000818373ffffffffffffffffffffffffffffffffffffffff1663dd62ed3e86306040518363ffffffff1660e01b81526004016200146292919062001b53565b602060405180830381865afa15801562001480573d6000803e3d6000fd5b505050506040513d601f19601f82011682018060405250810190620014a6919062001e6d565b1015620014ea576040517f08c379a0000000000000000000000000000000000000000000000000000000008152600401620014e19062002205565b60405180910390fd5b8273ffffffffffffffffffffffffffffffffffffffff166323b872dd8530856040518463ffffffff1660e01b8152600401620015299392919062002227565b6020604051808303816000875af115801562001549573d6000803e3d6000fd5b505050506040513d601f19601f820116820180604052508101906200156f919062001cf7565b90509392505050565b612d0f806200226583390190565b6000819050919050565b6200159b8162001586565b82525050565b6000602082019050620015b8600083018462001590565b92915050565b600073ffffffffffffffffffffffffffffffffffffffff82169050919050565b6000620015eb82620015be565b9050919050565b620015fd81620015de565b82525050565b60006020820190506200161a6000830184620015f2565b92915050565b6000604051905090565b600080fd5b600080fd5b600080fd5b600080fd5b6000601f19601f8301169050919050565b7f4e487b7100000000000000000000000000000000000000000000000000000000600052604160045260246000fd5b62001689826200163e565b810181811067ffffffffffffffff82111715620016ab57620016aa6200164f565b5b80604052505050565b6000620016c062001620565b9050620016ce82826200167e565b919050565b600067ffffffffffffffff821115620016f157620016f06200164f565b5b620016fc826200163e565b9050602081019050919050565b82818337600083830152505050565b60006200172f6200172984620016d3565b620016b4565b9050828152602081018484840111156200174e576200174d62001639565b5b6200175b84828562001709565b509392505050565b600082601f8301126200177b576200177a62001634565b5b81356200178d84826020860162001718565b91505092915050565b620017a181620015de565b8114620017ad57600080fd5b50565b600081359050620017c18162001796565b92915050565b620017d28162001586565b8114620017de57600080fd5b50565b600081359050620017f281620017c7565b92915050565b6000806000606084860312156200181457620018136200162a565b5b600084013567ffffffffffffffff8111156200183557620018346200162f565b5b620018438682870162001763565b93505060206200185686828701620017b0565b92505060406200186986828701620017e1565b9150509250925092565b6000602082840312156200188c576200188b6200162a565b5b600082013567ffffffffffffffff811115620018ad57620018ac6200162f565b5b620018bb8482850162001763565b91505092915050565b60008115159050919050565b620018db81620018c4565b82525050565b6000602082019050620018f86000830184620018d0565b92915050565b600060ff82169050919050565b6200191681620018fe565b81146200192257600080fd5b50565b60008135905062001936816200190b565b92915050565b6200194781620018c4565b81146200195357600080fd5b50565b60008135905062001967816200193c565b92915050565b60008060008060008060c087890312156200198d576200198c6200162a565b5b600087013567ffffffffffffffff811115620019ae57620019ad6200162f565b5b620019bc89828a0162001763565b9650506020620019cf89828a01620017e1565b9550506040620019e289828a0162001925565b9450506060620019f589828a0162001956565b935050608062001a0889828a01620017b0565b92505060a062001a1b89828a01620017e1565b9150509295509295509295565b6000819050919050565b600062001a5362001a4d62001a4784620015be565b62001a28565b620015be565b9050919050565b600062001a678262001a32565b9050919050565b600062001a7b8262001a5a565b9050919050565b62001a8d8162001a6e565b82525050565b600060208201905062001aaa600083018462001a82565b92915050565b6000806040838503121562001aca5762001ac96200162a565b5b600062001ada85828601620017e1565b925050602062001aed85828601620017e1565b9150509250929050565b60008060006060848603121562001b135762001b126200162a565b5b600062001b2386828701620017b0565b935050602062001b3686828701620017e1565b925050604062001b4986828701620017b0565b9150509250925092565b600060408201905062001b6a6000830185620015f2565b62001b796020830184620015f2565b9392505050565b7f4e487b7100000000000000000000000000000000000000000000000000000000600052601160045260246000fd5b600062001bbc8262001586565b915062001bc98362001586565b925082820190508082111562001be45762001be362001b80565b5b92915050565b600081519050919050565b600082825260208201905092915050565b60005b8381101562001c2657808201518184015260208101905062001c09565b60008484015250505050565b600062001c3f8262001bea565b62001c4b818562001bf5565b935062001c5d81856020860162001c06565b62001c68816200163e565b840191505092915050565b6000602082019050818103600083015262001c8f818462001c32565b905092915050565b60008151905062001ca88162001796565b92915050565b60006020828403121562001cc75762001cc66200162a565b5b600062001cd78482850162001c97565b91505092915050565b60008151905062001cf1816200193c565b92915050565b60006020828403121562001d105762001d0f6200162a565b5b600062001d208482850162001ce0565b91505092915050565b7f536176696e677320696e76616c69640000000000000000000000000000000000600082015250565b600062001d61600f8362001bf5565b915062001d6e8262001d29565b602082019050919050565b6000602082019050818103600083015262001d948162001d52565b9050919050565b7f4e487b7100000000000000000000000000000000000000000000000000000000600052601260045260246000fd5b600062001dd78262001586565b915062001de48362001586565b92508262001df75762001df662001d9b565b5b828204905092915050565b6000608082019050818103600083015262001e1e818762001c32565b905062001e2f602083018662001590565b62001e3e604083018562001590565b62001e4d606083018462001590565b95945050505050565b60008151905062001e6781620017c7565b92915050565b60006020828403121562001e865762001e856200162a565b5b600062001e968482850162001e56565b91505092915050565b600062001eb662001eb084620016d3565b620016b4565b90508281526020810184848401111562001ed55762001ed462001639565b5b62001ee284828562001c06565b509392505050565b600082601f83011262001f025762001f0162001634565b5b815162001f1484826020860162001e9f565b91505092915050565b60006020828403121562001f365762001f356200162a565b5b600082015167ffffffffffffffff81111562001f575762001f566200162f565b5b62001f658482850162001eea565b91505092915050565b7f4e6f2073616665206d6f64652079657421000000000000000000000000000000600082015250565b600062001fa660118362001bf5565b915062001fb38262001f6e565b602082019050919050565b6000602082019050818103600083015262001fd98162001f97565b9050919050565b62001feb81620018fe565b82525050565b60006101208201905081810360008301526200200e818c62001c32565b90506200201f602083018b62001590565b6200202e604083018a62001590565b6200203d606083018962001fe0565b6200204c6080830188620015f2565b6200205b60a083018762001590565b6200206a60c0830186620018d0565b6200207960e083018562001590565b6200208961010083018462001590565b9a9950505050505050505050565b60006060820190508181036000830152620020b3818662001c32565b9050620020c4602083018562001590565b620020d36040830184620015f2565b949350505050565b6000604082019050620020f26000830185620015f2565b62002101602083018462001590565b9392505050565b7f54786e206661696c656400000000000000000000000000000000000000000000600082015250565b600062002140600a8362001bf5565b91506200214d8262002108565b602082019050919050565b60006020820190508181036000830152620021738162002131565b9050919050565b6000620021878262001586565b9150620021948362001586565b9250828203905081811115620021af57620021ae62001b80565b5b92915050565b7f546f6b656e20636f756c64206e6f742062652077697468647261776e00000000600082015250565b6000620021ed601c8362001bf5565b9150620021fa82620021b5565b602082019050919050565b600060208201905081810360008301526200222081620021de565b9050919050565b60006060820190506200223e6000830186620015f2565b6200224d6020830185620015f2565b6200225c604083018462001590565b94935050505056fe608060405260405162002d0f38038062002d0f833981810160405281019062000029919062000165565b336000806101000a81548173ffffffffffffffffffffffffffffffffffffffff021916908373ffffffffffffffffffffffffffffffffffffffff16021790555081600260006101000a81548173ffffffffffffffffffffffffffffffffffffffff021916908373ffffffffffffffffffffffffffffffffffffffff16021790555080600160006101000a81548173ffffffffffffffffffffffffffffffffffffffff021916908373ffffffffffffffffffffffffffffffffffffffff16021790555060006003819055505050620001ac565b600080fd5b600073ffffffffffffffffffffffffffffffffffffffff82169050919050565b60006200012d8262000100565b9050919050565b6200013f8162000120565b81146200014b57600080fd5b50565b6000815190506200015f8162000134565b92915050565b600080604083850312156200017f576200017e620000fb565b5b60006200018f858286016200014e565b9250506020620001a2858286016200014e565b9150509250929050565b612b5380620001bc6000396000f3fe6080604052600436106100c25760003560e01c8063585dbffe1161007f578063992642e511610059578063992642e5146102a3578063d1ece790146102ce578063dc2379b9146102f9578063e18f5f6514610329576100c2565b8063585dbffe146101fe57806384febb691461023b5780638f84aa0914610278576100c2565b806313203929146100c75780631bb862a51461010b5780632ae3c90f14610148578063372f910114610173578063436d4a6d146101a3578063567142be146101d3575b600080fd5b3480156100d357600080fd5b506100ee60048036038101906100e99190611bc9565b610366565b604051610102989796959493929190611c87565b60405180910390f35b34801561011757600080fd5b50610132600480360381019061012d9190611bc9565b6103fe565b60405161013f9190611d05565b60405180910390f35b34801561015457600080fd5b5061015d610436565b60405161016a9190611d41565b60405180910390f35b61018d60048036038101906101889190611bc9565b61045a565b60405161019a9190611ddb565b60405180910390f35b6101bd60048036038101906101b89190611eba565b6108ee565b6040516101ca9190611fa0565b60405180910390f35b3480156101df57600080fd5b506101e8610cb2565b6040516101f59190611fa0565b60405180910390f35b34801561020a57600080fd5b5061022560048036038101906102209190611bc9565b610cb8565b604051610232919061208a565b60405180910390f35b34801561024757600080fd5b50610262600480360381019061025d9190611bc9565b610daf565b60405161026f9190611fa0565b60405180910390f35b34801561028457600080fd5b5061028d610dda565b60405161029a91906120a6565b60405180910390f35b3480156102af57600080fd5b506102b8610e00565b6040516102c59190612120565b60405180910390f35b3480156102da57600080fd5b506102e3610e26565b6040516102f09190612271565b60405180910390f35b610313600480360381019061030e9190612293565b610f19565b6040516103209190611fa0565b60405180910390f35b34801561033557600080fd5b50610350600480360381019061034b9190611bc9565b61137d565b60405161035d91906120a6565b60405180910390f35b6004818051602081018201805184825260208301602085012081835280955050505050506000915090508060000160009054906101000a900460ff16908060010154908060020160009054906101000a900473ffffffffffffffffffffffffffffffffffffffff16908060030154908060040154908060050154908060060154908060070160009054906101000a900460ff16905088565b60006004826040516104109190612352565b908152602001604051809103902060070160009054906101000a900460ff169050919050565b60008054906101000a900473ffffffffffffffffffffffffffffffffffffffff1681565b606060008054906101000a900473ffffffffffffffffffffffffffffffffffffffff1673ffffffffffffffffffffffffffffffffffffffff163373ffffffffffffffffffffffffffffffffffffffff16146104e1576040517f229e1dbd00000000000000000000000000000000000000000000000000000000815260040160405180910390fd5b60006004836040516104f39190612352565b908152602001604051809103902090508060000160009054906101000a900460ff1661054b576040517fd63d1e4800000000000000000000000000000000000000000000000000000000815260040160405180910390fd5b60008160010154905060008060009054906101000a900473ffffffffffffffffffffffffffffffffffffffff16905082600601544210156105b9576064836005015460646105999190612398565b84600101546105a891906123cc565b6105b2919061243d565b91506105ba565b5b60008360020160009054906101000a900473ffffffffffffffffffffffffffffffffffffffff1690508360070160009054906101000a900460ff16156106de5761064760008054906101000a900473ffffffffffffffffffffffffffffffffffffffff1684600160009054906101000a900473ffffffffffffffffffffffffffffffffffffffff166113c8565b508173ffffffffffffffffffffffffffffffffffffffff1663de35c3728285600260009054906101000a900473ffffffffffffffffffffffffffffffffffffffff166040518463ffffffff1660e01b81526004016106a79392919061246e565b600060405180830381600087803b1580156106c157600080fd5b505af11580156106d5573d6000803e3d6000fd5b5050505061083c565b600073ffffffffffffffffffffffffffffffffffffffff168173ffffffffffffffffffffffffffffffffffffffff16036107e957600080600260009054906101000a900473ffffffffffffffffffffffffffffffffffffffff1673ffffffffffffffffffffffffffffffffffffffff168560405161075b906124d6565b60006040518083038185875af1925050503d8060008114610798576040519150601f19603f3d011682016040523d82523d6000602084013e61079d565b606091505b5091509150816107e2576040517f08c379a00000000000000000000000000000000000000000000000000000000081526004016107d990612537565b60405180910390fd5b505061083b565b61083a8460020160009054906101000a900473ffffffffffffffffffffffffffffffffffffffff16600260009054906101000a900473ffffffffffffffffffffffffffffffffffffffff1685611456565b5b5b600060048760405161084e9190612352565b908152602001604051809103902060000160006101000a81548160ff0219169083151502179055507f5b059b7fe1fea38d4de595079621498a365a8f1fa13e49af9f1e4b7197ab049a866040516108a59190611ddb565b60405180910390a16040518060400160405280601e81526020017f736176696e67732077697468647261776e207375636365737366756c6c790000815250945050505050919050565b60008060009054906101000a900473ffffffffffffffffffffffffffffffffffffffff1673ffffffffffffffffffffffffffffffffffffffff163373ffffffffffffffffffffffffffffffffffffffff1614610976576040517f229e1dbd00000000000000000000000000000000000000000000000000000000815260040160405180910390fd5b60048a6040516109869190612352565b908152602001604051809103902060000160009054906101000a900460ff16156109dc576040517fd63d1e4800000000000000000000000000000000000000000000000000000000815260040160405180910390fd5b87891015610a16576040517f6f7eac2600000000000000000000000000000000000000000000000000000000815260040160405180910390fd5b42891015610a50576040517f6f7eac2600000000000000000000000000000000000000000000000000000000815260040160405180910390fd5b60008590508415610aae57610aa860008054906101000a900473ffffffffffffffffffffffffffffffffffffffff16600160009054906101000a900473ffffffffffffffffffffffffffffffffffffffff1688611530565b50610b18565b600073ffffffffffffffffffffffffffffffffffffffff168773ffffffffffffffffffffffffffffffffffffffff1614610b1357610b0d60008054906101000a900473ffffffffffffffffffffffffffffffffffffffff168888611530565b50610b17565b3490505b5b6000610b27828c8c8888611679565b90506040518061010001604052806001151581526020018381526020018973ffffffffffffffffffffffffffffffffffffffff1681526020018281526020018b81526020018a60ff1681526020018c815260200187151581525060048d604051610b919190612352565b908152602001604051809103902060008201518160000160006101000a81548160ff0219169083151502179055506020820151816001015560408201518160020160006101000a81548173ffffffffffffffffffffffffffffffffffffffff021916908373ffffffffffffffffffffffffffffffffffffffff160217905550606082015181600301556080820151816004015560a0820151816005015560c0820151816006015560e08201518160070160006101000a81548160ff021916908315150217905550905050610c648c6116a4565b7f4ad85a69286191006ea05981ae1848070dbf232e5e00ffdda4b857c16097f0d78c888a604051610c9793929190612557565b60405180910390a16001925050509998505050505050505050565b60035481565b610cc06119fd565b600482604051610cd09190612352565b9081526020016040518091039020604051806101000160405290816000820160009054906101000a900460ff16151515158152602001600182015481526020016002820160009054906101000a900473ffffffffffffffffffffffffffffffffffffffff1673ffffffffffffffffffffffffffffffffffffffff1673ffffffffffffffffffffffffffffffffffffffff168152602001600382015481526020016004820154815260200160058201548152602001600682015481526020016007820160009054906101000a900460ff1615151515815250509050919050565b6000600482604051610dc19190612352565b9081526020016040518091039020600301549050919050565b600260009054906101000a900473ffffffffffffffffffffffffffffffffffffffff1681565b600160009054906101000a900473ffffffffffffffffffffffffffffffffffffffff1681565b610e2e611a5c565b600560405180602001604052908160008201805480602002602001604051908101604052809291908181526020016000905b82821015610f0c578382906000526020600020018054610e7f906125c4565b80601f0160208091040260200160405190810160405280929190818152602001828054610eab906125c4565b8015610ef85780601f10610ecd57610100808354040283529160200191610ef8565b820191906000526020600020905b815481529060010190602001808311610edb57829003601f168201915b505050505081526020019060010190610e60565b5050505081525050905090565b60008060009054906101000a900473ffffffffffffffffffffffffffffffffffffffff1673ffffffffffffffffffffffffffffffffffffffff163373ffffffffffffffffffffffffffffffffffffffff1614610fa1576040517f229e1dbd00000000000000000000000000000000000000000000000000000000815260040160405180910390fd5b6000600486604051610fb39190612352565b908152602001604051809103902090508060000160009054906101000a900460ff1661100b576040517fd63d1e4800000000000000000000000000000000000000000000000000000000815260040160405180910390fd5b8060060154421115611049576040517f6f7eac2600000000000000000000000000000000000000000000000000000000815260040160405180910390fd5b60008073ffffffffffffffffffffffffffffffffffffffff168260020160009054906101000a900473ffffffffffffffffffffffffffffffffffffffff1673ffffffffffffffffffffffffffffffffffffffff161490508160070160009054906101000a900460ff161561110a5761110460008054906101000a900473ffffffffffffffffffffffffffffffffffffffff16600160009054906101000a900473ffffffffffffffffffffffffffffffffffffffff1688611530565b506111ac565b806111645761115e60008054906101000a900473ffffffffffffffffffffffffffffffffffffffff168360020160009054906101000a900473ffffffffffffffffffffffffffffffffffffffff1688611530565b506111ab565b853410156111a7576040517f08c379a000000000000000000000000000000000000000000000000000000000815260040161119e90612667565b60405180910390fd5b3495505b5b60006111bf878460060154428989611679565b90508083600301546111d19190612687565b83600301819055508683600101546111e99190612687565b8360010181905550826004896040516112029190612352565b90815260200160405180910390206000820160009054906101000a900460ff168160000160006101000a81548160ff021916908315150217905550600182015481600101556002820160009054906101000a900473ffffffffffffffffffffffffffffffffffffffff168160020160006101000a81548173ffffffffffffffffffffffffffffffffffffffff021916908373ffffffffffffffffffffffffffffffffffffffff160217905550600382015481600301556004820154816004015560058201548160050155600682015481600601556007820160009054906101000a900460ff168160070160006101000a81548160ff0219169083151502179055509050507ff6b98d8e0d83f8b1d1ff03a2fa36aba2c77ccf20e4ff035c0cf4aa92762e9eec888885600101548660020160009054906101000a900473ffffffffffffffffffffffffffffffffffffffff1660405161136394939291906126bb565b60405180910390a182600301549350505050949350505050565b600060048260405161138f9190612352565b908152602001604051809103902060020160009054906101000a900473ffffffffffffffffffffffffffffffffffffffff169050919050565b6000808290508073ffffffffffffffffffffffffffffffffffffffff1663095ea7b386866040518363ffffffff1660e01b8152600401611409929190612707565b6020604051808303816000875af1158015611428573d6000803e3d6000fd5b505050506040513d601f19601f8201168201806040525081019061144c9190612745565b9150509392505050565b60008390508073ffffffffffffffffffffffffffffffffffffffff1663a9059cbb84846040518363ffffffff1660e01b8152600401611496929190612707565b6020604051808303816000875af11580156114b5573d6000803e3d6000fd5b505050506040513d601f19601f820116820180604052508101906114d99190612745565b503073ffffffffffffffffffffffffffffffffffffffff167f42856d0378dde02337bb59ae41747abc77ded8ebdbbc5cbdd1e53693b75549388484604051611522929190612707565b60405180910390a250505050565b6000818373ffffffffffffffffffffffffffffffffffffffff1663dd62ed3e86306040518363ffffffff1660e01b815260040161156e929190612772565b602060405180830381865afa15801561158b573d6000803e3d6000fd5b505050506040513d601f19601f820116820180604052508101906115af91906127b0565b10156115f0576040517f08c379a00000000000000000000000000000000000000000000000000000000081526004016115e790612829565b60405180910390fd5b8273ffffffffffffffffffffffffffffffffffffffff166323b872dd8530856040518463ffffffff1660e01b815260040161162d93929190612849565b6020604051808303816000875af115801561164c573d6000803e3d6000fd5b505050506040513d601f19601f820116820180604052508101906116709190612745565b90509392505050565b600061169286858761168b9190612398565b85856116df565b90508060038190555095945050505050565b6005600001819080600181540180825580915050600190039060005260206000200160009091909190915090816116db9190612a22565b5050565b6000806117166064611708868762e4e1c06116fa9190612398565b61179890919063ffffffff16565b6117b590919063ffffffff16565b9050600061173c848361172991906123cc565b6305f5e10061179890919063ffffffff16565b905060006117576301e133808861179890919063ffffffff16565b905061178b611786606483858c61176e91906123cc565b61177891906123cc565b61179890919063ffffffff16565b6117c9565b9350505050949350505050565b60006117ad83670de0b6b3a7640000846117eb565b905092915050565b60006117c18383611900565b905092915050565b6000670de0b6b3a764000082816117e3576117e261240e565b5b049050919050565b60008060008019858709858702925082811083820303915050600081036118265783828161181c5761181b61240e565b5b04925050506118f9565b83811061186c5780846040517f773cc18c000000000000000000000000000000000000000000000000000000008152600401611863929190612af4565b60405180910390fd5b60008486880990508281118203915080830392506000600186190186169050808604955080840493506001818260000304019050808302841793506000600287600302189050808702600203810290508087026002038102905080870260020381029050808702600203810290508087026002038102905080870260020381029050808502955050505050505b9392505050565b60008060008019848609848602925082811083820303915050670de0b6b3a7640000811061196557806040517fd31b340200000000000000000000000000000000000000000000000000000000815260040161195c9190611fa0565b60405180910390fd5b600080670de0b6b3a764000086880991506706f05b59d3b1ffff82119050600083036119b15780670de0b6b3a764000085816119a4576119a361240e565b5b04019450505050506119f7565b807faccb18165bd6fe31ae1cf318dc5b51eee0e1ba569b88cd74c1773b91fac1066960016204000080600003040186851186030262040000858803041702019450505050505b92915050565b60405180610100016040528060001515815260200160008152602001600073ffffffffffffffffffffffffffffffffffffffff168152602001600081526020016000815260200160008152602001600081526020016000151581525090565b6040518060200160405280606081525090565b6000604051905090565b600080fd5b600080fd5b600080fd5b600080fd5b6000601f19601f8301169050919050565b7f4e487b7100000000000000000000000000000000000000000000000000000000600052604160045260246000fd5b611ad682611a8d565b810181811067ffffffffffffffff82111715611af557611af4611a9e565b5b80604052505050565b6000611b08611a6f565b9050611b148282611acd565b919050565b600067ffffffffffffffff821115611b3457611b33611a9e565b5b611b3d82611a8d565b9050602081019050919050565b82818337600083830152505050565b6000611b6c611b6784611b19565b611afe565b905082815260208101848484011115611b8857611b87611a88565b5b611b93848285611b4a565b509392505050565b600082601f830112611bb057611baf611a83565b5b8135611bc0848260208601611b59565b91505092915050565b600060208284031215611bdf57611bde611a79565b5b600082013567ffffffffffffffff811115611bfd57611bfc611a7e565b5b611c0984828501611b9b565b91505092915050565b60008115159050919050565b611c2781611c12565b82525050565b6000819050919050565b611c4081611c2d565b82525050565b600073ffffffffffffffffffffffffffffffffffffffff82169050919050565b6000611c7182611c46565b9050919050565b611c8181611c66565b82525050565b600061010082019050611c9d600083018b611c1e565b611caa602083018a611c37565b611cb76040830189611c78565b611cc46060830188611c37565b611cd16080830187611c37565b611cde60a0830186611c37565b611ceb60c0830185611c37565b611cf860e0830184611c1e565b9998505050505050505050565b6000602082019050611d1a6000830184611c1e565b92915050565b6000611d2b82611c46565b9050919050565b611d3b81611d20565b82525050565b6000602082019050611d566000830184611d32565b92915050565b600081519050919050565b600082825260208201905092915050565b60005b83811015611d96578082015181840152602081019050611d7b565b60008484015250505050565b6000611dad82611d5c565b611db78185611d67565b9350611dc7818560208601611d78565b611dd081611a8d565b840191505092915050565b60006020820190508181036000830152611df58184611da2565b905092915050565b611e0681611c2d565b8114611e1157600080fd5b50565b600081359050611e2381611dfd565b92915050565b600060ff82169050919050565b611e3f81611e29565b8114611e4a57600080fd5b50565b600081359050611e5c81611e36565b92915050565b611e6b81611c66565b8114611e7657600080fd5b50565b600081359050611e8881611e62565b92915050565b611e9781611c12565b8114611ea257600080fd5b50565b600081359050611eb481611e8e565b92915050565b60008060008060008060008060006101208a8c031215611edd57611edc611a79565b5b60008a013567ffffffffffffffff811115611efb57611efa611a7e565b5b611f078c828d01611b9b565b9950506020611f188c828d01611e14565b9850506040611f298c828d01611e14565b9750506060611f3a8c828d01611e4d565b9650506080611f4b8c828d01611e79565b95505060a0611f5c8c828d01611e14565b94505060c0611f6d8c828d01611ea5565b93505060e0611f7e8c828d01611e14565b925050610100611f908c828d01611e14565b9150509295985092959850929598565b6000602082019050611fb56000830184611c37565b92915050565b611fc481611c12565b82525050565b611fd381611c2d565b82525050565b611fe281611c66565b82525050565b61010082016000820151611fff6000850182611fbb565b5060208201516120126020850182611fca565b5060408201516120256040850182611fd9565b5060608201516120386060850182611fca565b50608082015161204b6080850182611fca565b5060a082015161205e60a0850182611fca565b5060c082015161207160c0850182611fca565b5060e082015161208460e0850182611fbb565b50505050565b6000610100820190506120a06000830184611fe8565b92915050565b60006020820190506120bb6000830184611c78565b92915050565b6000819050919050565b60006120e66120e16120dc84611c46565b6120c1565b611c46565b9050919050565b60006120f8826120cb565b9050919050565b600061210a826120ed565b9050919050565b61211a816120ff565b82525050565b60006020820190506121356000830184612111565b92915050565b600081519050919050565b600082825260208201905092915050565b6000819050602082019050919050565b600082825260208201905092915050565b600061218382611d5c565b61218d8185612167565b935061219d818560208601611d78565b6121a681611a8d565b840191505092915050565b60006121bd8383612178565b905092915050565b6000602082019050919050565b60006121dd8261213b565b6121e78185612146565b9350836020820285016121f985612157565b8060005b85811015612235578484038952815161221685826121b1565b9450612221836121c5565b925060208a019950506001810190506121fd565b50829750879550505050505092915050565b6000602083016000830151848203600086015261226482826121d2565b9150508091505092915050565b6000602082019050818103600083015261228b8184612247565b905092915050565b600080600080608085870312156122ad576122ac611a79565b5b600085013567ffffffffffffffff8111156122cb576122ca611a7e565b5b6122d787828801611b9b565b94505060206122e887828801611e14565b93505060406122f987828801611e14565b925050606061230a87828801611e14565b91505092959194509250565b600081905092915050565b600061232c82611d5c565b6123368185612316565b9350612346818560208601611d78565b80840191505092915050565b600061235e8284612321565b915081905092915050565b7f4e487b7100000000000000000000000000000000000000000000000000000000600052601160045260246000fd5b60006123a382611c2d565b91506123ae83611c2d565b92508282039050818111156123c6576123c5612369565b5b92915050565b60006123d782611c2d565b91506123e283611c2d565b92508282026123f081611c2d565b9150828204841483151761240757612406612369565b5b5092915050565b7f4e487b7100000000000000000000000000000000000000000000000000000000600052601260045260246000fd5b600061244882611c2d565b915061245383611c2d565b9250826124635761246261240e565b5b828204905092915050565b60006060820190506124836000830186611c78565b6124906020830185611c37565b61249d6040830184611c78565b949350505050565b600081905092915050565b50565b60006124c06000836124a5565b91506124cb826124b0565b600082019050919050565b60006124e1826124b3565b9150819050919050565b7f436f756c646e27742073656e642066756e647300000000000000000000000000600082015250565b6000612521601383611d67565b915061252c826124eb565b602082019050919050565b6000602082019050818103600083015261255081612514565b9050919050565b600060608201905081810360008301526125718186611da2565b90506125806020830185611c37565b61258d6040830184611c78565b949350505050565b7f4e487b7100000000000000000000000000000000000000000000000000000000600052602260045260246000fd5b600060028204905060018216806125dc57607f821691505b6020821081036125ef576125ee612595565b5b50919050565b7f496e76616c696420736176696e6720696e6372656d656e742076616c7565207360008201527f656e740000000000000000000000000000000000000000000000000000000000602082015250565b6000612651602383611d67565b915061265c826125f5565b604082019050919050565b6000602082019050818103600083015261268081612644565b9050919050565b600061269282611c2d565b915061269d83611c2d565b92508282019050808211156126b5576126b4612369565b5b92915050565b600060808201905081810360008301526126d58187611da2565b90506126e46020830186611c37565b6126f16040830185611c37565b6126fe6060830184611c78565b95945050505050565b600060408201905061271c6000830185611c78565b6127296020830184611c37565b9392505050565b60008151905061273f81611e8e565b92915050565b60006020828403121561275b5761275a611a79565b5b600061276984828501612730565b91505092915050565b60006040820190506127876000830185611c78565b6127946020830184611c78565b9392505050565b6000815190506127aa81611dfd565b92915050565b6000602082840312156127c6576127c5611a79565b5b60006127d48482850161279b565b91505092915050565b7f546f6b656e20636f756c64206e6f742062652077697468647261776e00000000600082015250565b6000612813601c83611d67565b915061281e826127dd565b602082019050919050565b6000602082019050818103600083015261284281612806565b9050919050565b600060608201905061285e6000830186611c78565b61286b6020830185611c78565b6128786040830184611c37565b949350505050565b60008190508160005260206000209050919050565b60006020601f8301049050919050565b600082821b905092915050565b6000600883026128e27fffffffffffffffffffffffffffffffffffffffffffffffffffffffffffffffff826128a5565b6128ec86836128a5565b95508019841693508086168417925050509392505050565b600061291f61291a61291584611c2d565b6120c1565b611c2d565b9050919050565b6000819050919050565b61293983612904565b61294d61294582612926565b8484546128b2565b825550505050565b600090565b612962612955565b61296d818484612930565b505050565b5b818110156129915761298660008261295a565b600181019050612973565b5050565b601f8211156129d6576129a781612880565b6129b084612895565b810160208510156129bf578190505b6129d36129cb85612895565b830182612972565b50505b505050565b600082821c905092915050565b60006129f9600019846008026129db565b1980831691505092915050565b6000612a1283836129e8565b9150826002028217905092915050565b612a2b82611d5c565b67ffffffffffffffff811115612a4457612a43611a9e565b5b612a4e82546125c4565b612a59828285612995565b600060209050601f831160018114612a8c5760008415612a7a578287015190505b612a848582612a06565b865550612aec565b601f198416612a9a86612880565b60005b82811015612ac257848901518255600182019150602085019450602081019050612a9d565b86831015612adf5784890151612adb601f8916826129e8565b8355505b6001600288020188555050505b505050505050565b6000604082019050612b096000830185611c37565b612b166020830184611c37565b939250505056fea2646970667358221220885beafeeb4da6254d0208288c0861b6740cff4a82cd6e9b2876416b78c1667764736f6c63430008170033a264697066735822122040adf3fd6796c497934618f20f2c8d8dd1c4ed9edbf32d2f0b9bc180e8bc9abf64736f6c63430008170033","opcodes":"PUSH1 0x80 PUSH1 0x40 MSTORE PUSH1 0x40 MLOAD PUSH3 0x5182 CODESIZE SUB DUP1 PUSH3 0x5182 DUP4 CODECOPY DUP2 DUP2 ADD PUSH1 0x40 MSTORE DUP2 ADD SWAP1 PUSH3 0x29 SWAP2 SWAP1 PUSH3 0x182 JUMP JUMPDEST DUP2 PUSH1 0x0 DUP1 PUSH2 0x100 EXP DUP2 SLOAD DUP2 PUSH20 0xFFFFFFFFFFFFFFFFFFFFFFFFFFFFFFFFFFFFFFFF MUL NOT AND SWAP1 DUP4 PUSH20 0xFFFFFFFFFFFFFFFFFFFFFFFFFFFFFFFFFFFFFFFF AND MUL OR SWAP1 SSTORE POP DUP1 PUSH1 0x1 PUSH1 0x0 PUSH2 0x100 EXP DUP2 SLOAD DUP2 PUSH20 0xFFFFFFFFFFFFFFFFFFFFFFFFFFFFFFFFFFFFFFFF MUL NOT AND SWAP1 DUP4 PUSH20 0xFFFFFFFFFFFFFFFFFFFFFFFFFFFFFFFFFFFFFFFF AND MUL OR SWAP1 SSTORE POP CALLER PUSH1 0x2 PUSH1 0x0 PUSH2 0x100 EXP DUP2 SLOAD DUP2 PUSH20 0xFFFFFFFFFFFFFFFFFFFFFFFFFFFFFFFFFFFFFFFF MUL NOT AND SWAP1 DUP4 PUSH20 0xFFFFFFFFFFFFFFFFFFFFFFFFFFFFFFFFFFFFFFFF AND MUL OR SWAP1 SSTORE POP PUSH1 0x0 PUSH1 0x3 DUP2 SWAP1 SSTORE POP PUSH1 0x0 PUSH1 0x5 DUP2 SWAP1 SSTORE POP PUSH3 0x989680 PUSH1 0x6 DUP2 SWAP1 SSTORE POP PUSH4 0x1C9C380 PUSH1 0x7 DUP2 SWAP1 SSTORE POP POP POP PUSH3 0x1C9 JUMP JUMPDEST PUSH1 0x0 DUP1 REVERT JUMPDEST PUSH1 0x0 PUSH20 0xFFFFFFFFFFFFFFFFFFFFFFFFFFFFFFFFFFFFFFFF DUP3 AND SWAP1 POP SWAP2 SWAP1 POP JUMP JUMPDEST PUSH1 0x0 PUSH3 0x14A DUP3 PUSH3 0x11D JUMP JUMPDEST SWAP1 POP SWAP2 SWAP1 POP JUMP JUMPDEST PUSH3 0x15C DUP2 PUSH3 0x13D JUMP JUMPDEST DUP2 EQ PUSH3 0x168 JUMPI PUSH1 0x0 DUP1 REVERT JUMPDEST POP JUMP JUMPDEST PUSH1 0x0 DUP2 MLOAD SWAP1 POP PUSH3 0x17C DUP2 PUSH3 0x151 JUMP JUMPDEST SWAP3 SWAP2 POP POP JUMP JUMPDEST PUSH1 0x0 DUP1 PUSH1 0x40 DUP4 DUP6 SUB SLT ISZERO PUSH3 0x19C JUMPI PUSH3 0x19B PUSH3 0x118 JUMP JUMPDEST JUMPDEST PUSH1 0x0 PUSH3 0x1AC DUP6 DUP3 DUP7 ADD PUSH3 0x16B JUMP JUMPDEST SWAP3 POP POP PUSH1 0x20 PUSH3 0x1BF DUP6 DUP3 DUP7 ADD PUSH3 0x16B JUMP JUMPDEST SWAP2 POP POP SWAP3 POP SWAP3 SWAP1 POP JUMP JUMPDEST PUSH2 0x4FA9 DUP1 PUSH3 0x1D9 PUSH1 0x0 CODECOPY PUSH1 0x0 RETURN INVALID PUSH1 0x80 PUSH1 0x40 MSTORE PUSH1 0x4 CALLDATASIZE LT PUSH3 0x11B JUMPI PUSH1 0x0 CALLDATALOAD PUSH1 0xE0 SHR DUP1 PUSH4 0x84762B0B GT PUSH3 0xA3 JUMPI DUP1 PUSH4 0xD365A08E GT PUSH3 0x6D JUMPI DUP1 PUSH4 0xD365A08E EQ PUSH3 0x34C JUMPI DUP1 PUSH4 0xDE35C372 EQ PUSH3 0x37C JUMPI DUP1 PUSH4 0xE04605FD EQ PUSH3 0x39C JUMPI DUP1 PUSH4 0xEA413672 EQ PUSH3 0x3CC JUMPI DUP1 PUSH4 0xFED0B925 EQ PUSH3 0x3FC JUMPI PUSH3 0x123 JUMP JUMPDEST DUP1 PUSH4 0x84762B0B EQ PUSH3 0x28E JUMPI DUP1 PUSH4 0x992642E5 EQ PUSH3 0x2BE JUMPI DUP1 PUSH4 0xA9E944AC EQ PUSH3 0x2EE JUMPI DUP1 PUSH4 0xBF66BFC7 EQ PUSH3 0x31C JUMPI PUSH3 0x123 JUMP JUMPDEST DUP1 PUSH4 0x372F9101 GT PUSH3 0xE5 JUMPI DUP1 PUSH4 0x372F9101 EQ PUSH3 0x1CA JUMPI DUP1 PUSH4 0x4C3FA304 EQ PUSH3 0x20E JUMPI DUP1 PUSH4 0x6405350A EQ PUSH3 0x23E JUMPI DUP1 PUSH4 0x66666AA9 EQ PUSH3 0x25E JUMPI PUSH3 0x123 JUMP JUMPDEST DUP1 PUSH4 0x2500739 EQ PUSH3 0x128 JUMPI DUP1 PUSH4 0x7973CCF EQ PUSH3 0x158 JUMPI DUP1 PUSH4 0x16F94D5D EQ PUSH3 0x188 JUMPI DUP1 PUSH4 0x1FDC181F EQ PUSH3 0x1AA JUMPI PUSH3 0x123 JUMP JUMPDEST CALLDATASIZE PUSH3 0x123 JUMPI STOP JUMPDEST PUSH1 0x0 DUP1 REVERT JUMPDEST CALLVALUE DUP1 ISZERO PUSH3 0x135 JUMPI PUSH1 0x0 DUP1 REVERT JUMPDEST POP PUSH3 0x140 PUSH3 0x42C JUMP JUMPDEST PUSH1 0x40 MLOAD PUSH3 0x14F SWAP2 SWAP1 PUSH3 0x15A1 JUMP JUMPDEST PUSH1 0x40 MLOAD DUP1 SWAP2 SUB SWAP1 RETURN JUMPDEST CALLVALUE DUP1 ISZERO PUSH3 0x165 JUMPI PUSH1 0x0 DUP1 REVERT JUMPDEST POP PUSH3 0x170 PUSH3 0x432 JUMP JUMPDEST PUSH1 0x40 MLOAD PUSH3 0x17F SWAP2 SWAP1 PUSH3 0x15A1 JUMP JUMPDEST PUSH1 0x40 MLOAD DUP1 SWAP2 SUB SWAP1 RETURN JUMPDEST PUSH3 0x192 PUSH3 0x438 JUMP JUMPDEST PUSH1 0x40 MLOAD PUSH3 0x1A1 SWAP2 SWAP1 PUSH3 0x1603 JUMP JUMPDEST PUSH1 0x40 MLOAD DUP1 SWAP2 SUB SWAP1 RETURN JUMPDEST PUSH3 0x1C8 PUSH1 0x4 DUP1 CALLDATASIZE SUB DUP2 ADD SWAP1 PUSH3 0x1C2 SWAP2 SWAP1 PUSH3 0x17F8 JUMP JUMPDEST PUSH3 0x65F JUMP JUMPDEST STOP JUMPDEST CALLVALUE DUP1 ISZERO PUSH3 0x1D7 JUMPI PUSH1 0x0 DUP1 REVERT JUMPDEST POP PUSH3 0x1F6 PUSH1 0x4 DUP1 CALLDATASIZE SUB DUP2 ADD SWAP1 PUSH3 0x1F0 SWAP2 SWAP1 PUSH3 0x1873 JUMP JUMPDEST PUSH3 0xA33 JUMP JUMPDEST PUSH1 0x40 MLOAD PUSH3 0x205 SWAP2 SWAP1 PUSH3 0x18E1 JUMP JUMPDEST PUSH1 0x40 MLOAD DUP1 SWAP2 SUB SWAP1 RETURN JUMPDEST CALLVALUE DUP1 ISZERO PUSH3 0x21B JUMPI PUSH1 0x0 DUP1 REVERT JUMPDEST POP PUSH3 0x226 PUSH3 0xBF2 JUMP JUMPDEST PUSH1 0x40 MLOAD PUSH3 0x235 SWAP2 SWAP1 PUSH3 0x15A1 JUMP JUMPDEST PUSH1 0x40 MLOAD DUP1 SWAP2 SUB SWAP1 RETURN JUMPDEST PUSH3 0x25C PUSH1 0x4 DUP1 CALLDATASIZE SUB DUP2 ADD SWAP1 PUSH3 0x256 SWAP2 SWAP1 PUSH3 0x196D JUMP JUMPDEST PUSH3 0xBF8 JUMP JUMPDEST STOP JUMPDEST CALLVALUE DUP1 ISZERO PUSH3 0x26B JUMPI PUSH1 0x0 DUP1 REVERT JUMPDEST POP PUSH3 0x276 PUSH3 0xEF6 JUMP JUMPDEST PUSH1 0x40 MLOAD PUSH3 0x285 SWAP2 SWAP1 PUSH3 0x15A1 JUMP JUMPDEST PUSH1 0x40 MLOAD DUP1 SWAP2 SUB SWAP1 RETURN JUMPDEST CALLVALUE DUP1 ISZERO PUSH3 0x29B JUMPI PUSH1 0x0 DUP1 REVERT JUMPDEST POP PUSH3 0x2A6 PUSH3 0xEFC JUMP JUMPDEST PUSH1 0x40 MLOAD PUSH3 0x2B5 SWAP2 SWAP1 PUSH3 0x15A1 JUMP JUMPDEST PUSH1 0x40 MLOAD DUP1 SWAP2 SUB SWAP1 RETURN JUMPDEST CALLVALUE DUP1 ISZERO PUSH3 0x2CB JUMPI PUSH1 0x0 DUP1 REVERT JUMPDEST POP PUSH3 0x2D6 PUSH3 0xF06 JUMP JUMPDEST PUSH1 0x40 MLOAD PUSH3 0x2E5 SWAP2 SWAP1 PUSH3 0x1A93 JUMP JUMPDEST PUSH1 0x40 MLOAD DUP1 SWAP2 SUB SWAP1 RETURN JUMPDEST CALLVALUE DUP1 ISZERO PUSH3 0x2FB JUMPI PUSH1 0x0 DUP1 REVERT JUMPDEST POP PUSH3 0x31A PUSH1 0x4 DUP1 CALLDATASIZE SUB DUP2 ADD SWAP1 PUSH3 0x314 SWAP2 SWAP1 PUSH3 0x1AB0 JUMP JUMPDEST PUSH3 0xF2A JUMP JUMPDEST STOP JUMPDEST CALLVALUE DUP1 ISZERO PUSH3 0x329 JUMPI PUSH1 0x0 DUP1 REVERT JUMPDEST POP PUSH3 0x334 PUSH3 0xFC4 JUMP JUMPDEST PUSH1 0x40 MLOAD PUSH3 0x343 SWAP2 SWAP1 PUSH3 0x15A1 JUMP JUMPDEST PUSH1 0x40 MLOAD DUP1 SWAP2 SUB SWAP1 RETURN JUMPDEST CALLVALUE DUP1 ISZERO PUSH3 0x359 JUMPI PUSH1 0x0 DUP1 REVERT JUMPDEST POP PUSH3 0x364 PUSH3 0xFDC JUMP JUMPDEST PUSH1 0x40 MLOAD PUSH3 0x373 SWAP2 SWAP1 PUSH3 0x1603 JUMP JUMPDEST PUSH1 0x40 MLOAD DUP1 SWAP2 SUB SWAP1 RETURN JUMPDEST PUSH3 0x39A PUSH1 0x4 DUP1 CALLDATASIZE SUB DUP2 ADD SWAP1 PUSH3 0x394 SWAP2 SWAP1 PUSH3 0x1AF7 JUMP JUMPDEST PUSH3 0x1002 JUMP JUMPDEST STOP JUMPDEST CALLVALUE DUP1 ISZERO PUSH3 0x3A9 JUMPI PUSH1 0x0 DUP1 REVERT JUMPDEST POP PUSH3 0x3B4 PUSH3 0x113C JUMP JUMPDEST PUSH1 0x40 MLOAD PUSH3 0x3C3 SWAP2 SWAP1 PUSH3 0x1A93 JUMP JUMPDEST PUSH1 0x40 MLOAD DUP1 SWAP2 SUB SWAP1 RETURN JUMPDEST CALLVALUE DUP1 ISZERO PUSH3 0x3D9 JUMPI PUSH1 0x0 DUP1 REVERT JUMPDEST POP PUSH3 0x3E4 PUSH3 0x1162 JUMP JUMPDEST PUSH1 0x40 MLOAD PUSH3 0x3F3 SWAP2 SWAP1 PUSH3 0x1603 JUMP JUMPDEST PUSH1 0x40 MLOAD DUP1 SWAP2 SUB SWAP1 RETURN JUMPDEST CALLVALUE DUP1 ISZERO PUSH3 0x409 JUMPI PUSH1 0x0 DUP1 REVERT JUMPDEST POP PUSH3 0x414 PUSH3 0x11C9 JUMP JUMPDEST PUSH1 0x40 MLOAD PUSH3 0x423 SWAP2 SWAP1 PUSH3 0x15A1 JUMP JUMPDEST PUSH1 0x40 MLOAD DUP1 SWAP2 SUB SWAP1 RETURN JUMPDEST PUSH1 0x7 SLOAD DUP2 JUMP JUMPDEST PUSH1 0x5 SLOAD DUP2 JUMP JUMPDEST PUSH1 0x0 DUP1 CALLER SWAP1 POP PUSH1 0x0 PUSH1 0x4 PUSH1 0x0 DUP4 PUSH20 0xFFFFFFFFFFFFFFFFFFFFFFFFFFFFFFFFFFFFFFFF AND PUSH20 0xFFFFFFFFFFFFFFFFFFFFFFFFFFFFFFFFFFFFFFFF AND DUP2 MSTORE PUSH1 0x20 ADD SWAP1 DUP2 MSTORE PUSH1 0x20 ADD PUSH1 0x0 KECCAK256 PUSH1 0x0 SWAP1 SLOAD SWAP1 PUSH2 0x100 EXP SWAP1 DIV PUSH20 0xFFFFFFFFFFFFFFFFFFFFFFFFFFFFFFFFFFFFFFFF AND SWAP1 POP PUSH1 0x0 PUSH20 0xFFFFFFFFFFFFFFFFFFFFFFFFFFFFFFFFFFFFFFFF AND DUP2 PUSH20 0xFFFFFFFFFFFFFFFFFFFFFFFFFFFFFFFFFFFFFFFF AND EQ PUSH3 0x4E2 JUMPI DUP1 SWAP3 POP POP POP PUSH3 0x65C JUMP JUMPDEST PUSH6 0x5AF3107A4000 CALLVALUE LT ISZERO PUSH3 0x523 JUMPI PUSH1 0x40 MLOAD PUSH32 0xCB6E851C00000000000000000000000000000000000000000000000000000000 DUP2 MSTORE PUSH1 0x4 ADD PUSH1 0x40 MLOAD DUP1 SWAP2 SUB SWAP1 REVERT JUMPDEST PUSH1 0x0 CALLER PUSH1 0x0 DUP1 SLOAD SWAP1 PUSH2 0x100 EXP SWAP1 DIV PUSH20 0xFFFFFFFFFFFFFFFFFFFFFFFFFFFFFFFFFFFFFFFF AND PUSH1 0x40 MLOAD PUSH3 0x555 SWAP1 PUSH3 0x1578 JUMP JUMPDEST PUSH3 0x562 SWAP3 SWAP2 SWAP1 PUSH3 0x1B53 JUMP JUMPDEST PUSH1 0x40 MLOAD DUP1 SWAP2 SUB SWAP1 PUSH1 0x0 CREATE DUP1 ISZERO DUP1 ISZERO PUSH3 0x57F JUMPI RETURNDATASIZE PUSH1 0x0 DUP1 RETURNDATACOPY RETURNDATASIZE PUSH1 0x0 REVERT JUMPDEST POP SWAP1 POP DUP1 PUSH1 0x4 PUSH1 0x0 DUP6 PUSH20 0xFFFFFFFFFFFFFFFFFFFFFFFFFFFFFFFFFFFFFFFF AND PUSH20 0xFFFFFFFFFFFFFFFFFFFFFFFFFFFFFFFFFFFFFFFF AND DUP2 MSTORE PUSH1 0x20 ADD SWAP1 DUP2 MSTORE PUSH1 0x20 ADD PUSH1 0x0 KECCAK256 PUSH1 0x0 PUSH2 0x100 EXP DUP2 SLOAD DUP2 PUSH20 0xFFFFFFFFFFFFFFFFFFFFFFFFFFFFFFFFFFFFFFFF MUL NOT AND SWAP1 DUP4 PUSH20 0xFFFFFFFFFFFFFFFFFFFFFFFFFFFFFFFFFFFFFFFF AND MUL OR SWAP1 SSTORE POP PUSH1 0x1 PUSH1 0x5 PUSH1 0x0 DUP3 DUP3 SLOAD PUSH3 0x615 SWAP2 SWAP1 PUSH3 0x1BAF JUMP JUMPDEST SWAP3 POP POP DUP2 SWAP1 SSTORE POP PUSH32 0xC5C0C4D53B63790E32770CF47FD115D706000FD7AB63FBDC8D176C5020D6B46 DUP4 PUSH1 0x40 MLOAD PUSH3 0x64D SWAP2 SWAP1 PUSH3 0x1603 JUMP JUMPDEST PUSH1 0x40 MLOAD DUP1 SWAP2 SUB SWAP1 LOG1 DUP1 SWAP4 POP POP POP POP JUMPDEST SWAP1 JUMP JUMPDEST CALLER PUSH1 0x0 PUSH20 0xFFFFFFFFFFFFFFFFFFFFFFFFFFFFFFFFFFFFFFFF AND PUSH1 0x4 PUSH1 0x0 DUP4 PUSH20 0xFFFFFFFFFFFFFFFFFFFFFFFFFFFFFFFFFFFFFFFF AND PUSH20 0xFFFFFFFFFFFFFFFFFFFFFFFFFFFFFFFFFFFFFFFF AND DUP2 MSTORE PUSH1 0x20 ADD SWAP1 DUP2 MSTORE PUSH1 0x20 ADD PUSH1 0x0 KECCAK256 PUSH1 0x0 SWAP1 SLOAD SWAP1 PUSH2 0x100 EXP SWAP1 DIV PUSH20 0xFFFFFFFFFFFFFFFFFFFFFFFFFFFFFFFFFFFFFFFF AND PUSH20 0xFFFFFFFFFFFFFFFFFFFFFFFFFFFFFFFFFFFFFFFF AND SUB PUSH3 0x726 JUMPI PUSH1 0x40 MLOAD PUSH32 0x2163950F00000000000000000000000000000000000000000000000000000000 DUP2 MSTORE PUSH1 0x4 ADD PUSH1 0x40 MLOAD DUP1 SWAP2 SUB SWAP1 REVERT JUMPDEST PUSH1 0x0 PUSH1 0x4 PUSH1 0x0 CALLER PUSH20 0xFFFFFFFFFFFFFFFFFFFFFFFFFFFFFFFFFFFFFFFF AND PUSH20 0xFFFFFFFFFFFFFFFFFFFFFFFFFFFFFFFFFFFFFFFF AND DUP2 MSTORE PUSH1 0x20 ADD SWAP1 DUP2 MSTORE PUSH1 0x20 ADD PUSH1 0x0 KECCAK256 PUSH1 0x0 SWAP1 SLOAD SWAP1 PUSH2 0x100 EXP SWAP1 DIV PUSH20 0xFFFFFFFFFFFFFFFFFFFFFFFFFFFFFFFFFFFFFFFF AND SWAP1 POP PUSH1 0x0 DUP2 SWAP1 POP PUSH1 0x0 DUP2 PUSH20 0xFFFFFFFFFFFFFFFFFFFFFFFFFFFFFFFFFFFFFFFF AND PUSH4 0xE18F5F65 DUP9 PUSH1 0x40 MLOAD DUP3 PUSH4 0xFFFFFFFF AND PUSH1 0xE0 SHL DUP2 MSTORE PUSH1 0x4 ADD PUSH3 0x7CC SWAP2 SWAP1 PUSH3 0x1C73 JUMP JUMPDEST PUSH1 0x20 PUSH1 0x40 MLOAD DUP1 DUP4 SUB DUP2 DUP7 GAS STATICCALL ISZERO DUP1 ISZERO PUSH3 0x7EA JUMPI RETURNDATASIZE PUSH1 0x0 DUP1 RETURNDATACOPY RETURNDATASIZE PUSH1 0x0 REVERT JUMPDEST POP POP POP POP PUSH1 0x40 MLOAD RETURNDATASIZE PUSH1 0x1F NOT PUSH1 0x1F DUP3 ADD AND DUP3 ADD DUP1 PUSH1 0x40 MSTORE POP DUP2 ADD SWAP1 PUSH3 0x810 SWAP2 SWAP1 PUSH3 0x1CAE JUMP JUMPDEST SWAP1 POP PUSH1 0x0 DUP1 PUSH20 0xFFFFFFFFFFFFFFFFFFFFFFFFFFFFFFFFFFFFFFFF AND DUP3 PUSH20 0xFFFFFFFFFFFFFFFFFFFFFFFFFFFFFFFFFFFFFFFF AND EQ SWAP1 POP PUSH1 0x0 DUP7 SWAP1 POP PUSH1 0x0 DUP5 PUSH20 0xFFFFFFFFFFFFFFFFFFFFFFFFFFFFFFFFFFFFFFFF AND PUSH4 0x1BB862A5 DUP12 PUSH1 0x40 MLOAD DUP3 PUSH4 0xFFFFFFFF AND PUSH1 0xE0 SHL DUP2 MSTORE PUSH1 0x4 ADD PUSH3 0x887 SWAP2 SWAP1 PUSH3 0x1C73 JUMP JUMPDEST PUSH1 0x20 PUSH1 0x40 MLOAD DUP1 DUP4 SUB DUP2 DUP7 GAS STATICCALL ISZERO DUP1 ISZERO PUSH3 0x8A5 JUMPI RETURNDATASIZE PUSH1 0x0 DUP1 RETURNDATACOPY RETURNDATASIZE PUSH1 0x0 REVERT JUMPDEST POP POP POP POP PUSH1 0x40 MLOAD RETURNDATASIZE PUSH1 0x1F NOT PUSH1 0x1F DUP3 ADD AND DUP3 ADD DUP1 PUSH1 0x40 MSTORE POP DUP2 ADD SWAP1 PUSH3 0x8CB SWAP2 SWAP1 PUSH3 0x1CF7 JUMP JUMPDEST SWAP1 POP DUP1 ISZERO PUSH3 0x8F8 JUMPI PUSH1 0x0 DUP1 SLOAD SWAP1 PUSH2 0x100 EXP SWAP1 DIV PUSH20 0xFFFFFFFFFFFFFFFFFFFFFFFFFFFFFFFFFFFFFFFF AND SWAP9 POP JUMPDEST DUP3 PUSH3 0x953 JUMPI PUSH3 0x90B DUP7 DUP4 DUP12 PUSH3 0x11D3 JUMP JUMPDEST PUSH3 0x94D JUMPI PUSH1 0x40 MLOAD PUSH32 0x8C379A000000000000000000000000000000000000000000000000000000000 DUP2 MSTORE PUSH1 0x4 ADD PUSH3 0x944 SWAP1 PUSH3 0x1D79 JUMP JUMPDEST PUSH1 0x40 MLOAD DUP1 SWAP2 SUB SWAP1 REVERT JUMPDEST PUSH3 0x957 JUMP JUMPDEST CALLVALUE SWAP2 POP JUMPDEST DUP5 PUSH20 0xFFFFFFFFFFFFFFFFFFFFFFFFFFFFFFFFFFFFFFFF AND PUSH4 0xDC2379B9 DUP5 PUSH3 0x994 JUMPI PUSH1 0x14 PUSH6 0x5AF3107A4000 PUSH3 0x98E SWAP2 SWAP1 PUSH3 0x1DCA JUMP JUMPDEST PUSH3 0x9B7 JUMP JUMPDEST DUP4 PUSH1 0x14 PUSH6 0x5AF3107A4000 PUSH3 0x9AA SWAP2 SWAP1 PUSH3 0x1DCA JUMP JUMPDEST PUSH3 0x9B6 SWAP2 SWAP1 PUSH3 0x1BAF JUMP JUMPDEST JUMPDEST DUP13 DUP12 PUSH1 0x6 SLOAD PUSH1 0x7 SLOAD PUSH1 0x40 MLOAD DUP7 PUSH4 0xFFFFFFFF AND PUSH1 0xE0 SHL DUP2 MSTORE PUSH1 0x4 ADD PUSH3 0x9E0 SWAP5 SWAP4 SWAP3 SWAP2 SWAP1 PUSH3 0x1E02 JUMP JUMPDEST PUSH1 0x20 PUSH1 0x40 MLOAD DUP1 DUP4 SUB DUP2 DUP6 DUP9 GAS CALL ISZERO DUP1 ISZERO PUSH3 0x9FF JUMPI RETURNDATASIZE PUSH1 0x0 DUP1 RETURNDATACOPY RETURNDATASIZE PUSH1 0x0 REVERT JUMPDEST POP POP POP POP POP PUSH1 0x40 MLOAD RETURNDATASIZE PUSH1 0x1F NOT PUSH1 0x1F DUP3 ADD AND DUP3 ADD DUP1 PUSH1 0x40 MSTORE POP DUP2 ADD SWAP1 PUSH3 0xA26 SWAP2 SWAP1 PUSH3 0x1E6D JUMP JUMPDEST POP POP POP POP POP POP POP POP POP POP POP JUMP JUMPDEST PUSH1 0x0 CALLER PUSH1 0x0 PUSH20 0xFFFFFFFFFFFFFFFFFFFFFFFFFFFFFFFFFFFFFFFF AND PUSH1 0x4 PUSH1 0x0 DUP4 PUSH20 0xFFFFFFFFFFFFFFFFFFFFFFFFFFFFFFFFFFFFFFFF AND PUSH20 0xFFFFFFFFFFFFFFFFFFFFFFFFFFFFFFFFFFFFFFFF AND DUP2 MSTORE PUSH1 0x20 ADD SWAP1 DUP2 MSTORE PUSH1 0x20 ADD PUSH1 0x0 KECCAK256 PUSH1 0x0 SWAP1 SLOAD SWAP1 PUSH2 0x100 EXP SWAP1 DIV PUSH20 0xFFFFFFFFFFFFFFFFFFFFFFFFFFFFFFFFFFFFFFFF AND PUSH20 0xFFFFFFFFFFFFFFFFFFFFFFFFFFFFFFFFFFFFFFFF AND SUB PUSH3 0xAFC JUMPI PUSH1 0x40 MLOAD PUSH32 0x2163950F00000000000000000000000000000000000000000000000000000000 DUP2 MSTORE PUSH1 0x4 ADD PUSH1 0x40 MLOAD DUP1 SWAP2 SUB SWAP1 REVERT JUMPDEST PUSH1 0x0 PUSH1 0x4 PUSH1 0x0 CALLER PUSH20 0xFFFFFFFFFFFFFFFFFFFFFFFFFFFFFFFFFFFFFFFF AND PUSH20 0xFFFFFFFFFFFFFFFFFFFFFFFFFFFFFFFFFFFFFFFF AND DUP2 MSTORE PUSH1 0x20 ADD SWAP1 DUP2 MSTORE PUSH1 0x20 ADD PUSH1 0x0 KECCAK256 PUSH1 0x0 SWAP1 SLOAD SWAP1 PUSH2 0x100 EXP SWAP1 DIV PUSH20 0xFFFFFFFFFFFFFFFFFFFFFFFFFFFFFFFFFFFFFFFF AND SWAP1 POP DUP1 PUSH20 0xFFFFFFFFFFFFFFFFFFFFFFFFFFFFFFFFFFFFFFFF AND PUSH4 0x372F9101 DUP6 PUSH1 0x40 MLOAD DUP3 PUSH4 0xFFFFFFFF AND PUSH1 0xE0 SHL DUP2 MSTORE PUSH1 0x4 ADD PUSH3 0xB9B SWAP2 SWAP1 PUSH3 0x1C73 JUMP JUMPDEST PUSH1 0x0 PUSH1 0x40 MLOAD DUP1 DUP4 SUB DUP2 PUSH1 0x0 DUP8 GAS CALL ISZERO DUP1 ISZERO PUSH3 0xBBB JUMPI RETURNDATASIZE PUSH1 0x0 DUP1 RETURNDATACOPY RETURNDATASIZE PUSH1 0x0 REVERT JUMPDEST POP POP POP POP PUSH1 0x40 MLOAD RETURNDATASIZE PUSH1 0x0 DUP3 RETURNDATACOPY RETURNDATASIZE PUSH1 0x1F NOT PUSH1 0x1F DUP3 ADD AND DUP3 ADD DUP1 PUSH1 0x40 MSTORE POP DUP2 ADD SWAP1 PUSH3 0xBE6 SWAP2 SWAP1 PUSH3 0x1F1D JUMP JUMPDEST POP PUSH1 0x1 SWAP3 POP POP POP SWAP2 SWAP1 POP JUMP JUMPDEST PUSH1 0x6 SLOAD DUP2 JUMP JUMPDEST CALLER PUSH1 0x0 PUSH20 0xFFFFFFFFFFFFFFFFFFFFFFFFFFFFFFFFFFFFFFFF AND PUSH1 0x4 PUSH1 0x0 DUP4 PUSH20 0xFFFFFFFFFFFFFFFFFFFFFFFFFFFFFFFFFFFFFFFF AND PUSH20 0xFFFFFFFFFFFFFFFFFFFFFFFFFFFFFFFFFFFFFFFF AND DUP2 MSTORE PUSH1 0x20 ADD SWAP1 DUP2 MSTORE PUSH1 0x20 ADD PUSH1 0x0 KECCAK256 PUSH1 0x0 SWAP1 SLOAD SWAP1 PUSH2 0x100 EXP SWAP1 DIV PUSH20 0xFFFFFFFFFFFFFFFFFFFFFFFFFFFFFFFFFFFFFFFF AND PUSH20 0xFFFFFFFFFFFFFFFFFFFFFFFFFFFFFFFFFFFFFFFF AND SUB PUSH3 0xCBF JUMPI PUSH1 0x40 MLOAD PUSH32 0x2163950F00000000000000000000000000000000000000000000000000000000 DUP2 MSTORE PUSH1 0x4 ADD PUSH1 0x40 MLOAD DUP1 SWAP2 SUB SWAP1 REVERT JUMPDEST PUSH6 0x5AF3107A4000 CALLVALUE LT ISZERO PUSH3 0xD00 JUMPI PUSH1 0x40 MLOAD PUSH32 0xD0C279A200000000000000000000000000000000000000000000000000000000 DUP2 MSTORE PUSH1 0x4 ADD PUSH1 0x40 MLOAD DUP1 SWAP2 SUB SWAP1 REVERT JUMPDEST DUP6 TIMESTAMP GT ISZERO PUSH3 0xD3B JUMPI PUSH1 0x40 MLOAD PUSH32 0x6F7EAC2600000000000000000000000000000000000000000000000000000000 DUP2 MSTORE PUSH1 0x4 ADD PUSH1 0x40 MLOAD DUP1 SWAP2 SUB SWAP1 REVERT JUMPDEST DUP4 ISZERO PUSH3 0xD7F JUMPI PUSH1 0x40 MLOAD PUSH32 0x329E2F1500000000000000000000000000000000000000000000000000000000 DUP2 MSTORE PUSH1 0x4 ADD PUSH3 0xD76 SWAP1 PUSH3 0x1FBE JUMP JUMPDEST PUSH1 0x40 MLOAD DUP1 SWAP2 SUB SWAP1 REVERT JUMPDEST PUSH1 0x0 PUSH3 0xD8C CALLER PUSH3 0x1266 JUMP JUMPDEST SWAP1 POP PUSH1 0x0 PUSH3 0xD9D DUP5 DUP7 DUP5 PUSH3 0x12CF JUMP JUMPDEST SWAP1 POP PUSH1 0x0 DUP3 SWAP1 POP DUP1 PUSH20 0xFFFFFFFFFFFFFFFFFFFFFFFFFFFFFFFFFFFFFFFF AND PUSH4 0x436D4A6D PUSH1 0x0 PUSH20 0xFFFFFFFFFFFFFFFFFFFFFFFFFFFFFFFFFFFFFFFF AND DUP9 PUSH20 0xFFFFFFFFFFFFFFFFFFFFFFFFFFFFFFFFFFFFFFFF AND EQ PUSH3 0xE10 JUMPI PUSH1 0x14 PUSH6 0x5AF3107A4000 PUSH3 0xE0A SWAP2 SWAP1 PUSH3 0x1DCA JUMP JUMPDEST PUSH3 0xE33 JUMP JUMPDEST DUP4 PUSH1 0x14 PUSH6 0x5AF3107A4000 PUSH3 0xE26 SWAP2 SWAP1 PUSH3 0x1DCA JUMP JUMPDEST PUSH3 0xE32 SWAP2 SWAP1 PUSH3 0x1BAF JUMP JUMPDEST JUMPDEST DUP13 DUP13 TIMESTAMP DUP14 DUP13 DUP10 DUP16 PUSH1 0x6 SLOAD PUSH1 0x7 SLOAD PUSH1 0x40 MLOAD DUP12 PUSH4 0xFFFFFFFF AND PUSH1 0xE0 SHL DUP2 MSTORE PUSH1 0x4 ADD PUSH3 0xE66 SWAP10 SWAP9 SWAP8 SWAP7 SWAP6 SWAP5 SWAP4 SWAP3 SWAP2 SWAP1 PUSH3 0x1FF1 JUMP JUMPDEST PUSH1 0x20 PUSH1 0x40 MLOAD DUP1 DUP4 SUB DUP2 DUP6 DUP9 GAS CALL ISZERO DUP1 ISZERO PUSH3 0xE85 JUMPI RETURNDATASIZE PUSH1 0x0 DUP1 RETURNDATACOPY RETURNDATASIZE PUSH1 0x0 REVERT JUMPDEST POP POP POP POP POP PUSH1 0x40 MLOAD RETURNDATASIZE PUSH1 0x1F NOT PUSH1 0x1F DUP3 ADD AND DUP3 ADD DUP1 PUSH1 0x40 MSTORE POP DUP2 ADD SWAP1 PUSH3 0xEAC SWAP2 SWAP1 PUSH3 0x1E6D JUMP JUMPDEST POP PUSH32 0x4AD85A69286191006EA05981AE1848070DBF232E5E00FFDDA4B857C16097F0D7 DUP11 DUP4 DUP9 PUSH1 0x40 MLOAD PUSH3 0xEE2 SWAP4 SWAP3 SWAP2 SWAP1 PUSH3 0x2097 JUMP JUMPDEST PUSH1 0x40 MLOAD DUP1 SWAP2 SUB SWAP1 LOG1 POP POP POP POP POP POP POP POP POP POP JUMP JUMPDEST PUSH1 0x3 SLOAD DUP2 JUMP JUMPDEST PUSH6 0x5AF3107A4000 DUP2 JUMP JUMPDEST PUSH1 0x0 DUP1 SLOAD SWAP1 PUSH2 0x100 EXP SWAP1 DIV PUSH20 0xFFFFFFFFFFFFFFFFFFFFFFFFFFFFFFFFFFFFFFFF AND DUP2 JUMP JUMPDEST PUSH1 0x2 PUSH1 0x0 SWAP1 SLOAD SWAP1 PUSH2 0x100 EXP SWAP1 DIV PUSH20 0xFFFFFFFFFFFFFFFFFFFFFFFFFFFFFFFFFFFFFFFF AND PUSH20 0xFFFFFFFFFFFFFFFFFFFFFFFFFFFFFFFFFFFFFFFF AND CALLER PUSH20 0xFFFFFFFFFFFFFFFFFFFFFFFFFFFFFFFFFFFFFFFF AND EQ PUSH3 0xFB2 JUMPI PUSH1 0x40 MLOAD PUSH32 0x33662B3400000000000000000000000000000000000000000000000000000000 DUP2 MSTORE PUSH1 0x4 ADD PUSH1 0x40 MLOAD DUP1 SWAP2 SUB SWAP1 REVERT JUMPDEST DUP2 PUSH1 0x6 DUP2 SWAP1 SSTORE POP DUP1 PUSH1 0x7 DUP2 SWAP1 SSTORE POP POP POP JUMP JUMPDEST PUSH1 0x14 PUSH6 0x5AF3107A4000 PUSH3 0xFD9 SWAP2 SWAP1 PUSH3 0x1DCA JUMP JUMPDEST DUP2 JUMP JUMPDEST PUSH1 0x2 PUSH1 0x0 SWAP1 SLOAD SWAP1 PUSH2 0x100 EXP SWAP1 DIV PUSH20 0xFFFFFFFFFFFFFFFFFFFFFFFFFFFFFFFFFFFFFFFF AND DUP2 JUMP JUMPDEST DUP1 PUSH1 0x0 PUSH1 0x4 PUSH1 0x0 DUP4 PUSH20 0xFFFFFFFFFFFFFFFFFFFFFFFFFFFFFFFFFFFFFFFF AND PUSH20 0xFFFFFFFFFFFFFFFFFFFFFFFFFFFFFFFFFFFFFFFF AND DUP2 MSTORE PUSH1 0x20 ADD SWAP1 DUP2 MSTORE PUSH1 0x20 ADD PUSH1 0x0 KECCAK256 PUSH1 0x0 SWAP1 SLOAD SWAP1 PUSH2 0x100 EXP SWAP1 DIV PUSH20 0xFFFFFFFFFFFFFFFFFFFFFFFFFFFFFFFFFFFFFFFF AND SWAP1 POP PUSH1 0x0 PUSH20 0xFFFFFFFFFFFFFFFFFFFFFFFFFFFFFFFFFFFFFFFF AND DUP2 PUSH20 0xFFFFFFFFFFFFFFFFFFFFFFFFFFFFFFFFFFFFFFFF AND EQ DUP1 PUSH3 0x10CF JUMPI POP CALLER PUSH20 0xFFFFFFFFFFFFFFFFFFFFFFFFFFFFFFFFFFFFFFFF AND DUP2 PUSH20 0xFFFFFFFFFFFFFFFFFFFFFFFFFFFFFFFFFFFFFFFF AND EQ ISZERO JUMPDEST ISZERO PUSH3 0x1107 JUMPI PUSH1 0x40 MLOAD PUSH32 0x229E1DBD00000000000000000000000000000000000000000000000000000000 DUP2 MSTORE PUSH1 0x4 ADD PUSH1 0x40 MLOAD DUP1 SWAP2 SUB SWAP1 REVERT JUMPDEST PUSH3 0x1134 CALLER PUSH1 0x0 DUP1 SLOAD SWAP1 PUSH2 0x100 EXP SWAP1 DIV PUSH20 0xFFFFFFFFFFFFFFFFFFFFFFFFFFFFFFFFFFFFFFFF AND DUP7 PUSH3 0x1422 JUMP JUMPDEST POP POP POP POP POP POP JUMP JUMPDEST PUSH1 0x1 PUSH1 0x0 SWAP1 SLOAD SWAP1 PUSH2 0x100 EXP SWAP1 DIV PUSH20 0xFFFFFFFFFFFFFFFFFFFFFFFFFFFFFFFFFFFFFFFF AND DUP2 JUMP JUMPDEST PUSH1 0x0 PUSH1 0x4 PUSH1 0x0 CALLER PUSH20 0xFFFFFFFFFFFFFFFFFFFFFFFFFFFFFFFFFFFFFFFF AND PUSH20 0xFFFFFFFFFFFFFFFFFFFFFFFFFFFFFFFFFFFFFFFF AND DUP2 MSTORE PUSH1 0x20 ADD SWAP1 DUP2 MSTORE PUSH1 0x20 ADD PUSH1 0x0 KECCAK256 PUSH1 0x0 SWAP1 SLOAD SWAP1 PUSH2 0x100 EXP SWAP1 DIV PUSH20 0xFFFFFFFFFFFFFFFFFFFFFFFFFFFFFFFFFFFFFFFF AND SWAP1 POP SWAP1 JUMP JUMPDEST PUSH6 0x5AF3107A4000 DUP2 JUMP JUMPDEST PUSH1 0x0 DUP1 DUP3 SWAP1 POP DUP1 PUSH20 0xFFFFFFFFFFFFFFFFFFFFFFFFFFFFFFFFFFFFFFFF AND PUSH4 0x95EA7B3 DUP7 DUP7 PUSH1 0x40 MLOAD DUP4 PUSH4 0xFFFFFFFF AND PUSH1 0xE0 SHL DUP2 MSTORE PUSH1 0x4 ADD PUSH3 0x1216 SWAP3 SWAP2 SWAP1 PUSH3 0x20DB JUMP JUMPDEST PUSH1 0x20 PUSH1 0x40 MLOAD DUP1 DUP4 SUB DUP2 PUSH1 0x0 DUP8 GAS CALL ISZERO DUP1 ISZERO PUSH3 0x1236 JUMPI RETURNDATASIZE PUSH1 0x0 DUP1 RETURNDATACOPY RETURNDATASIZE PUSH1 0x0 REVERT JUMPDEST POP POP POP POP PUSH1 0x40 MLOAD RETURNDATASIZE PUSH1 0x1F NOT PUSH1 0x1F DUP3 ADD AND DUP3 ADD DUP1 PUSH1 0x40 MSTORE POP DUP2 ADD SWAP1 PUSH3 0x125C SWAP2 SWAP1 PUSH3 0x1CF7 JUMP JUMPDEST SWAP2 POP POP SWAP4 SWAP3 POP POP POP JUMP JUMPDEST PUSH1 0x0 PUSH1 0x4 PUSH1 0x0 DUP4 PUSH20 0xFFFFFFFFFFFFFFFFFFFFFFFFFFFFFFFFFFFFFFFF AND PUSH20 0xFFFFFFFFFFFFFFFFFFFFFFFFFFFFFFFFFFFFFFFF AND DUP2 MSTORE PUSH1 0x20 ADD SWAP1 DUP2 MSTORE PUSH1 0x20 ADD PUSH1 0x0 KECCAK256 PUSH1 0x0 SWAP1 SLOAD SWAP1 PUSH2 0x100 EXP SWAP1 DIV PUSH20 0xFFFFFFFFFFFFFFFFFFFFFFFFFFFFFFFFFFFFFFFF AND SWAP1 POP SWAP2 SWAP1 POP JUMP JUMPDEST PUSH1 0x0 DUP1 PUSH20 0xFFFFFFFFFFFFFFFFFFFFFFFFFFFFFFFFFFFFFFFF AND DUP4 PUSH20 0xFFFFFFFFFFFFFFFFFFFFFFFFFFFFFFFFFFFFFFFF AND EQ PUSH3 0x1401 JUMPI PUSH1 0x0 PUSH3 0x1314 CALLER DUP6 DUP8 PUSH3 0x1422 JUMP JUMPDEST SWAP1 POP DUP1 PUSH3 0x1359 JUMPI PUSH1 0x40 MLOAD PUSH32 0xEC86672900000000000000000000000000000000000000000000000000000000 DUP2 MSTORE PUSH1 0x4 ADD PUSH3 0x1350 SWAP1 PUSH3 0x2158 JUMP JUMPDEST PUSH1 0x40 MLOAD DUP1 SWAP2 SUB SWAP1 REVERT JUMPDEST CALLER PUSH20 0xFFFFFFFFFFFFFFFFFFFFFFFFFFFFFFFFFFFFFFFF AND PUSH32 0x42856D0378DDE02337BB59AE41747ABC77DED8EBDBBC5CBDD1E53693B7554938 ADDRESS DUP8 PUSH1 0x40 MLOAD PUSH3 0x13A3 SWAP3 SWAP2 SWAP1 PUSH3 0x20DB JUMP JUMPDEST PUSH1 0x40 MLOAD DUP1 SWAP2 SUB SWAP1 LOG2 PUSH3 0x13B8 DUP4 DUP7 DUP7 PUSH3 0x11D3 JUMP JUMPDEST PUSH3 0x13FA JUMPI PUSH1 0x40 MLOAD PUSH32 0x8C379A000000000000000000000000000000000000000000000000000000000 DUP2 MSTORE PUSH1 0x4 ADD PUSH3 0x13F1 SWAP1 PUSH3 0x1D79 JUMP JUMPDEST PUSH1 0x40 MLOAD DUP1 SWAP2 SUB SWAP1 REVERT JUMPDEST POP PUSH3 0x1418 JUMP JUMPDEST PUSH6 0x5AF3107A4000 CALLVALUE PUSH3 0x1415 SWAP2 SWAP1 PUSH3 0x217A JUMP JUMPDEST SWAP4 POP JUMPDEST DUP4 SWAP1 POP SWAP4 SWAP3 POP POP POP JUMP JUMPDEST PUSH1 0x0 DUP2 DUP4 PUSH20 0xFFFFFFFFFFFFFFFFFFFFFFFFFFFFFFFFFFFFFFFF AND PUSH4 0xDD62ED3E DUP7 ADDRESS PUSH1 0x40 MLOAD DUP4 PUSH4 0xFFFFFFFF AND PUSH1 0xE0 SHL DUP2 MSTORE PUSH1 0x4 ADD PUSH3 0x1462 SWAP3 SWAP2 SWAP1 PUSH3 0x1B53 JUMP JUMPDEST PUSH1 0x20 PUSH1 0x40 MLOAD DUP1 DUP4 SUB DUP2 DUP7 GAS STATICCALL ISZERO DUP1 ISZERO PUSH3 0x1480 JUMPI RETURNDATASIZE PUSH1 0x0 DUP1 RETURNDATACOPY RETURNDATASIZE PUSH1 0x0 REVERT JUMPDEST POP POP POP POP PUSH1 0x40 MLOAD RETURNDATASIZE PUSH1 0x1F NOT PUSH1 0x1F DUP3 ADD AND DUP3 ADD DUP1 PUSH1 0x40 MSTORE POP DUP2 ADD SWAP1 PUSH3 0x14A6 SWAP2 SWAP1 PUSH3 0x1E6D JUMP JUMPDEST LT ISZERO PUSH3 0x14EA JUMPI PUSH1 0x40 MLOAD PUSH32 0x8C379A000000000000000000000000000000000000000000000000000000000 DUP2 MSTORE PUSH1 0x4 ADD PUSH3 0x14E1 SWAP1 PUSH3 0x2205 JUMP JUMPDEST PUSH1 0x40 MLOAD DUP1 SWAP2 SUB SWAP1 REVERT JUMPDEST DUP3 PUSH20 0xFFFFFFFFFFFFFFFFFFFFFFFFFFFFFFFFFFFFFFFF AND PUSH4 0x23B872DD DUP6 ADDRESS DUP6 PUSH1 0x40 MLOAD DUP5 PUSH4 0xFFFFFFFF AND PUSH1 0xE0 SHL DUP2 MSTORE PUSH1 0x4 ADD PUSH3 0x1529 SWAP4 SWAP3 SWAP2 SWAP1 PUSH3 0x2227 JUMP JUMPDEST PUSH1 0x20 PUSH1 0x40 MLOAD DUP1 DUP4 SUB DUP2 PUSH1 0x0 DUP8 GAS CALL ISZERO DUP1 ISZERO PUSH3 0x1549 JUMPI RETURNDATASIZE PUSH1 0x0 DUP1 RETURNDATACOPY RETURNDATASIZE PUSH1 0x0 REVERT JUMPDEST POP POP POP POP PUSH1 0x40 MLOAD RETURNDATASIZE PUSH1 0x1F NOT PUSH1 0x1F DUP3 ADD AND DUP3 ADD DUP1 PUSH1 0x40 MSTORE POP DUP2 ADD SWAP1 PUSH3 0x156F SWAP2 SWAP1 PUSH3 0x1CF7 JUMP JUMPDEST SWAP1 POP SWAP4 SWAP3 POP POP POP JUMP JUMPDEST PUSH2 0x2D0F DUP1 PUSH3 0x2265 DUP4 CODECOPY ADD SWAP1 JUMP JUMPDEST PUSH1 0x0 DUP2 SWAP1 POP SWAP2 SWAP1 POP JUMP JUMPDEST PUSH3 0x159B DUP2 PUSH3 0x1586 JUMP JUMPDEST DUP3 MSTORE POP POP JUMP JUMPDEST PUSH1 0x0 PUSH1 0x20 DUP3 ADD SWAP1 POP PUSH3 0x15B8 PUSH1 0x0 DUP4 ADD DUP5 PUSH3 0x1590 JUMP JUMPDEST SWAP3 SWAP2 POP POP JUMP JUMPDEST PUSH1 0x0 PUSH20 0xFFFFFFFFFFFFFFFFFFFFFFFFFFFFFFFFFFFFFFFF DUP3 AND SWAP1 POP SWAP2 SWAP1 POP JUMP JUMPDEST PUSH1 0x0 PUSH3 0x15EB DUP3 PUSH3 0x15BE JUMP JUMPDEST SWAP1 POP SWAP2 SWAP1 POP JUMP JUMPDEST PUSH3 0x15FD DUP2 PUSH3 0x15DE JUMP JUMPDEST DUP3 MSTORE POP POP JUMP JUMPDEST PUSH1 0x0 PUSH1 0x20 DUP3 ADD SWAP1 POP PUSH3 0x161A PUSH1 0x0 DUP4 ADD DUP5 PUSH3 0x15F2 JUMP JUMPDEST SWAP3 SWAP2 POP POP JUMP JUMPDEST PUSH1 0x0 PUSH1 0x40 MLOAD SWAP1 POP SWAP1 JUMP JUMPDEST PUSH1 0x0 DUP1 REVERT JUMPDEST PUSH1 0x0 DUP1 REVERT JUMPDEST PUSH1 0x0 DUP1 REVERT JUMPDEST PUSH1 0x0 DUP1 REVERT JUMPDEST PUSH1 0x0 PUSH1 0x1F NOT PUSH1 0x1F DUP4 ADD AND SWAP1 POP SWAP2 SWAP1 POP JUMP JUMPDEST PUSH32 0x4E487B7100000000000000000000000000000000000000000000000000000000 PUSH1 0x0 MSTORE PUSH1 0x41 PUSH1 0x4 MSTORE PUSH1 0x24 PUSH1 0x0 REVERT JUMPDEST PUSH3 0x1689 DUP3 PUSH3 0x163E JUMP JUMPDEST DUP2 ADD DUP2 DUP2 LT PUSH8 0xFFFFFFFFFFFFFFFF DUP3 GT OR ISZERO PUSH3 0x16AB JUMPI PUSH3 0x16AA PUSH3 0x164F JUMP JUMPDEST JUMPDEST DUP1 PUSH1 0x40 MSTORE POP POP POP JUMP JUMPDEST PUSH1 0x0 PUSH3 0x16C0 PUSH3 0x1620 JUMP JUMPDEST SWAP1 POP PUSH3 0x16CE DUP3 DUP3 PUSH3 0x167E JUMP JUMPDEST SWAP2 SWAP1 POP JUMP JUMPDEST PUSH1 0x0 PUSH8 0xFFFFFFFFFFFFFFFF DUP3 GT ISZERO PUSH3 0x16F1 JUMPI PUSH3 0x16F0 PUSH3 0x164F JUMP JUMPDEST JUMPDEST PUSH3 0x16FC DUP3 PUSH3 0x163E JUMP JUMPDEST SWAP1 POP PUSH1 0x20 DUP2 ADD SWAP1 POP SWAP2 SWAP1 POP JUMP JUMPDEST DUP3 DUP2 DUP4 CALLDATACOPY PUSH1 0x0 DUP4 DUP4 ADD MSTORE POP POP POP JUMP JUMPDEST PUSH1 0x0 PUSH3 0x172F PUSH3 0x1729 DUP5 PUSH3 0x16D3 JUMP JUMPDEST PUSH3 0x16B4 JUMP JUMPDEST SWAP1 POP DUP3 DUP2 MSTORE PUSH1 0x20 DUP2 ADD DUP5 DUP5 DUP5 ADD GT ISZERO PUSH3 0x174E JUMPI PUSH3 0x174D PUSH3 0x1639 JUMP JUMPDEST JUMPDEST PUSH3 0x175B DUP5 DUP3 DUP6 PUSH3 0x1709 JUMP JUMPDEST POP SWAP4 SWAP3 POP POP POP JUMP JUMPDEST PUSH1 0x0 DUP3 PUSH1 0x1F DUP4 ADD SLT PUSH3 0x177B JUMPI PUSH3 0x177A PUSH3 0x1634 JUMP JUMPDEST JUMPDEST DUP2 CALLDATALOAD PUSH3 0x178D DUP5 DUP3 PUSH1 0x20 DUP7 ADD PUSH3 0x1718 JUMP JUMPDEST SWAP2 POP POP SWAP3 SWAP2 POP POP JUMP JUMPDEST PUSH3 0x17A1 DUP2 PUSH3 0x15DE JUMP JUMPDEST DUP2 EQ PUSH3 0x17AD JUMPI PUSH1 0x0 DUP1 REVERT JUMPDEST POP JUMP JUMPDEST PUSH1 0x0 DUP2 CALLDATALOAD SWAP1 POP PUSH3 0x17C1 DUP2 PUSH3 0x1796 JUMP JUMPDEST SWAP3 SWAP2 POP POP JUMP JUMPDEST PUSH3 0x17D2 DUP2 PUSH3 0x1586 JUMP JUMPDEST DUP2 EQ PUSH3 0x17DE JUMPI PUSH1 0x0 DUP1 REVERT JUMPDEST POP JUMP JUMPDEST PUSH1 0x0 DUP2 CALLDATALOAD SWAP1 POP PUSH3 0x17F2 DUP2 PUSH3 0x17C7 JUMP JUMPDEST SWAP3 SWAP2 POP POP JUMP JUMPDEST PUSH1 0x0 DUP1 PUSH1 0x0 PUSH1 0x60 DUP5 DUP7 SUB SLT ISZERO PUSH3 0x1814 JUMPI PUSH3 0x1813 PUSH3 0x162A JUMP JUMPDEST JUMPDEST PUSH1 0x0 DUP5 ADD CALLDATALOAD PUSH8 0xFFFFFFFFFFFFFFFF DUP2 GT ISZERO PUSH3 0x1835 JUMPI PUSH3 0x1834 PUSH3 0x162F JUMP JUMPDEST JUMPDEST PUSH3 0x1843 DUP7 DUP3 DUP8 ADD PUSH3 0x1763 JUMP JUMPDEST SWAP4 POP POP PUSH1 0x20 PUSH3 0x1856 DUP7 DUP3 DUP8 ADD PUSH3 0x17B0 JUMP JUMPDEST SWAP3 POP POP PUSH1 0x40 PUSH3 0x1869 DUP7 DUP3 DUP8 ADD PUSH3 0x17E1 JUMP JUMPDEST SWAP2 POP POP SWAP3 POP SWAP3 POP SWAP3 JUMP JUMPDEST PUSH1 0x0 PUSH1 0x20 DUP3 DUP5 SUB SLT ISZERO PUSH3 0x188C JUMPI PUSH3 0x188B PUSH3 0x162A JUMP JUMPDEST JUMPDEST PUSH1 0x0 DUP3 ADD CALLDATALOAD PUSH8 0xFFFFFFFFFFFFFFFF DUP2 GT ISZERO PUSH3 0x18AD JUMPI PUSH3 0x18AC PUSH3 0x162F JUMP JUMPDEST JUMPDEST PUSH3 0x18BB DUP5 DUP3 DUP6 ADD PUSH3 0x1763 JUMP JUMPDEST SWAP2 POP POP SWAP3 SWAP2 POP POP JUMP JUMPDEST PUSH1 0x0 DUP2 ISZERO ISZERO SWAP1 POP SWAP2 SWAP1 POP JUMP JUMPDEST PUSH3 0x18DB DUP2 PUSH3 0x18C4 JUMP JUMPDEST DUP3 MSTORE POP POP JUMP JUMPDEST PUSH1 0x0 PUSH1 0x20 DUP3 ADD SWAP1 POP PUSH3 0x18F8 PUSH1 0x0 DUP4 ADD DUP5 PUSH3 0x18D0 JUMP JUMPDEST SWAP3 SWAP2 POP POP JUMP JUMPDEST PUSH1 0x0 PUSH1 0xFF DUP3 AND SWAP1 POP SWAP2 SWAP1 POP JUMP JUMPDEST PUSH3 0x1916 DUP2 PUSH3 0x18FE JUMP JUMPDEST DUP2 EQ PUSH3 0x1922 JUMPI PUSH1 0x0 DUP1 REVERT JUMPDEST POP JUMP JUMPDEST PUSH1 0x0 DUP2 CALLDATALOAD SWAP1 POP PUSH3 0x1936 DUP2 PUSH3 0x190B JUMP JUMPDEST SWAP3 SWAP2 POP POP JUMP JUMPDEST PUSH3 0x1947 DUP2 PUSH3 0x18C4 JUMP JUMPDEST DUP2 EQ PUSH3 0x1953 JUMPI PUSH1 0x0 DUP1 REVERT JUMPDEST POP JUMP JUMPDEST PUSH1 0x0 DUP2 CALLDATALOAD SWAP1 POP PUSH3 0x1967 DUP2 PUSH3 0x193C JUMP JUMPDEST SWAP3 SWAP2 POP POP JUMP JUMPDEST PUSH1 0x0 DUP1 PUSH1 0x0 DUP1 PUSH1 0x0 DUP1 PUSH1 0xC0 DUP8 DUP10 SUB SLT ISZERO PUSH3 0x198D JUMPI PUSH3 0x198C PUSH3 0x162A JUMP JUMPDEST JUMPDEST PUSH1 0x0 DUP8 ADD CALLDATALOAD PUSH8 0xFFFFFFFFFFFFFFFF DUP2 GT ISZERO PUSH3 0x19AE JUMPI PUSH3 0x19AD PUSH3 0x162F JUMP JUMPDEST JUMPDEST PUSH3 0x19BC DUP10 DUP3 DUP11 ADD PUSH3 0x1763 JUMP JUMPDEST SWAP7 POP POP PUSH1 0x20 PUSH3 0x19CF DUP10 DUP3 DUP11 ADD PUSH3 0x17E1 JUMP JUMPDEST SWAP6 POP POP PUSH1 0x40 PUSH3 0x19E2 DUP10 DUP3 DUP11 ADD PUSH3 0x1925 JUMP JUMPDEST SWAP5 POP POP PUSH1 0x60 PUSH3 0x19F5 DUP10 DUP3 DUP11 ADD PUSH3 0x1956 JUMP JUMPDEST SWAP4 POP POP PUSH1 0x80 PUSH3 0x1A08 DUP10 DUP3 DUP11 ADD PUSH3 0x17B0 JUMP JUMPDEST SWAP3 POP POP PUSH1 0xA0 PUSH3 0x1A1B DUP10 DUP3 DUP11 ADD PUSH3 0x17E1 JUMP JUMPDEST SWAP2 POP POP SWAP3 SWAP6 POP SWAP3 SWAP6 POP SWAP3 SWAP6 JUMP JUMPDEST PUSH1 0x0 DUP2 SWAP1 POP SWAP2 SWAP1 POP JUMP JUMPDEST PUSH1 0x0 PUSH3 0x1A53 PUSH3 0x1A4D PUSH3 0x1A47 DUP5 PUSH3 0x15BE JUMP JUMPDEST PUSH3 0x1A28 JUMP JUMPDEST PUSH3 0x15BE JUMP JUMPDEST SWAP1 POP SWAP2 SWAP1 POP JUMP JUMPDEST PUSH1 0x0 PUSH3 0x1A67 DUP3 PUSH3 0x1A32 JUMP JUMPDEST SWAP1 POP SWAP2 SWAP1 POP JUMP JUMPDEST PUSH1 0x0 PUSH3 0x1A7B DUP3 PUSH3 0x1A5A JUMP JUMPDEST SWAP1 POP SWAP2 SWAP1 POP JUMP JUMPDEST PUSH3 0x1A8D DUP2 PUSH3 0x1A6E JUMP JUMPDEST DUP3 MSTORE POP POP JUMP JUMPDEST PUSH1 0x0 PUSH1 0x20 DUP3 ADD SWAP1 POP PUSH3 0x1AAA PUSH1 0x0 DUP4 ADD DUP5 PUSH3 0x1A82 JUMP JUMPDEST SWAP3 SWAP2 POP POP JUMP JUMPDEST PUSH1 0x0 DUP1 PUSH1 0x40 DUP4 DUP6 SUB SLT ISZERO PUSH3 0x1ACA JUMPI PUSH3 0x1AC9 PUSH3 0x162A JUMP JUMPDEST JUMPDEST PUSH1 0x0 PUSH3 0x1ADA DUP6 DUP3 DUP7 ADD PUSH3 0x17E1 JUMP JUMPDEST SWAP3 POP POP PUSH1 0x20 PUSH3 0x1AED DUP6 DUP3 DUP7 ADD PUSH3 0x17E1 JUMP JUMPDEST SWAP2 POP POP SWAP3 POP SWAP3 SWAP1 POP JUMP JUMPDEST PUSH1 0x0 DUP1 PUSH1 0x0 PUSH1 0x60 DUP5 DUP7 SUB SLT ISZERO PUSH3 0x1B13 JUMPI PUSH3 0x1B12 PUSH3 0x162A JUMP JUMPDEST JUMPDEST PUSH1 0x0 PUSH3 0x1B23 DUP7 DUP3 DUP8 ADD PUSH3 0x17B0 JUMP JUMPDEST SWAP4 POP POP PUSH1 0x20 PUSH3 0x1B36 DUP7 DUP3 DUP8 ADD PUSH3 0x17E1 JUMP JUMPDEST SWAP3 POP POP PUSH1 0x40 PUSH3 0x1B49 DUP7 DUP3 DUP8 ADD PUSH3 0x17B0 JUMP JUMPDEST SWAP2 POP POP SWAP3 POP SWAP3 POP SWAP3 JUMP JUMPDEST PUSH1 0x0 PUSH1 0x40 DUP3 ADD SWAP1 POP PUSH3 0x1B6A PUSH1 0x0 DUP4 ADD DUP6 PUSH3 0x15F2 JUMP JUMPDEST PUSH3 0x1B79 PUSH1 0x20 DUP4 ADD DUP5 PUSH3 0x15F2 JUMP JUMPDEST SWAP4 SWAP3 POP POP POP JUMP JUMPDEST PUSH32 0x4E487B7100000000000000000000000000000000000000000000000000000000 PUSH1 0x0 MSTORE PUSH1 0x11 PUSH1 0x4 MSTORE PUSH1 0x24 PUSH1 0x0 REVERT JUMPDEST PUSH1 0x0 PUSH3 0x1BBC DUP3 PUSH3 0x1586 JUMP JUMPDEST SWAP2 POP PUSH3 0x1BC9 DUP4 PUSH3 0x1586 JUMP JUMPDEST SWAP3 POP DUP3 DUP3 ADD SWAP1 POP DUP1 DUP3 GT ISZERO PUSH3 0x1BE4 JUMPI PUSH3 0x1BE3 PUSH3 0x1B80 JUMP JUMPDEST JUMPDEST SWAP3 SWAP2 POP POP JUMP JUMPDEST PUSH1 0x0 DUP2 MLOAD SWAP1 POP SWAP2 SWAP1 POP JUMP JUMPDEST PUSH1 0x0 DUP3 DUP3 MSTORE PUSH1 0x20 DUP3 ADD SWAP1 POP SWAP3 SWAP2 POP POP JUMP JUMPDEST PUSH1 0x0 JUMPDEST DUP4 DUP2 LT ISZERO PUSH3 0x1C26 JUMPI DUP1 DUP3 ADD MLOAD DUP2 DUP5 ADD MSTORE PUSH1 0x20 DUP2 ADD SWAP1 POP PUSH3 0x1C09 JUMP JUMPDEST PUSH1 0x0 DUP5 DUP5 ADD MSTORE POP POP POP POP JUMP JUMPDEST PUSH1 0x0 PUSH3 0x1C3F DUP3 PUSH3 0x1BEA JUMP JUMPDEST PUSH3 0x1C4B DUP2 DUP6 PUSH3 0x1BF5 JUMP JUMPDEST SWAP4 POP PUSH3 0x1C5D DUP2 DUP6 PUSH1 0x20 DUP7 ADD PUSH3 0x1C06 JUMP JUMPDEST PUSH3 0x1C68 DUP2 PUSH3 0x163E JUMP JUMPDEST DUP5 ADD SWAP2 POP POP SWAP3 SWAP2 POP POP JUMP JUMPDEST PUSH1 0x0 PUSH1 0x20 DUP3 ADD SWAP1 POP DUP2 DUP2 SUB PUSH1 0x0 DUP4 ADD MSTORE PUSH3 0x1C8F DUP2 DUP5 PUSH3 0x1C32 JUMP JUMPDEST SWAP1 POP SWAP3 SWAP2 POP POP JUMP JUMPDEST PUSH1 0x0 DUP2 MLOAD SWAP1 POP PUSH3 0x1CA8 DUP2 PUSH3 0x1796 JUMP JUMPDEST SWAP3 SWAP2 POP POP JUMP JUMPDEST PUSH1 0x0 PUSH1 0x20 DUP3 DUP5 SUB SLT ISZERO PUSH3 0x1CC7 JUMPI PUSH3 0x1CC6 PUSH3 0x162A JUMP JUMPDEST JUMPDEST PUSH1 0x0 PUSH3 0x1CD7 DUP5 DUP3 DUP6 ADD PUSH3 0x1C97 JUMP JUMPDEST SWAP2 POP POP SWAP3 SWAP2 POP POP JUMP JUMPDEST PUSH1 0x0 DUP2 MLOAD SWAP1 POP PUSH3 0x1CF1 DUP2 PUSH3 0x193C JUMP JUMPDEST SWAP3 SWAP2 POP POP JUMP JUMPDEST PUSH1 0x0 PUSH1 0x20 DUP3 DUP5 SUB SLT ISZERO PUSH3 0x1D10 JUMPI PUSH3 0x1D0F PUSH3 0x162A JUMP JUMPDEST JUMPDEST PUSH1 0x0 PUSH3 0x1D20 DUP5 DUP3 DUP6 ADD PUSH3 0x1CE0 JUMP JUMPDEST SWAP2 POP POP SWAP3 SWAP2 POP POP JUMP JUMPDEST PUSH32 0x536176696E677320696E76616C69640000000000000000000000000000000000 PUSH1 0x0 DUP3 ADD MSTORE POP JUMP JUMPDEST PUSH1 0x0 PUSH3 0x1D61 PUSH1 0xF DUP4 PUSH3 0x1BF5 JUMP JUMPDEST SWAP2 POP PUSH3 0x1D6E DUP3 PUSH3 0x1D29 JUMP JUMPDEST PUSH1 0x20 DUP3 ADD SWAP1 POP SWAP2 SWAP1 POP JUMP JUMPDEST PUSH1 0x0 PUSH1 0x20 DUP3 ADD SWAP1 POP DUP2 DUP2 SUB PUSH1 0x0 DUP4 ADD MSTORE PUSH3 0x1D94 DUP2 PUSH3 0x1D52 JUMP JUMPDEST SWAP1 POP SWAP2 SWAP1 POP JUMP JUMPDEST PUSH32 0x4E487B7100000000000000000000000000000000000000000000000000000000 PUSH1 0x0 MSTORE PUSH1 0x12 PUSH1 0x4 MSTORE PUSH1 0x24 PUSH1 0x0 REVERT JUMPDEST PUSH1 0x0 PUSH3 0x1DD7 DUP3 PUSH3 0x1586 JUMP JUMPDEST SWAP2 POP PUSH3 0x1DE4 DUP4 PUSH3 0x1586 JUMP JUMPDEST SWAP3 POP DUP3 PUSH3 0x1DF7 JUMPI PUSH3 0x1DF6 PUSH3 0x1D9B JUMP JUMPDEST JUMPDEST DUP3 DUP3 DIV SWAP1 POP SWAP3 SWAP2 POP POP JUMP JUMPDEST PUSH1 0x0 PUSH1 0x80 DUP3 ADD SWAP1 POP DUP2 DUP2 SUB PUSH1 0x0 DUP4 ADD MSTORE PUSH3 0x1E1E DUP2 DUP8 PUSH3 0x1C32 JUMP JUMPDEST SWAP1 POP PUSH3 0x1E2F PUSH1 0x20 DUP4 ADD DUP7 PUSH3 0x1590 JUMP JUMPDEST PUSH3 0x1E3E PUSH1 0x40 DUP4 ADD DUP6 PUSH3 0x1590 JUMP JUMPDEST PUSH3 0x1E4D PUSH1 0x60 DUP4 ADD DUP5 PUSH3 0x1590 JUMP JUMPDEST SWAP6 SWAP5 POP POP POP POP POP JUMP JUMPDEST PUSH1 0x0 DUP2 MLOAD SWAP1 POP PUSH3 0x1E67 DUP2 PUSH3 0x17C7 JUMP JUMPDEST SWAP3 SWAP2 POP POP JUMP JUMPDEST PUSH1 0x0 PUSH1 0x20 DUP3 DUP5 SUB SLT ISZERO PUSH3 0x1E86 JUMPI PUSH3 0x1E85 PUSH3 0x162A JUMP JUMPDEST JUMPDEST PUSH1 0x0 PUSH3 0x1E96 DUP5 DUP3 DUP6 ADD PUSH3 0x1E56 JUMP JUMPDEST SWAP2 POP POP SWAP3 SWAP2 POP POP JUMP JUMPDEST PUSH1 0x0 PUSH3 0x1EB6 PUSH3 0x1EB0 DUP5 PUSH3 0x16D3 JUMP JUMPDEST PUSH3 0x16B4 JUMP JUMPDEST SWAP1 POP DUP3 DUP2 MSTORE PUSH1 0x20 DUP2 ADD DUP5 DUP5 DUP5 ADD GT ISZERO PUSH3 0x1ED5 JUMPI PUSH3 0x1ED4 PUSH3 0x1639 JUMP JUMPDEST JUMPDEST PUSH3 0x1EE2 DUP5 DUP3 DUP6 PUSH3 0x1C06 JUMP JUMPDEST POP SWAP4 SWAP3 POP POP POP JUMP JUMPDEST PUSH1 0x0 DUP3 PUSH1 0x1F DUP4 ADD SLT PUSH3 0x1F02 JUMPI PUSH3 0x1F01 PUSH3 0x1634 JUMP JUMPDEST JUMPDEST DUP2 MLOAD PUSH3 0x1F14 DUP5 DUP3 PUSH1 0x20 DUP7 ADD PUSH3 0x1E9F JUMP JUMPDEST SWAP2 POP POP SWAP3 SWAP2 POP POP JUMP JUMPDEST PUSH1 0x0 PUSH1 0x20 DUP3 DUP5 SUB SLT ISZERO PUSH3 0x1F36 JUMPI PUSH3 0x1F35 PUSH3 0x162A JUMP JUMPDEST JUMPDEST PUSH1 0x0 DUP3 ADD MLOAD PUSH8 0xFFFFFFFFFFFFFFFF DUP2 GT ISZERO PUSH3 0x1F57 JUMPI PUSH3 0x1F56 PUSH3 0x162F JUMP JUMPDEST JUMPDEST PUSH3 0x1F65 DUP5 DUP3 DUP6 ADD PUSH3 0x1EEA JUMP JUMPDEST SWAP2 POP POP SWAP3 SWAP2 POP POP JUMP JUMPDEST PUSH32 0x4E6F2073616665206D6F64652079657421000000000000000000000000000000 PUSH1 0x0 DUP3 ADD MSTORE POP JUMP JUMPDEST PUSH1 0x0 PUSH3 0x1FA6 PUSH1 0x11 DUP4 PUSH3 0x1BF5 JUMP JUMPDEST SWAP2 POP PUSH3 0x1FB3 DUP3 PUSH3 0x1F6E JUMP JUMPDEST PUSH1 0x20 DUP3 ADD SWAP1 POP SWAP2 SWAP1 POP JUMP JUMPDEST PUSH1 0x0 PUSH1 0x20 DUP3 ADD SWAP1 POP DUP2 DUP2 SUB PUSH1 0x0 DUP4 ADD MSTORE PUSH3 0x1FD9 DUP2 PUSH3 0x1F97 JUMP JUMPDEST SWAP1 POP SWAP2 SWAP1 POP JUMP JUMPDEST PUSH3 0x1FEB DUP2 PUSH3 0x18FE JUMP JUMPDEST DUP3 MSTORE POP POP JUMP JUMPDEST PUSH1 0x0 PUSH2 0x120 DUP3 ADD SWAP1 POP DUP2 DUP2 SUB PUSH1 0x0 DUP4 ADD MSTORE PUSH3 0x200E DUP2 DUP13 PUSH3 0x1C32 JUMP JUMPDEST SWAP1 POP PUSH3 0x201F PUSH1 0x20 DUP4 ADD DUP12 PUSH3 0x1590 JUMP JUMPDEST PUSH3 0x202E PUSH1 0x40 DUP4 ADD DUP11 PUSH3 0x1590 JUMP JUMPDEST PUSH3 0x203D PUSH1 0x60 DUP4 ADD DUP10 PUSH3 0x1FE0 JUMP JUMPDEST PUSH3 0x204C PUSH1 0x80 DUP4 ADD DUP9 PUSH3 0x15F2 JUMP JUMPDEST PUSH3 0x205B PUSH1 0xA0 DUP4 ADD DUP8 PUSH3 0x1590 JUMP JUMPDEST PUSH3 0x206A PUSH1 0xC0 DUP4 ADD DUP7 PUSH3 0x18D0 JUMP JUMPDEST PUSH3 0x2079 PUSH1 0xE0 DUP4 ADD DUP6 PUSH3 0x1590 JUMP JUMPDEST PUSH3 0x2089 PUSH2 0x100 DUP4 ADD DUP5 PUSH3 0x1590 JUMP JUMPDEST SWAP11 SWAP10 POP POP POP POP POP POP POP POP POP POP JUMP JUMPDEST PUSH1 0x0 PUSH1 0x60 DUP3 ADD SWAP1 POP DUP2 DUP2 SUB PUSH1 0x0 DUP4 ADD MSTORE PUSH3 0x20B3 DUP2 DUP7 PUSH3 0x1C32 JUMP JUMPDEST SWAP1 POP PUSH3 0x20C4 PUSH1 0x20 DUP4 ADD DUP6 PUSH3 0x1590 JUMP JUMPDEST PUSH3 0x20D3 PUSH1 0x40 DUP4 ADD DUP5 PUSH3 0x15F2 JUMP JUMPDEST SWAP5 SWAP4 POP POP POP POP JUMP JUMPDEST PUSH1 0x0 PUSH1 0x40 DUP3 ADD SWAP1 POP PUSH3 0x20F2 PUSH1 0x0 DUP4 ADD DUP6 PUSH3 0x15F2 JUMP JUMPDEST PUSH3 0x2101 PUSH1 0x20 DUP4 ADD DUP5 PUSH3 0x1590 JUMP JUMPDEST SWAP4 SWAP3 POP POP POP JUMP JUMPDEST PUSH32 0x54786E206661696C656400000000000000000000000000000000000000000000 PUSH1 0x0 DUP3 ADD MSTORE POP JUMP JUMPDEST PUSH1 0x0 PUSH3 0x2140 PUSH1 0xA DUP4 PUSH3 0x1BF5 JUMP JUMPDEST SWAP2 POP PUSH3 0x214D DUP3 PUSH3 0x2108 JUMP JUMPDEST PUSH1 0x20 DUP3 ADD SWAP1 POP SWAP2 SWAP1 POP JUMP JUMPDEST PUSH1 0x0 PUSH1 0x20 DUP3 ADD SWAP1 POP DUP2 DUP2 SUB PUSH1 0x0 DUP4 ADD MSTORE PUSH3 0x2173 DUP2 PUSH3 0x2131 JUMP JUMPDEST SWAP1 POP SWAP2 SWAP1 POP JUMP JUMPDEST PUSH1 0x0 PUSH3 0x2187 DUP3 PUSH3 0x1586 JUMP JUMPDEST SWAP2 POP PUSH3 0x2194 DUP4 PUSH3 0x1586 JUMP JUMPDEST SWAP3 POP DUP3 DUP3 SUB SWAP1 POP DUP2 DUP2 GT ISZERO PUSH3 0x21AF JUMPI PUSH3 0x21AE PUSH3 0x1B80 JUMP JUMPDEST JUMPDEST SWAP3 SWAP2 POP POP JUMP JUMPDEST PUSH32 0x546F6B656E20636F756C64206E6F742062652077697468647261776E00000000 PUSH1 0x0 DUP3 ADD MSTORE POP JUMP JUMPDEST PUSH1 0x0 PUSH3 0x21ED PUSH1 0x1C DUP4 PUSH3 0x1BF5 JUMP JUMPDEST SWAP2 POP PUSH3 0x21FA DUP3 PUSH3 0x21B5 JUMP JUMPDEST PUSH1 0x20 DUP3 ADD SWAP1 POP SWAP2 SWAP1 POP JUMP JUMPDEST PUSH1 0x0 PUSH1 0x20 DUP3 ADD SWAP1 POP DUP2 DUP2 SUB PUSH1 0x0 DUP4 ADD MSTORE PUSH3 0x2220 DUP2 PUSH3 0x21DE JUMP JUMPDEST SWAP1 POP SWAP2 SWAP1 POP JUMP JUMPDEST PUSH1 0x0 PUSH1 0x60 DUP3 ADD SWAP1 POP PUSH3 0x223E PUSH1 0x0 DUP4 ADD DUP7 PUSH3 0x15F2 JUMP JUMPDEST PUSH3 0x224D PUSH1 0x20 DUP4 ADD DUP6 PUSH3 0x15F2 JUMP JUMPDEST PUSH3 0x225C PUSH1 0x40 DUP4 ADD DUP5 PUSH3 0x1590 JUMP JUMPDEST SWAP5 SWAP4 POP POP POP POP JUMP INVALID PUSH1 0x80 PUSH1 0x40 MSTORE PUSH1 0x40 MLOAD PUSH3 0x2D0F CODESIZE SUB DUP1 PUSH3 0x2D0F DUP4 CODECOPY DUP2 DUP2 ADD PUSH1 0x40 MSTORE DUP2 ADD SWAP1 PUSH3 0x29 SWAP2 SWAP1 PUSH3 0x165 JUMP JUMPDEST CALLER PUSH1 0x0 DUP1 PUSH2 0x100 EXP DUP2 SLOAD DUP2 PUSH20 0xFFFFFFFFFFFFFFFFFFFFFFFFFFFFFFFFFFFFFFFF MUL NOT AND SWAP1 DUP4 PUSH20 0xFFFFFFFFFFFFFFFFFFFFFFFFFFFFFFFFFFFFFFFF AND MUL OR SWAP1 SSTORE POP DUP2 PUSH1 0x2 PUSH1 0x0 PUSH2 0x100 EXP DUP2 SLOAD DUP2 PUSH20 0xFFFFFFFFFFFFFFFFFFFFFFFFFFFFFFFFFFFFFFFF MUL NOT AND SWAP1 DUP4 PUSH20 0xFFFFFFFFFFFFFFFFFFFFFFFFFFFFFFFFFFFFFFFF AND MUL OR SWAP1 SSTORE POP DUP1 PUSH1 0x1 PUSH1 0x0 PUSH2 0x100 EXP DUP2 SLOAD DUP2 PUSH20 0xFFFFFFFFFFFFFFFFFFFFFFFFFFFFFFFFFFFFFFFF MUL NOT AND SWAP1 DUP4 PUSH20 0xFFFFFFFFFFFFFFFFFFFFFFFFFFFFFFFFFFFFFFFF AND MUL OR SWAP1 SSTORE POP PUSH1 0x0 PUSH1 0x3 DUP2 SWAP1 SSTORE POP POP POP PUSH3 0x1AC JUMP JUMPDEST PUSH1 0x0 DUP1 REVERT JUMPDEST PUSH1 0x0 PUSH20 0xFFFFFFFFFFFFFFFFFFFFFFFFFFFFFFFFFFFFFFFF DUP3 AND SWAP1 POP SWAP2 SWAP1 POP JUMP JUMPDEST PUSH1 0x0 PUSH3 0x12D DUP3 PUSH3 0x100 JUMP JUMPDEST SWAP1 POP SWAP2 SWAP1 POP JUMP JUMPDEST PUSH3 0x13F DUP2 PUSH3 0x120 JUMP JUMPDEST DUP2 EQ PUSH3 0x14B JUMPI PUSH1 0x0 DUP1 REVERT JUMPDEST POP JUMP JUMPDEST PUSH1 0x0 DUP2 MLOAD SWAP1 POP PUSH3 0x15F DUP2 PUSH3 0x134 JUMP JUMPDEST SWAP3 SWAP2 POP POP JUMP JUMPDEST PUSH1 0x0 DUP1 PUSH1 0x40 DUP4 DUP6 SUB SLT ISZERO PUSH3 0x17F JUMPI PUSH3 0x17E PUSH3 0xFB JUMP JUMPDEST JUMPDEST PUSH1 0x0 PUSH3 0x18F DUP6 DUP3 DUP7 ADD PUSH3 0x14E JUMP JUMPDEST SWAP3 POP POP PUSH1 0x20 PUSH3 0x1A2 DUP6 DUP3 DUP7 ADD PUSH3 0x14E JUMP JUMPDEST SWAP2 POP POP SWAP3 POP SWAP3 SWAP1 POP JUMP JUMPDEST PUSH2 0x2B53 DUP1 PUSH3 0x1BC PUSH1 0x0 CODECOPY PUSH1 0x0 RETURN INVALID PUSH1 0x80 PUSH1 0x40 MSTORE PUSH1 0x4 CALLDATASIZE LT PUSH2 0xC2 JUMPI PUSH1 0x0 CALLDATALOAD PUSH1 0xE0 SHR DUP1 PUSH4 0x585DBFFE GT PUSH2 0x7F JUMPI DUP1 PUSH4 0x992642E5 GT PUSH2 0x59 JUMPI DUP1 PUSH4 0x992642E5 EQ PUSH2 0x2A3 JUMPI DUP1 PUSH4 0xD1ECE790 EQ PUSH2 0x2CE JUMPI DUP1 PUSH4 0xDC2379B9 EQ PUSH2 0x2F9 JUMPI DUP1 PUSH4 0xE18F5F65 EQ PUSH2 0x329 JUMPI PUSH2 0xC2 JUMP JUMPDEST DUP1 PUSH4 0x585DBFFE EQ PUSH2 0x1FE JUMPI DUP1 PUSH4 0x84FEBB69 EQ PUSH2 0x23B JUMPI DUP1 PUSH4 0x8F84AA09 EQ PUSH2 0x278 JUMPI PUSH2 0xC2 JUMP JUMPDEST DUP1 PUSH4 0x13203929 EQ PUSH2 0xC7 JUMPI DUP1 PUSH4 0x1BB862A5 EQ PUSH2 0x10B JUMPI DUP1 PUSH4 0x2AE3C90F EQ PUSH2 0x148 JUMPI DUP1 PUSH4 0x372F9101 EQ PUSH2 0x173 JUMPI DUP1 PUSH4 0x436D4A6D EQ PUSH2 0x1A3 JUMPI DUP1 PUSH4 0x567142BE EQ PUSH2 0x1D3 JUMPI JUMPDEST PUSH1 0x0 DUP1 REVERT JUMPDEST CALLVALUE DUP1 ISZERO PUSH2 0xD3 JUMPI PUSH1 0x0 DUP1 REVERT JUMPDEST POP PUSH2 0xEE PUSH1 0x4 DUP1 CALLDATASIZE SUB DUP2 ADD SWAP1 PUSH2 0xE9 SWAP2 SWAP1 PUSH2 0x1BC9 JUMP JUMPDEST PUSH2 0x366 JUMP JUMPDEST PUSH1 0x40 MLOAD PUSH2 0x102 SWAP9 SWAP8 SWAP7 SWAP6 SWAP5 SWAP4 SWAP3 SWAP2 SWAP1 PUSH2 0x1C87 JUMP JUMPDEST PUSH1 0x40 MLOAD DUP1 SWAP2 SUB SWAP1 RETURN JUMPDEST CALLVALUE DUP1 ISZERO PUSH2 0x117 JUMPI PUSH1 0x0 DUP1 REVERT JUMPDEST POP PUSH2 0x132 PUSH1 0x4 DUP1 CALLDATASIZE SUB DUP2 ADD SWAP1 PUSH2 0x12D SWAP2 SWAP1 PUSH2 0x1BC9 JUMP JUMPDEST PUSH2 0x3FE JUMP JUMPDEST PUSH1 0x40 MLOAD PUSH2 0x13F SWAP2 SWAP1 PUSH2 0x1D05 JUMP JUMPDEST PUSH1 0x40 MLOAD DUP1 SWAP2 SUB SWAP1 RETURN JUMPDEST CALLVALUE DUP1 ISZERO PUSH2 0x154 JUMPI PUSH1 0x0 DUP1 REVERT JUMPDEST POP PUSH2 0x15D PUSH2 0x436 JUMP JUMPDEST PUSH1 0x40 MLOAD PUSH2 0x16A SWAP2 SWAP1 PUSH2 0x1D41 JUMP JUMPDEST PUSH1 0x40 MLOAD DUP1 SWAP2 SUB SWAP1 RETURN JUMPDEST PUSH2 0x18D PUSH1 0x4 DUP1 CALLDATASIZE SUB DUP2 ADD SWAP1 PUSH2 0x188 SWAP2 SWAP1 PUSH2 0x1BC9 JUMP JUMPDEST PUSH2 0x45A JUMP JUMPDEST PUSH1 0x40 MLOAD PUSH2 0x19A SWAP2 SWAP1 PUSH2 0x1DDB JUMP JUMPDEST PUSH1 0x40 MLOAD DUP1 SWAP2 SUB SWAP1 RETURN JUMPDEST PUSH2 0x1BD PUSH1 0x4 DUP1 CALLDATASIZE SUB DUP2 ADD SWAP1 PUSH2 0x1B8 SWAP2 SWAP1 PUSH2 0x1EBA JUMP JUMPDEST PUSH2 0x8EE JUMP JUMPDEST PUSH1 0x40 MLOAD PUSH2 0x1CA SWAP2 SWAP1 PUSH2 0x1FA0 JUMP JUMPDEST PUSH1 0x40 MLOAD DUP1 SWAP2 SUB SWAP1 RETURN JUMPDEST CALLVALUE DUP1 ISZERO PUSH2 0x1DF JUMPI PUSH1 0x0 DUP1 REVERT JUMPDEST POP PUSH2 0x1E8 PUSH2 0xCB2 JUMP JUMPDEST PUSH1 0x40 MLOAD PUSH2 0x1F5 SWAP2 SWAP1 PUSH2 0x1FA0 JUMP JUMPDEST PUSH1 0x40 MLOAD DUP1 SWAP2 SUB SWAP1 RETURN JUMPDEST CALLVALUE DUP1 ISZERO PUSH2 0x20A JUMPI PUSH1 0x0 DUP1 REVERT JUMPDEST POP PUSH2 0x225 PUSH1 0x4 DUP1 CALLDATASIZE SUB DUP2 ADD SWAP1 PUSH2 0x220 SWAP2 SWAP1 PUSH2 0x1BC9 JUMP JUMPDEST PUSH2 0xCB8 JUMP JUMPDEST PUSH1 0x40 MLOAD PUSH2 0x232 SWAP2 SWAP1 PUSH2 0x208A JUMP JUMPDEST PUSH1 0x40 MLOAD DUP1 SWAP2 SUB SWAP1 RETURN JUMPDEST CALLVALUE DUP1 ISZERO PUSH2 0x247 JUMPI PUSH1 0x0 DUP1 REVERT JUMPDEST POP PUSH2 0x262 PUSH1 0x4 DUP1 CALLDATASIZE SUB DUP2 ADD SWAP1 PUSH2 0x25D SWAP2 SWAP1 PUSH2 0x1BC9 JUMP JUMPDEST PUSH2 0xDAF JUMP JUMPDEST PUSH1 0x40 MLOAD PUSH2 0x26F SWAP2 SWAP1 PUSH2 0x1FA0 JUMP JUMPDEST PUSH1 0x40 MLOAD DUP1 SWAP2 SUB SWAP1 RETURN JUMPDEST CALLVALUE DUP1 ISZERO PUSH2 0x284 JUMPI PUSH1 0x0 DUP1 REVERT JUMPDEST POP PUSH2 0x28D PUSH2 0xDDA JUMP JUMPDEST PUSH1 0x40 MLOAD PUSH2 0x29A SWAP2 SWAP1 PUSH2 0x20A6 JUMP JUMPDEST PUSH1 0x40 MLOAD DUP1 SWAP2 SUB SWAP1 RETURN JUMPDEST CALLVALUE DUP1 ISZERO PUSH2 0x2AF JUMPI PUSH1 0x0 DUP1 REVERT JUMPDEST POP PUSH2 0x2B8 PUSH2 0xE00 JUMP JUMPDEST PUSH1 0x40 MLOAD PUSH2 0x2C5 SWAP2 SWAP1 PUSH2 0x2120 JUMP JUMPDEST PUSH1 0x40 MLOAD DUP1 SWAP2 SUB SWAP1 RETURN JUMPDEST CALLVALUE DUP1 ISZERO PUSH2 0x2DA JUMPI PUSH1 0x0 DUP1 REVERT JUMPDEST POP PUSH2 0x2E3 PUSH2 0xE26 JUMP JUMPDEST PUSH1 0x40 MLOAD PUSH2 0x2F0 SWAP2 SWAP1 PUSH2 0x2271 JUMP JUMPDEST PUSH1 0x40 MLOAD DUP1 SWAP2 SUB SWAP1 RETURN JUMPDEST PUSH2 0x313 PUSH1 0x4 DUP1 CALLDATASIZE SUB DUP2 ADD SWAP1 PUSH2 0x30E SWAP2 SWAP1 PUSH2 0x2293 JUMP JUMPDEST PUSH2 0xF19 JUMP JUMPDEST PUSH1 0x40 MLOAD PUSH2 0x320 SWAP2 SWAP1 PUSH2 0x1FA0 JUMP JUMPDEST PUSH1 0x40 MLOAD DUP1 SWAP2 SUB SWAP1 RETURN JUMPDEST CALLVALUE DUP1 ISZERO PUSH2 0x335 JUMPI PUSH1 0x0 DUP1 REVERT JUMPDEST POP PUSH2 0x350 PUSH1 0x4 DUP1 CALLDATASIZE SUB DUP2 ADD SWAP1 PUSH2 0x34B SWAP2 SWAP1 PUSH2 0x1BC9 JUMP JUMPDEST PUSH2 0x137D JUMP JUMPDEST PUSH1 0x40 MLOAD PUSH2 0x35D SWAP2 SWAP1 PUSH2 0x20A6 JUMP JUMPDEST PUSH1 0x40 MLOAD DUP1 SWAP2 SUB SWAP1 RETURN JUMPDEST PUSH1 0x4 DUP2 DUP1 MLOAD PUSH1 0x20 DUP2 ADD DUP3 ADD DUP1 MLOAD DUP5 DUP3 MSTORE PUSH1 0x20 DUP4 ADD PUSH1 0x20 DUP6 ADD KECCAK256 DUP2 DUP4 MSTORE DUP1 SWAP6 POP POP POP POP POP POP PUSH1 0x0 SWAP2 POP SWAP1 POP DUP1 PUSH1 0x0 ADD PUSH1 0x0 SWAP1 SLOAD SWAP1 PUSH2 0x100 EXP SWAP1 DIV PUSH1 0xFF AND SWAP1 DUP1 PUSH1 0x1 ADD SLOAD SWAP1 DUP1 PUSH1 0x2 ADD PUSH1 0x0 SWAP1 SLOAD SWAP1 PUSH2 0x100 EXP SWAP1 DIV PUSH20 0xFFFFFFFFFFFFFFFFFFFFFFFFFFFFFFFFFFFFFFFF AND SWAP1 DUP1 PUSH1 0x3 ADD SLOAD SWAP1 DUP1 PUSH1 0x4 ADD SLOAD SWAP1 DUP1 PUSH1 0x5 ADD SLOAD SWAP1 DUP1 PUSH1 0x6 ADD SLOAD SWAP1 DUP1 PUSH1 0x7 ADD PUSH1 0x0 SWAP1 SLOAD SWAP1 PUSH2 0x100 EXP SWAP1 DIV PUSH1 0xFF AND SWAP1 POP DUP9 JUMP JUMPDEST PUSH1 0x0 PUSH1 0x4 DUP3 PUSH1 0x40 MLOAD PUSH2 0x410 SWAP2 SWAP1 PUSH2 0x2352 JUMP JUMPDEST SWAP1 DUP2 MSTORE PUSH1 0x20 ADD PUSH1 0x40 MLOAD DUP1 SWAP2 SUB SWAP1 KECCAK256 PUSH1 0x7 ADD PUSH1 0x0 SWAP1 SLOAD SWAP1 PUSH2 0x100 EXP SWAP1 DIV PUSH1 0xFF AND SWAP1 POP SWAP2 SWAP1 POP JUMP JUMPDEST PUSH1 0x0 DUP1 SLOAD SWAP1 PUSH2 0x100 EXP SWAP1 DIV PUSH20 0xFFFFFFFFFFFFFFFFFFFFFFFFFFFFFFFFFFFFFFFF AND DUP2 JUMP JUMPDEST PUSH1 0x60 PUSH1 0x0 DUP1 SLOAD SWAP1 PUSH2 0x100 EXP SWAP1 DIV PUSH20 0xFFFFFFFFFFFFFFFFFFFFFFFFFFFFFFFFFFFFFFFF AND PUSH20 0xFFFFFFFFFFFFFFFFFFFFFFFFFFFFFFFFFFFFFFFF AND CALLER PUSH20 0xFFFFFFFFFFFFFFFFFFFFFFFFFFFFFFFFFFFFFFFF AND EQ PUSH2 0x4E1 JUMPI PUSH1 0x40 MLOAD PUSH32 0x229E1DBD00000000000000000000000000000000000000000000000000000000 DUP2 MSTORE PUSH1 0x4 ADD PUSH1 0x40 MLOAD DUP1 SWAP2 SUB SWAP1 REVERT JUMPDEST PUSH1 0x0 PUSH1 0x4 DUP4 PUSH1 0x40 MLOAD PUSH2 0x4F3 SWAP2 SWAP1 PUSH2 0x2352 JUMP JUMPDEST SWAP1 DUP2 MSTORE PUSH1 0x20 ADD PUSH1 0x40 MLOAD DUP1 SWAP2 SUB SWAP1 KECCAK256 SWAP1 POP DUP1 PUSH1 0x0 ADD PUSH1 0x0 SWAP1 SLOAD SWAP1 PUSH2 0x100 EXP SWAP1 DIV PUSH1 0xFF AND PUSH2 0x54B JUMPI PUSH1 0x40 MLOAD PUSH32 0xD63D1E4800000000000000000000000000000000000000000000000000000000 DUP2 MSTORE PUSH1 0x4 ADD PUSH1 0x40 MLOAD DUP1 SWAP2 SUB SWAP1 REVERT JUMPDEST PUSH1 0x0 DUP2 PUSH1 0x1 ADD SLOAD SWAP1 POP PUSH1 0x0 DUP1 PUSH1 0x0 SWAP1 SLOAD SWAP1 PUSH2 0x100 EXP SWAP1 DIV PUSH20 0xFFFFFFFFFFFFFFFFFFFFFFFFFFFFFFFFFFFFFFFF AND SWAP1 POP DUP3 PUSH1 0x6 ADD SLOAD TIMESTAMP LT ISZERO PUSH2 0x5B9 JUMPI PUSH1 0x64 DUP4 PUSH1 0x5 ADD SLOAD PUSH1 0x64 PUSH2 0x599 SWAP2 SWAP1 PUSH2 0x2398 JUMP JUMPDEST DUP5 PUSH1 0x1 ADD SLOAD PUSH2 0x5A8 SWAP2 SWAP1 PUSH2 0x23CC JUMP JUMPDEST PUSH2 0x5B2 SWAP2 SWAP1 PUSH2 0x243D JUMP JUMPDEST SWAP2 POP PUSH2 0x5BA JUMP JUMPDEST JUMPDEST PUSH1 0x0 DUP4 PUSH1 0x2 ADD PUSH1 0x0 SWAP1 SLOAD SWAP1 PUSH2 0x100 EXP SWAP1 DIV PUSH20 0xFFFFFFFFFFFFFFFFFFFFFFFFFFFFFFFFFFFFFFFF AND SWAP1 POP DUP4 PUSH1 0x7 ADD PUSH1 0x0 SWAP1 SLOAD SWAP1 PUSH2 0x100 EXP SWAP1 DIV PUSH1 0xFF AND ISZERO PUSH2 0x6DE JUMPI PUSH2 0x647 PUSH1 0x0 DUP1 SLOAD SWAP1 PUSH2 0x100 EXP SWAP1 DIV PUSH20 0xFFFFFFFFFFFFFFFFFFFFFFFFFFFFFFFFFFFFFFFF AND DUP5 PUSH1 0x1 PUSH1 0x0 SWAP1 SLOAD SWAP1 PUSH2 0x100 EXP SWAP1 DIV PUSH20 0xFFFFFFFFFFFFFFFFFFFFFFFFFFFFFFFFFFFFFFFF AND PUSH2 0x13C8 JUMP JUMPDEST POP DUP2 PUSH20 0xFFFFFFFFFFFFFFFFFFFFFFFFFFFFFFFFFFFFFFFF AND PUSH4 0xDE35C372 DUP3 DUP6 PUSH1 0x2 PUSH1 0x0 SWAP1 SLOAD SWAP1 PUSH2 0x100 EXP SWAP1 DIV PUSH20 0xFFFFFFFFFFFFFFFFFFFFFFFFFFFFFFFFFFFFFFFF AND PUSH1 0x40 MLOAD DUP5 PUSH4 0xFFFFFFFF AND PUSH1 0xE0 SHL DUP2 MSTORE PUSH1 0x4 ADD PUSH2 0x6A7 SWAP4 SWAP3 SWAP2 SWAP1 PUSH2 0x246E JUMP JUMPDEST PUSH1 0x0 PUSH1 0x40 MLOAD DUP1 DUP4 SUB DUP2 PUSH1 0x0 DUP8 DUP1 EXTCODESIZE ISZERO DUP1 ISZERO PUSH2 0x6C1 JUMPI PUSH1 0x0 DUP1 REVERT JUMPDEST POP GAS CALL ISZERO DUP1 ISZERO PUSH2 0x6D5 JUMPI RETURNDATASIZE PUSH1 0x0 DUP1 RETURNDATACOPY RETURNDATASIZE PUSH1 0x0 REVERT JUMPDEST POP POP POP POP PUSH2 0x83C JUMP JUMPDEST PUSH1 0x0 PUSH20 0xFFFFFFFFFFFFFFFFFFFFFFFFFFFFFFFFFFFFFFFF AND DUP2 PUSH20 0xFFFFFFFFFFFFFFFFFFFFFFFFFFFFFFFFFFFFFFFF AND SUB PUSH2 0x7E9 JUMPI PUSH1 0x0 DUP1 PUSH1 0x2 PUSH1 0x0 SWAP1 SLOAD SWAP1 PUSH2 0x100 EXP SWAP1 DIV PUSH20 0xFFFFFFFFFFFFFFFFFFFFFFFFFFFFFFFFFFFFFFFF AND PUSH20 0xFFFFFFFFFFFFFFFFFFFFFFFFFFFFFFFFFFFFFFFF AND DUP6 PUSH1 0x40 MLOAD PUSH2 0x75B SWAP1 PUSH2 0x24D6 JUMP JUMPDEST PUSH1 0x0 PUSH1 0x40 MLOAD DUP1 DUP4 SUB DUP2 DUP6 DUP8 GAS CALL SWAP3 POP POP POP RETURNDATASIZE DUP1 PUSH1 0x0 DUP2 EQ PUSH2 0x798 JUMPI PUSH1 0x40 MLOAD SWAP2 POP PUSH1 0x1F NOT PUSH1 0x3F RETURNDATASIZE ADD AND DUP3 ADD PUSH1 0x40 MSTORE RETURNDATASIZE DUP3 MSTORE RETURNDATASIZE PUSH1 0x0 PUSH1 0x20 DUP5 ADD RETURNDATACOPY PUSH2 0x79D JUMP JUMPDEST PUSH1 0x60 SWAP2 POP JUMPDEST POP SWAP2 POP SWAP2 POP DUP2 PUSH2 0x7E2 JUMPI PUSH1 0x40 MLOAD PUSH32 0x8C379A000000000000000000000000000000000000000000000000000000000 DUP2 MSTORE PUSH1 0x4 ADD PUSH2 0x7D9 SWAP1 PUSH2 0x2537 JUMP JUMPDEST PUSH1 0x40 MLOAD DUP1 SWAP2 SUB SWAP1 REVERT JUMPDEST POP POP PUSH2 0x83B JUMP JUMPDEST PUSH2 0x83A DUP5 PUSH1 0x2 ADD PUSH1 0x0 SWAP1 SLOAD SWAP1 PUSH2 0x100 EXP SWAP1 DIV PUSH20 0xFFFFFFFFFFFFFFFFFFFFFFFFFFFFFFFFFFFFFFFF AND PUSH1 0x2 PUSH1 0x0 SWAP1 SLOAD SWAP1 PUSH2 0x100 EXP SWAP1 DIV PUSH20 0xFFFFFFFFFFFFFFFFFFFFFFFFFFFFFFFFFFFFFFFF AND DUP6 PUSH2 0x1456 JUMP JUMPDEST JUMPDEST JUMPDEST PUSH1 0x0 PUSH1 0x4 DUP8 PUSH1 0x40 MLOAD PUSH2 0x84E SWAP2 SWAP1 PUSH2 0x2352 JUMP JUMPDEST SWAP1 DUP2 MSTORE PUSH1 0x20 ADD PUSH1 0x40 MLOAD DUP1 SWAP2 SUB SWAP1 KECCAK256 PUSH1 0x0 ADD PUSH1 0x0 PUSH2 0x100 EXP DUP2 SLOAD DUP2 PUSH1 0xFF MUL NOT AND SWAP1 DUP4 ISZERO ISZERO MUL OR SWAP1 SSTORE POP PUSH32 0x5B059B7FE1FEA38D4DE595079621498A365A8F1FA13E49AF9F1E4B7197AB049A DUP7 PUSH1 0x40 MLOAD PUSH2 0x8A5 SWAP2 SWAP1 PUSH2 0x1DDB JUMP JUMPDEST PUSH1 0x40 MLOAD DUP1 SWAP2 SUB SWAP1 LOG1 PUSH1 0x40 MLOAD DUP1 PUSH1 0x40 ADD PUSH1 0x40 MSTORE DUP1 PUSH1 0x1E DUP2 MSTORE PUSH1 0x20 ADD PUSH32 0x736176696E67732077697468647261776E207375636365737366756C6C790000 DUP2 MSTORE POP SWAP5 POP POP POP POP POP SWAP2 SWAP1 POP JUMP JUMPDEST PUSH1 0x0 DUP1 PUSH1 0x0 SWAP1 SLOAD SWAP1 PUSH2 0x100 EXP SWAP1 DIV PUSH20 0xFFFFFFFFFFFFFFFFFFFFFFFFFFFFFFFFFFFFFFFF AND PUSH20 0xFFFFFFFFFFFFFFFFFFFFFFFFFFFFFFFFFFFFFFFF AND CALLER PUSH20 0xFFFFFFFFFFFFFFFFFFFFFFFFFFFFFFFFFFFFFFFF AND EQ PUSH2 0x976 JUMPI PUSH1 0x40 MLOAD PUSH32 0x229E1DBD00000000000000000000000000000000000000000000000000000000 DUP2 MSTORE PUSH1 0x4 ADD PUSH1 0x40 MLOAD DUP1 SWAP2 SUB SWAP1 REVERT JUMPDEST PUSH1 0x4 DUP11 PUSH1 0x40 MLOAD PUSH2 0x986 SWAP2 SWAP1 PUSH2 0x2352 JUMP JUMPDEST SWAP1 DUP2 MSTORE PUSH1 0x20 ADD PUSH1 0x40 MLOAD DUP1 SWAP2 SUB SWAP1 KECCAK256 PUSH1 0x0 ADD PUSH1 0x0 SWAP1 SLOAD SWAP1 PUSH2 0x100 EXP SWAP1 DIV PUSH1 0xFF AND ISZERO PUSH2 0x9DC JUMPI PUSH1 0x40 MLOAD PUSH32 0xD63D1E4800000000000000000000000000000000000000000000000000000000 DUP2 MSTORE PUSH1 0x4 ADD PUSH1 0x40 MLOAD DUP1 SWAP2 SUB SWAP1 REVERT JUMPDEST DUP8 DUP10 LT ISZERO PUSH2 0xA16 JUMPI PUSH1 0x40 MLOAD PUSH32 0x6F7EAC2600000000000000000000000000000000000000000000000000000000 DUP2 MSTORE PUSH1 0x4 ADD PUSH1 0x40 MLOAD DUP1 SWAP2 SUB SWAP1 REVERT JUMPDEST TIMESTAMP DUP10 LT ISZERO PUSH2 0xA50 JUMPI PUSH1 0x40 MLOAD PUSH32 0x6F7EAC2600000000000000000000000000000000000000000000000000000000 DUP2 MSTORE PUSH1 0x4 ADD PUSH1 0x40 MLOAD DUP1 SWAP2 SUB SWAP1 REVERT JUMPDEST PUSH1 0x0 DUP6 SWAP1 POP DUP5 ISZERO PUSH2 0xAAE JUMPI PUSH2 0xAA8 PUSH1 0x0 DUP1 SLOAD SWAP1 PUSH2 0x100 EXP SWAP1 DIV PUSH20 0xFFFFFFFFFFFFFFFFFFFFFFFFFFFFFFFFFFFFFFFF AND PUSH1 0x1 PUSH1 0x0 SWAP1 SLOAD SWAP1 PUSH2 0x100 EXP SWAP1 DIV PUSH20 0xFFFFFFFFFFFFFFFFFFFFFFFFFFFFFFFFFFFFFFFF AND DUP9 PUSH2 0x1530 JUMP JUMPDEST POP PUSH2 0xB18 JUMP JUMPDEST PUSH1 0x0 PUSH20 0xFFFFFFFFFFFFFFFFFFFFFFFFFFFFFFFFFFFFFFFF AND DUP8 PUSH20 0xFFFFFFFFFFFFFFFFFFFFFFFFFFFFFFFFFFFFFFFF AND EQ PUSH2 0xB13 JUMPI PUSH2 0xB0D PUSH1 0x0 DUP1 SLOAD SWAP1 PUSH2 0x100 EXP SWAP1 DIV PUSH20 0xFFFFFFFFFFFFFFFFFFFFFFFFFFFFFFFFFFFFFFFF AND DUP9 DUP9 PUSH2 0x1530 JUMP JUMPDEST POP PUSH2 0xB17 JUMP JUMPDEST CALLVALUE SWAP1 POP JUMPDEST JUMPDEST PUSH1 0x0 PUSH2 0xB27 DUP3 DUP13 DUP13 DUP9 DUP9 PUSH2 0x1679 JUMP JUMPDEST SWAP1 POP PUSH1 0x40 MLOAD DUP1 PUSH2 0x100 ADD PUSH1 0x40 MSTORE DUP1 PUSH1 0x1 ISZERO ISZERO DUP2 MSTORE PUSH1 0x20 ADD DUP4 DUP2 MSTORE PUSH1 0x20 ADD DUP10 PUSH20 0xFFFFFFFFFFFFFFFFFFFFFFFFFFFFFFFFFFFFFFFF AND DUP2 MSTORE PUSH1 0x20 ADD DUP3 DUP2 MSTORE PUSH1 0x20 ADD DUP12 DUP2 MSTORE PUSH1 0x20 ADD DUP11 PUSH1 0xFF AND DUP2 MSTORE PUSH1 0x20 ADD DUP13 DUP2 MSTORE PUSH1 0x20 ADD DUP8 ISZERO ISZERO DUP2 MSTORE POP PUSH1 0x4 DUP14 PUSH1 0x40 MLOAD PUSH2 0xB91 SWAP2 SWAP1 PUSH2 0x2352 JUMP JUMPDEST SWAP1 DUP2 MSTORE PUSH1 0x20 ADD PUSH1 0x40 MLOAD DUP1 SWAP2 SUB SWAP1 KECCAK256 PUSH1 0x0 DUP3 ADD MLOAD DUP2 PUSH1 0x0 ADD PUSH1 0x0 PUSH2 0x100 EXP DUP2 SLOAD DUP2 PUSH1 0xFF MUL NOT AND SWAP1 DUP4 ISZERO ISZERO MUL OR SWAP1 SSTORE POP PUSH1 0x20 DUP3 ADD MLOAD DUP2 PUSH1 0x1 ADD SSTORE PUSH1 0x40 DUP3 ADD MLOAD DUP2 PUSH1 0x2 ADD PUSH1 0x0 PUSH2 0x100 EXP DUP2 SLOAD DUP2 PUSH20 0xFFFFFFFFFFFFFFFFFFFFFFFFFFFFFFFFFFFFFFFF MUL NOT AND SWAP1 DUP4 PUSH20 0xFFFFFFFFFFFFFFFFFFFFFFFFFFFFFFFFFFFFFFFF AND MUL OR SWAP1 SSTORE POP PUSH1 0x60 DUP3 ADD MLOAD DUP2 PUSH1 0x3 ADD SSTORE PUSH1 0x80 DUP3 ADD MLOAD DUP2 PUSH1 0x4 ADD SSTORE PUSH1 0xA0 DUP3 ADD MLOAD DUP2 PUSH1 0x5 ADD SSTORE PUSH1 0xC0 DUP3 ADD MLOAD DUP2 PUSH1 0x6 ADD SSTORE PUSH1 0xE0 DUP3 ADD MLOAD DUP2 PUSH1 0x7 ADD PUSH1 0x0 PUSH2 0x100 EXP DUP2 SLOAD DUP2 PUSH1 0xFF MUL NOT AND SWAP1 DUP4 ISZERO ISZERO MUL OR SWAP1 SSTORE POP SWAP1 POP POP PUSH2 0xC64 DUP13 PUSH2 0x16A4 JUMP JUMPDEST PUSH32 0x4AD85A69286191006EA05981AE1848070DBF232E5E00FFDDA4B857C16097F0D7 DUP13 DUP9 DUP11 PUSH1 0x40 MLOAD PUSH2 0xC97 SWAP4 SWAP3 SWAP2 SWAP1 PUSH2 0x2557 JUMP JUMPDEST PUSH1 0x40 MLOAD DUP1 SWAP2 SUB SWAP1 LOG1 PUSH1 0x1 SWAP3 POP POP POP SWAP10 SWAP9 POP POP POP POP POP POP POP POP POP JUMP JUMPDEST PUSH1 0x3 SLOAD DUP2 JUMP JUMPDEST PUSH2 0xCC0 PUSH2 0x19FD JUMP JUMPDEST PUSH1 0x4 DUP3 PUSH1 0x40 MLOAD PUSH2 0xCD0 SWAP2 SWAP1 PUSH2 0x2352 JUMP JUMPDEST SWAP1 DUP2 MSTORE PUSH1 0x20 ADD PUSH1 0x40 MLOAD DUP1 SWAP2 SUB SWAP1 KECCAK256 PUSH1 0x40 MLOAD DUP1 PUSH2 0x100 ADD PUSH1 0x40 MSTORE SWAP1 DUP2 PUSH1 0x0 DUP3 ADD PUSH1 0x0 SWAP1 SLOAD SWAP1 PUSH2 0x100 EXP SWAP1 DIV PUSH1 0xFF AND ISZERO ISZERO ISZERO ISZERO DUP2 MSTORE PUSH1 0x20 ADD PUSH1 0x1 DUP3 ADD SLOAD DUP2 MSTORE PUSH1 0x20 ADD PUSH1 0x2 DUP3 ADD PUSH1 0x0 SWAP1 SLOAD SWAP1 PUSH2 0x100 EXP SWAP1 DIV PUSH20 0xFFFFFFFFFFFFFFFFFFFFFFFFFFFFFFFFFFFFFFFF AND PUSH20 0xFFFFFFFFFFFFFFFFFFFFFFFFFFFFFFFFFFFFFFFF AND PUSH20 0xFFFFFFFFFFFFFFFFFFFFFFFFFFFFFFFFFFFFFFFF AND DUP2 MSTORE PUSH1 0x20 ADD PUSH1 0x3 DUP3 ADD SLOAD DUP2 MSTORE PUSH1 0x20 ADD PUSH1 0x4 DUP3 ADD SLOAD DUP2 MSTORE PUSH1 0x20 ADD PUSH1 0x5 DUP3 ADD SLOAD DUP2 MSTORE PUSH1 0x20 ADD PUSH1 0x6 DUP3 ADD SLOAD DUP2 MSTORE PUSH1 0x20 ADD PUSH1 0x7 DUP3 ADD PUSH1 0x0 SWAP1 SLOAD SWAP1 PUSH2 0x100 EXP SWAP1 DIV PUSH1 0xFF AND ISZERO ISZERO ISZERO ISZERO DUP2 MSTORE POP POP SWAP1 POP SWAP2 SWAP1 POP JUMP JUMPDEST PUSH1 0x0 PUSH1 0x4 DUP3 PUSH1 0x40 MLOAD PUSH2 0xDC1 SWAP2 SWAP1 PUSH2 0x2352 JUMP JUMPDEST SWAP1 DUP2 MSTORE PUSH1 0x20 ADD PUSH1 0x40 MLOAD DUP1 SWAP2 SUB SWAP1 KECCAK256 PUSH1 0x3 ADD SLOAD SWAP1 POP SWAP2 SWAP1 POP JUMP JUMPDEST PUSH1 0x2 PUSH1 0x0 SWAP1 SLOAD SWAP1 PUSH2 0x100 EXP SWAP1 DIV PUSH20 0xFFFFFFFFFFFFFFFFFFFFFFFFFFFFFFFFFFFFFFFF AND DUP2 JUMP JUMPDEST PUSH1 0x1 PUSH1 0x0 SWAP1 SLOAD SWAP1 PUSH2 0x100 EXP SWAP1 DIV PUSH20 0xFFFFFFFFFFFFFFFFFFFFFFFFFFFFFFFFFFFFFFFF AND DUP2 JUMP JUMPDEST PUSH2 0xE2E PUSH2 0x1A5C JUMP JUMPDEST PUSH1 0x5 PUSH1 0x40 MLOAD DUP1 PUSH1 0x20 ADD PUSH1 0x40 MSTORE SWAP1 DUP2 PUSH1 0x0 DUP3 ADD DUP1 SLOAD DUP1 PUSH1 0x20 MUL PUSH1 0x20 ADD PUSH1 0x40 MLOAD SWAP1 DUP2 ADD PUSH1 0x40 MSTORE DUP1 SWAP3 SWAP2 SWAP1 DUP2 DUP2 MSTORE PUSH1 0x20 ADD PUSH1 0x0 SWAP1 JUMPDEST DUP3 DUP3 LT ISZERO PUSH2 0xF0C JUMPI DUP4 DUP3 SWAP1 PUSH1 0x0 MSTORE PUSH1 0x20 PUSH1 0x0 KECCAK256 ADD DUP1 SLOAD PUSH2 0xE7F SWAP1 PUSH2 0x25C4 JUMP JUMPDEST DUP1 PUSH1 0x1F ADD PUSH1 0x20 DUP1 SWAP2 DIV MUL PUSH1 0x20 ADD PUSH1 0x40 MLOAD SWAP1 DUP2 ADD PUSH1 0x40 MSTORE DUP1 SWAP3 SWAP2 SWAP1 DUP2 DUP2 MSTORE PUSH1 0x20 ADD DUP3 DUP1 SLOAD PUSH2 0xEAB SWAP1 PUSH2 0x25C4 JUMP JUMPDEST DUP1 ISZERO PUSH2 0xEF8 JUMPI DUP1 PUSH1 0x1F LT PUSH2 0xECD JUMPI PUSH2 0x100 DUP1 DUP4 SLOAD DIV MUL DUP4 MSTORE SWAP2 PUSH1 0x20 ADD SWAP2 PUSH2 0xEF8 JUMP JUMPDEST DUP3 ADD SWAP2 SWAP1 PUSH1 0x0 MSTORE PUSH1 0x20 PUSH1 0x0 KECCAK256 SWAP1 JUMPDEST DUP2 SLOAD DUP2 MSTORE SWAP1 PUSH1 0x1 ADD SWAP1 PUSH1 0x20 ADD DUP1 DUP4 GT PUSH2 0xEDB JUMPI DUP3 SWAP1 SUB PUSH1 0x1F AND DUP3 ADD SWAP2 JUMPDEST POP POP POP POP POP DUP2 MSTORE PUSH1 0x20 ADD SWAP1 PUSH1 0x1 ADD SWAP1 PUSH2 0xE60 JUMP JUMPDEST POP POP POP POP DUP2 MSTORE POP POP SWAP1 POP SWAP1 JUMP JUMPDEST PUSH1 0x0 DUP1 PUSH1 0x0 SWAP1 SLOAD SWAP1 PUSH2 0x100 EXP SWAP1 DIV PUSH20 0xFFFFFFFFFFFFFFFFFFFFFFFFFFFFFFFFFFFFFFFF AND PUSH20 0xFFFFFFFFFFFFFFFFFFFFFFFFFFFFFFFFFFFFFFFF AND CALLER PUSH20 0xFFFFFFFFFFFFFFFFFFFFFFFFFFFFFFFFFFFFFFFF AND EQ PUSH2 0xFA1 JUMPI PUSH1 0x40 MLOAD PUSH32 0x229E1DBD00000000000000000000000000000000000000000000000000000000 DUP2 MSTORE PUSH1 0x4 ADD PUSH1 0x40 MLOAD DUP1 SWAP2 SUB SWAP1 REVERT JUMPDEST PUSH1 0x0 PUSH1 0x4 DUP7 PUSH1 0x40 MLOAD PUSH2 0xFB3 SWAP2 SWAP1 PUSH2 0x2352 JUMP JUMPDEST SWAP1 DUP2 MSTORE PUSH1 0x20 ADD PUSH1 0x40 MLOAD DUP1 SWAP2 SUB SWAP1 KECCAK256 SWAP1 POP DUP1 PUSH1 0x0 ADD PUSH1 0x0 SWAP1 SLOAD SWAP1 PUSH2 0x100 EXP SWAP1 DIV PUSH1 0xFF AND PUSH2 0x100B JUMPI PUSH1 0x40 MLOAD PUSH32 0xD63D1E4800000000000000000000000000000000000000000000000000000000 DUP2 MSTORE PUSH1 0x4 ADD PUSH1 0x40 MLOAD DUP1 SWAP2 SUB SWAP1 REVERT JUMPDEST DUP1 PUSH1 0x6 ADD SLOAD TIMESTAMP GT ISZERO PUSH2 0x1049 JUMPI PUSH1 0x40 MLOAD PUSH32 0x6F7EAC2600000000000000000000000000000000000000000000000000000000 DUP2 MSTORE PUSH1 0x4 ADD PUSH1 0x40 MLOAD DUP1 SWAP2 SUB SWAP1 REVERT JUMPDEST PUSH1 0x0 DUP1 PUSH20 0xFFFFFFFFFFFFFFFFFFFFFFFFFFFFFFFFFFFFFFFF AND DUP3 PUSH1 0x2 ADD PUSH1 0x0 SWAP1 SLOAD SWAP1 PUSH2 0x100 EXP SWAP1 DIV PUSH20 0xFFFFFFFFFFFFFFFFFFFFFFFFFFFFFFFFFFFFFFFF AND PUSH20 0xFFFFFFFFFFFFFFFFFFFFFFFFFFFFFFFFFFFFFFFF AND EQ SWAP1 POP DUP2 PUSH1 0x7 ADD PUSH1 0x0 SWAP1 SLOAD SWAP1 PUSH2 0x100 EXP SWAP1 DIV PUSH1 0xFF AND ISZERO PUSH2 0x110A JUMPI PUSH2 0x1104 PUSH1 0x0 DUP1 SLOAD SWAP1 PUSH2 0x100 EXP SWAP1 DIV PUSH20 0xFFFFFFFFFFFFFFFFFFFFFFFFFFFFFFFFFFFFFFFF AND PUSH1 0x1 PUSH1 0x0 SWAP1 SLOAD SWAP1 PUSH2 0x100 EXP SWAP1 DIV PUSH20 0xFFFFFFFFFFFFFFFFFFFFFFFFFFFFFFFFFFFFFFFF AND DUP9 PUSH2 0x1530 JUMP JUMPDEST POP PUSH2 0x11AC JUMP JUMPDEST DUP1 PUSH2 0x1164 JUMPI PUSH2 0x115E PUSH1 0x0 DUP1 SLOAD SWAP1 PUSH2 0x100 EXP SWAP1 DIV PUSH20 0xFFFFFFFFFFFFFFFFFFFFFFFFFFFFFFFFFFFFFFFF AND DUP4 PUSH1 0x2 ADD PUSH1 0x0 SWAP1 SLOAD SWAP1 PUSH2 0x100 EXP SWAP1 DIV PUSH20 0xFFFFFFFFFFFFFFFFFFFFFFFFFFFFFFFFFFFFFFFF AND DUP9 PUSH2 0x1530 JUMP JUMPDEST POP PUSH2 0x11AB JUMP JUMPDEST DUP6 CALLVALUE LT ISZERO PUSH2 0x11A7 JUMPI PUSH1 0x40 MLOAD PUSH32 0x8C379A000000000000000000000000000000000000000000000000000000000 DUP2 MSTORE PUSH1 0x4 ADD PUSH2 0x119E SWAP1 PUSH2 0x2667 JUMP JUMPDEST PUSH1 0x40 MLOAD DUP1 SWAP2 SUB SWAP1 REVERT JUMPDEST CALLVALUE SWAP6 POP JUMPDEST JUMPDEST PUSH1 0x0 PUSH2 0x11BF DUP8 DUP5 PUSH1 0x6 ADD SLOAD TIMESTAMP DUP10 DUP10 PUSH2 0x1679 JUMP JUMPDEST SWAP1 POP DUP1 DUP4 PUSH1 0x3 ADD SLOAD PUSH2 0x11D1 SWAP2 SWAP1 PUSH2 0x2687 JUMP JUMPDEST DUP4 PUSH1 0x3 ADD DUP2 SWAP1 SSTORE POP DUP7 DUP4 PUSH1 0x1 ADD SLOAD PUSH2 0x11E9 SWAP2 SWAP1 PUSH2 0x2687 JUMP JUMPDEST DUP4 PUSH1 0x1 ADD DUP2 SWAP1 SSTORE POP DUP3 PUSH1 0x4 DUP10 PUSH1 0x40 MLOAD PUSH2 0x1202 SWAP2 SWAP1 PUSH2 0x2352 JUMP JUMPDEST SWAP1 DUP2 MSTORE PUSH1 0x20 ADD PUSH1 0x40 MLOAD DUP1 SWAP2 SUB SWAP1 KECCAK256 PUSH1 0x0 DUP3 ADD PUSH1 0x0 SWAP1 SLOAD SWAP1 PUSH2 0x100 EXP SWAP1 DIV PUSH1 0xFF AND DUP2 PUSH1 0x0 ADD PUSH1 0x0 PUSH2 0x100 EXP DUP2 SLOAD DUP2 PUSH1 0xFF MUL NOT AND SWAP1 DUP4 ISZERO ISZERO MUL OR SWAP1 SSTORE POP PUSH1 0x1 DUP3 ADD SLOAD DUP2 PUSH1 0x1 ADD SSTORE PUSH1 0x2 DUP3 ADD PUSH1 0x0 SWAP1 SLOAD SWAP1 PUSH2 0x100 EXP SWAP1 DIV PUSH20 0xFFFFFFFFFFFFFFFFFFFFFFFFFFFFFFFFFFFFFFFF AND DUP2 PUSH1 0x2 ADD PUSH1 0x0 PUSH2 0x100 EXP DUP2 SLOAD DUP2 PUSH20 0xFFFFFFFFFFFFFFFFFFFFFFFFFFFFFFFFFFFFFFFF MUL NOT AND SWAP1 DUP4 PUSH20 0xFFFFFFFFFFFFFFFFFFFFFFFFFFFFFFFFFFFFFFFF AND MUL OR SWAP1 SSTORE POP PUSH1 0x3 DUP3 ADD SLOAD DUP2 PUSH1 0x3 ADD SSTORE PUSH1 0x4 DUP3 ADD SLOAD DUP2 PUSH1 0x4 ADD SSTORE PUSH1 0x5 DUP3 ADD SLOAD DUP2 PUSH1 0x5 ADD SSTORE PUSH1 0x6 DUP3 ADD SLOAD DUP2 PUSH1 0x6 ADD SSTORE PUSH1 0x7 DUP3 ADD PUSH1 0x0 SWAP1 SLOAD SWAP1 PUSH2 0x100 EXP SWAP1 DIV PUSH1 0xFF AND DUP2 PUSH1 0x7 ADD PUSH1 0x0 PUSH2 0x100 EXP DUP2 SLOAD DUP2 PUSH1 0xFF MUL NOT AND SWAP1 DUP4 ISZERO ISZERO MUL OR SWAP1 SSTORE POP SWAP1 POP POP PUSH32 0xF6B98D8E0D83F8B1D1FF03A2FA36ABA2C77CCF20E4FF035C0CF4AA92762E9EEC DUP9 DUP9 DUP6 PUSH1 0x1 ADD SLOAD DUP7 PUSH1 0x2 ADD PUSH1 0x0 SWAP1 SLOAD SWAP1 PUSH2 0x100 EXP SWAP1 DIV PUSH20 0xFFFFFFFFFFFFFFFFFFFFFFFFFFFFFFFFFFFFFFFF AND PUSH1 0x40 MLOAD PUSH2 0x1363 SWAP5 SWAP4 SWAP3 SWAP2 SWAP1 PUSH2 0x26BB JUMP JUMPDEST PUSH1 0x40 MLOAD DUP1 SWAP2 SUB SWAP1 LOG1 DUP3 PUSH1 0x3 ADD SLOAD SWAP4 POP POP POP POP SWAP5 SWAP4 POP POP POP POP JUMP JUMPDEST PUSH1 0x0 PUSH1 0x4 DUP3 PUSH1 0x40 MLOAD PUSH2 0x138F SWAP2 SWAP1 PUSH2 0x2352 JUMP JUMPDEST SWAP1 DUP2 MSTORE PUSH1 0x20 ADD PUSH1 0x40 MLOAD DUP1 SWAP2 SUB SWAP1 KECCAK256 PUSH1 0x2 ADD PUSH1 0x0 SWAP1 SLOAD SWAP1 PUSH2 0x100 EXP SWAP1 DIV PUSH20 0xFFFFFFFFFFFFFFFFFFFFFFFFFFFFFFFFFFFFFFFF AND SWAP1 POP SWAP2 SWAP1 POP JUMP JUMPDEST PUSH1 0x0 DUP1 DUP3 SWAP1 POP DUP1 PUSH20 0xFFFFFFFFFFFFFFFFFFFFFFFFFFFFFFFFFFFFFFFF AND PUSH4 0x95EA7B3 DUP7 DUP7 PUSH1 0x40 MLOAD DUP4 PUSH4 0xFFFFFFFF AND PUSH1 0xE0 SHL DUP2 MSTORE PUSH1 0x4 ADD PUSH2 0x1409 SWAP3 SWAP2 SWAP1 PUSH2 0x2707 JUMP JUMPDEST PUSH1 0x20 PUSH1 0x40 MLOAD DUP1 DUP4 SUB DUP2 PUSH1 0x0 DUP8 GAS CALL ISZERO DUP1 ISZERO PUSH2 0x1428 JUMPI RETURNDATASIZE PUSH1 0x0 DUP1 RETURNDATACOPY RETURNDATASIZE PUSH1 0x0 REVERT JUMPDEST POP POP POP POP PUSH1 0x40 MLOAD RETURNDATASIZE PUSH1 0x1F NOT PUSH1 0x1F DUP3 ADD AND DUP3 ADD DUP1 PUSH1 0x40 MSTORE POP DUP2 ADD SWAP1 PUSH2 0x144C SWAP2 SWAP1 PUSH2 0x2745 JUMP JUMPDEST SWAP2 POP POP SWAP4 SWAP3 POP POP POP JUMP JUMPDEST PUSH1 0x0 DUP4 SWAP1 POP DUP1 PUSH20 0xFFFFFFFFFFFFFFFFFFFFFFFFFFFFFFFFFFFFFFFF AND PUSH4 0xA9059CBB DUP5 DUP5 PUSH1 0x40 MLOAD DUP4 PUSH4 0xFFFFFFFF AND PUSH1 0xE0 SHL DUP2 MSTORE PUSH1 0x4 ADD PUSH2 0x1496 SWAP3 SWAP2 SWAP1 PUSH2 0x2707 JUMP JUMPDEST PUSH1 0x20 PUSH1 0x40 MLOAD DUP1 DUP4 SUB DUP2 PUSH1 0x0 DUP8 GAS CALL ISZERO DUP1 ISZERO PUSH2 0x14B5 JUMPI RETURNDATASIZE PUSH1 0x0 DUP1 RETURNDATACOPY RETURNDATASIZE PUSH1 0x0 REVERT JUMPDEST POP POP POP POP PUSH1 0x40 MLOAD RETURNDATASIZE PUSH1 0x1F NOT PUSH1 0x1F DUP3 ADD AND DUP3 ADD DUP1 PUSH1 0x40 MSTORE POP DUP2 ADD SWAP1 PUSH2 0x14D9 SWAP2 SWAP1 PUSH2 0x2745 JUMP JUMPDEST POP ADDRESS PUSH20 0xFFFFFFFFFFFFFFFFFFFFFFFFFFFFFFFFFFFFFFFF AND PUSH32 0x42856D0378DDE02337BB59AE41747ABC77DED8EBDBBC5CBDD1E53693B7554938 DUP5 DUP5 PUSH1 0x40 MLOAD PUSH2 0x1522 SWAP3 SWAP2 SWAP1 PUSH2 0x2707 JUMP JUMPDEST PUSH1 0x40 MLOAD DUP1 SWAP2 SUB SWAP1 LOG2 POP POP POP POP JUMP JUMPDEST PUSH1 0x0 DUP2 DUP4 PUSH20 0xFFFFFFFFFFFFFFFFFFFFFFFFFFFFFFFFFFFFFFFF AND PUSH4 0xDD62ED3E DUP7 ADDRESS PUSH1 0x40 MLOAD DUP4 PUSH4 0xFFFFFFFF AND PUSH1 0xE0 SHL DUP2 MSTORE PUSH1 0x4 ADD PUSH2 0x156E SWAP3 SWAP2 SWAP1 PUSH2 0x2772 JUMP JUMPDEST PUSH1 0x20 PUSH1 0x40 MLOAD DUP1 DUP4 SUB DUP2 DUP7 GAS STATICCALL ISZERO DUP1 ISZERO PUSH2 0x158B JUMPI RETURNDATASIZE PUSH1 0x0 DUP1 RETURNDATACOPY RETURNDATASIZE PUSH1 0x0 REVERT JUMPDEST POP POP POP POP PUSH1 0x40 MLOAD RETURNDATASIZE PUSH1 0x1F NOT PUSH1 0x1F DUP3 ADD AND DUP3 ADD DUP1 PUSH1 0x40 MSTORE POP DUP2 ADD SWAP1 PUSH2 0x15AF SWAP2 SWAP1 PUSH2 0x27B0 JUMP JUMPDEST LT ISZERO PUSH2 0x15F0 JUMPI PUSH1 0x40 MLOAD PUSH32 0x8C379A000000000000000000000000000000000000000000000000000000000 DUP2 MSTORE PUSH1 0x4 ADD PUSH2 0x15E7 SWAP1 PUSH2 0x2829 JUMP JUMPDEST PUSH1 0x40 MLOAD DUP1 SWAP2 SUB SWAP1 REVERT JUMPDEST DUP3 PUSH20 0xFFFFFFFFFFFFFFFFFFFFFFFFFFFFFFFFFFFFFFFF AND PUSH4 0x23B872DD DUP6 ADDRESS DUP6 PUSH1 0x40 MLOAD DUP5 PUSH4 0xFFFFFFFF AND PUSH1 0xE0 SHL DUP2 MSTORE PUSH1 0x4 ADD PUSH2 0x162D SWAP4 SWAP3 SWAP2 SWAP1 PUSH2 0x2849 JUMP JUMPDEST PUSH1 0x20 PUSH1 0x40 MLOAD DUP1 DUP4 SUB DUP2 PUSH1 0x0 DUP8 GAS CALL ISZERO DUP1 ISZERO PUSH2 0x164C JUMPI RETURNDATASIZE PUSH1 0x0 DUP1 RETURNDATACOPY RETURNDATASIZE PUSH1 0x0 REVERT JUMPDEST POP POP POP POP PUSH1 0x40 MLOAD RETURNDATASIZE PUSH1 0x1F NOT PUSH1 0x1F DUP3 ADD AND DUP3 ADD DUP1 PUSH1 0x40 MSTORE POP DUP2 ADD SWAP1 PUSH2 0x1670 SWAP2 SWAP1 PUSH2 0x2745 JUMP JUMPDEST SWAP1 POP SWAP4 SWAP3 POP POP POP JUMP JUMPDEST PUSH1 0x0 PUSH2 0x1692 DUP7 DUP6 DUP8 PUSH2 0x168B SWAP2 SWAP1 PUSH2 0x2398 JUMP JUMPDEST DUP6 DUP6 PUSH2 0x16DF JUMP JUMPDEST SWAP1 POP DUP1 PUSH1 0x3 DUP2 SWAP1 SSTORE POP SWAP6 SWAP5 POP POP POP POP POP JUMP JUMPDEST PUSH1 0x5 PUSH1 0x0 ADD DUP2 SWAP1 DUP1 PUSH1 0x1 DUP2 SLOAD ADD DUP1 DUP3 SSTORE DUP1 SWAP2 POP POP PUSH1 0x1 SWAP1 SUB SWAP1 PUSH1 0x0 MSTORE PUSH1 0x20 PUSH1 0x0 KECCAK256 ADD PUSH1 0x0 SWAP1 SWAP2 SWAP1 SWAP2 SWAP1 SWAP2 POP SWAP1 DUP2 PUSH2 0x16DB SWAP2 SWAP1 PUSH2 0x2A22 JUMP JUMPDEST POP POP JUMP JUMPDEST PUSH1 0x0 DUP1 PUSH2 0x1716 PUSH1 0x64 PUSH2 0x1708 DUP7 DUP8 PUSH3 0xE4E1C0 PUSH2 0x16FA SWAP2 SWAP1 PUSH2 0x2398 JUMP JUMPDEST PUSH2 0x1798 SWAP1 SWAP2 SWAP1 PUSH4 0xFFFFFFFF AND JUMP JUMPDEST PUSH2 0x17B5 SWAP1 SWAP2 SWAP1 PUSH4 0xFFFFFFFF AND JUMP JUMPDEST SWAP1 POP PUSH1 0x0 PUSH2 0x173C DUP5 DUP4 PUSH2 0x1729 SWAP2 SWAP1 PUSH2 0x23CC JUMP JUMPDEST PUSH4 0x5F5E100 PUSH2 0x1798 SWAP1 SWAP2 SWAP1 PUSH4 0xFFFFFFFF AND JUMP JUMPDEST SWAP1 POP PUSH1 0x0 PUSH2 0x1757 PUSH4 0x1E13380 DUP9 PUSH2 0x1798 SWAP1 SWAP2 SWAP1 PUSH4 0xFFFFFFFF AND JUMP JUMPDEST SWAP1 POP PUSH2 0x178B PUSH2 0x1786 PUSH1 0x64 DUP4 DUP6 DUP13 PUSH2 0x176E SWAP2 SWAP1 PUSH2 0x23CC JUMP JUMPDEST PUSH2 0x1778 SWAP2 SWAP1 PUSH2 0x23CC JUMP JUMPDEST PUSH2 0x1798 SWAP1 SWAP2 SWAP1 PUSH4 0xFFFFFFFF AND JUMP JUMPDEST PUSH2 0x17C9 JUMP JUMPDEST SWAP4 POP POP POP POP SWAP5 SWAP4 POP POP POP POP JUMP JUMPDEST PUSH1 0x0 PUSH2 0x17AD DUP4 PUSH8 0xDE0B6B3A7640000 DUP5 PUSH2 0x17EB JUMP JUMPDEST SWAP1 POP SWAP3 SWAP2 POP POP JUMP JUMPDEST PUSH1 0x0 PUSH2 0x17C1 DUP4 DUP4 PUSH2 0x1900 JUMP JUMPDEST SWAP1 POP SWAP3 SWAP2 POP POP JUMP JUMPDEST PUSH1 0x0 PUSH8 0xDE0B6B3A7640000 DUP3 DUP2 PUSH2 0x17E3 JUMPI PUSH2 0x17E2 PUSH2 0x240E JUMP JUMPDEST JUMPDEST DIV SWAP1 POP SWAP2 SWAP1 POP JUMP JUMPDEST PUSH1 0x0 DUP1 PUSH1 0x0 DUP1 NOT DUP6 DUP8 MULMOD DUP6 DUP8 MUL SWAP3 POP DUP3 DUP2 LT DUP4 DUP3 SUB SUB SWAP2 POP POP PUSH1 0x0 DUP2 SUB PUSH2 0x1826 JUMPI DUP4 DUP3 DUP2 PUSH2 0x181C JUMPI PUSH2 0x181B PUSH2 0x240E JUMP JUMPDEST JUMPDEST DIV SWAP3 POP POP POP PUSH2 0x18F9 JUMP JUMPDEST DUP4 DUP2 LT PUSH2 0x186C JUMPI DUP1 DUP5 PUSH1 0x40 MLOAD PUSH32 0x773CC18C00000000000000000000000000000000000000000000000000000000 DUP2 MSTORE PUSH1 0x4 ADD PUSH2 0x1863 SWAP3 SWAP2 SWAP1 PUSH2 0x2AF4 JUMP JUMPDEST PUSH1 0x40 MLOAD DUP1 SWAP2 SUB SWAP1 REVERT JUMPDEST PUSH1 0x0 DUP5 DUP7 DUP9 MULMOD SWAP1 POP DUP3 DUP2 GT DUP3 SUB SWAP2 POP DUP1 DUP4 SUB SWAP3 POP PUSH1 0x0 PUSH1 0x1 DUP7 NOT ADD DUP7 AND SWAP1 POP DUP1 DUP7 DIV SWAP6 POP DUP1 DUP5 DIV SWAP4 POP PUSH1 0x1 DUP2 DUP3 PUSH1 0x0 SUB DIV ADD SWAP1 POP DUP1 DUP4 MUL DUP5 OR SWAP4 POP PUSH1 0x0 PUSH1 0x2 DUP8 PUSH1 0x3 MUL XOR SWAP1 POP DUP1 DUP8 MUL PUSH1 0x2 SUB DUP2 MUL SWAP1 POP DUP1 DUP8 MUL PUSH1 0x2 SUB DUP2 MUL SWAP1 POP DUP1 DUP8 MUL PUSH1 0x2 SUB DUP2 MUL SWAP1 POP DUP1 DUP8 MUL PUSH1 0x2 SUB DUP2 MUL SWAP1 POP DUP1 DUP8 MUL PUSH1 0x2 SUB DUP2 MUL SWAP1 POP DUP1 DUP8 MUL PUSH1 0x2 SUB DUP2 MUL SWAP1 POP DUP1 DUP6 MUL SWAP6 POP POP POP POP POP POP JUMPDEST SWAP4 SWAP3 POP POP POP JUMP JUMPDEST PUSH1 0x0 DUP1 PUSH1 0x0 DUP1 NOT DUP5 DUP7 MULMOD DUP5 DUP7 MUL SWAP3 POP DUP3 DUP2 LT DUP4 DUP3 SUB SUB SWAP2 POP POP PUSH8 0xDE0B6B3A7640000 DUP2 LT PUSH2 0x1965 JUMPI DUP1 PUSH1 0x40 MLOAD PUSH32 0xD31B340200000000000000000000000000000000000000000000000000000000 DUP2 MSTORE PUSH1 0x4 ADD PUSH2 0x195C SWAP2 SWAP1 PUSH2 0x1FA0 JUMP JUMPDEST PUSH1 0x40 MLOAD DUP1 SWAP2 SUB SWAP1 REVERT JUMPDEST PUSH1 0x0 DUP1 PUSH8 0xDE0B6B3A7640000 DUP7 DUP9 MULMOD SWAP2 POP PUSH8 0x6F05B59D3B1FFFF DUP3 GT SWAP1 POP PUSH1 0x0 DUP4 SUB PUSH2 0x19B1 JUMPI DUP1 PUSH8 0xDE0B6B3A7640000 DUP6 DUP2 PUSH2 0x19A4 JUMPI PUSH2 0x19A3 PUSH2 0x240E JUMP JUMPDEST JUMPDEST DIV ADD SWAP5 POP POP POP POP POP PUSH2 0x19F7 JUMP JUMPDEST DUP1 PUSH32 0xACCB18165BD6FE31AE1CF318DC5B51EEE0E1BA569B88CD74C1773B91FAC10669 PUSH1 0x1 PUSH3 0x40000 DUP1 PUSH1 0x0 SUB DIV ADD DUP7 DUP6 GT DUP7 SUB MUL PUSH3 0x40000 DUP6 DUP9 SUB DIV OR MUL ADD SWAP5 POP POP POP POP POP JUMPDEST SWAP3 SWAP2 POP POP JUMP JUMPDEST PUSH1 0x40 MLOAD DUP1 PUSH2 0x100 ADD PUSH1 0x40 MSTORE DUP1 PUSH1 0x0 ISZERO ISZERO DUP2 MSTORE PUSH1 0x20 ADD PUSH1 0x0 DUP2 MSTORE PUSH1 0x20 ADD PUSH1 0x0 PUSH20 0xFFFFFFFFFFFFFFFFFFFFFFFFFFFFFFFFFFFFFFFF AND DUP2 MSTORE PUSH1 0x20 ADD PUSH1 0x0 DUP2 MSTORE PUSH1 0x20 ADD PUSH1 0x0 DUP2 MSTORE PUSH1 0x20 ADD PUSH1 0x0 DUP2 MSTORE PUSH1 0x20 ADD PUSH1 0x0 DUP2 MSTORE PUSH1 0x20 ADD PUSH1 0x0 ISZERO ISZERO DUP2 MSTORE POP SWAP1 JUMP JUMPDEST PUSH1 0x40 MLOAD DUP1 PUSH1 0x20 ADD PUSH1 0x40 MSTORE DUP1 PUSH1 0x60 DUP2 MSTORE POP SWAP1 JUMP JUMPDEST PUSH1 0x0 PUSH1 0x40 MLOAD SWAP1 POP SWAP1 JUMP JUMPDEST PUSH1 0x0 DUP1 REVERT JUMPDEST PUSH1 0x0 DUP1 REVERT JUMPDEST PUSH1 0x0 DUP1 REVERT JUMPDEST PUSH1 0x0 DUP1 REVERT JUMPDEST PUSH1 0x0 PUSH1 0x1F NOT PUSH1 0x1F DUP4 ADD AND SWAP1 POP SWAP2 SWAP1 POP JUMP JUMPDEST PUSH32 0x4E487B7100000000000000000000000000000000000000000000000000000000 PUSH1 0x0 MSTORE PUSH1 0x41 PUSH1 0x4 MSTORE PUSH1 0x24 PUSH1 0x0 REVERT JUMPDEST PUSH2 0x1AD6 DUP3 PUSH2 0x1A8D JUMP JUMPDEST DUP2 ADD DUP2 DUP2 LT PUSH8 0xFFFFFFFFFFFFFFFF DUP3 GT OR ISZERO PUSH2 0x1AF5 JUMPI PUSH2 0x1AF4 PUSH2 0x1A9E JUMP JUMPDEST JUMPDEST DUP1 PUSH1 0x40 MSTORE POP POP POP JUMP JUMPDEST PUSH1 0x0 PUSH2 0x1B08 PUSH2 0x1A6F JUMP JUMPDEST SWAP1 POP PUSH2 0x1B14 DUP3 DUP3 PUSH2 0x1ACD JUMP JUMPDEST SWAP2 SWAP1 POP JUMP JUMPDEST PUSH1 0x0 PUSH8 0xFFFFFFFFFFFFFFFF DUP3 GT ISZERO PUSH2 0x1B34 JUMPI PUSH2 0x1B33 PUSH2 0x1A9E JUMP JUMPDEST JUMPDEST PUSH2 0x1B3D DUP3 PUSH2 0x1A8D JUMP JUMPDEST SWAP1 POP PUSH1 0x20 DUP2 ADD SWAP1 POP SWAP2 SWAP1 POP JUMP JUMPDEST DUP3 DUP2 DUP4 CALLDATACOPY PUSH1 0x0 DUP4 DUP4 ADD MSTORE POP POP POP JUMP JUMPDEST PUSH1 0x0 PUSH2 0x1B6C PUSH2 0x1B67 DUP5 PUSH2 0x1B19 JUMP JUMPDEST PUSH2 0x1AFE JUMP JUMPDEST SWAP1 POP DUP3 DUP2 MSTORE PUSH1 0x20 DUP2 ADD DUP5 DUP5 DUP5 ADD GT ISZERO PUSH2 0x1B88 JUMPI PUSH2 0x1B87 PUSH2 0x1A88 JUMP JUMPDEST JUMPDEST PUSH2 0x1B93 DUP5 DUP3 DUP6 PUSH2 0x1B4A JUMP JUMPDEST POP SWAP4 SWAP3 POP POP POP JUMP JUMPDEST PUSH1 0x0 DUP3 PUSH1 0x1F DUP4 ADD SLT PUSH2 0x1BB0 JUMPI PUSH2 0x1BAF PUSH2 0x1A83 JUMP JUMPDEST JUMPDEST DUP2 CALLDATALOAD PUSH2 0x1BC0 DUP5 DUP3 PUSH1 0x20 DUP7 ADD PUSH2 0x1B59 JUMP JUMPDEST SWAP2 POP POP SWAP3 SWAP2 POP POP JUMP JUMPDEST PUSH1 0x0 PUSH1 0x20 DUP3 DUP5 SUB SLT ISZERO PUSH2 0x1BDF JUMPI PUSH2 0x1BDE PUSH2 0x1A79 JUMP JUMPDEST JUMPDEST PUSH1 0x0 DUP3 ADD CALLDATALOAD PUSH8 0xFFFFFFFFFFFFFFFF DUP2 GT ISZERO PUSH2 0x1BFD JUMPI PUSH2 0x1BFC PUSH2 0x1A7E JUMP JUMPDEST JUMPDEST PUSH2 0x1C09 DUP5 DUP3 DUP6 ADD PUSH2 0x1B9B JUMP JUMPDEST SWAP2 POP POP SWAP3 SWAP2 POP POP JUMP JUMPDEST PUSH1 0x0 DUP2 ISZERO ISZERO SWAP1 POP SWAP2 SWAP1 POP JUMP JUMPDEST PUSH2 0x1C27 DUP2 PUSH2 0x1C12 JUMP JUMPDEST DUP3 MSTORE POP POP JUMP JUMPDEST PUSH1 0x0 DUP2 SWAP1 POP SWAP2 SWAP1 POP JUMP JUMPDEST PUSH2 0x1C40 DUP2 PUSH2 0x1C2D JUMP JUMPDEST DUP3 MSTORE POP POP JUMP JUMPDEST PUSH1 0x0 PUSH20 0xFFFFFFFFFFFFFFFFFFFFFFFFFFFFFFFFFFFFFFFF DUP3 AND SWAP1 POP SWAP2 SWAP1 POP JUMP JUMPDEST PUSH1 0x0 PUSH2 0x1C71 DUP3 PUSH2 0x1C46 JUMP JUMPDEST SWAP1 POP SWAP2 SWAP1 POP JUMP JUMPDEST PUSH2 0x1C81 DUP2 PUSH2 0x1C66 JUMP JUMPDEST DUP3 MSTORE POP POP JUMP JUMPDEST PUSH1 0x0 PUSH2 0x100 DUP3 ADD SWAP1 POP PUSH2 0x1C9D PUSH1 0x0 DUP4 ADD DUP12 PUSH2 0x1C1E JUMP JUMPDEST PUSH2 0x1CAA PUSH1 0x20 DUP4 ADD DUP11 PUSH2 0x1C37 JUMP JUMPDEST PUSH2 0x1CB7 PUSH1 0x40 DUP4 ADD DUP10 PUSH2 0x1C78 JUMP JUMPDEST PUSH2 0x1CC4 PUSH1 0x60 DUP4 ADD DUP9 PUSH2 0x1C37 JUMP JUMPDEST PUSH2 0x1CD1 PUSH1 0x80 DUP4 ADD DUP8 PUSH2 0x1C37 JUMP JUMPDEST PUSH2 0x1CDE PUSH1 0xA0 DUP4 ADD DUP7 PUSH2 0x1C37 JUMP JUMPDEST PUSH2 0x1CEB PUSH1 0xC0 DUP4 ADD DUP6 PUSH2 0x1C37 JUMP JUMPDEST PUSH2 0x1CF8 PUSH1 0xE0 DUP4 ADD DUP5 PUSH2 0x1C1E JUMP JUMPDEST SWAP10 SWAP9 POP POP POP POP POP POP POP POP POP JUMP JUMPDEST PUSH1 0x0 PUSH1 0x20 DUP3 ADD SWAP1 POP PUSH2 0x1D1A PUSH1 0x0 DUP4 ADD DUP5 PUSH2 0x1C1E JUMP JUMPDEST SWAP3 SWAP2 POP POP JUMP JUMPDEST PUSH1 0x0 PUSH2 0x1D2B DUP3 PUSH2 0x1C46 JUMP JUMPDEST SWAP1 POP SWAP2 SWAP1 POP JUMP JUMPDEST PUSH2 0x1D3B DUP2 PUSH2 0x1D20 JUMP JUMPDEST DUP3 MSTORE POP POP JUMP JUMPDEST PUSH1 0x0 PUSH1 0x20 DUP3 ADD SWAP1 POP PUSH2 0x1D56 PUSH1 0x0 DUP4 ADD DUP5 PUSH2 0x1D32 JUMP JUMPDEST SWAP3 SWAP2 POP POP JUMP JUMPDEST PUSH1 0x0 DUP2 MLOAD SWAP1 POP SWAP2 SWAP1 POP JUMP JUMPDEST PUSH1 0x0 DUP3 DUP3 MSTORE PUSH1 0x20 DUP3 ADD SWAP1 POP SWAP3 SWAP2 POP POP JUMP JUMPDEST PUSH1 0x0 JUMPDEST DUP4 DUP2 LT ISZERO PUSH2 0x1D96 JUMPI DUP1 DUP3 ADD MLOAD DUP2 DUP5 ADD MSTORE PUSH1 0x20 DUP2 ADD SWAP1 POP PUSH2 0x1D7B JUMP JUMPDEST PUSH1 0x0 DUP5 DUP5 ADD MSTORE POP POP POP POP JUMP JUMPDEST PUSH1 0x0 PUSH2 0x1DAD DUP3 PUSH2 0x1D5C JUMP JUMPDEST PUSH2 0x1DB7 DUP2 DUP6 PUSH2 0x1D67 JUMP JUMPDEST SWAP4 POP PUSH2 0x1DC7 DUP2 DUP6 PUSH1 0x20 DUP7 ADD PUSH2 0x1D78 JUMP JUMPDEST PUSH2 0x1DD0 DUP2 PUSH2 0x1A8D JUMP JUMPDEST DUP5 ADD SWAP2 POP POP SWAP3 SWAP2 POP POP JUMP JUMPDEST PUSH1 0x0 PUSH1 0x20 DUP3 ADD SWAP1 POP DUP2 DUP2 SUB PUSH1 0x0 DUP4 ADD MSTORE PUSH2 0x1DF5 DUP2 DUP5 PUSH2 0x1DA2 JUMP JUMPDEST SWAP1 POP SWAP3 SWAP2 POP POP JUMP JUMPDEST PUSH2 0x1E06 DUP2 PUSH2 0x1C2D JUMP JUMPDEST DUP2 EQ PUSH2 0x1E11 JUMPI PUSH1 0x0 DUP1 REVERT JUMPDEST POP JUMP JUMPDEST PUSH1 0x0 DUP2 CALLDATALOAD SWAP1 POP PUSH2 0x1E23 DUP2 PUSH2 0x1DFD JUMP JUMPDEST SWAP3 SWAP2 POP POP JUMP JUMPDEST PUSH1 0x0 PUSH1 0xFF DUP3 AND SWAP1 POP SWAP2 SWAP1 POP JUMP JUMPDEST PUSH2 0x1E3F DUP2 PUSH2 0x1E29 JUMP JUMPDEST DUP2 EQ PUSH2 0x1E4A JUMPI PUSH1 0x0 DUP1 REVERT JUMPDEST POP JUMP JUMPDEST PUSH1 0x0 DUP2 CALLDATALOAD SWAP1 POP PUSH2 0x1E5C DUP2 PUSH2 0x1E36 JUMP JUMPDEST SWAP3 SWAP2 POP POP JUMP JUMPDEST PUSH2 0x1E6B DUP2 PUSH2 0x1C66 JUMP JUMPDEST DUP2 EQ PUSH2 0x1E76 JUMPI PUSH1 0x0 DUP1 REVERT JUMPDEST POP JUMP JUMPDEST PUSH1 0x0 DUP2 CALLDATALOAD SWAP1 POP PUSH2 0x1E88 DUP2 PUSH2 0x1E62 JUMP JUMPDEST SWAP3 SWAP2 POP POP JUMP JUMPDEST PUSH2 0x1E97 DUP2 PUSH2 0x1C12 JUMP JUMPDEST DUP2 EQ PUSH2 0x1EA2 JUMPI PUSH1 0x0 DUP1 REVERT JUMPDEST POP JUMP JUMPDEST PUSH1 0x0 DUP2 CALLDATALOAD SWAP1 POP PUSH2 0x1EB4 DUP2 PUSH2 0x1E8E JUMP JUMPDEST SWAP3 SWAP2 POP POP JUMP JUMPDEST PUSH1 0x0 DUP1 PUSH1 0x0 DUP1 PUSH1 0x0 DUP1 PUSH1 0x0 DUP1 PUSH1 0x0 PUSH2 0x120 DUP11 DUP13 SUB SLT ISZERO PUSH2 0x1EDD JUMPI PUSH2 0x1EDC PUSH2 0x1A79 JUMP JUMPDEST JUMPDEST PUSH1 0x0 DUP11 ADD CALLDATALOAD PUSH8 0xFFFFFFFFFFFFFFFF DUP2 GT ISZERO PUSH2 0x1EFB JUMPI PUSH2 0x1EFA PUSH2 0x1A7E JUMP JUMPDEST JUMPDEST PUSH2 0x1F07 DUP13 DUP3 DUP14 ADD PUSH2 0x1B9B JUMP JUMPDEST SWAP10 POP POP PUSH1 0x20 PUSH2 0x1F18 DUP13 DUP3 DUP14 ADD PUSH2 0x1E14 JUMP JUMPDEST SWAP9 POP POP PUSH1 0x40 PUSH2 0x1F29 DUP13 DUP3 DUP14 ADD PUSH2 0x1E14 JUMP JUMPDEST SWAP8 POP POP PUSH1 0x60 PUSH2 0x1F3A DUP13 DUP3 DUP14 ADD PUSH2 0x1E4D JUMP JUMPDEST SWAP7 POP POP PUSH1 0x80 PUSH2 0x1F4B DUP13 DUP3 DUP14 ADD PUSH2 0x1E79 JUMP JUMPDEST SWAP6 POP POP PUSH1 0xA0 PUSH2 0x1F5C DUP13 DUP3 DUP14 ADD PUSH2 0x1E14 JUMP JUMPDEST SWAP5 POP POP PUSH1 0xC0 PUSH2 0x1F6D DUP13 DUP3 DUP14 ADD PUSH2 0x1EA5 JUMP JUMPDEST SWAP4 POP POP PUSH1 0xE0 PUSH2 0x1F7E DUP13 DUP3 DUP14 ADD PUSH2 0x1E14 JUMP JUMPDEST SWAP3 POP POP PUSH2 0x100 PUSH2 0x1F90 DUP13 DUP3 DUP14 ADD PUSH2 0x1E14 JUMP JUMPDEST SWAP2 POP POP SWAP3 SWAP6 SWAP9 POP SWAP3 SWAP6 SWAP9 POP SWAP3 SWAP6 SWAP9 JUMP JUMPDEST PUSH1 0x0 PUSH1 0x20 DUP3 ADD SWAP1 POP PUSH2 0x1FB5 PUSH1 0x0 DUP4 ADD DUP5 PUSH2 0x1C37 JUMP JUMPDEST SWAP3 SWAP2 POP POP JUMP JUMPDEST PUSH2 0x1FC4 DUP2 PUSH2 0x1C12 JUMP JUMPDEST DUP3 MSTORE POP POP JUMP JUMPDEST PUSH2 0x1FD3 DUP2 PUSH2 0x1C2D JUMP JUMPDEST DUP3 MSTORE POP POP JUMP JUMPDEST PUSH2 0x1FE2 DUP2 PUSH2 0x1C66 JUMP JUMPDEST DUP3 MSTORE POP POP JUMP JUMPDEST PUSH2 0x100 DUP3 ADD PUSH1 0x0 DUP3 ADD MLOAD PUSH2 0x1FFF PUSH1 0x0 DUP6 ADD DUP3 PUSH2 0x1FBB JUMP JUMPDEST POP PUSH1 0x20 DUP3 ADD MLOAD PUSH2 0x2012 PUSH1 0x20 DUP6 ADD DUP3 PUSH2 0x1FCA JUMP JUMPDEST POP PUSH1 0x40 DUP3 ADD MLOAD PUSH2 0x2025 PUSH1 0x40 DUP6 ADD DUP3 PUSH2 0x1FD9 JUMP JUMPDEST POP PUSH1 0x60 DUP3 ADD MLOAD PUSH2 0x2038 PUSH1 0x60 DUP6 ADD DUP3 PUSH2 0x1FCA JUMP JUMPDEST POP PUSH1 0x80 DUP3 ADD MLOAD PUSH2 0x204B PUSH1 0x80 DUP6 ADD DUP3 PUSH2 0x1FCA JUMP JUMPDEST POP PUSH1 0xA0 DUP3 ADD MLOAD PUSH2 0x205E PUSH1 0xA0 DUP6 ADD DUP3 PUSH2 0x1FCA JUMP JUMPDEST POP PUSH1 0xC0 DUP3 ADD MLOAD PUSH2 0x2071 PUSH1 0xC0 DUP6 ADD DUP3 PUSH2 0x1FCA JUMP JUMPDEST POP PUSH1 0xE0 DUP3 ADD MLOAD PUSH2 0x2084 PUSH1 0xE0 DUP6 ADD DUP3 PUSH2 0x1FBB JUMP JUMPDEST POP POP POP POP JUMP JUMPDEST PUSH1 0x0 PUSH2 0x100 DUP3 ADD SWAP1 POP PUSH2 0x20A0 PUSH1 0x0 DUP4 ADD DUP5 PUSH2 0x1FE8 JUMP JUMPDEST SWAP3 SWAP2 POP POP JUMP JUMPDEST PUSH1 0x0 PUSH1 0x20 DUP3 ADD SWAP1 POP PUSH2 0x20BB PUSH1 0x0 DUP4 ADD DUP5 PUSH2 0x1C78 JUMP JUMPDEST SWAP3 SWAP2 POP POP JUMP JUMPDEST PUSH1 0x0 DUP2 SWAP1 POP SWAP2 SWAP1 POP JUMP JUMPDEST PUSH1 0x0 PUSH2 0x20E6 PUSH2 0x20E1 PUSH2 0x20DC DUP5 PUSH2 0x1C46 JUMP JUMPDEST PUSH2 0x20C1 JUMP JUMPDEST PUSH2 0x1C46 JUMP JUMPDEST SWAP1 POP SWAP2 SWAP1 POP JUMP JUMPDEST PUSH1 0x0 PUSH2 0x20F8 DUP3 PUSH2 0x20CB JUMP JUMPDEST SWAP1 POP SWAP2 SWAP1 POP JUMP JUMPDEST PUSH1 0x0 PUSH2 0x210A DUP3 PUSH2 0x20ED JUMP JUMPDEST SWAP1 POP SWAP2 SWAP1 POP JUMP JUMPDEST PUSH2 0x211A DUP2 PUSH2 0x20FF JUMP JUMPDEST DUP3 MSTORE POP POP JUMP JUMPDEST PUSH1 0x0 PUSH1 0x20 DUP3 ADD SWAP1 POP PUSH2 0x2135 PUSH1 0x0 DUP4 ADD DUP5 PUSH2 0x2111 JUMP JUMPDEST SWAP3 SWAP2 POP POP JUMP JUMPDEST PUSH1 0x0 DUP2 MLOAD SWAP1 POP SWAP2 SWAP1 POP JUMP JUMPDEST PUSH1 0x0 DUP3 DUP3 MSTORE PUSH1 0x20 DUP3 ADD SWAP1 POP SWAP3 SWAP2 POP POP JUMP JUMPDEST PUSH1 0x0 DUP2 SWAP1 POP PUSH1 0x20 DUP3 ADD SWAP1 POP SWAP2 SWAP1 POP JUMP JUMPDEST PUSH1 0x0 DUP3 DUP3 MSTORE PUSH1 0x20 DUP3 ADD SWAP1 POP SWAP3 SWAP2 POP POP JUMP JUMPDEST PUSH1 0x0 PUSH2 0x2183 DUP3 PUSH2 0x1D5C JUMP JUMPDEST PUSH2 0x218D DUP2 DUP6 PUSH2 0x2167 JUMP JUMPDEST SWAP4 POP PUSH2 0x219D DUP2 DUP6 PUSH1 0x20 DUP7 ADD PUSH2 0x1D78 JUMP JUMPDEST PUSH2 0x21A6 DUP2 PUSH2 0x1A8D JUMP JUMPDEST DUP5 ADD SWAP2 POP POP SWAP3 SWAP2 POP POP JUMP JUMPDEST PUSH1 0x0 PUSH2 0x21BD DUP4 DUP4 PUSH2 0x2178 JUMP JUMPDEST SWAP1 POP SWAP3 SWAP2 POP POP JUMP JUMPDEST PUSH1 0x0 PUSH1 0x20 DUP3 ADD SWAP1 POP SWAP2 SWAP1 POP JUMP JUMPDEST PUSH1 0x0 PUSH2 0x21DD DUP3 PUSH2 0x213B JUMP JUMPDEST PUSH2 0x21E7 DUP2 DUP6 PUSH2 0x2146 JUMP JUMPDEST SWAP4 POP DUP4 PUSH1 0x20 DUP3 MUL DUP6 ADD PUSH2 0x21F9 DUP6 PUSH2 0x2157 JUMP JUMPDEST DUP1 PUSH1 0x0 JUMPDEST DUP6 DUP2 LT ISZERO PUSH2 0x2235 JUMPI DUP5 DUP5 SUB DUP10 MSTORE DUP2 MLOAD PUSH2 0x2216 DUP6 DUP3 PUSH2 0x21B1 JUMP JUMPDEST SWAP5 POP PUSH2 0x2221 DUP4 PUSH2 0x21C5 JUMP JUMPDEST SWAP3 POP PUSH1 0x20 DUP11 ADD SWAP10 POP POP PUSH1 0x1 DUP2 ADD SWAP1 POP PUSH2 0x21FD JUMP JUMPDEST POP DUP3 SWAP8 POP DUP8 SWAP6 POP POP POP POP POP POP SWAP3 SWAP2 POP POP JUMP JUMPDEST PUSH1 0x0 PUSH1 0x20 DUP4 ADD PUSH1 0x0 DUP4 ADD MLOAD DUP5 DUP3 SUB PUSH1 0x0 DUP7 ADD MSTORE PUSH2 0x2264 DUP3 DUP3 PUSH2 0x21D2 JUMP JUMPDEST SWAP2 POP POP DUP1 SWAP2 POP POP SWAP3 SWAP2 POP POP JUMP JUMPDEST PUSH1 0x0 PUSH1 0x20 DUP3 ADD SWAP1 POP DUP2 DUP2 SUB PUSH1 0x0 DUP4 ADD MSTORE PUSH2 0x228B DUP2 DUP5 PUSH2 0x2247 JUMP JUMPDEST SWAP1 POP SWAP3 SWAP2 POP POP JUMP JUMPDEST PUSH1 0x0 DUP1 PUSH1 0x0 DUP1 PUSH1 0x80 DUP6 DUP8 SUB SLT ISZERO PUSH2 0x22AD JUMPI PUSH2 0x22AC PUSH2 0x1A79 JUMP JUMPDEST JUMPDEST PUSH1 0x0 DUP6 ADD CALLDATALOAD PUSH8 0xFFFFFFFFFFFFFFFF DUP2 GT ISZERO PUSH2 0x22CB JUMPI PUSH2 0x22CA PUSH2 0x1A7E JUMP JUMPDEST JUMPDEST PUSH2 0x22D7 DUP8 DUP3 DUP9 ADD PUSH2 0x1B9B JUMP JUMPDEST SWAP5 POP POP PUSH1 0x20 PUSH2 0x22E8 DUP8 DUP3 DUP9 ADD PUSH2 0x1E14 JUMP JUMPDEST SWAP4 POP POP PUSH1 0x40 PUSH2 0x22F9 DUP8 DUP3 DUP9 ADD PUSH2 0x1E14 JUMP JUMPDEST SWAP3 POP POP PUSH1 0x60 PUSH2 0x230A DUP8 DUP3 DUP9 ADD PUSH2 0x1E14 JUMP JUMPDEST SWAP2 POP POP SWAP3 SWAP6 SWAP2 SWAP5 POP SWAP3 POP JUMP JUMPDEST PUSH1 0x0 DUP2 SWAP1 POP SWAP3 SWAP2 POP POP JUMP JUMPDEST PUSH1 0x0 PUSH2 0x232C DUP3 PUSH2 0x1D5C JUMP JUMPDEST PUSH2 0x2336 DUP2 DUP6 PUSH2 0x2316 JUMP JUMPDEST SWAP4 POP PUSH2 0x2346 DUP2 DUP6 PUSH1 0x20 DUP7 ADD PUSH2 0x1D78 JUMP JUMPDEST DUP1 DUP5 ADD SWAP2 POP POP SWAP3 SWAP2 POP POP JUMP JUMPDEST PUSH1 0x0 PUSH2 0x235E DUP3 DUP5 PUSH2 0x2321 JUMP JUMPDEST SWAP2 POP DUP2 SWAP1 POP SWAP3 SWAP2 POP POP JUMP JUMPDEST PUSH32 0x4E487B7100000000000000000000000000000000000000000000000000000000 PUSH1 0x0 MSTORE PUSH1 0x11 PUSH1 0x4 MSTORE PUSH1 0x24 PUSH1 0x0 REVERT JUMPDEST PUSH1 0x0 PUSH2 0x23A3 DUP3 PUSH2 0x1C2D JUMP JUMPDEST SWAP2 POP PUSH2 0x23AE DUP4 PUSH2 0x1C2D JUMP JUMPDEST SWAP3 POP DUP3 DUP3 SUB SWAP1 POP DUP2 DUP2 GT ISZERO PUSH2 0x23C6 JUMPI PUSH2 0x23C5 PUSH2 0x2369 JUMP JUMPDEST JUMPDEST SWAP3 SWAP2 POP POP JUMP JUMPDEST PUSH1 0x0 PUSH2 0x23D7 DUP3 PUSH2 0x1C2D JUMP JUMPDEST SWAP2 POP PUSH2 0x23E2 DUP4 PUSH2 0x1C2D JUMP JUMPDEST SWAP3 POP DUP3 DUP3 MUL PUSH2 0x23F0 DUP2 PUSH2 0x1C2D JUMP JUMPDEST SWAP2 POP DUP3 DUP3 DIV DUP5 EQ DUP4 ISZERO OR PUSH2 0x2407 JUMPI PUSH2 0x2406 PUSH2 0x2369 JUMP JUMPDEST JUMPDEST POP SWAP3 SWAP2 POP POP JUMP JUMPDEST PUSH32 0x4E487B7100000000000000000000000000000000000000000000000000000000 PUSH1 0x0 MSTORE PUSH1 0x12 PUSH1 0x4 MSTORE PUSH1 0x24 PUSH1 0x0 REVERT JUMPDEST PUSH1 0x0 PUSH2 0x2448 DUP3 PUSH2 0x1C2D JUMP JUMPDEST SWAP2 POP PUSH2 0x2453 DUP4 PUSH2 0x1C2D JUMP JUMPDEST SWAP3 POP DUP3 PUSH2 0x2463 JUMPI PUSH2 0x2462 PUSH2 0x240E JUMP JUMPDEST JUMPDEST DUP3 DUP3 DIV SWAP1 POP SWAP3 SWAP2 POP POP JUMP JUMPDEST PUSH1 0x0 PUSH1 0x60 DUP3 ADD SWAP1 POP PUSH2 0x2483 PUSH1 0x0 DUP4 ADD DUP7 PUSH2 0x1C78 JUMP JUMPDEST PUSH2 0x2490 PUSH1 0x20 DUP4 ADD DUP6 PUSH2 0x1C37 JUMP JUMPDEST PUSH2 0x249D PUSH1 0x40 DUP4 ADD DUP5 PUSH2 0x1C78 JUMP JUMPDEST SWAP5 SWAP4 POP POP POP POP JUMP JUMPDEST PUSH1 0x0 DUP2 SWAP1 POP SWAP3 SWAP2 POP POP JUMP JUMPDEST POP JUMP JUMPDEST PUSH1 0x0 PUSH2 0x24C0 PUSH1 0x0 DUP4 PUSH2 0x24A5 JUMP JUMPDEST SWAP2 POP PUSH2 0x24CB DUP3 PUSH2 0x24B0 JUMP JUMPDEST PUSH1 0x0 DUP3 ADD SWAP1 POP SWAP2 SWAP1 POP JUMP JUMPDEST PUSH1 0x0 PUSH2 0x24E1 DUP3 PUSH2 0x24B3 JUMP JUMPDEST SWAP2 POP DUP2 SWAP1 POP SWAP2 SWAP1 POP JUMP JUMPDEST PUSH32 0x436F756C646E27742073656E642066756E647300000000000000000000000000 PUSH1 0x0 DUP3 ADD MSTORE POP JUMP JUMPDEST PUSH1 0x0 PUSH2 0x2521 PUSH1 0x13 DUP4 PUSH2 0x1D67 JUMP JUMPDEST SWAP2 POP PUSH2 0x252C DUP3 PUSH2 0x24EB JUMP JUMPDEST PUSH1 0x20 DUP3 ADD SWAP1 POP SWAP2 SWAP1 POP JUMP JUMPDEST PUSH1 0x0 PUSH1 0x20 DUP3 ADD SWAP1 POP DUP2 DUP2 SUB PUSH1 0x0 DUP4 ADD MSTORE PUSH2 0x2550 DUP2 PUSH2 0x2514 JUMP JUMPDEST SWAP1 POP SWAP2 SWAP1 POP JUMP JUMPDEST PUSH1 0x0 PUSH1 0x60 DUP3 ADD SWAP1 POP DUP2 DUP2 SUB PUSH1 0x0 DUP4 ADD MSTORE PUSH2 0x2571 DUP2 DUP7 PUSH2 0x1DA2 JUMP JUMPDEST SWAP1 POP PUSH2 0x2580 PUSH1 0x20 DUP4 ADD DUP6 PUSH2 0x1C37 JUMP JUMPDEST PUSH2 0x258D PUSH1 0x40 DUP4 ADD DUP5 PUSH2 0x1C78 JUMP JUMPDEST SWAP5 SWAP4 POP POP POP POP JUMP JUMPDEST PUSH32 0x4E487B7100000000000000000000000000000000000000000000000000000000 PUSH1 0x0 MSTORE PUSH1 0x22 PUSH1 0x4 MSTORE PUSH1 0x24 PUSH1 0x0 REVERT JUMPDEST PUSH1 0x0 PUSH1 0x2 DUP3 DIV SWAP1 POP PUSH1 0x1 DUP3 AND DUP1 PUSH2 0x25DC JUMPI PUSH1 0x7F DUP3 AND SWAP2 POP JUMPDEST PUSH1 0x20 DUP3 LT DUP2 SUB PUSH2 0x25EF JUMPI PUSH2 0x25EE PUSH2 0x2595 JUMP JUMPDEST JUMPDEST POP SWAP2 SWAP1 POP JUMP JUMPDEST PUSH32 0x496E76616C696420736176696E6720696E6372656D656E742076616C75652073 PUSH1 0x0 DUP3 ADD MSTORE PUSH32 0x656E740000000000000000000000000000000000000000000000000000000000 PUSH1 0x20 DUP3 ADD MSTORE POP JUMP JUMPDEST PUSH1 0x0 PUSH2 0x2651 PUSH1 0x23 DUP4 PUSH2 0x1D67 JUMP JUMPDEST SWAP2 POP PUSH2 0x265C DUP3 PUSH2 0x25F5 JUMP JUMPDEST PUSH1 0x40 DUP3 ADD SWAP1 POP SWAP2 SWAP1 POP JUMP JUMPDEST PUSH1 0x0 PUSH1 0x20 DUP3 ADD SWAP1 POP DUP2 DUP2 SUB PUSH1 0x0 DUP4 ADD MSTORE PUSH2 0x2680 DUP2 PUSH2 0x2644 JUMP JUMPDEST SWAP1 POP SWAP2 SWAP1 POP JUMP JUMPDEST PUSH1 0x0 PUSH2 0x2692 DUP3 PUSH2 0x1C2D JUMP JUMPDEST SWAP2 POP PUSH2 0x269D DUP4 PUSH2 0x1C2D JUMP JUMPDEST SWAP3 POP DUP3 DUP3 ADD SWAP1 POP DUP1 DUP3 GT ISZERO PUSH2 0x26B5 JUMPI PUSH2 0x26B4 PUSH2 0x2369 JUMP JUMPDEST JUMPDEST SWAP3 SWAP2 POP POP JUMP JUMPDEST PUSH1 0x0 PUSH1 0x80 DUP3 ADD SWAP1 POP DUP2 DUP2 SUB PUSH1 0x0 DUP4 ADD MSTORE PUSH2 0x26D5 DUP2 DUP8 PUSH2 0x1DA2 JUMP JUMPDEST SWAP1 POP PUSH2 0x26E4 PUSH1 0x20 DUP4 ADD DUP7 PUSH2 0x1C37 JUMP JUMPDEST PUSH2 0x26F1 PUSH1 0x40 DUP4 ADD DUP6 PUSH2 0x1C37 JUMP JUMPDEST PUSH2 0x26FE PUSH1 0x60 DUP4 ADD DUP5 PUSH2 0x1C78 JUMP JUMPDEST SWAP6 SWAP5 POP POP POP POP POP JUMP JUMPDEST PUSH1 0x0 PUSH1 0x40 DUP3 ADD SWAP1 POP PUSH2 0x271C PUSH1 0x0 DUP4 ADD DUP6 PUSH2 0x1C78 JUMP JUMPDEST PUSH2 0x2729 PUSH1 0x20 DUP4 ADD DUP5 PUSH2 0x1C37 JUMP JUMPDEST SWAP4 SWAP3 POP POP POP JUMP JUMPDEST PUSH1 0x0 DUP2 MLOAD SWAP1 POP PUSH2 0x273F DUP2 PUSH2 0x1E8E JUMP JUMPDEST SWAP3 SWAP2 POP POP JUMP JUMPDEST PUSH1 0x0 PUSH1 0x20 DUP3 DUP5 SUB SLT ISZERO PUSH2 0x275B JUMPI PUSH2 0x275A PUSH2 0x1A79 JUMP JUMPDEST JUMPDEST PUSH1 0x0 PUSH2 0x2769 DUP5 DUP3 DUP6 ADD PUSH2 0x2730 JUMP JUMPDEST SWAP2 POP POP SWAP3 SWAP2 POP POP JUMP JUMPDEST PUSH1 0x0 PUSH1 0x40 DUP3 ADD SWAP1 POP PUSH2 0x2787 PUSH1 0x0 DUP4 ADD DUP6 PUSH2 0x1C78 JUMP JUMPDEST PUSH2 0x2794 PUSH1 0x20 DUP4 ADD DUP5 PUSH2 0x1C78 JUMP JUMPDEST SWAP4 SWAP3 POP POP POP JUMP JUMPDEST PUSH1 0x0 DUP2 MLOAD SWAP1 POP PUSH2 0x27AA DUP2 PUSH2 0x1DFD JUMP JUMPDEST SWAP3 SWAP2 POP POP JUMP JUMPDEST PUSH1 0x0 PUSH1 0x20 DUP3 DUP5 SUB SLT ISZERO PUSH2 0x27C6 JUMPI PUSH2 0x27C5 PUSH2 0x1A79 JUMP JUMPDEST JUMPDEST PUSH1 0x0 PUSH2 0x27D4 DUP5 DUP3 DUP6 ADD PUSH2 0x279B JUMP JUMPDEST SWAP2 POP POP SWAP3 SWAP2 POP POP JUMP JUMPDEST PUSH32 0x546F6B656E20636F756C64206E6F742062652077697468647261776E00000000 PUSH1 0x0 DUP3 ADD MSTORE POP JUMP JUMPDEST PUSH1 0x0 PUSH2 0x2813 PUSH1 0x1C DUP4 PUSH2 0x1D67 JUMP JUMPDEST SWAP2 POP PUSH2 0x281E DUP3 PUSH2 0x27DD JUMP JUMPDEST PUSH1 0x20 DUP3 ADD SWAP1 POP SWAP2 SWAP1 POP JUMP JUMPDEST PUSH1 0x0 PUSH1 0x20 DUP3 ADD SWAP1 POP DUP2 DUP2 SUB PUSH1 0x0 DUP4 ADD MSTORE PUSH2 0x2842 DUP2 PUSH2 0x2806 JUMP JUMPDEST SWAP1 POP SWAP2 SWAP1 POP JUMP JUMPDEST PUSH1 0x0 PUSH1 0x60 DUP3 ADD SWAP1 POP PUSH2 0x285E PUSH1 0x0 DUP4 ADD DUP7 PUSH2 0x1C78 JUMP JUMPDEST PUSH2 0x286B PUSH1 0x20 DUP4 ADD DUP6 PUSH2 0x1C78 JUMP JUMPDEST PUSH2 0x2878 PUSH1 0x40 DUP4 ADD DUP5 PUSH2 0x1C37 JUMP JUMPDEST SWAP5 SWAP4 POP POP POP POP JUMP JUMPDEST PUSH1 0x0 DUP2 SWAP1 POP DUP2 PUSH1 0x0 MSTORE PUSH1 0x20 PUSH1 0x0 KECCAK256 SWAP1 POP SWAP2 SWAP1 POP JUMP JUMPDEST PUSH1 0x0 PUSH1 0x20 PUSH1 0x1F DUP4 ADD DIV SWAP1 POP SWAP2 SWAP1 POP JUMP JUMPDEST PUSH1 0x0 DUP3 DUP3 SHL SWAP1 POP SWAP3 SWAP2 POP POP JUMP JUMPDEST PUSH1 0x0 PUSH1 0x8 DUP4 MUL PUSH2 0x28E2 PUSH32 0xFFFFFFFFFFFFFFFFFFFFFFFFFFFFFFFFFFFFFFFFFFFFFFFFFFFFFFFFFFFFFFFF DUP3 PUSH2 0x28A5 JUMP JUMPDEST PUSH2 0x28EC DUP7 DUP4 PUSH2 0x28A5 JUMP JUMPDEST SWAP6 POP DUP1 NOT DUP5 AND SWAP4 POP DUP1 DUP7 AND DUP5 OR SWAP3 POP POP POP SWAP4 SWAP3 POP POP POP JUMP JUMPDEST PUSH1 0x0 PUSH2 0x291F PUSH2 0x291A PUSH2 0x2915 DUP5 PUSH2 0x1C2D JUMP JUMPDEST PUSH2 0x20C1 JUMP JUMPDEST PUSH2 0x1C2D JUMP JUMPDEST SWAP1 POP SWAP2 SWAP1 POP JUMP JUMPDEST PUSH1 0x0 DUP2 SWAP1 POP SWAP2 SWAP1 POP JUMP JUMPDEST PUSH2 0x2939 DUP4 PUSH2 0x2904 JUMP JUMPDEST PUSH2 0x294D PUSH2 0x2945 DUP3 PUSH2 0x2926 JUMP JUMPDEST DUP5 DUP5 SLOAD PUSH2 0x28B2 JUMP JUMPDEST DUP3 SSTORE POP POP POP POP JUMP JUMPDEST PUSH1 0x0 SWAP1 JUMP JUMPDEST PUSH2 0x2962 PUSH2 0x2955 JUMP JUMPDEST PUSH2 0x296D DUP2 DUP5 DUP5 PUSH2 0x2930 JUMP JUMPDEST POP POP POP JUMP JUMPDEST JUMPDEST DUP2 DUP2 LT ISZERO PUSH2 0x2991 JUMPI PUSH2 0x2986 PUSH1 0x0 DUP3 PUSH2 0x295A JUMP JUMPDEST PUSH1 0x1 DUP2 ADD SWAP1 POP PUSH2 0x2973 JUMP JUMPDEST POP POP JUMP JUMPDEST PUSH1 0x1F DUP3 GT ISZERO PUSH2 0x29D6 JUMPI PUSH2 0x29A7 DUP2 PUSH2 0x2880 JUMP JUMPDEST PUSH2 0x29B0 DUP5 PUSH2 0x2895 JUMP JUMPDEST DUP2 ADD PUSH1 0x20 DUP6 LT ISZERO PUSH2 0x29BF JUMPI DUP2 SWAP1 POP JUMPDEST PUSH2 0x29D3 PUSH2 0x29CB DUP6 PUSH2 0x2895 JUMP JUMPDEST DUP4 ADD DUP3 PUSH2 0x2972 JUMP JUMPDEST POP POP JUMPDEST POP POP POP JUMP JUMPDEST PUSH1 0x0 DUP3 DUP3 SHR SWAP1 POP SWAP3 SWAP2 POP POP JUMP JUMPDEST PUSH1 0x0 PUSH2 0x29F9 PUSH1 0x0 NOT DUP5 PUSH1 0x8 MUL PUSH2 0x29DB JUMP JUMPDEST NOT DUP1 DUP4 AND SWAP2 POP POP SWAP3 SWAP2 POP POP JUMP JUMPDEST PUSH1 0x0 PUSH2 0x2A12 DUP4 DUP4 PUSH2 0x29E8 JUMP JUMPDEST SWAP2 POP DUP3 PUSH1 0x2 MUL DUP3 OR SWAP1 POP SWAP3 SWAP2 POP POP JUMP JUMPDEST PUSH2 0x2A2B DUP3 PUSH2 0x1D5C JUMP JUMPDEST PUSH8 0xFFFFFFFFFFFFFFFF DUP2 GT ISZERO PUSH2 0x2A44 JUMPI PUSH2 0x2A43 PUSH2 0x1A9E JUMP JUMPDEST JUMPDEST PUSH2 0x2A4E DUP3 SLOAD PUSH2 0x25C4 JUMP JUMPDEST PUSH2 0x2A59 DUP3 DUP3 DUP6 PUSH2 0x2995 JUMP JUMPDEST PUSH1 0x0 PUSH1 0x20 SWAP1 POP PUSH1 0x1F DUP4 GT PUSH1 0x1 DUP2 EQ PUSH2 0x2A8C JUMPI PUSH1 0x0 DUP5 ISZERO PUSH2 0x2A7A JUMPI DUP3 DUP8 ADD MLOAD SWAP1 POP JUMPDEST PUSH2 0x2A84 DUP6 DUP3 PUSH2 0x2A06 JUMP JUMPDEST DUP7 SSTORE POP PUSH2 0x2AEC JUMP JUMPDEST PUSH1 0x1F NOT DUP5 AND PUSH2 0x2A9A DUP7 PUSH2 0x2880 JUMP JUMPDEST PUSH1 0x0 JUMPDEST DUP3 DUP2 LT ISZERO PUSH2 0x2AC2 JUMPI DUP5 DUP10 ADD MLOAD DUP3 SSTORE PUSH1 0x1 DUP3 ADD SWAP2 POP PUSH1 0x20 DUP6 ADD SWAP5 POP PUSH1 0x20 DUP2 ADD SWAP1 POP PUSH2 0x2A9D JUMP JUMPDEST DUP7 DUP4 LT ISZERO PUSH2 0x2ADF JUMPI DUP5 DUP10 ADD MLOAD PUSH2 0x2ADB PUSH1 0x1F DUP10 AND DUP3 PUSH2 0x29E8 JUMP JUMPDEST DUP4 SSTORE POP JUMPDEST PUSH1 0x1 PUSH1 0x2 DUP9 MUL ADD DUP9 SSTORE POP POP POP JUMPDEST POP POP POP POP POP POP JUMP JUMPDEST PUSH1 0x0 PUSH1 0x40 DUP3 ADD SWAP1 POP PUSH2 0x2B09 PUSH1 0x0 DUP4 ADD DUP6 PUSH2 0x1C37 JUMP JUMPDEST PUSH2 0x2B16 PUSH1 0x20 DUP4 ADD DUP5 PUSH2 0x1C37 JUMP JUMPDEST SWAP4 SWAP3 POP POP POP JUMP INVALID LOG2 PUSH5 0x6970667358 0x22 SLT KECCAK256 DUP9 JUMPDEST 0xEA INVALID 0xEB 0x4D 0xA6 0x25 0x4D MUL ADDMOD 0x28 DUP13 ADDMOD PUSH2 0xB674 0xC SELFDESTRUCT 0x4A DUP3 0xCD PUSH15 0x9B2876416B78C1667764736F6C6343 STOP ADDMOD OR STOP CALLER LOG2 PUSH5 0x6970667358 0x22 SLT KECCAK256 BLOCKHASH 0xAD RETURN REVERT PUSH8 0x96C497934618F20F 0x2C DUP14 DUP14 0xD1 0xC4 0xED SWAP15 0xDB RETURN 0x2D 0x2F SIGNEXTEND SWAP12 0xC1 DUP1 0xE8 0xBC SWAP11 0xBF PUSH5 0x736F6C6343 STOP ADDMOD OR STOP CALLER "},"methodIdentifiers":{"ChildContractGasFee()":"bf66bfc7","JoinLimitFee()":"84762b0b","SavingFee()":"fed0b925","createSaving(string,uint256,uint8,bool,address,uint256)":"6405350a","csToken()":"e04605fd","currentTotalValueLocked()":"02500739","currentVaultState()":"4c3fa304","editInternalData(uint256,uint256)":"a9e944ac","getUserChildContractAddress()":"ea413672","incrementSaving(string,address,uint256)":"1fdc181f","joinBitsave()":"16f94d5d","masterAddress()":"d365a08e","rewardPool()":"66666aa9","sendAsOriginalToken(address,uint256,address)":"de35c372","stableCoin()":"992642e5","userCount()":"07973ccf","withdrawSaving(string)":"372f9101"}}}}}