{
  "_format": "hh-sol-artifact-1",
  "contractName": "Bitsave",
  "sourceName": "contracts/Bitsave.sol",
  "abi": [
    {
      "inputs": [
        {
          "internalType": "address",
          "name": "_stableCoin",
          "type": "address"
        },
        {
          "internalType": "address",
          "name": "_csToken",
          "type": "address"
        }
      ],
      "stateMutability": "payable",
      "type": "constructor"
    },
    {
      "inputs": [],
      "name": "AmountNotEnough",
      "type": "error"
    },
    {
      "inputs": [],
      "name": "CallNotFromBitsave",
      "type": "error"
    },
    {
      "inputs": [
        {
          "internalType": "string",
          "name": "",
          "type": "string"
        }
      ],
      "name": "CanNotWithdrawToken",
      "type": "error"
    },
    {
      "inputs": [],
      "name": "InvalidTime",
      "type": "error"
    },
    {
      "inputs": [],
      "name": "MasterCallRequired",
      "type": "error"
    },
    {
      "inputs": [],
      "name": "NotEnoughToPayGasFee",
      "type": "error"
    },
    {
      "inputs": [
        {
          "internalType": "string",
          "name": "",
          "type": "string"
        }
      ],
      "name": "NotSupported",
      "type": "error"
    },
    {
      "inputs": [],
      "name": "UserNotRegistered",
      "type": "error"
    },
    {
      "anonymous": false,
      "inputs": [
        {
          "indexed": false,
          "internalType": "address",
          "name": "userAddress",
          "type": "address"
        }
      ],
      "name": "JoinedBitsave",
      "type": "event"
    },
    {
      "anonymous": false,
      "inputs": [
        {
          "indexed": false,
          "internalType": "string",
          "name": "nameOfSaving",
          "type": "string"
        },
        {
          "indexed": false,
          "internalType": "uint256",
          "name": "amount",
          "type": "uint256"
        },
        {
          "indexed": false,
          "internalType": "address",
          "name": "token",
          "type": "address"
        }
      ],
      "name": "SavingCreated",
      "type": "event"
    },
    {
      "anonymous": false,
      "inputs": [
        {
          "indexed": true,
          "internalType": "address",
          "name": "from",
          "type": "address"
        },
        {
          "indexed": false,
          "internalType": "address",
          "name": "to",
          "type": "address"
        },
        {
          "indexed": false,
          "internalType": "uint256",
          "name": "amount",
          "type": "uint256"
        }
      ],
      "name": "TokenWithdrawal",
      "type": "event"
    },
    {
      "inputs": [],
      "name": "ChildContractGasFee",
      "outputs": [
        {
          "internalType": "uint256",
          "name": "",
          "type": "uint256"
        }
      ],
      "stateMutability": "view",
      "type": "function"
    },
    {
      "inputs": [],
      "name": "JoinLimitFee",
      "outputs": [
        {
          "internalType": "uint256",
          "name": "",
          "type": "uint256"
        }
      ],
      "stateMutability": "view",
      "type": "function"
    },
    {
      "inputs": [],
      "name": "SavingFee",
      "outputs": [
        {
          "internalType": "uint256",
          "name": "",
          "type": "uint256"
        }
      ],
      "stateMutability": "view",
      "type": "function"
    },
    {
      "inputs": [
        {
          "internalType": "string",
          "name": "nameOfSaving",
          "type": "string"
        },
        {
          "internalType": "uint256",
          "name": "maturityTime",
          "type": "uint256"
        },
        {
          "internalType": "uint8",
          "name": "penaltyPercentage",
          "type": "uint8"
        },
        {
          "internalType": "bool",
          "name": "safeMode",
          "type": "bool"
        },
        {
          "internalType": "address",
          "name": "tokenToSave",
          "type": "address"
        },
        {
          "internalType": "uint256",
          "name": "amount",
          "type": "uint256"
        }
      ],
      "name": "createSaving",
      "outputs": [],
      "stateMutability": "payable",
      "type": "function"
    },
    {
      "inputs": [],
      "name": "csToken",
      "outputs": [
        {
          "internalType": "contract IERC20",
          "name": "",
          "type": "address"
        }
      ],
      "stateMutability": "view",
      "type": "function"
    },
    {
      "inputs": [],
      "name": "currentTotalValueLocked",
      "outputs": [
        {
          "internalType": "uint256",
          "name": "",
          "type": "uint256"
        }
      ],
      "stateMutability": "view",
      "type": "function"
    },
    {
      "inputs": [],
      "name": "currentVaultState",
      "outputs": [
        {
          "internalType": "uint256",
          "name": "",
          "type": "uint256"
        }
      ],
      "stateMutability": "view",
      "type": "function"
    },
    {
      "inputs": [],
      "name": "dripFountain",
      "outputs": [],
      "stateMutability": "nonpayable",
      "type": "function"
    },
    {
      "inputs": [
        {
          "internalType": "uint256",
          "name": "_joinFee",
          "type": "uint256"
        },
        {
          "internalType": "uint256",
          "name": "_savingFee",
          "type": "uint256"
        }
      ],
      "name": "editFees",
      "outputs": [],
      "stateMutability": "nonpayable",
      "type": "function"
    },
    {
      "inputs": [
        {
          "internalType": "uint256",
          "name": "_newCurrentVaultState",
          "type": "uint256"
        },
        {
          "internalType": "uint256",
          "name": "_newTotalValueLocked",
          "type": "uint256"
        },
        {
          "internalType": "address",
          "name": "_newCsToken",
          "type": "address"
        }
      ],
      "name": "editInternalData",
      "outputs": [],
      "stateMutability": "nonpayable",
      "type": "function"
    },
    {
      "inputs": [
        {
          "internalType": "address",
          "name": "_newStableCoin",
          "type": "address"
        }
      ],
      "name": "editStableCoin",
      "outputs": [],
      "stateMutability": "nonpayable",
      "type": "function"
    },
    {
      "inputs": [],
      "name": "fountain",
      "outputs": [
        {
          "internalType": "uint256",
          "name": "",
          "type": "uint256"
        }
      ],
      "stateMutability": "view",
      "type": "function"
    },
    {
      "inputs": [],
      "name": "getUserChildContractAddress",
      "outputs": [
        {
          "internalType": "address",
          "name": "",
          "type": "address"
        }
      ],
      "stateMutability": "view",
      "type": "function"
    },
    {
      "inputs": [
        {
          "internalType": "string",
          "name": "nameOfSavings",
          "type": "string"
        },
        {
          "internalType": "address",
          "name": "tokenToRetrieve",
          "type": "address"
        },
        {
          "internalType": "uint256",
          "name": "amount",
          "type": "uint256"
        }
      ],
      "name": "incrementSaving",
      "outputs": [],
      "stateMutability": "payable",
      "type": "function"
    },
    {
      "inputs": [],
      "name": "joinBitsave",
      "outputs": [
        {
          "internalType": "address",
          "name": "",
          "type": "address"
        }
      ],
      "stateMutability": "payable",
      "type": "function"
    },
    {
      "inputs": [],
      "name": "masterAddress",
      "outputs": [
        {
          "internalType": "address",
          "name": "",
          "type": "address"
        }
      ],
      "stateMutability": "view",
      "type": "function"
    },
    {
      "inputs": [],
      "name": "rewardPool",
      "outputs": [
        {
          "internalType": "uint256",
          "name": "",
          "type": "uint256"
        }
      ],
      "stateMutability": "view",
      "type": "function"
    },
    {
      "inputs": [
        {
          "internalType": "address",
          "name": "originalToken",
          "type": "address"
        },
        {
          "internalType": "uint256",
          "name": "amount",
          "type": "uint256"
        },
        {
          "internalType": "address",
          "name": "ownerAddress",
          "type": "address"
        }
      ],
      "name": "sendAsOriginalToken",
      "outputs": [
        {
          "internalType": "bool",
          "name": "",
          "type": "bool"
        }
      ],
      "stateMutability": "payable",
      "type": "function"
    },
    {
      "inputs": [],
      "name": "stableCoin",
      "outputs": [
        {
          "internalType": "contract IERC20",
          "name": "",
          "type": "address"
        }
      ],
      "stateMutability": "view",
      "type": "function"
    },
    {
      "inputs": [],
      "name": "userCount",
      "outputs": [
        {
          "internalType": "uint256",
          "name": "",
          "type": "uint256"
        }
      ],
      "stateMutability": "view",
      "type": "function"
    },
    {
      "inputs": [
        {
          "internalType": "string",
          "name": "nameOfSavings",
          "type": "string"
        }
      ],
      "name": "withdrawSaving",
      "outputs": [
        {
          "internalType": "bool",
          "name": "",
          "type": "bool"
        }
      ],
      "stateMutability": "nonpayable",
      "type": "function"
    },
    {
      "stateMutability": "payable",
      "type": "receive"
    }
  ],
  "bytecode": "0x6080604052655af3107a4000600955655af3107a4000600a556014600a546200002991906200017f565b600b55604051620056b5380380620056b5833981810160405281019062000051919062000221565b816000806101000a81548173ffffffffffffffffffffffffffffffffffffffff021916908373ffffffffffffffffffffffffffffffffffffffff16021790555080600160006101000a81548173ffffffffffffffffffffffffffffffffffffffff021916908373ffffffffffffffffffffffffffffffffffffffff16021790555033600260006101000a81548173ffffffffffffffffffffffffffffffffffffffff021916908373ffffffffffffffffffffffffffffffffffffffff1602179055506000600381905550600060068190555062d59f80600781905550620186a060088190555034600481905550505062000268565b6000819050919050565b7f4e487b7100000000000000000000000000000000000000000000000000000000600052601260045260246000fd5b60006200018c8262000146565b9150620001998362000146565b925082620001ac57620001ab62000150565b5b828204905092915050565b600080fd5b600073ffffffffffffffffffffffffffffffffffffffff82169050919050565b6000620001e982620001bc565b9050919050565b620001fb81620001dc565b81146200020757600080fd5b50565b6000815190506200021b81620001f0565b92915050565b600080604083850312156200023b576200023a620001b7565b5b60006200024b858286016200020a565b92505060206200025e858286016200020a565b9150509250929050565b61543d80620002786000396000f3fe6080604052600436106200014b5760003560e01c806384762b0b11620000bb578063d5633e961162000079578063d5633e961462000408578063de35c3721462000422578063e04605fd1462000458578063ea4136721462000488578063f24053b314620004b8578063fed0b92514620004e85762000153565b806384762b0b146200031a578063992642e5146200034a5780639986e0e9146200037a578063bf66bfc714620003a8578063d365a08e14620003d85762000153565b8063372f91011162000109578063372f910114620002285780634c3fa304146200026c5780636405350a146200029c57806366666aa914620002bc5780637679489c14620002ec5762000153565b806302500739146200015857806307973ccf146200018857806316f94d5d14620001b8578063174fbaee14620001da5780631fdc181f14620002085762000153565b366200015357005b600080fd5b3480156200016557600080fd5b506200017062000518565b6040516200017f91906200192e565b60405180910390f35b3480156200019557600080fd5b50620001a06200051e565b604051620001af91906200192e565b60405180910390f35b620001c262000524565b604051620001d1919062001990565b60405180910390f35b348015620001e757600080fd5b50620002066004803603810190620002009190620019f2565b62000747565b005b62000226600480360381019062000220919062001bcc565b6200080a565b005b3480156200023557600080fd5b506200025460048036038101906200024e919062001c47565b62000b6d565b60405162000263919062001cb5565b60405180910390f35b3480156200027957600080fd5b506200028462000d2c565b6040516200029391906200192e565b60405180910390f35b620002ba6004803603810190620002b4919062001d41565b62000d32565b005b348015620002c957600080fd5b50620002d462001008565b604051620002e391906200192e565b60405180910390f35b348015620002f957600080fd5b5062000318600480360381019062000312919062001dfc565b6200100e565b005b3480156200032757600080fd5b506200033262001120565b6040516200034191906200192e565b60405180910390f35b3480156200035757600080fd5b506200036262001126565b60405162000371919062001ec3565b60405180910390f35b3480156200038757600080fd5b50620003a66004803603810190620003a0919062001ee0565b6200114a565b005b348015620003b557600080fd5b50620003c06200124b565b604051620003cf91906200192e565b60405180910390f35b348015620003e557600080fd5b50620003f062001251565b604051620003ff919062001990565b60405180910390f35b3480156200041557600080fd5b506200042062001277565b005b6200044060048036038101906200043a919062001f12565b6200138c565b6040516200044f919062001cb5565b60405180910390f35b3480156200046557600080fd5b5062000470620014cb565b6040516200047f919062001ec3565b60405180910390f35b3480156200049557600080fd5b50620004a0620014f1565b604051620004af919062001990565b60405180910390f35b348015620004c557600080fd5b50620004d062001558565b604051620004df91906200192e565b60405180910390f35b348015620004f557600080fd5b50620005006200155e565b6040516200050f91906200192e565b60405180910390f35b60085481565b60065481565b6000803390506000600560008373ffffffffffffffffffffffffffffffffffffffff1673ffffffffffffffffffffffffffffffffffffffff16815260200190815260200160002060009054906101000a900473ffffffffffffffffffffffffffffffffffffffff169050600073ffffffffffffffffffffffffffffffffffffffff168173ffffffffffffffffffffffffffffffffffffffff1614620005ce57809250505062000744565b6009543410156200060b576040517fcb6e851c00000000000000000000000000000000000000000000000000000000815260040160405180910390fd5b60003360008054906101000a900473ffffffffffffffffffffffffffffffffffffffff166040516200063d9062001905565b6200064a92919062001f6e565b604051809103906000f08015801562000667573d6000803e3d6000fd5b50905080600560008573ffffffffffffffffffffffffffffffffffffffff1673ffffffffffffffffffffffffffffffffffffffff16815260200190815260200160002060006101000a81548173ffffffffffffffffffffffffffffffffffffffff021916908373ffffffffffffffffffffffffffffffffffffffff160217905550600160066000828254620006fd919062001fca565b925050819055507f0c5c0c4d53b63790e32770cf47fd115d706000fd7ab63fbdc8d176c5020d6b468360405162000735919062001990565b60405180910390a18093505050505b90565b600260009054906101000a900473ffffffffffffffffffffffffffffffffffffffff1673ffffffffffffffffffffffffffffffffffffffff163373ffffffffffffffffffffffffffffffffffffffff1614620007cf576040517f33662b3400000000000000000000000000000000000000000000000000000000815260040160405180910390fd5b60008214620007e057816009819055505b60008114620008065780600a81905550601481620007ff919062002034565b600b819055505b5050565b33600073ffffffffffffffffffffffffffffffffffffffff16600560008373ffffffffffffffffffffffffffffffffffffffff1673ffffffffffffffffffffffffffffffffffffffff16815260200190815260200160002060009054906101000a900473ffffffffffffffffffffffffffffffffffffffff1673ffffffffffffffffffffffffffffffffffffffff1603620008d1576040517f2163950f00000000000000000000000000000000000000000000000000000000815260040160405180910390fd5b6000600560003373ffffffffffffffffffffffffffffffffffffffff1673ffffffffffffffffffffffffffffffffffffffff16815260200190815260200160002060009054906101000a900473ffffffffffffffffffffffffffffffffffffffff169050600081905060008173ffffffffffffffffffffffffffffffffffffffff1663e18f5f65886040518263ffffffff1660e01b8152600401620009779190620020f5565b602060405180830381865afa15801562000995573d6000803e3d6000fd5b505050506040513d601f19601f82011682018060405250810190620009bb919062002130565b905060008073ffffffffffffffffffffffffffffffffffffffff168273ffffffffffffffffffffffffffffffffffffffff16149050600086905060008473ffffffffffffffffffffffffffffffffffffffff16631bb862a58b6040518263ffffffff1660e01b815260040162000a329190620020f5565b602060405180830381865afa15801562000a50573d6000803e3d6000fd5b505050506040513d601f19601f8201168201806040525081019062000a76919062002179565b9050801562000aa35760008054906101000a900473ffffffffffffffffffffffffffffffffffffffff1698505b600062000ab2898b8962001564565b90508573ffffffffffffffffffffffffffffffffffffffff1663dc2379b98562000adf57600b5462000af0565b84600b5462000aef919062001fca565b5b8d846007546008546040518663ffffffff1660e01b815260040162000b199493929190620021ab565b60206040518083038185885af115801562000b38573d6000803e3d6000fd5b50505050506040513d601f19601f8201168201806040525081019062000b5f919062002216565b505050505050505050505050565b600033600073ffffffffffffffffffffffffffffffffffffffff16600560008373ffffffffffffffffffffffffffffffffffffffff1673ffffffffffffffffffffffffffffffffffffffff16815260200190815260200160002060009054906101000a900473ffffffffffffffffffffffffffffffffffffffff1673ffffffffffffffffffffffffffffffffffffffff160362000c36576040517f2163950f00000000000000000000000000000000000000000000000000000000815260040160405180910390fd5b6000600560003373ffffffffffffffffffffffffffffffffffffffff1673ffffffffffffffffffffffffffffffffffffffff16815260200190815260200160002060009054906101000a900473ffffffffffffffffffffffffffffffffffffffff1690508073ffffffffffffffffffffffffffffffffffffffff1663372f9101856040518263ffffffff1660e01b815260040162000cd59190620020f5565b6000604051808303816000875af115801562000cf5573d6000803e3d6000fd5b505050506040513d6000823e3d601f19601f8201168201806040525081019062000d209190620022c6565b50600192505050919050565b60075481565b33600073ffffffffffffffffffffffffffffffffffffffff16600560008373ffffffffffffffffffffffffffffffffffffffff1673ffffffffffffffffffffffffffffffffffffffff16815260200190815260200160002060009054906101000a900473ffffffffffffffffffffffffffffffffffffffff1673ffffffffffffffffffffffffffffffffffffffff160362000df9576040517f2163950f00000000000000000000000000000000000000000000000000000000815260040160405180910390fd5b600a5434101562000e36576040517fd0c279a200000000000000000000000000000000000000000000000000000000815260040160405180910390fd5b8542111562000e71576040517f6f7eac2600000000000000000000000000000000000000000000000000000000815260040160405180910390fd5b831562000eb5576040517f329e2f1500000000000000000000000000000000000000000000000000000000815260040162000eac9062002367565b60405180910390fd5b600062000ec233620016b3565b9050600062000ed384868462001564565b905060008290508073ffffffffffffffffffffffffffffffffffffffff1663436d4a6d600073ffffffffffffffffffffffffffffffffffffffff168873ffffffffffffffffffffffffffffffffffffffff161462000f3457600b5462000f45565b83600b5462000f44919062001fca565b5b8c8c428d8c898f6007546008546040518b63ffffffff1660e01b815260040162000f78999897969594939291906200239a565b60206040518083038185885af115801562000f97573d6000803e3d6000fd5b50505050506040513d601f19601f8201168201806040525081019062000fbe919062002216565b507f4ad85a69286191006ea05981ae1848070dbf232e5e00ffdda4b857c16097f0d78a838860405162000ff49392919062002440565b60405180910390a150505050505050505050565b60035481565b600260009054906101000a900473ffffffffffffffffffffffffffffffffffffffff1673ffffffffffffffffffffffffffffffffffffffff163373ffffffffffffffffffffffffffffffffffffffff161462001096576040517f33662b3400000000000000000000000000000000000000000000000000000000815260040160405180910390fd5b8260078190555081600881905550600073ffffffffffffffffffffffffffffffffffffffff168173ffffffffffffffffffffffffffffffffffffffff16146200111b5780600160006101000a81548173ffffffffffffffffffffffffffffffffffffffff021916908373ffffffffffffffffffffffffffffffffffffffff1602179055505b505050565b60095481565b60008054906101000a900473ffffffffffffffffffffffffffffffffffffffff1681565b600260009054906101000a900473ffffffffffffffffffffffffffffffffffffffff1673ffffffffffffffffffffffffffffffffffffffff163373ffffffffffffffffffffffffffffffffffffffff1614620011d2576040517f33662b3400000000000000000000000000000000000000000000000000000000815260040160405180910390fd5b600073ffffffffffffffffffffffffffffffffffffffff168173ffffffffffffffffffffffffffffffffffffffff16146200124857806000806101000a81548173ffffffffffffffffffffffffffffffffffffffff021916908373ffffffffffffffffffffffffffffffffffffffff1602179055505b50565b600b5481565b600260009054906101000a900473ffffffffffffffffffffffffffffffffffffffff1681565b600260009054906101000a900473ffffffffffffffffffffffffffffffffffffffff1673ffffffffffffffffffffffffffffffffffffffff163373ffffffffffffffffffffffffffffffffffffffff1614620012ff576040517f33662b3400000000000000000000000000000000000000000000000000000000815260040160405180910390fd5b60004790506004548111156200138957600260009054906101000a900473ffffffffffffffffffffffffffffffffffffffff1673ffffffffffffffffffffffffffffffffffffffff166108fc600454836200135b919062002484565b9081150290604051600060405180830381858888f1935050505015801562001387573d6000803e3d6000fd5b505b50565b6000816000600560008373ffffffffffffffffffffffffffffffffffffffff1673ffffffffffffffffffffffffffffffffffffffff16815260200190815260200160002060009054906101000a900473ffffffffffffffffffffffffffffffffffffffff169050600073ffffffffffffffffffffffffffffffffffffffff168173ffffffffffffffffffffffffffffffffffffffff1614806200145b57503373ffffffffffffffffffffffffffffffffffffffff168173ffffffffffffffffffffffffffffffffffffffff1614155b1562001493576040517f229e1dbd00000000000000000000000000000000000000000000000000000000815260040160405180910390fd5b620014c03360008054906101000a900473ffffffffffffffffffffffffffffffffffffffff16876200171c565b925050509392505050565b600160009054906101000a900473ffffffffffffffffffffffffffffffffffffffff1681565b6000600560003373ffffffffffffffffffffffffffffffffffffffff1673ffffffffffffffffffffffffffffffffffffffff16815260200190815260200160002060009054906101000a900473ffffffffffffffffffffffffffffffffffffffff16905090565b60045481565b600a5481565b60008073ffffffffffffffffffffffffffffffffffffffff168373ffffffffffffffffffffffffffffffffffffffff161462001696576000620015a93385876200171c565b905080620015ee576040517fec866729000000000000000000000000000000000000000000000000000000008152600401620015e5906200250f565b60405180910390fd5b3373ffffffffffffffffffffffffffffffffffffffff167f42856d0378dde02337bb59ae41747abc77ded8ebdbbc5cbdd1e53693b755493830876040516200163892919062002531565b60405180910390a26200164d83868662001872565b6200168f576040517f08c379a00000000000000000000000000000000000000000000000000000000081526004016200168690620025ae565b60405180910390fd5b50620016a9565b600a5434620016a6919062002484565b93505b8390509392505050565b6000600560008373ffffffffffffffffffffffffffffffffffffffff1673ffffffffffffffffffffffffffffffffffffffff16815260200190815260200160002060009054906101000a900473ffffffffffffffffffffffffffffffffffffffff169050919050565b6000818373ffffffffffffffffffffffffffffffffffffffff1663dd62ed3e86306040518363ffffffff1660e01b81526004016200175c92919062001f6e565b602060405180830381865afa1580156200177a573d6000803e3d6000fd5b505050506040513d601f19601f82011682018060405250810190620017a0919062002216565b1015620017e4576040517f08c379a0000000000000000000000000000000000000000000000000000000008152600401620017db9062002620565b60405180910390fd5b8273ffffffffffffffffffffffffffffffffffffffff166323b872dd8530856040518463ffffffff1660e01b8152600401620018239392919062002642565b6020604051808303816000875af115801562001843573d6000803e3d6000fd5b505050506040513d601f19601f8201168201806040525081019062001869919062002179565b90509392505050565b6000808290508073ffffffffffffffffffffffffffffffffffffffff1663095ea7b386866040518363ffffffff1660e01b8152600401620018b592919062002531565b6020604051808303816000875af1158015620018d5573d6000803e3d6000fd5b505050506040513d601f19601f82011682018060405250810190620018fb919062002179565b9150509392505050565b612d88806200268083390190565b6000819050919050565b620019288162001913565b82525050565b60006020820190506200194560008301846200191d565b92915050565b600073ffffffffffffffffffffffffffffffffffffffff82169050919050565b600062001978826200194b565b9050919050565b6200198a816200196b565b82525050565b6000602082019050620019a760008301846200197f565b92915050565b6000604051905090565b600080fd5b600080fd5b620019cc8162001913565b8114620019d857600080fd5b50565b600081359050620019ec81620019c1565b92915050565b6000806040838503121562001a0c5762001a0b620019b7565b5b600062001a1c85828601620019db565b925050602062001a2f85828601620019db565b9150509250929050565b600080fd5b600080fd5b6000601f19601f8301169050919050565b7f4e487b7100000000000000000000000000000000000000000000000000000000600052604160045260246000fd5b62001a8e8262001a43565b810181811067ffffffffffffffff8211171562001ab05762001aaf62001a54565b5b80604052505050565b600062001ac5620019ad565b905062001ad3828262001a83565b919050565b600067ffffffffffffffff82111562001af65762001af562001a54565b5b62001b018262001a43565b9050602081019050919050565b82818337600083830152505050565b600062001b3462001b2e8462001ad8565b62001ab9565b90508281526020810184848401111562001b535762001b5262001a3e565b5b62001b6084828562001b0e565b509392505050565b600082601f83011262001b805762001b7f62001a39565b5b813562001b9284826020860162001b1d565b91505092915050565b62001ba6816200196b565b811462001bb257600080fd5b50565b60008135905062001bc68162001b9b565b92915050565b60008060006060848603121562001be85762001be7620019b7565b5b600084013567ffffffffffffffff81111562001c095762001c08620019bc565b5b62001c178682870162001b68565b935050602062001c2a8682870162001bb5565b925050604062001c3d86828701620019db565b9150509250925092565b60006020828403121562001c605762001c5f620019b7565b5b600082013567ffffffffffffffff81111562001c815762001c80620019bc565b5b62001c8f8482850162001b68565b91505092915050565b60008115159050919050565b62001caf8162001c98565b82525050565b600060208201905062001ccc600083018462001ca4565b92915050565b600060ff82169050919050565b62001cea8162001cd2565b811462001cf657600080fd5b50565b60008135905062001d0a8162001cdf565b92915050565b62001d1b8162001c98565b811462001d2757600080fd5b50565b60008135905062001d3b8162001d10565b92915050565b60008060008060008060c0878903121562001d615762001d60620019b7565b5b600087013567ffffffffffffffff81111562001d825762001d81620019bc565b5b62001d9089828a0162001b68565b965050602062001da389828a01620019db565b955050604062001db689828a0162001cf9565b945050606062001dc989828a0162001d2a565b935050608062001ddc89828a0162001bb5565b92505060a062001def89828a01620019db565b9150509295509295509295565b60008060006060848603121562001e185762001e17620019b7565b5b600062001e2886828701620019db565b935050602062001e3b86828701620019db565b925050604062001e4e8682870162001bb5565b9150509250925092565b6000819050919050565b600062001e8362001e7d62001e77846200194b565b62001e58565b6200194b565b9050919050565b600062001e978262001e62565b9050919050565b600062001eab8262001e8a565b9050919050565b62001ebd8162001e9e565b82525050565b600060208201905062001eda600083018462001eb2565b92915050565b60006020828403121562001ef95762001ef8620019b7565b5b600062001f098482850162001bb5565b91505092915050565b60008060006060848603121562001f2e5762001f2d620019b7565b5b600062001f3e8682870162001bb5565b935050602062001f5186828701620019db565b925050604062001f648682870162001bb5565b9150509250925092565b600060408201905062001f8560008301856200197f565b62001f9460208301846200197f565b9392505050565b7f4e487b7100000000000000000000000000000000000000000000000000000000600052601160045260246000fd5b600062001fd78262001913565b915062001fe48362001913565b925082820190508082111562001fff5762001ffe62001f9b565b5b92915050565b7f4e487b7100000000000000000000000000000000000000000000000000000000600052601260045260246000fd5b6000620020418262001913565b91506200204e8362001913565b92508262002061576200206062002005565b5b828204905092915050565b600081519050919050565b600082825260208201905092915050565b60005b83811015620020a85780820151818401526020810190506200208b565b60008484015250505050565b6000620020c1826200206c565b620020cd818562002077565b9350620020df81856020860162002088565b620020ea8162001a43565b840191505092915050565b60006020820190508181036000830152620021118184620020b4565b905092915050565b6000815190506200212a8162001b9b565b92915050565b600060208284031215620021495762002148620019b7565b5b6000620021598482850162002119565b91505092915050565b600081519050620021738162001d10565b92915050565b600060208284031215620021925762002191620019b7565b5b6000620021a28482850162002162565b91505092915050565b60006080820190508181036000830152620021c78187620020b4565b9050620021d860208301866200191d565b620021e760408301856200191d565b620021f660608301846200191d565b95945050505050565b6000815190506200221081620019c1565b92915050565b6000602082840312156200222f576200222e620019b7565b5b60006200223f84828501620021ff565b91505092915050565b60006200225f620022598462001ad8565b62001ab9565b9050828152602081018484840111156200227e576200227d62001a3e565b5b6200228b84828562002088565b509392505050565b600082601f830112620022ab57620022aa62001a39565b5b8151620022bd84826020860162002248565b91505092915050565b600060208284031215620022df57620022de620019b7565b5b600082015167ffffffffffffffff8111156200230057620022ff620019bc565b5b6200230e8482850162002293565b91505092915050565b7f4e6f2073616665206d6f64652079657421000000000000000000000000000000600082015250565b60006200234f60118362002077565b91506200235c8262002317565b602082019050919050565b60006020820190508181036000830152620023828162002340565b9050919050565b620023948162001cd2565b82525050565b6000610120820190508181036000830152620023b7818c620020b4565b9050620023c8602083018b6200191d565b620023d7604083018a6200191d565b620023e6606083018962002389565b620023f560808301886200197f565b6200240460a08301876200191d565b6200241360c083018662001ca4565b6200242260e08301856200191d565b620024326101008301846200191d565b9a9950505050505050505050565b600060608201905081810360008301526200245c8186620020b4565b90506200246d60208301856200191d565b6200247c60408301846200197f565b949350505050565b6000620024918262001913565b91506200249e8362001913565b9250828203905081811115620024b957620024b862001f9b565b5b92915050565b7f54786e206661696c656400000000000000000000000000000000000000000000600082015250565b6000620024f7600a8362002077565b91506200250482620024bf565b602082019050919050565b600060208201905081810360008301526200252a81620024e8565b9050919050565b60006040820190506200254860008301856200197f565b6200255760208301846200191d565b9392505050565b7f536176696e677320696e76616c69640000000000000000000000000000000000600082015250565b600062002596600f8362002077565b9150620025a3826200255e565b602082019050919050565b60006020820190508181036000830152620025c98162002587565b9050919050565b7f546f6b656e20636f756c64206e6f742062652077697468647261776e00000000600082015250565b600062002608601c8362002077565b91506200261582620025d0565b602082019050919050565b600060208201905081810360008301526200263b81620025f9565b9050919050565b60006060820190506200265960008301866200197f565b6200266860208301856200197f565b6200267760408301846200191d565b94935050505056fe608060405260405162002d8838038062002d88833981810160405281019062000029919062000165565b336000806101000a81548173ffffffffffffffffffffffffffffffffffffffff021916908373ffffffffffffffffffffffffffffffffffffffff16021790555081600260006101000a81548173ffffffffffffffffffffffffffffffffffffffff021916908373ffffffffffffffffffffffffffffffffffffffff16021790555080600160006101000a81548173ffffffffffffffffffffffffffffffffffffffff021916908373ffffffffffffffffffffffffffffffffffffffff16021790555060006003819055505050620001ac565b600080fd5b600073ffffffffffffffffffffffffffffffffffffffff82169050919050565b60006200012d8262000100565b9050919050565b6200013f8162000120565b81146200014b57600080fd5b50565b6000815190506200015f8162000134565b92915050565b600080604083850312156200017f576200017e620000fb565b5b60006200018f858286016200014e565b9250506020620001a2858286016200014e565b9150509250929050565b612bcc80620001bc6000396000f3fe6080604052600436106100c25760003560e01c8063585dbffe1161007f578063992642e511610059578063992642e5146102a3578063d1ece790146102ce578063dc2379b9146102f9578063e18f5f6514610329576100c2565b8063585dbffe146101fe57806384febb691461023b5780638f84aa0914610278576100c2565b806313203929146100c75780631bb862a51461010b5780632ae3c90f14610148578063372f910114610173578063436d4a6d146101a3578063567142be146101d3575b600080fd5b3480156100d357600080fd5b506100ee60048036038101906100e99190611c42565b610366565b604051610102989796959493929190611d00565b60405180910390f35b34801561011757600080fd5b50610132600480360381019061012d9190611c42565b6103fe565b60405161013f9190611d7e565b60405180910390f35b34801561015457600080fd5b5061015d610436565b60405161016a9190611dba565b60405180910390f35b61018d60048036038101906101889190611c42565b61045a565b60405161019a9190611e54565b60405180910390f35b6101bd60048036038101906101b89190611f33565b61094f565b6040516101ca9190612019565b60405180910390f35b3480156101df57600080fd5b506101e8610d13565b6040516101f59190612019565b60405180910390f35b34801561020a57600080fd5b5061022560048036038101906102209190611c42565b610d19565b6040516102329190612103565b60405180910390f35b34801561024757600080fd5b50610262600480360381019061025d9190611c42565b610e10565b60405161026f9190612019565b60405180910390f35b34801561028457600080fd5b5061028d610e3b565b60405161029a919061211f565b60405180910390f35b3480156102af57600080fd5b506102b8610e61565b6040516102c59190612199565b60405180910390f35b3480156102da57600080fd5b506102e3610e87565b6040516102f091906122ea565b60405180910390f35b610313600480360381019061030e919061230c565b610f7a565b6040516103209190612019565b60405180910390f35b34801561033557600080fd5b50610350600480360381019061034b9190611c42565b6113de565b60405161035d919061211f565b60405180910390f35b6004818051602081018201805184825260208301602085012081835280955050505050506000915090508060000160009054906101000a900460ff16908060010154908060020160009054906101000a900473ffffffffffffffffffffffffffffffffffffffff16908060030154908060040154908060050154908060060154908060070160009054906101000a900460ff16905088565b600060048260405161041091906123cb565b908152602001604051809103902060070160009054906101000a900460ff169050919050565b60008054906101000a900473ffffffffffffffffffffffffffffffffffffffff1681565b606060008054906101000a900473ffffffffffffffffffffffffffffffffffffffff1673ffffffffffffffffffffffffffffffffffffffff163373ffffffffffffffffffffffffffffffffffffffff16146104e1576040517f229e1dbd00000000000000000000000000000000000000000000000000000000815260040160405180910390fd5b60006004836040516104f391906123cb565b908152602001604051809103902090508060000160009054906101000a900460ff1661054b576040517fd63d1e4800000000000000000000000000000000000000000000000000000000815260040160405180910390fd5b60008160010154905060008060009054906101000a900473ffffffffffffffffffffffffffffffffffffffff16905082600601544210156105b9576064836005015460646105999190612411565b84600101546105a89190612445565b6105b291906124b6565b91506105ba565b5b60008360020160009054906101000a900473ffffffffffffffffffffffffffffffffffffffff16905060008460070160009054906101000a900460ff16156106f35761064960008054906101000a900473ffffffffffffffffffffffffffffffffffffffff1685600160009054906101000a900473ffffffffffffffffffffffffffffffffffffffff16611429565b508273ffffffffffffffffffffffffffffffffffffffff1663de35c3728386600260009054906101000a900473ffffffffffffffffffffffffffffffffffffffff166040518463ffffffff1660e01b81526004016106a9939291906124e7565b6020604051808303816000875af11580156106c8573d6000803e3d6000fd5b505050506040513d601f19601f820116820180604052508101906106ec9190612533565b9050610853565b600073ffffffffffffffffffffffffffffffffffffffff168273ffffffffffffffffffffffffffffffffffffffff16036107fe57600080600260009054906101000a900473ffffffffffffffffffffffffffffffffffffffff1673ffffffffffffffffffffffffffffffffffffffff168660405161077090612591565b60006040518083038185875af1925050503d80600081146107ad576040519150601f19603f3d011682016040523d82523d6000602084013e6107b2565b606091505b5091509150816107f7576040517f08c379a00000000000000000000000000000000000000000000000000000000081526004016107ee906125f2565b60405180910390fd5b5050610852565b61084f8560020160009054906101000a900473ffffffffffffffffffffffffffffffffffffffff16600260009054906101000a900473ffffffffffffffffffffffffffffffffffffffff16866114b7565b90505b5b801561090c57600060048860405161086b91906123cb565b908152602001604051809103902060000160006101000a81548160ff0219169083151502179055507f5b059b7fe1fea38d4de595079621498a365a8f1fa13e49af9f1e4b7197ab049a876040516108c29190611e54565b60405180910390a16040518060400160405280601e81526020017f736176696e67732077697468647261776e207375636365737366756c6c7900008152509550505050505061094a565b6040518060400160405280600681526020017f4661696c65640000000000000000000000000000000000000000000000000000815250955050505050505b919050565b60008060009054906101000a900473ffffffffffffffffffffffffffffffffffffffff1673ffffffffffffffffffffffffffffffffffffffff163373ffffffffffffffffffffffffffffffffffffffff16146109d7576040517f229e1dbd00000000000000000000000000000000000000000000000000000000815260040160405180910390fd5b60048a6040516109e791906123cb565b908152602001604051809103902060000160009054906101000a900460ff1615610a3d576040517fd63d1e4800000000000000000000000000000000000000000000000000000000815260040160405180910390fd5b87891015610a77576040517f6f7eac2600000000000000000000000000000000000000000000000000000000815260040160405180910390fd5b42891015610ab1576040517f6f7eac2600000000000000000000000000000000000000000000000000000000815260040160405180910390fd5b60008590508415610b0f57610b0960008054906101000a900473ffffffffffffffffffffffffffffffffffffffff16600160009054906101000a900473ffffffffffffffffffffffffffffffffffffffff1688611595565b50610b79565b600073ffffffffffffffffffffffffffffffffffffffff168773ffffffffffffffffffffffffffffffffffffffff1614610b7457610b6e60008054906101000a900473ffffffffffffffffffffffffffffffffffffffff168888611595565b50610b78565b3490505b5b6000610b88828c8c88886116de565b90506040518061010001604052806001151581526020018381526020018973ffffffffffffffffffffffffffffffffffffffff1681526020018281526020018b81526020018a60ff1681526020018c815260200187151581525060048d604051610bf291906123cb565b908152602001604051809103902060008201518160000160006101000a81548160ff0219169083151502179055506020820151816001015560408201518160020160006101000a81548173ffffffffffffffffffffffffffffffffffffffff021916908373ffffffffffffffffffffffffffffffffffffffff160217905550606082015181600301556080820151816004015560a0820151816005015560c0820151816006015560e08201518160070160006101000a81548160ff021916908315150217905550905050610cc58c611709565b7f4ad85a69286191006ea05981ae1848070dbf232e5e00ffdda4b857c16097f0d78c888a604051610cf893929190612612565b60405180910390a16001925050509998505050505050505050565b60035481565b610d21611a76565b600482604051610d3191906123cb565b9081526020016040518091039020604051806101000160405290816000820160009054906101000a900460ff16151515158152602001600182015481526020016002820160009054906101000a900473ffffffffffffffffffffffffffffffffffffffff1673ffffffffffffffffffffffffffffffffffffffff1673ffffffffffffffffffffffffffffffffffffffff168152602001600382015481526020016004820154815260200160058201548152602001600682015481526020016007820160009054906101000a900460ff1615151515815250509050919050565b6000600482604051610e2291906123cb565b9081526020016040518091039020600301549050919050565b600260009054906101000a900473ffffffffffffffffffffffffffffffffffffffff1681565b600160009054906101000a900473ffffffffffffffffffffffffffffffffffffffff1681565b610e8f611ad5565b600560405180602001604052908160008201805480602002602001604051908101604052809291908181526020016000905b82821015610f6d578382906000526020600020018054610ee09061267f565b80601f0160208091040260200160405190810160405280929190818152602001828054610f0c9061267f565b8015610f595780601f10610f2e57610100808354040283529160200191610f59565b820191906000526020600020905b815481529060010190602001808311610f3c57829003601f168201915b505050505081526020019060010190610ec1565b5050505081525050905090565b60008060009054906101000a900473ffffffffffffffffffffffffffffffffffffffff1673ffffffffffffffffffffffffffffffffffffffff163373ffffffffffffffffffffffffffffffffffffffff1614611002576040517f229e1dbd00000000000000000000000000000000000000000000000000000000815260040160405180910390fd5b600060048660405161101491906123cb565b908152602001604051809103902090508060000160009054906101000a900460ff1661106c576040517fd63d1e4800000000000000000000000000000000000000000000000000000000815260040160405180910390fd5b80600601544211156110aa576040517f6f7eac2600000000000000000000000000000000000000000000000000000000815260040160405180910390fd5b60008073ffffffffffffffffffffffffffffffffffffffff168260020160009054906101000a900473ffffffffffffffffffffffffffffffffffffffff1673ffffffffffffffffffffffffffffffffffffffff161490508160070160009054906101000a900460ff161561116b5761116560008054906101000a900473ffffffffffffffffffffffffffffffffffffffff16600160009054906101000a900473ffffffffffffffffffffffffffffffffffffffff1688611595565b5061120d565b806111c5576111bf60008054906101000a900473ffffffffffffffffffffffffffffffffffffffff168360020160009054906101000a900473ffffffffffffffffffffffffffffffffffffffff1688611595565b5061120c565b85341015611208576040517f08c379a00000000000000000000000000000000000000000000000000000000081526004016111ff90612722565b60405180910390fd5b3495505b5b60006112208784600601544289896116de565b90508083600301546112329190612742565b836003018190555086836001015461124a9190612742565b83600101819055508260048960405161126391906123cb565b90815260200160405180910390206000820160009054906101000a900460ff168160000160006101000a81548160ff021916908315150217905550600182015481600101556002820160009054906101000a900473ffffffffffffffffffffffffffffffffffffffff168160020160006101000a81548173ffffffffffffffffffffffffffffffffffffffff021916908373ffffffffffffffffffffffffffffffffffffffff160217905550600382015481600301556004820154816004015560058201548160050155600682015481600601556007820160009054906101000a900460ff168160070160006101000a81548160ff0219169083151502179055509050507ff6b98d8e0d83f8b1d1ff03a2fa36aba2c77ccf20e4ff035c0cf4aa92762e9eec888885600101548660020160009054906101000a900473ffffffffffffffffffffffffffffffffffffffff166040516113c49493929190612776565b60405180910390a182600301549350505050949350505050565b60006004826040516113f091906123cb565b908152602001604051809103902060020160009054906101000a900473ffffffffffffffffffffffffffffffffffffffff169050919050565b6000808290508073ffffffffffffffffffffffffffffffffffffffff1663095ea7b386866040518363ffffffff1660e01b815260040161146a9291906127c2565b6020604051808303816000875af1158015611489573d6000803e3d6000fd5b505050506040513d601f19601f820116820180604052508101906114ad9190612533565b9150509392505050565b6000808490508073ffffffffffffffffffffffffffffffffffffffff1663a9059cbb85856040518363ffffffff1660e01b81526004016114f89291906127c2565b6020604051808303816000875af1158015611517573d6000803e3d6000fd5b505050506040513d601f19601f8201168201806040525081019061153b9190612533565b91503073ffffffffffffffffffffffffffffffffffffffff167f42856d0378dde02337bb59ae41747abc77ded8ebdbbc5cbdd1e53693b755493885856040516115859291906127c2565b60405180910390a2509392505050565b6000818373ffffffffffffffffffffffffffffffffffffffff1663dd62ed3e86306040518363ffffffff1660e01b81526004016115d39291906127eb565b602060405180830381865afa1580156115f0573d6000803e3d6000fd5b505050506040513d601f19601f820116820180604052508101906116149190612829565b1015611655576040517f08c379a000000000000000000000000000000000000000000000000000000000815260040161164c906128a2565b60405180910390fd5b8273ffffffffffffffffffffffffffffffffffffffff166323b872dd8530856040518463ffffffff1660e01b8152600401611692939291906128c2565b6020604051808303816000875af11580156116b1573d6000803e3d6000fd5b505050506040513d601f19601f820116820180604052508101906116d59190612533565b90509392505050565b60006116f78685876116f09190612411565b8585611744565b90508060038190555095945050505050565b6005600001819080600181540180825580915050600190039060005260206000200160009091909190915090816117409190612a9b565b5050565b60008061177b606461176d868762e4e1c061175f9190612411565b61181190919063ffffffff16565b61182e90919063ffffffff16565b905060006117a1848361178e9190612445565b6305f5e10061181190919063ffffffff16565b905060006117bc6301e133808861181190919063ffffffff16565b90506118046117ff683635c9adc5dea0000060646117da9190612445565b83858c6117e79190612445565b6117f19190612445565b61181190919063ffffffff16565b611842565b9350505050949350505050565b600061182683670de0b6b3a764000084611864565b905092915050565b600061183a8383611979565b905092915050565b6000670de0b6b3a7640000828161185c5761185b612487565b5b049050919050565b600080600080198587098587029250828110838203039150506000810361189f5783828161189557611894612487565b5b0492505050611972565b8381106118e55780846040517f773cc18c0000000000000000000000000000000000000000000000000000000081526004016118dc929190612b6d565b60405180910390fd5b60008486880990508281118203915080830392506000600186190186169050808604955080840493506001818260000304019050808302841793506000600287600302189050808702600203810290508087026002038102905080870260020381029050808702600203810290508087026002038102905080870260020381029050808502955050505050505b9392505050565b60008060008019848609848602925082811083820303915050670de0b6b3a764000081106119de57806040517fd31b34020000000000000000000000000000000000000000000000000000000081526004016119d59190612019565b60405180910390fd5b600080670de0b6b3a764000086880991506706f05b59d3b1ffff8211905060008303611a2a5780670de0b6b3a76400008581611a1d57611a1c612487565b5b0401945050505050611a70565b807faccb18165bd6fe31ae1cf318dc5b51eee0e1ba569b88cd74c1773b91fac1066960016204000080600003040186851186030262040000858803041702019450505050505b92915050565b60405180610100016040528060001515815260200160008152602001600073ffffffffffffffffffffffffffffffffffffffff168152602001600081526020016000815260200160008152602001600081526020016000151581525090565b6040518060200160405280606081525090565b6000604051905090565b600080fd5b600080fd5b600080fd5b600080fd5b6000601f19601f8301169050919050565b7f4e487b7100000000000000000000000000000000000000000000000000000000600052604160045260246000fd5b611b4f82611b06565b810181811067ffffffffffffffff82111715611b6e57611b6d611b17565b5b80604052505050565b6000611b81611ae8565b9050611b8d8282611b46565b919050565b600067ffffffffffffffff821115611bad57611bac611b17565b5b611bb682611b06565b9050602081019050919050565b82818337600083830152505050565b6000611be5611be084611b92565b611b77565b905082815260208101848484011115611c0157611c00611b01565b5b611c0c848285611bc3565b509392505050565b600082601f830112611c2957611c28611afc565b5b8135611c39848260208601611bd2565b91505092915050565b600060208284031215611c5857611c57611af2565b5b600082013567ffffffffffffffff811115611c7657611c75611af7565b5b611c8284828501611c14565b91505092915050565b60008115159050919050565b611ca081611c8b565b82525050565b6000819050919050565b611cb981611ca6565b82525050565b600073ffffffffffffffffffffffffffffffffffffffff82169050919050565b6000611cea82611cbf565b9050919050565b611cfa81611cdf565b82525050565b600061010082019050611d16600083018b611c97565b611d23602083018a611cb0565b611d306040830189611cf1565b611d3d6060830188611cb0565b611d4a6080830187611cb0565b611d5760a0830186611cb0565b611d6460c0830185611cb0565b611d7160e0830184611c97565b9998505050505050505050565b6000602082019050611d936000830184611c97565b92915050565b6000611da482611cbf565b9050919050565b611db481611d99565b82525050565b6000602082019050611dcf6000830184611dab565b92915050565b600081519050919050565b600082825260208201905092915050565b60005b83811015611e0f578082015181840152602081019050611df4565b60008484015250505050565b6000611e2682611dd5565b611e308185611de0565b9350611e40818560208601611df1565b611e4981611b06565b840191505092915050565b60006020820190508181036000830152611e6e8184611e1b565b905092915050565b611e7f81611ca6565b8114611e8a57600080fd5b50565b600081359050611e9c81611e76565b92915050565b600060ff82169050919050565b611eb881611ea2565b8114611ec357600080fd5b50565b600081359050611ed581611eaf565b92915050565b611ee481611cdf565b8114611eef57600080fd5b50565b600081359050611f0181611edb565b92915050565b611f1081611c8b565b8114611f1b57600080fd5b50565b600081359050611f2d81611f07565b92915050565b60008060008060008060008060006101208a8c031215611f5657611f55611af2565b5b60008a013567ffffffffffffffff811115611f7457611f73611af7565b5b611f808c828d01611c14565b9950506020611f918c828d01611e8d565b9850506040611fa28c828d01611e8d565b9750506060611fb38c828d01611ec6565b9650506080611fc48c828d01611ef2565b95505060a0611fd58c828d01611e8d565b94505060c0611fe68c828d01611f1e565b93505060e0611ff78c828d01611e8d565b9250506101006120098c828d01611e8d565b9150509295985092959850929598565b600060208201905061202e6000830184611cb0565b92915050565b61203d81611c8b565b82525050565b61204c81611ca6565b82525050565b61205b81611cdf565b82525050565b610100820160008201516120786000850182612034565b50602082015161208b6020850182612043565b50604082015161209e6040850182612052565b5060608201516120b16060850182612043565b5060808201516120c46080850182612043565b5060a08201516120d760a0850182612043565b5060c08201516120ea60c0850182612043565b5060e08201516120fd60e0850182612034565b50505050565b6000610100820190506121196000830184612061565b92915050565b60006020820190506121346000830184611cf1565b92915050565b6000819050919050565b600061215f61215a61215584611cbf565b61213a565b611cbf565b9050919050565b600061217182612144565b9050919050565b600061218382612166565b9050919050565b61219381612178565b82525050565b60006020820190506121ae600083018461218a565b92915050565b600081519050919050565b600082825260208201905092915050565b6000819050602082019050919050565b600082825260208201905092915050565b60006121fc82611dd5565b61220681856121e0565b9350612216818560208601611df1565b61221f81611b06565b840191505092915050565b600061223683836121f1565b905092915050565b6000602082019050919050565b6000612256826121b4565b61226081856121bf565b935083602082028501612272856121d0565b8060005b858110156122ae578484038952815161228f858261222a565b945061229a8361223e565b925060208a01995050600181019050612276565b50829750879550505050505092915050565b600060208301600083015184820360008601526122dd828261224b565b9150508091505092915050565b6000602082019050818103600083015261230481846122c0565b905092915050565b6000806000806080858703121561232657612325611af2565b5b600085013567ffffffffffffffff81111561234457612343611af7565b5b61235087828801611c14565b945050602061236187828801611e8d565b935050604061237287828801611e8d565b925050606061238387828801611e8d565b91505092959194509250565b600081905092915050565b60006123a582611dd5565b6123af818561238f565b93506123bf818560208601611df1565b80840191505092915050565b60006123d7828461239a565b915081905092915050565b7f4e487b7100000000000000000000000000000000000000000000000000000000600052601160045260246000fd5b600061241c82611ca6565b915061242783611ca6565b925082820390508181111561243f5761243e6123e2565b5b92915050565b600061245082611ca6565b915061245b83611ca6565b925082820261246981611ca6565b915082820484148315176124805761247f6123e2565b5b5092915050565b7f4e487b7100000000000000000000000000000000000000000000000000000000600052601260045260246000fd5b60006124c182611ca6565b91506124cc83611ca6565b9250826124dc576124db612487565b5b828204905092915050565b60006060820190506124fc6000830186611cf1565b6125096020830185611cb0565b6125166040830184611cf1565b949350505050565b60008151905061252d81611f07565b92915050565b60006020828403121561254957612548611af2565b5b60006125578482850161251e565b91505092915050565b600081905092915050565b50565b600061257b600083612560565b91506125868261256b565b600082019050919050565b600061259c8261256e565b9150819050919050565b7f436f756c646e27742073656e642066756e647300000000000000000000000000600082015250565b60006125dc601383611de0565b91506125e7826125a6565b602082019050919050565b6000602082019050818103600083015261260b816125cf565b9050919050565b6000606082019050818103600083015261262c8186611e1b565b905061263b6020830185611cb0565b6126486040830184611cf1565b949350505050565b7f4e487b7100000000000000000000000000000000000000000000000000000000600052602260045260246000fd5b6000600282049050600182168061269757607f821691505b6020821081036126aa576126a9612650565b5b50919050565b7f496e76616c696420736176696e6720696e6372656d656e742076616c7565207360008201527f656e740000000000000000000000000000000000000000000000000000000000602082015250565b600061270c602383611de0565b9150612717826126b0565b604082019050919050565b6000602082019050818103600083015261273b816126ff565b9050919050565b600061274d82611ca6565b915061275883611ca6565b92508282019050808211156127705761276f6123e2565b5b92915050565b600060808201905081810360008301526127908187611e1b565b905061279f6020830186611cb0565b6127ac6040830185611cb0565b6127b96060830184611cf1565b95945050505050565b60006040820190506127d76000830185611cf1565b6127e46020830184611cb0565b9392505050565b60006040820190506128006000830185611cf1565b61280d6020830184611cf1565b9392505050565b60008151905061282381611e76565b92915050565b60006020828403121561283f5761283e611af2565b5b600061284d84828501612814565b91505092915050565b7f546f6b656e20636f756c64206e6f742062652077697468647261776e00000000600082015250565b600061288c601c83611de0565b915061289782612856565b602082019050919050565b600060208201905081810360008301526128bb8161287f565b9050919050565b60006060820190506128d76000830186611cf1565b6128e46020830185611cf1565b6128f16040830184611cb0565b949350505050565b60008190508160005260206000209050919050565b60006020601f8301049050919050565b600082821b905092915050565b60006008830261295b7fffffffffffffffffffffffffffffffffffffffffffffffffffffffffffffffff8261291e565b612965868361291e565b95508019841693508086168417925050509392505050565b600061299861299361298e84611ca6565b61213a565b611ca6565b9050919050565b6000819050919050565b6129b28361297d565b6129c66129be8261299f565b84845461292b565b825550505050565b600090565b6129db6129ce565b6129e68184846129a9565b505050565b5b81811015612a0a576129ff6000826129d3565b6001810190506129ec565b5050565b601f821115612a4f57612a20816128f9565b612a298461290e565b81016020851015612a38578190505b612a4c612a448561290e565b8301826129eb565b50505b505050565b600082821c905092915050565b6000612a7260001984600802612a54565b1980831691505092915050565b6000612a8b8383612a61565b9150826002028217905092915050565b612aa482611dd5565b67ffffffffffffffff811115612abd57612abc611b17565b5b612ac7825461267f565b612ad2828285612a0e565b600060209050601f831160018114612b055760008415612af3578287015190505b612afd8582612a7f565b865550612b65565b601f198416612b13866128f9565b60005b82811015612b3b57848901518255600182019150602085019450602081019050612b16565b86831015612b585784890151612b54601f891682612a61565b8355505b6001600288020188555050505b505050505050565b6000604082019050612b826000830185611cb0565b612b8f6020830184611cb0565b939250505056fea26469706673582212202fa309c708e21757f0490d495e0fed99dbce5e9dc23ccf7ca64810dfed7f240c64736f6c63430008170033a2646970667358221220ec7790eb9f34bbb47abbfd1ceb66f20a897af24040eacd66b8c99f61e7d32bbd64736f6c63430008170033",
  "linkReferences": {},
  "deployedLinkReferences": {}
}