{
  "_format": "hh-sol-artifact-1",
  "contractName": "Bitsave",
  "sourceName": "contracts/Bitsave.sol",
  "abi": [
    {
      "inputs": [
        {
          "internalType": "address",
          "name": "_stableCoin",
          "type": "address"
        },
        {
          "internalType": "address",
          "name": "_csToken",
          "type": "address"
        }
      ],
      "stateMutability": "payable",
      "type": "constructor"
    },
    {
      "inputs": [],
      "name": "AmountNotEnough",
      "type": "error"
    },
    {
      "inputs": [],
      "name": "CallNotFromBitsave",
      "type": "error"
    },
    {
      "inputs": [
        {
          "internalType": "string",
          "name": "",
          "type": "string"
        }
      ],
      "name": "CanNotWithdrawToken",
      "type": "error"
    },
    {
      "inputs": [],
      "name": "InvalidTime",
      "type": "error"
    },
    {
      "inputs": [],
      "name": "NotEnoughToPayGasFee",
      "type": "error"
    },
    {
      "inputs": [
        {
          "internalType": "string",
          "name": "",
          "type": "string"
        }
      ],
      "name": "NotSupported",
      "type": "error"
    },
    {
      "inputs": [],
      "name": "UserNotRegistered",
      "type": "error"
    },
    {
      "anonymous": false,
      "inputs": [
        {
          "indexed": false,
          "internalType": "address",
          "name": "userAddress",
          "type": "address"
        }
      ],
      "name": "JoinedBitsave",
      "type": "event"
    },
    {
      "anonymous": false,
      "inputs": [
        {
          "indexed": false,
          "internalType": "string",
          "name": "nameOfSaving",
          "type": "string"
        },
        {
          "indexed": false,
          "internalType": "uint256",
          "name": "amount",
          "type": "uint256"
        },
        {
          "indexed": false,
          "internalType": "address",
          "name": "token",
          "type": "address"
        }
      ],
      "name": "SavingCreated",
      "type": "event"
    },
    {
      "anonymous": false,
      "inputs": [
        {
          "indexed": true,
          "internalType": "address",
          "name": "from",
          "type": "address"
        },
        {
          "indexed": false,
          "internalType": "address",
          "name": "to",
          "type": "address"
        },
        {
          "indexed": false,
          "internalType": "uint256",
          "name": "amount",
          "type": "uint256"
        }
      ],
      "name": "TokenWithdrawal",
      "type": "event"
    },
    {
      "inputs": [],
      "name": "ChildContractGasFee",
      "outputs": [
        {
          "internalType": "uint256",
          "name": "",
          "type": "uint256"
        }
      ],
      "stateMutability": "view",
      "type": "function"
    },
    {
      "inputs": [],
      "name": "JoinLimitFee",
      "outputs": [
        {
          "internalType": "uint256",
          "name": "",
          "type": "uint256"
        }
      ],
      "stateMutability": "view",
      "type": "function"
    },
    {
      "inputs": [],
      "name": "SavingFee",
      "outputs": [
        {
          "internalType": "uint256",
          "name": "",
          "type": "uint256"
        }
      ],
      "stateMutability": "view",
      "type": "function"
    },
    {
      "inputs": [
        {
          "internalType": "string",
          "name": "nameOfSaving",
          "type": "string"
        },
        {
          "internalType": "uint256",
          "name": "maturityTime",
          "type": "uint256"
        },
        {
          "internalType": "uint8",
          "name": "penaltyPercentage",
          "type": "uint8"
        },
        {
          "internalType": "bool",
          "name": "safeMode",
          "type": "bool"
        },
        {
          "internalType": "address",
          "name": "tokenToSave",
          "type": "address"
        },
        {
          "internalType": "uint256",
          "name": "amount",
          "type": "uint256"
        }
      ],
      "name": "createSaving",
      "outputs": [],
      "stateMutability": "payable",
      "type": "function"
    },
    {
      "inputs": [],
      "name": "csToken",
      "outputs": [
        {
          "internalType": "contract IERC20",
          "name": "",
          "type": "address"
        }
      ],
      "stateMutability": "view",
      "type": "function"
    },
    {
      "inputs": [],
      "name": "getUserChildContractAddress",
      "outputs": [
        {
          "internalType": "address",
          "name": "",
          "type": "address"
        }
      ],
      "stateMutability": "view",
      "type": "function"
    },
    {
      "inputs": [
        {
          "internalType": "string",
          "name": "nameOfSavings",
          "type": "string"
        },
        {
          "internalType": "address",
          "name": "tokenToRetrieve",
          "type": "address"
        },
        {
          "internalType": "uint256",
          "name": "amount",
          "type": "uint256"
        }
      ],
      "name": "incrementSaving",
      "outputs": [],
      "stateMutability": "payable",
      "type": "function"
    },
    {
      "inputs": [],
      "name": "joinBitsave",
      "outputs": [
        {
          "internalType": "address",
          "name": "",
          "type": "address"
        }
      ],
      "stateMutability": "payable",
      "type": "function"
    },
    {
      "inputs": [],
      "name": "masterAddress",
      "outputs": [
        {
          "internalType": "address",
          "name": "",
          "type": "address"
        }
      ],
      "stateMutability": "view",
      "type": "function"
    },
    {
      "inputs": [],
      "name": "rewardPool",
      "outputs": [
        {
          "internalType": "uint256",
          "name": "",
          "type": "uint256"
        }
      ],
      "stateMutability": "view",
      "type": "function"
    },
    {
      "inputs": [
        {
          "internalType": "address",
          "name": "originalToken",
          "type": "address"
        },
        {
          "internalType": "uint256",
          "name": "amount",
          "type": "uint256"
        },
        {
          "internalType": "address",
          "name": "ownerAddress",
          "type": "address"
        }
      ],
      "name": "sendAsOriginalToken",
      "outputs": [],
      "stateMutability": "payable",
      "type": "function"
    },
    {
      "inputs": [],
      "name": "stableCoin",
      "outputs": [
        {
          "internalType": "contract IERC20",
          "name": "",
          "type": "address"
        }
      ],
      "stateMutability": "view",
      "type": "function"
    },
    {
      "inputs": [],
      "name": "userCount",
      "outputs": [
        {
          "internalType": "uint256",
          "name": "",
          "type": "uint256"
        }
      ],
      "stateMutability": "view",
      "type": "function"
    },
    {
      "inputs": [
        {
          "internalType": "string",
          "name": "nameOfSavings",
          "type": "string"
        }
      ],
      "name": "withdrawSaving",
      "outputs": [
        {
          "internalType": "bool",
          "name": "",
          "type": "bool"
        }
      ],
      "stateMutability": "nonpayable",
      "type": "function"
    },
    {
      "stateMutability": "payable",
      "type": "receive"
    }
  ],
  "bytecode": "0x608060405260405162004b5638038062004b5683398181016040528101906200002991906200016d565b816000806101000a81548173ffffffffffffffffffffffffffffffffffffffff021916908373ffffffffffffffffffffffffffffffffffffffff16021790555080600160006101000a81548173ffffffffffffffffffffffffffffffffffffffff021916908373ffffffffffffffffffffffffffffffffffffffff16021790555033600260006101000a81548173ffffffffffffffffffffffffffffffffffffffff021916908373ffffffffffffffffffffffffffffffffffffffff160217905550600060038190555060006005819055505050620001b4565b600080fd5b600073ffffffffffffffffffffffffffffffffffffffff82169050919050565b6000620001358262000108565b9050919050565b620001478162000128565b81146200015357600080fd5b50565b60008151905062000167816200013c565b92915050565b6000806040838503121562000187576200018662000103565b5b6000620001978582860162000156565b9250506020620001aa8582860162000156565b9150509250929050565b61499280620001c46000396000f3fe608060405260043610620000f75760003560e01c8063992642e5116200008b578063de35c3721162000061578063de35c37214620002ca578063e04605fd14620002ea578063ea413672146200031a578063fed0b925146200034a57620000ff565b8063992642e5146200023a578063bf66bfc7146200026a578063d365a08e146200029a57620000ff565b8063372f910111620000cd578063372f910114620001765780636405350a14620001ba57806366666aa914620001da57806384762b0b146200020a57620000ff565b806307973ccf146200010457806316f94d5d14620001345780631fdc181f146200015657620000ff565b36620000ff57005b600080fd5b3480156200011157600080fd5b506200011c6200037a565b6040516200012b919062001422565b60405180910390f35b6200013e62000380565b6040516200014d919062001484565b60405180910390f35b6200017460048036038101906200016e919062001679565b620005a7565b005b3480156200018357600080fd5b50620001a260048036038101906200019c9190620016f4565b62000973565b604051620001b1919062001762565b60405180910390f35b620001d86004803603810190620001d29190620017ee565b62000b32565b005b348015620001e757600080fd5b50620001f262000f64565b60405162000201919062001422565b60405180910390f35b3480156200021757600080fd5b506200022262000f6a565b60405162000231919062001422565b60405180910390f35b3480156200024757600080fd5b506200025262000f74565b60405162000261919062001914565b60405180910390f35b3480156200027757600080fd5b506200028262000f98565b60405162000291919062001422565b60405180910390f35b348015620002a757600080fd5b50620002b262000fb0565b604051620002c1919062001484565b60405180910390f35b620002e86004803603810190620002e2919062001931565b62000fd6565b005b348015620002f757600080fd5b506200030262001110565b60405162000311919062001914565b60405180910390f35b3480156200032757600080fd5b506200033262001136565b60405162000341919062001484565b60405180910390f35b3480156200035757600080fd5b50620003626200119d565b60405162000371919062001422565b60405180910390f35b60055481565b6000803390506000600460008373ffffffffffffffffffffffffffffffffffffffff1673ffffffffffffffffffffffffffffffffffffffff16815260200190815260200160002060009054906101000a900473ffffffffffffffffffffffffffffffffffffffff169050600073ffffffffffffffffffffffffffffffffffffffff168173ffffffffffffffffffffffffffffffffffffffff16146200042a578092505050620005a4565b655af3107a40003410156200046b576040517fcb6e851c00000000000000000000000000000000000000000000000000000000815260040160405180910390fd5b60003360008054906101000a900473ffffffffffffffffffffffffffffffffffffffff166040516200049d90620013f9565b620004aa9291906200198d565b604051809103906000f080158015620004c7573d6000803e3d6000fd5b50905080600460008573ffffffffffffffffffffffffffffffffffffffff1673ffffffffffffffffffffffffffffffffffffffff16815260200190815260200160002060006101000a81548173ffffffffffffffffffffffffffffffffffffffff021916908373ffffffffffffffffffffffffffffffffffffffff1602179055506001600560008282546200055d9190620019e9565b925050819055507f0c5c0c4d53b63790e32770cf47fd115d706000fd7ab63fbdc8d176c5020d6b468360405162000595919062001484565b60405180910390a18093505050505b90565b33600073ffffffffffffffffffffffffffffffffffffffff16600460008373ffffffffffffffffffffffffffffffffffffffff1673ffffffffffffffffffffffffffffffffffffffff16815260200190815260200160002060009054906101000a900473ffffffffffffffffffffffffffffffffffffffff1673ffffffffffffffffffffffffffffffffffffffff16036200066e576040517f2163950f00000000000000000000000000000000000000000000000000000000815260040160405180910390fd5b6000600460003373ffffffffffffffffffffffffffffffffffffffff1673ffffffffffffffffffffffffffffffffffffffff16815260200190815260200160002060009054906101000a900473ffffffffffffffffffffffffffffffffffffffff169050600081905060008173ffffffffffffffffffffffffffffffffffffffff1663e18f5f65886040518263ffffffff1660e01b815260040162000714919062001aad565b602060405180830381865afa15801562000732573d6000803e3d6000fd5b505050506040513d601f19601f8201168201806040525081019062000758919062001ae8565b905060008073ffffffffffffffffffffffffffffffffffffffff168273ffffffffffffffffffffffffffffffffffffffff16149050600086905060008473ffffffffffffffffffffffffffffffffffffffff16631bb862a58b6040518263ffffffff1660e01b8152600401620007cf919062001aad565b602060405180830381865afa158015620007ed573d6000803e3d6000fd5b505050506040513d601f19601f8201168201806040525081019062000813919062001b31565b90508015620008405760008054906101000a900473ffffffffffffffffffffffffffffffffffffffff1698505b826200089b576200085386838b620011a7565b62000895576040517f08c379a00000000000000000000000000000000000000000000000000000000081526004016200088c9062001bb3565b60405180910390fd5b6200089f565b3491505b8473ffffffffffffffffffffffffffffffffffffffff166346718f1a84620008dc576014655af3107a4000620008d6919062001c04565b620008ff565b836014655af3107a4000620008f2919062001c04565b620008fe9190620019e9565b5b8c8b6040518463ffffffff1660e01b81526004016200092092919062001c3c565b60206040518083038185885af11580156200093f573d6000803e3d6000fd5b50505050506040513d601f19601f8201168201806040525081019062000966919062001c87565b5050505050505050505050565b600033600073ffffffffffffffffffffffffffffffffffffffff16600460008373ffffffffffffffffffffffffffffffffffffffff1673ffffffffffffffffffffffffffffffffffffffff16815260200190815260200160002060009054906101000a900473ffffffffffffffffffffffffffffffffffffffff1673ffffffffffffffffffffffffffffffffffffffff160362000a3c576040517f2163950f00000000000000000000000000000000000000000000000000000000815260040160405180910390fd5b6000600460003373ffffffffffffffffffffffffffffffffffffffff1673ffffffffffffffffffffffffffffffffffffffff16815260200190815260200160002060009054906101000a900473ffffffffffffffffffffffffffffffffffffffff1690508073ffffffffffffffffffffffffffffffffffffffff1663372f9101856040518263ffffffff1660e01b815260040162000adb919062001aad565b6000604051808303816000875af115801562000afb573d6000803e3d6000fd5b505050506040513d6000823e3d601f19601f8201168201806040525081019062000b26919062001d37565b50600192505050919050565b33600073ffffffffffffffffffffffffffffffffffffffff16600460008373ffffffffffffffffffffffffffffffffffffffff1673ffffffffffffffffffffffffffffffffffffffff16815260200190815260200160002060009054906101000a900473ffffffffffffffffffffffffffffffffffffffff1673ffffffffffffffffffffffffffffffffffffffff160362000bf9576040517f2163950f00000000000000000000000000000000000000000000000000000000815260040160405180910390fd5b655af3107a400034101562000c3a576040517fd0c279a200000000000000000000000000000000000000000000000000000000815260040160405180910390fd5b8542111562000c75576040517f6f7eac2600000000000000000000000000000000000000000000000000000000815260040160405180910390fd5b831562000cb9576040517f329e2f1500000000000000000000000000000000000000000000000000000000815260040162000cb09062001dd8565b60405180910390fd5b600062000cc6336200123a565b90506000429050600073ffffffffffffffffffffffffffffffffffffffff168573ffffffffffffffffffffffffffffffffffffffff161462000dfe57600062000d11338787620012a3565b90508062000d56576040517fec86672900000000000000000000000000000000000000000000000000000000815260040162000d4d9062001e4a565b60405180910390fd5b3373ffffffffffffffffffffffffffffffffffffffff167f42856d0378dde02337bb59ae41747abc77ded8ebdbbc5cbdd1e53693b7554938308760405162000da092919062001e6c565b60405180910390a262000db5838688620011a7565b62000df7576040517f08c379a000000000000000000000000000000000000000000000000000000000815260040162000dee9062001bb3565b60405180910390fd5b5062000e15565b655af3107a40003462000e12919062001e99565b93505b60008290508073ffffffffffffffffffffffffffffffffffffffff166313aa6539600073ffffffffffffffffffffffffffffffffffffffff168873ffffffffffffffffffffffffffffffffffffffff161462000e86576014655af3107a400062000e80919062001c04565b62000ea9565b866014655af3107a400062000e9c919062001c04565b62000ea89190620019e9565b5b8c8c868d8c8c8f6040518963ffffffff1660e01b815260040162000ed4979695949392919062001ee5565b60206040518083038185885af115801562000ef3573d6000803e3d6000fd5b50505050506040513d601f19601f8201168201806040525081019062000f1a919062001c87565b507f4ad85a69286191006ea05981ae1848070dbf232e5e00ffdda4b857c16097f0d78a868860405162000f509392919062001f69565b60405180910390a150505050505050505050565b60035481565b655af3107a400081565b60008054906101000a900473ffffffffffffffffffffffffffffffffffffffff1681565b6014655af3107a400062000fad919062001c04565b81565b600260009054906101000a900473ffffffffffffffffffffffffffffffffffffffff1681565b806000600460008373ffffffffffffffffffffffffffffffffffffffff1673ffffffffffffffffffffffffffffffffffffffff16815260200190815260200160002060009054906101000a900473ffffffffffffffffffffffffffffffffffffffff169050600073ffffffffffffffffffffffffffffffffffffffff168173ffffffffffffffffffffffffffffffffffffffff161480620010a357503373ffffffffffffffffffffffffffffffffffffffff168173ffffffffffffffffffffffffffffffffffffffff1614155b15620010db576040517f229e1dbd00000000000000000000000000000000000000000000000000000000815260040160405180910390fd5b620011083360008054906101000a900473ffffffffffffffffffffffffffffffffffffffff1686620012a3565b505050505050565b600160009054906101000a900473ffffffffffffffffffffffffffffffffffffffff1681565b6000600460003373ffffffffffffffffffffffffffffffffffffffff1673ffffffffffffffffffffffffffffffffffffffff16815260200190815260200160002060009054906101000a900473ffffffffffffffffffffffffffffffffffffffff16905090565b655af3107a400081565b6000808290508073ffffffffffffffffffffffffffffffffffffffff1663095ea7b386866040518363ffffffff1660e01b8152600401620011ea92919062001e6c565b6020604051808303816000875af11580156200120a573d6000803e3d6000fd5b505050506040513d601f19601f8201168201806040525081019062001230919062001b31565b9150509392505050565b6000600460008373ffffffffffffffffffffffffffffffffffffffff1673ffffffffffffffffffffffffffffffffffffffff16815260200190815260200160002060009054906101000a900473ffffffffffffffffffffffffffffffffffffffff169050919050565b6000818373ffffffffffffffffffffffffffffffffffffffff1663dd62ed3e86306040518363ffffffff1660e01b8152600401620012e39291906200198d565b602060405180830381865afa15801562001301573d6000803e3d6000fd5b505050506040513d601f19601f8201168201806040525081019062001327919062001c87565b10156200136b576040517f08c379a0000000000000000000000000000000000000000000000000000000008152600401620013629062001ffd565b60405180910390fd5b8273ffffffffffffffffffffffffffffffffffffffff166323b872dd8530856040518463ffffffff1660e01b8152600401620013aa939291906200201f565b6020604051808303816000875af1158015620013ca573d6000803e3d6000fd5b505050506040513d601f19601f82011682018060405250810190620013f0919062001b31565b90509392505050565b612900806200205d83390190565b6000819050919050565b6200141c8162001407565b82525050565b600060208201905062001439600083018462001411565b92915050565b600073ffffffffffffffffffffffffffffffffffffffff82169050919050565b60006200146c826200143f565b9050919050565b6200147e816200145f565b82525050565b60006020820190506200149b600083018462001473565b92915050565b6000604051905090565b600080fd5b600080fd5b600080fd5b600080fd5b6000601f19601f8301169050919050565b7f4e487b7100000000000000000000000000000000000000000000000000000000600052604160045260246000fd5b6200150a82620014bf565b810181811067ffffffffffffffff821117156200152c576200152b620014d0565b5b80604052505050565b600062001541620014a1565b90506200154f8282620014ff565b919050565b600067ffffffffffffffff821115620015725762001571620014d0565b5b6200157d82620014bf565b9050602081019050919050565b82818337600083830152505050565b6000620015b0620015aa8462001554565b62001535565b905082815260208101848484011115620015cf57620015ce620014ba565b5b620015dc8482856200158a565b509392505050565b600082601f830112620015fc57620015fb620014b5565b5b81356200160e84826020860162001599565b91505092915050565b62001622816200145f565b81146200162e57600080fd5b50565b600081359050620016428162001617565b92915050565b620016538162001407565b81146200165f57600080fd5b50565b600081359050620016738162001648565b92915050565b600080600060608486031215620016955762001694620014ab565b5b600084013567ffffffffffffffff811115620016b657620016b5620014b0565b5b620016c486828701620015e4565b9350506020620016d78682870162001631565b9250506040620016ea8682870162001662565b9150509250925092565b6000602082840312156200170d576200170c620014ab565b5b600082013567ffffffffffffffff8111156200172e576200172d620014b0565b5b6200173c84828501620015e4565b91505092915050565b60008115159050919050565b6200175c8162001745565b82525050565b600060208201905062001779600083018462001751565b92915050565b600060ff82169050919050565b62001797816200177f565b8114620017a357600080fd5b50565b600081359050620017b7816200178c565b92915050565b620017c88162001745565b8114620017d457600080fd5b50565b600081359050620017e881620017bd565b92915050565b60008060008060008060c087890312156200180e576200180d620014ab565b5b600087013567ffffffffffffffff8111156200182f576200182e620014b0565b5b6200183d89828a01620015e4565b96505060206200185089828a0162001662565b95505060406200186389828a01620017a6565b94505060606200187689828a01620017d7565b93505060806200188989828a0162001631565b92505060a06200189c89828a0162001662565b9150509295509295509295565b6000819050919050565b6000620018d4620018ce620018c8846200143f565b620018a9565b6200143f565b9050919050565b6000620018e882620018b3565b9050919050565b6000620018fc82620018db565b9050919050565b6200190e81620018ef565b82525050565b60006020820190506200192b600083018462001903565b92915050565b6000806000606084860312156200194d576200194c620014ab565b5b60006200195d8682870162001631565b9350506020620019708682870162001662565b9250506040620019838682870162001631565b9150509250925092565b6000604082019050620019a4600083018562001473565b620019b3602083018462001473565b9392505050565b7f4e487b7100000000000000000000000000000000000000000000000000000000600052601160045260246000fd5b6000620019f68262001407565b915062001a038362001407565b925082820190508082111562001a1e5762001a1d620019ba565b5b92915050565b600081519050919050565b600082825260208201905092915050565b60005b8381101562001a6057808201518184015260208101905062001a43565b60008484015250505050565b600062001a798262001a24565b62001a85818562001a2f565b935062001a9781856020860162001a40565b62001aa281620014bf565b840191505092915050565b6000602082019050818103600083015262001ac9818462001a6c565b905092915050565b60008151905062001ae28162001617565b92915050565b60006020828403121562001b015762001b00620014ab565b5b600062001b118482850162001ad1565b91505092915050565b60008151905062001b2b81620017bd565b92915050565b60006020828403121562001b4a5762001b49620014ab565b5b600062001b5a8482850162001b1a565b91505092915050565b7f536176696e677320696e76616c69640000000000000000000000000000000000600082015250565b600062001b9b600f8362001a2f565b915062001ba88262001b63565b602082019050919050565b6000602082019050818103600083015262001bce8162001b8c565b9050919050565b7f4e487b7100000000000000000000000000000000000000000000000000000000600052601260045260246000fd5b600062001c118262001407565b915062001c1e8362001407565b92508262001c315762001c3062001bd5565b5b828204905092915050565b6000604082019050818103600083015262001c58818562001a6c565b905062001c69602083018462001411565b9392505050565b60008151905062001c818162001648565b92915050565b60006020828403121562001ca05762001c9f620014ab565b5b600062001cb08482850162001c70565b91505092915050565b600062001cd062001cca8462001554565b62001535565b90508281526020810184848401111562001cef5762001cee620014ba565b5b62001cfc84828562001a40565b509392505050565b600082601f83011262001d1c5762001d1b620014b5565b5b815162001d2e84826020860162001cb9565b91505092915050565b60006020828403121562001d505762001d4f620014ab565b5b600082015167ffffffffffffffff81111562001d715762001d70620014b0565b5b62001d7f8482850162001d04565b91505092915050565b7f4e6f2073616665206d6f64652079657421000000000000000000000000000000600082015250565b600062001dc060118362001a2f565b915062001dcd8262001d88565b602082019050919050565b6000602082019050818103600083015262001df38162001db1565b9050919050565b7f54786e206661696c656400000000000000000000000000000000000000000000600082015250565b600062001e32600a8362001a2f565b915062001e3f8262001dfa565b602082019050919050565b6000602082019050818103600083015262001e658162001e23565b9050919050565b600060408201905062001e83600083018562001473565b62001e92602083018462001411565b9392505050565b600062001ea68262001407565b915062001eb38362001407565b925082820390508181111562001ece5762001ecd620019ba565b5b92915050565b62001edf816200177f565b82525050565b600060e082019050818103600083015262001f01818a62001a6c565b905062001f12602083018962001411565b62001f21604083018862001411565b62001f30606083018762001ed4565b62001f3f608083018662001473565b62001f4e60a083018562001411565b62001f5d60c083018462001751565b98975050505050505050565b6000606082019050818103600083015262001f85818662001a6c565b905062001f96602083018562001411565b62001fa5604083018462001473565b949350505050565b7f546f6b656e20636f756c64206e6f742062652077697468647261776e00000000600082015250565b600062001fe5601c8362001a2f565b915062001ff28262001fad565b602082019050919050565b60006020820190508181036000830152620020188162001fd6565b9050919050565b600060608201905062002036600083018662001473565b62002045602083018562001473565b62002054604083018462001411565b94935050505056fe6080604052604051620029003803806200290083398181016040528101906200002991906200015d565b336000806101000a81548173ffffffffffffffffffffffffffffffffffffffff021916908373ffffffffffffffffffffffffffffffffffffffff16021790555081600260006101000a81548173ffffffffffffffffffffffffffffffffffffffff021916908373ffffffffffffffffffffffffffffffffffffffff16021790555080600160006101000a81548173ffffffffffffffffffffffffffffffffffffffff021916908373ffffffffffffffffffffffffffffffffffffffff1602179055505050620001a4565b600080fd5b600073ffffffffffffffffffffffffffffffffffffffff82169050919050565b60006200012582620000f8565b9050919050565b620001378162000118565b81146200014357600080fd5b50565b60008151905062000157816200012c565b92915050565b60008060408385031215620001775762000176620000f3565b5b6000620001878582860162000146565b92505060206200019a8582860162000146565b9150509250929050565b61274c80620001b46000396000f3fe6080604052600436106100a75760003560e01c8063585dbffe11610064578063585dbffe146101e857806384febb69146102255780638f84aa0914610262578063992642e51461028d578063d1ece790146102b8578063e18f5f65146102e3576100a7565b806313203929146100ac57806313aa6539146100f05780631bb862a5146101205780632ae3c90f1461015d578063372f91011461018857806346718f1a146101b8575b600080fd5b3480156100b857600080fd5b506100d360048036038101906100ce919061183a565b610320565b6040516100e79897969594939291906118f8565b60405180910390f35b61010a60048036038101906101059190611a33565b6103b8565b6040516101179190611af1565b60405180910390f35b34801561012c57600080fd5b506101476004803603810190610142919061183a565b610776565b6040516101549190611b0c565b60405180910390f35b34801561016957600080fd5b506101726107ae565b60405161017f9190611b48565b60405180910390f35b6101a2600480360381019061019d919061183a565b6107d2565b6040516101af9190611be2565b60405180910390f35b6101d260048036038101906101cd9190611c04565b610c66565b6040516101df9190611af1565b60405180910390f35b3480156101f457600080fd5b5061020f600480360381019061020a919061183a565b6110c0565b60405161021c9190611d2f565b60405180910390f35b34801561023157600080fd5b5061024c6004803603810190610247919061183a565b6111b7565b6040516102599190611af1565b60405180910390f35b34801561026e57600080fd5b506102776111e2565b6040516102849190611d4b565b60405180910390f35b34801561029957600080fd5b506102a2611208565b6040516102af9190611dc5565b60405180910390f35b3480156102c457600080fd5b506102cd61122e565b6040516102da9190611f16565b60405180910390f35b3480156102ef57600080fd5b5061030a6004803603810190610305919061183a565b611321565b6040516103179190611d4b565b60405180910390f35b6003818051602081018201805184825260208301602085012081835280955050505050506000915090508060000160009054906101000a900460ff16908060010154908060020160009054906101000a900473ffffffffffffffffffffffffffffffffffffffff16908060030154908060040154908060050154908060060154908060070160009054906101000a900460ff16905088565b60008060009054906101000a900473ffffffffffffffffffffffffffffffffffffffff1673ffffffffffffffffffffffffffffffffffffffff163373ffffffffffffffffffffffffffffffffffffffff1614610440576040517f229e1dbd00000000000000000000000000000000000000000000000000000000815260040160405180910390fd5b6003886040516104509190611f74565b908152602001604051809103902060000160009054906101000a900460ff16156104a6576040517fd63d1e4800000000000000000000000000000000000000000000000000000000815260040160405180910390fd5b858710156104e0576040517f6f7eac2600000000000000000000000000000000000000000000000000000000815260040160405180910390fd5b4287101561051a576040517f6f7eac2600000000000000000000000000000000000000000000000000000000815260040160405180910390fd5b60006105258461136c565b9050600084905083156105855761057f60008054906101000a900473ffffffffffffffffffffffffffffffffffffffff16600160009054906101000a900473ffffffffffffffffffffffffffffffffffffffff1687611382565b506105ef565b600073ffffffffffffffffffffffffffffffffffffffff168673ffffffffffffffffffffffffffffffffffffffff16146105ea576105e460008054906101000a900473ffffffffffffffffffffffffffffffffffffffff168787611382565b506105ee565b3490505b5b6040518061010001604052806001151581526020018281526020018773ffffffffffffffffffffffffffffffffffffffff1681526020018381526020018981526020018860ff1681526020018a815260200185151581525060038b6040516106579190611f74565b908152602001604051809103902060008201518160000160006101000a81548160ff0219169083151502179055506020820151816001015560408201518160020160006101000a81548173ffffffffffffffffffffffffffffffffffffffff021916908373ffffffffffffffffffffffffffffffffffffffff160217905550606082015181600301556080820151816004015560a0820151816005015560c0820151816006015560e08201518160070160006101000a81548160ff02191690831515021790555090505061072a8a6114cb565b7f4ad85a69286191006ea05981ae1848070dbf232e5e00ffdda4b857c16097f0d78a868860405161075d93929190611f8b565b60405180910390a1600192505050979650505050505050565b60006003826040516107889190611f74565b908152602001604051809103902060070160009054906101000a900460ff169050919050565b60008054906101000a900473ffffffffffffffffffffffffffffffffffffffff1681565b606060008054906101000a900473ffffffffffffffffffffffffffffffffffffffff1673ffffffffffffffffffffffffffffffffffffffff163373ffffffffffffffffffffffffffffffffffffffff1614610859576040517f229e1dbd00000000000000000000000000000000000000000000000000000000815260040160405180910390fd5b600060038360405161086b9190611f74565b908152602001604051809103902090508060000160009054906101000a900460ff166108c3576040517fd63d1e4800000000000000000000000000000000000000000000000000000000815260040160405180910390fd5b60008160010154905060008060009054906101000a900473ffffffffffffffffffffffffffffffffffffffff1690508260060154421015610931576064836005015460646109119190611ff8565b8460010154610920919061202c565b61092a919061209d565b9150610932565b5b60008360020160009054906101000a900473ffffffffffffffffffffffffffffffffffffffff1690508360070160009054906101000a900460ff1615610a56576109bf60008054906101000a900473ffffffffffffffffffffffffffffffffffffffff1684600160009054906101000a900473ffffffffffffffffffffffffffffffffffffffff16611506565b508173ffffffffffffffffffffffffffffffffffffffff1663de35c3728285600260009054906101000a900473ffffffffffffffffffffffffffffffffffffffff166040518463ffffffff1660e01b8152600401610a1f939291906120ce565b600060405180830381600087803b158015610a3957600080fd5b505af1158015610a4d573d6000803e3d6000fd5b50505050610bb4565b600073ffffffffffffffffffffffffffffffffffffffff168173ffffffffffffffffffffffffffffffffffffffff1603610b6157600080600260009054906101000a900473ffffffffffffffffffffffffffffffffffffffff1673ffffffffffffffffffffffffffffffffffffffff1685604051610ad390612136565b60006040518083038185875af1925050503d8060008114610b10576040519150601f19603f3d011682016040523d82523d6000602084013e610b15565b606091505b509150915081610b5a576040517f08c379a0000000000000000000000000000000000000000000000000000000008152600401610b5190612197565b60405180910390fd5b5050610bb3565b610bb28460020160009054906101000a900473ffffffffffffffffffffffffffffffffffffffff16600260009054906101000a900473ffffffffffffffffffffffffffffffffffffffff1685611594565b5b5b6000600387604051610bc69190611f74565b908152602001604051809103902060000160006101000a81548160ff0219169083151502179055507f5b059b7fe1fea38d4de595079621498a365a8f1fa13e49af9f1e4b7197ab049a86604051610c1d9190611be2565b60405180910390a16040518060400160405280601e81526020017f736176696e67732077697468647261776e207375636365737366756c6c790000815250945050505050919050565b60008060009054906101000a900473ffffffffffffffffffffffffffffffffffffffff1673ffffffffffffffffffffffffffffffffffffffff163373ffffffffffffffffffffffffffffffffffffffff1614610cee576040517f229e1dbd00000000000000000000000000000000000000000000000000000000815260040160405180910390fd5b6000600384604051610d009190611f74565b908152602001604051809103902090508060000160009054906101000a900460ff16610d58576040517fd63d1e4800000000000000000000000000000000000000000000000000000000815260040160405180910390fd5b8060060154421115610d96576040517f6f7eac2600000000000000000000000000000000000000000000000000000000815260040160405180910390fd5b60008073ffffffffffffffffffffffffffffffffffffffff168260020160009054906101000a900473ffffffffffffffffffffffffffffffffffffffff1673ffffffffffffffffffffffffffffffffffffffff161490508160070160009054906101000a900460ff1615610e5757610e5160008054906101000a900473ffffffffffffffffffffffffffffffffffffffff16600160009054906101000a900473ffffffffffffffffffffffffffffffffffffffff1686611382565b50610ef9565b80610eb157610eab60008054906101000a900473ffffffffffffffffffffffffffffffffffffffff168360020160009054906101000a900473ffffffffffffffffffffffffffffffffffffffff1686611382565b50610ef8565b83341015610ef4576040517f08c379a0000000000000000000000000000000000000000000000000000000008152600401610eeb90612229565b60405180910390fd5b3493505b5b6000610f048561136c565b9050808360030154610f169190612249565b8360030181905550848360010154610f2e9190612249565b836001018190555082600387604051610f479190611f74565b90815260200160405180910390206000820160009054906101000a900460ff168160000160006101000a81548160ff021916908315150217905550600182015481600101556002820160009054906101000a900473ffffffffffffffffffffffffffffffffffffffff168160020160006101000a81548173ffffffffffffffffffffffffffffffffffffffff021916908373ffffffffffffffffffffffffffffffffffffffff160217905550600382015481600301556004820154816004015560058201548160050155600682015481600601556007820160009054906101000a900460ff168160070160006101000a81548160ff0219169083151502179055509050507ff6b98d8e0d83f8b1d1ff03a2fa36aba2c77ccf20e4ff035c0cf4aa92762e9eec868685600101548660020160009054906101000a900473ffffffffffffffffffffffffffffffffffffffff166040516110a8949392919061227d565b60405180910390a18260030154935050505092915050565b6110c861166e565b6003826040516110d89190611f74565b9081526020016040518091039020604051806101000160405290816000820160009054906101000a900460ff16151515158152602001600182015481526020016002820160009054906101000a900473ffffffffffffffffffffffffffffffffffffffff1673ffffffffffffffffffffffffffffffffffffffff1673ffffffffffffffffffffffffffffffffffffffff168152602001600382015481526020016004820154815260200160058201548152602001600682015481526020016007820160009054906101000a900460ff1615151515815250509050919050565b60006003826040516111c99190611f74565b9081526020016040518091039020600301549050919050565b600260009054906101000a900473ffffffffffffffffffffffffffffffffffffffff1681565b600160009054906101000a900473ffffffffffffffffffffffffffffffffffffffff1681565b6112366116cd565b600460405180602001604052908160008201805480602002602001604051908101604052809291908181526020016000905b82821015611314578382906000526020600020018054611287906122f8565b80601f01602080910402602001604051908101604052809291908181526020018280546112b3906122f8565b80156113005780601f106112d557610100808354040283529160200191611300565b820191906000526020600020905b8154815290600101906020018083116112e357829003601f168201915b505050505081526020019060010190611268565b5050505081525050905090565b60006003826040516113339190611f74565b908152602001604051809103902060020160009054906101000a900473ffffffffffffffffffffffffffffffffffffffff169050919050565b600060648261137b919061209d565b9050919050565b6000818373ffffffffffffffffffffffffffffffffffffffff1663dd62ed3e86306040518363ffffffff1660e01b81526004016113c0929190612329565b602060405180830381865afa1580156113dd573d6000803e3d6000fd5b505050506040513d601f19601f820116820180604052508101906114019190612367565b1015611442576040517f08c379a0000000000000000000000000000000000000000000000000000000008152600401611439906123e0565b60405180910390fd5b8273ffffffffffffffffffffffffffffffffffffffff166323b872dd8530856040518463ffffffff1660e01b815260040161147f93929190612400565b6020604051808303816000875af115801561149e573d6000803e3d6000fd5b505050506040513d601f19601f820116820180604052508101906114c2919061244c565b90509392505050565b600460000181908060018154018082558091505060019003906000526020600020016000909190919091509081611502919061261b565b5050565b6000808290508073ffffffffffffffffffffffffffffffffffffffff1663095ea7b386866040518363ffffffff1660e01b81526004016115479291906126ed565b6020604051808303816000875af1158015611566573d6000803e3d6000fd5b505050506040513d601f19601f8201168201806040525081019061158a919061244c565b9150509392505050565b60008390508073ffffffffffffffffffffffffffffffffffffffff1663a9059cbb84846040518363ffffffff1660e01b81526004016115d49291906126ed565b6020604051808303816000875af11580156115f3573d6000803e3d6000fd5b505050506040513d601f19601f82011682018060405250810190611617919061244c565b503073ffffffffffffffffffffffffffffffffffffffff167f42856d0378dde02337bb59ae41747abc77ded8ebdbbc5cbdd1e53693b755493884846040516116609291906126ed565b60405180910390a250505050565b60405180610100016040528060001515815260200160008152602001600073ffffffffffffffffffffffffffffffffffffffff168152602001600081526020016000815260200160008152602001600081526020016000151581525090565b6040518060200160405280606081525090565b6000604051905090565b600080fd5b600080fd5b600080fd5b600080fd5b6000601f19601f8301169050919050565b7f4e487b7100000000000000000000000000000000000000000000000000000000600052604160045260246000fd5b611747826116fe565b810181811067ffffffffffffffff821117156117665761176561170f565b5b80604052505050565b60006117796116e0565b9050611785828261173e565b919050565b600067ffffffffffffffff8211156117a5576117a461170f565b5b6117ae826116fe565b9050602081019050919050565b82818337600083830152505050565b60006117dd6117d88461178a565b61176f565b9050828152602081018484840111156117f9576117f86116f9565b5b6118048482856117bb565b509392505050565b600082601f830112611821576118206116f4565b5b81356118318482602086016117ca565b91505092915050565b6000602082840312156118505761184f6116ea565b5b600082013567ffffffffffffffff81111561186e5761186d6116ef565b5b61187a8482850161180c565b91505092915050565b60008115159050919050565b61189881611883565b82525050565b6000819050919050565b6118b18161189e565b82525050565b600073ffffffffffffffffffffffffffffffffffffffff82169050919050565b60006118e2826118b7565b9050919050565b6118f2816118d7565b82525050565b60006101008201905061190e600083018b61188f565b61191b602083018a6118a8565b61192860408301896118e9565b61193560608301886118a8565b61194260808301876118a8565b61194f60a08301866118a8565b61195c60c08301856118a8565b61196960e083018461188f565b9998505050505050505050565b61197f8161189e565b811461198a57600080fd5b50565b60008135905061199c81611976565b92915050565b600060ff82169050919050565b6119b8816119a2565b81146119c357600080fd5b50565b6000813590506119d5816119af565b92915050565b6119e4816118d7565b81146119ef57600080fd5b50565b600081359050611a01816119db565b92915050565b611a1081611883565b8114611a1b57600080fd5b50565b600081359050611a2d81611a07565b92915050565b600080600080600080600060e0888a031215611a5257611a516116ea565b5b600088013567ffffffffffffffff811115611a7057611a6f6116ef565b5b611a7c8a828b0161180c565b9750506020611a8d8a828b0161198d565b9650506040611a9e8a828b0161198d565b9550506060611aaf8a828b016119c6565b9450506080611ac08a828b016119f2565b93505060a0611ad18a828b0161198d565b92505060c0611ae28a828b01611a1e565b91505092959891949750929550565b6000602082019050611b0660008301846118a8565b92915050565b6000602082019050611b21600083018461188f565b92915050565b6000611b32826118b7565b9050919050565b611b4281611b27565b82525050565b6000602082019050611b5d6000830184611b39565b92915050565b600081519050919050565b600082825260208201905092915050565b60005b83811015611b9d578082015181840152602081019050611b82565b60008484015250505050565b6000611bb482611b63565b611bbe8185611b6e565b9350611bce818560208601611b7f565b611bd7816116fe565b840191505092915050565b60006020820190508181036000830152611bfc8184611ba9565b905092915050565b60008060408385031215611c1b57611c1a6116ea565b5b600083013567ffffffffffffffff811115611c3957611c386116ef565b5b611c458582860161180c565b9250506020611c568582860161198d565b9150509250929050565b611c6981611883565b82525050565b611c788161189e565b82525050565b611c87816118d7565b82525050565b61010082016000820151611ca46000850182611c60565b506020820151611cb76020850182611c6f565b506040820151611cca6040850182611c7e565b506060820151611cdd6060850182611c6f565b506080820151611cf06080850182611c6f565b5060a0820151611d0360a0850182611c6f565b5060c0820151611d1660c0850182611c6f565b5060e0820151611d2960e0850182611c60565b50505050565b600061010082019050611d456000830184611c8d565b92915050565b6000602082019050611d6060008301846118e9565b92915050565b6000819050919050565b6000611d8b611d86611d81846118b7565b611d66565b6118b7565b9050919050565b6000611d9d82611d70565b9050919050565b6000611daf82611d92565b9050919050565b611dbf81611da4565b82525050565b6000602082019050611dda6000830184611db6565b92915050565b600081519050919050565b600082825260208201905092915050565b6000819050602082019050919050565b600082825260208201905092915050565b6000611e2882611b63565b611e328185611e0c565b9350611e42818560208601611b7f565b611e4b816116fe565b840191505092915050565b6000611e628383611e1d565b905092915050565b6000602082019050919050565b6000611e8282611de0565b611e8c8185611deb565b935083602082028501611e9e85611dfc565b8060005b85811015611eda5784840389528151611ebb8582611e56565b9450611ec683611e6a565b925060208a01995050600181019050611ea2565b50829750879550505050505092915050565b60006020830160008301518482036000860152611f098282611e77565b9150508091505092915050565b60006020820190508181036000830152611f308184611eec565b905092915050565b600081905092915050565b6000611f4e82611b63565b611f588185611f38565b9350611f68818560208601611b7f565b80840191505092915050565b6000611f808284611f43565b915081905092915050565b60006060820190508181036000830152611fa58186611ba9565b9050611fb460208301856118a8565b611fc160408301846118e9565b949350505050565b7f4e487b7100000000000000000000000000000000000000000000000000000000600052601160045260246000fd5b60006120038261189e565b915061200e8361189e565b925082820390508181111561202657612025611fc9565b5b92915050565b60006120378261189e565b91506120428361189e565b92508282026120508161189e565b9150828204841483151761206757612066611fc9565b5b5092915050565b7f4e487b7100000000000000000000000000000000000000000000000000000000600052601260045260246000fd5b60006120a88261189e565b91506120b38361189e565b9250826120c3576120c261206e565b5b828204905092915050565b60006060820190506120e360008301866118e9565b6120f060208301856118a8565b6120fd60408301846118e9565b949350505050565b600081905092915050565b50565b6000612120600083612105565b915061212b82612110565b600082019050919050565b600061214182612113565b9150819050919050565b7f436f756c646e27742073656e642066756e647300000000000000000000000000600082015250565b6000612181601383611b6e565b915061218c8261214b565b602082019050919050565b600060208201905081810360008301526121b081612174565b9050919050565b7f496e76616c696420736176696e6720696e6372656d656e742076616c7565207360008201527f656e740000000000000000000000000000000000000000000000000000000000602082015250565b6000612213602383611b6e565b915061221e826121b7565b604082019050919050565b6000602082019050818103600083015261224281612206565b9050919050565b60006122548261189e565b915061225f8361189e565b925082820190508082111561227757612276611fc9565b5b92915050565b600060808201905081810360008301526122978187611ba9565b90506122a660208301866118a8565b6122b360408301856118a8565b6122c060608301846118e9565b95945050505050565b7f4e487b7100000000000000000000000000000000000000000000000000000000600052602260045260246000fd5b6000600282049050600182168061231057607f821691505b602082108103612323576123226122c9565b5b50919050565b600060408201905061233e60008301856118e9565b61234b60208301846118e9565b9392505050565b60008151905061236181611976565b92915050565b60006020828403121561237d5761237c6116ea565b5b600061238b84828501612352565b91505092915050565b7f546f6b656e20636f756c64206e6f742062652077697468647261776e00000000600082015250565b60006123ca601c83611b6e565b91506123d582612394565b602082019050919050565b600060208201905081810360008301526123f9816123bd565b9050919050565b600060608201905061241560008301866118e9565b61242260208301856118e9565b61242f60408301846118a8565b949350505050565b60008151905061244681611a07565b92915050565b600060208284031215612462576124616116ea565b5b600061247084828501612437565b91505092915050565b60008190508160005260206000209050919050565b60006020601f8301049050919050565b600082821b905092915050565b6000600883026124db7fffffffffffffffffffffffffffffffffffffffffffffffffffffffffffffffff8261249e565b6124e5868361249e565b95508019841693508086168417925050509392505050565b600061251861251361250e8461189e565b611d66565b61189e565b9050919050565b6000819050919050565b612532836124fd565b61254661253e8261251f565b8484546124ab565b825550505050565b600090565b61255b61254e565b612566818484612529565b505050565b5b8181101561258a5761257f600082612553565b60018101905061256c565b5050565b601f8211156125cf576125a081612479565b6125a98461248e565b810160208510156125b8578190505b6125cc6125c48561248e565b83018261256b565b50505b505050565b600082821c905092915050565b60006125f2600019846008026125d4565b1980831691505092915050565b600061260b83836125e1565b9150826002028217905092915050565b61262482611b63565b67ffffffffffffffff81111561263d5761263c61170f565b5b61264782546122f8565b61265282828561258e565b600060209050601f8311600181146126855760008415612673578287015190505b61267d85826125ff565b8655506126e5565b601f19841661269386612479565b60005b828110156126bb57848901518255600182019150602085019450602081019050612696565b868310156126d857848901516126d4601f8916826125e1565b8355505b6001600288020188555050505b505050505050565b600060408201905061270260008301856118e9565b61270f60208301846118a8565b939250505056fea26469706673582212203838f0099208a3566898b2feea81088d7693a2d5ccd9945bcc1234dd5ee4f7db64736f6c63430008170033a26469706673582212206fdb45dc777a0e15edec57ea57e7dd2d305c335067b3690cf588416411174dcc64736f6c63430008170033",
  "linkReferences": {},
  "deployedLinkReferences": {}
}