{
  "_format": "hh-sol-artifact-1",
  "contractName": "Bitsave",
  "sourceName": "contracts/Bitsave.sol",
  "abi": [
    {
      "inputs": [
        {
          "internalType": "address",
          "name": "_stableCoin",
          "type": "address"
        },
        {
          "internalType": "address",
          "name": "_csToken",
          "type": "address"
        }
      ],
      "stateMutability": "payable",
      "type": "constructor"
    },
    {
      "inputs": [],
      "name": "AmountNotEnough",
      "type": "error"
    },
    {
      "inputs": [],
      "name": "CallNotFromBitsave",
      "type": "error"
    },
    {
      "inputs": [
        {
          "internalType": "string",
          "name": "",
          "type": "string"
        }
      ],
      "name": "CanNotWithdrawToken",
      "type": "error"
    },
    {
      "inputs": [],
      "name": "InvalidTime",
      "type": "error"
    },
    {
      "inputs": [],
      "name": "MasterCallRequired",
      "type": "error"
    },
    {
      "inputs": [],
      "name": "NotEnoughToPayGasFee",
      "type": "error"
    },
    {
      "inputs": [
        {
          "internalType": "string",
          "name": "",
          "type": "string"
        }
      ],
      "name": "NotSupported",
      "type": "error"
    },
    {
      "inputs": [],
      "name": "UserNotRegistered",
      "type": "error"
    },
    {
      "anonymous": false,
      "inputs": [
        {
          "indexed": false,
          "internalType": "address",
          "name": "userAddress",
          "type": "address"
        }
      ],
      "name": "JoinedBitsave",
      "type": "event"
    },
    {
      "anonymous": false,
      "inputs": [
        {
          "indexed": false,
          "internalType": "string",
          "name": "nameOfSaving",
          "type": "string"
        },
        {
          "indexed": false,
          "internalType": "uint256",
          "name": "amount",
          "type": "uint256"
        },
        {
          "indexed": false,
          "internalType": "address",
          "name": "token",
          "type": "address"
        }
      ],
      "name": "SavingCreated",
      "type": "event"
    },
    {
      "anonymous": false,
      "inputs": [
        {
          "indexed": true,
          "internalType": "address",
          "name": "from",
          "type": "address"
        },
        {
          "indexed": false,
          "internalType": "address",
          "name": "to",
          "type": "address"
        },
        {
          "indexed": false,
          "internalType": "uint256",
          "name": "amount",
          "type": "uint256"
        }
      ],
      "name": "TokenWithdrawal",
      "type": "event"
    },
    {
      "inputs": [],
      "name": "ChildContractGasFee",
      "outputs": [
        {
          "internalType": "uint256",
          "name": "",
          "type": "uint256"
        }
      ],
      "stateMutability": "view",
      "type": "function"
    },
    {
      "inputs": [],
      "name": "JoinLimitFee",
      "outputs": [
        {
          "internalType": "uint256",
          "name": "",
          "type": "uint256"
        }
      ],
      "stateMutability": "view",
      "type": "function"
    },
    {
      "inputs": [],
      "name": "SavingFee",
      "outputs": [
        {
          "internalType": "uint256",
          "name": "",
          "type": "uint256"
        }
      ],
      "stateMutability": "view",
      "type": "function"
    },
    {
      "inputs": [
        {
          "internalType": "string",
          "name": "nameOfSaving",
          "type": "string"
        },
        {
          "internalType": "uint256",
          "name": "maturityTime",
          "type": "uint256"
        },
        {
          "internalType": "uint8",
          "name": "penaltyPercentage",
          "type": "uint8"
        },
        {
          "internalType": "bool",
          "name": "safeMode",
          "type": "bool"
        },
        {
          "internalType": "address",
          "name": "tokenToSave",
          "type": "address"
        },
        {
          "internalType": "uint256",
          "name": "amount",
          "type": "uint256"
        }
      ],
      "name": "createSaving",
      "outputs": [],
      "stateMutability": "payable",
      "type": "function"
    },
    {
      "inputs": [],
      "name": "csToken",
      "outputs": [
        {
          "internalType": "contract IERC20",
          "name": "",
          "type": "address"
        }
      ],
      "stateMutability": "view",
      "type": "function"
    },
    {
      "inputs": [],
      "name": "currentTotalValueLocked",
      "outputs": [
        {
          "internalType": "uint256",
          "name": "",
          "type": "uint256"
        }
      ],
      "stateMutability": "view",
      "type": "function"
    },
    {
      "inputs": [],
      "name": "currentVaultState",
      "outputs": [
        {
          "internalType": "uint256",
          "name": "",
          "type": "uint256"
        }
      ],
      "stateMutability": "view",
      "type": "function"
    },
    {
      "inputs": [
        {
          "internalType": "uint256",
          "name": "_newCurrentVaultState",
          "type": "uint256"
        },
        {
          "internalType": "uint256",
          "name": "_newTotalValueLocked",
          "type": "uint256"
        }
      ],
      "name": "editInternalData",
      "outputs": [],
      "stateMutability": "nonpayable",
      "type": "function"
    },
    {
      "inputs": [],
      "name": "getUserChildContractAddress",
      "outputs": [
        {
          "internalType": "address",
          "name": "",
          "type": "address"
        }
      ],
      "stateMutability": "view",
      "type": "function"
    },
    {
      "inputs": [
        {
          "internalType": "string",
          "name": "nameOfSavings",
          "type": "string"
        },
        {
          "internalType": "address",
          "name": "tokenToRetrieve",
          "type": "address"
        },
        {
          "internalType": "uint256",
          "name": "amount",
          "type": "uint256"
        }
      ],
      "name": "incrementSaving",
      "outputs": [],
      "stateMutability": "payable",
      "type": "function"
    },
    {
      "inputs": [],
      "name": "joinBitsave",
      "outputs": [
        {
          "internalType": "address",
          "name": "",
          "type": "address"
        }
      ],
      "stateMutability": "payable",
      "type": "function"
    },
    {
      "inputs": [],
      "name": "masterAddress",
      "outputs": [
        {
          "internalType": "address",
          "name": "",
          "type": "address"
        }
      ],
      "stateMutability": "view",
      "type": "function"
    },
    {
      "inputs": [],
      "name": "rewardPool",
      "outputs": [
        {
          "internalType": "uint256",
          "name": "",
          "type": "uint256"
        }
      ],
      "stateMutability": "view",
      "type": "function"
    },
    {
      "inputs": [
        {
          "internalType": "address",
          "name": "originalToken",
          "type": "address"
        },
        {
          "internalType": "uint256",
          "name": "amount",
          "type": "uint256"
        },
        {
          "internalType": "address",
          "name": "ownerAddress",
          "type": "address"
        }
      ],
      "name": "sendAsOriginalToken",
      "outputs": [],
      "stateMutability": "payable",
      "type": "function"
    },
    {
      "inputs": [],
      "name": "stableCoin",
      "outputs": [
        {
          "internalType": "contract IERC20",
          "name": "",
          "type": "address"
        }
      ],
      "stateMutability": "view",
      "type": "function"
    },
    {
      "inputs": [],
      "name": "userCount",
      "outputs": [
        {
          "internalType": "uint256",
          "name": "",
          "type": "uint256"
        }
      ],
      "stateMutability": "view",
      "type": "function"
    },
    {
      "inputs": [
        {
          "internalType": "string",
          "name": "nameOfSavings",
          "type": "string"
        }
      ],
      "name": "withdrawSaving",
      "outputs": [
        {
          "internalType": "bool",
          "name": "",
          "type": "bool"
        }
      ],
      "stateMutability": "nonpayable",
      "type": "function"
    },
    {
      "stateMutability": "payable",
      "type": "receive"
    }
  ],
  "bytecode": "0x608060405260405162004e5b38038062004e5b83398181016040528101906200002991906200017f565b816000806101000a81548173ffffffffffffffffffffffffffffffffffffffff021916908373ffffffffffffffffffffffffffffffffffffffff16021790555080600160006101000a81548173ffffffffffffffffffffffffffffffffffffffff021916908373ffffffffffffffffffffffffffffffffffffffff16021790555033600260006101000a81548173ffffffffffffffffffffffffffffffffffffffff021916908373ffffffffffffffffffffffffffffffffffffffff160217905550600060038190555060006005819055506103e86006819055506127106007819055505050620001c6565b600080fd5b600073ffffffffffffffffffffffffffffffffffffffff82169050919050565b600062000147826200011a565b9050919050565b62000159816200013a565b81146200016557600080fd5b50565b60008151905062000179816200014e565b92915050565b6000806040838503121562000199576200019862000115565b5b6000620001a98582860162000168565b9250506020620001bc8582860162000168565b9150509250929050565b614c8580620001d66000396000f3fe6080604052600436106200011b5760003560e01c806384762b0b11620000a3578063d365a08e116200006d578063d365a08e146200034c578063de35c372146200037c578063e04605fd146200039c578063ea41367214620003cc578063fed0b92514620003fc5762000123565b806384762b0b146200028e578063992642e514620002be578063a9e944ac14620002ee578063bf66bfc7146200031c5762000123565b8063372f910111620000e5578063372f910114620001ca5780634c3fa304146200020e5780636405350a146200023e57806366666aa9146200025e5762000123565b806302500739146200012857806307973ccf146200015857806316f94d5d14620001885780631fdc181f14620001aa5762000123565b366200012357005b600080fd5b3480156200013557600080fd5b50620001406200042c565b6040516200014f9190620015a1565b60405180910390f35b3480156200016557600080fd5b506200017062000432565b6040516200017f9190620015a1565b60405180910390f35b6200019262000438565b604051620001a1919062001603565b60405180910390f35b620001c86004803603810190620001c29190620017f8565b6200065f565b005b348015620001d757600080fd5b50620001f66004803603810190620001f0919062001873565b62000a33565b604051620002059190620018e1565b60405180910390f35b3480156200021b57600080fd5b506200022662000bf2565b604051620002359190620015a1565b60405180910390f35b6200025c60048036038101906200025691906200196d565b62000bf8565b005b3480156200026b57600080fd5b506200027662000ef6565b604051620002859190620015a1565b60405180910390f35b3480156200029b57600080fd5b50620002a662000efc565b604051620002b59190620015a1565b60405180910390f35b348015620002cb57600080fd5b50620002d662000f06565b604051620002e5919062001a93565b60405180910390f35b348015620002fb57600080fd5b506200031a600480360381019062000314919062001ab0565b62000f2a565b005b3480156200032957600080fd5b506200033462000fc4565b604051620003439190620015a1565b60405180910390f35b3480156200035957600080fd5b506200036462000fdc565b60405162000373919062001603565b60405180910390f35b6200039a600480360381019062000394919062001af7565b62001002565b005b348015620003a957600080fd5b50620003b46200113c565b604051620003c3919062001a93565b60405180910390f35b348015620003d957600080fd5b50620003e462001162565b604051620003f3919062001603565b60405180910390f35b3480156200040957600080fd5b5062000414620011c9565b604051620004239190620015a1565b60405180910390f35b60075481565b60055481565b6000803390506000600460008373ffffffffffffffffffffffffffffffffffffffff1673ffffffffffffffffffffffffffffffffffffffff16815260200190815260200160002060009054906101000a900473ffffffffffffffffffffffffffffffffffffffff169050600073ffffffffffffffffffffffffffffffffffffffff168173ffffffffffffffffffffffffffffffffffffffff1614620004e25780925050506200065c565b655af3107a400034101562000523576040517fcb6e851c00000000000000000000000000000000000000000000000000000000815260040160405180910390fd5b60003360008054906101000a900473ffffffffffffffffffffffffffffffffffffffff16604051620005559062001578565b6200056292919062001b53565b604051809103906000f0801580156200057f573d6000803e3d6000fd5b50905080600460008573ffffffffffffffffffffffffffffffffffffffff1673ffffffffffffffffffffffffffffffffffffffff16815260200190815260200160002060006101000a81548173ffffffffffffffffffffffffffffffffffffffff021916908373ffffffffffffffffffffffffffffffffffffffff16021790555060016005600082825462000615919062001baf565b925050819055507f0c5c0c4d53b63790e32770cf47fd115d706000fd7ab63fbdc8d176c5020d6b46836040516200064d919062001603565b60405180910390a18093505050505b90565b33600073ffffffffffffffffffffffffffffffffffffffff16600460008373ffffffffffffffffffffffffffffffffffffffff1673ffffffffffffffffffffffffffffffffffffffff16815260200190815260200160002060009054906101000a900473ffffffffffffffffffffffffffffffffffffffff1673ffffffffffffffffffffffffffffffffffffffff160362000726576040517f2163950f00000000000000000000000000000000000000000000000000000000815260040160405180910390fd5b6000600460003373ffffffffffffffffffffffffffffffffffffffff1673ffffffffffffffffffffffffffffffffffffffff16815260200190815260200160002060009054906101000a900473ffffffffffffffffffffffffffffffffffffffff169050600081905060008173ffffffffffffffffffffffffffffffffffffffff1663e18f5f65886040518263ffffffff1660e01b8152600401620007cc919062001c73565b602060405180830381865afa158015620007ea573d6000803e3d6000fd5b505050506040513d601f19601f8201168201806040525081019062000810919062001cae565b905060008073ffffffffffffffffffffffffffffffffffffffff168273ffffffffffffffffffffffffffffffffffffffff16149050600086905060008473ffffffffffffffffffffffffffffffffffffffff16631bb862a58b6040518263ffffffff1660e01b815260040162000887919062001c73565b602060405180830381865afa158015620008a5573d6000803e3d6000fd5b505050506040513d601f19601f82011682018060405250810190620008cb919062001cf7565b90508015620008f85760008054906101000a900473ffffffffffffffffffffffffffffffffffffffff1698505b8262000953576200090b86838b620011d3565b6200094d576040517f08c379a0000000000000000000000000000000000000000000000000000000008152600401620009449062001d79565b60405180910390fd5b62000957565b3491505b8473ffffffffffffffffffffffffffffffffffffffff1663dc2379b98462000994576014655af3107a40006200098e919062001dca565b620009b7565b836014655af3107a4000620009aa919062001dca565b620009b6919062001baf565b5b8c8b6006546007546040518663ffffffff1660e01b8152600401620009e0949392919062001e02565b60206040518083038185885af1158015620009ff573d6000803e3d6000fd5b50505050506040513d601f19601f8201168201806040525081019062000a26919062001e6d565b5050505050505050505050565b600033600073ffffffffffffffffffffffffffffffffffffffff16600460008373ffffffffffffffffffffffffffffffffffffffff1673ffffffffffffffffffffffffffffffffffffffff16815260200190815260200160002060009054906101000a900473ffffffffffffffffffffffffffffffffffffffff1673ffffffffffffffffffffffffffffffffffffffff160362000afc576040517f2163950f00000000000000000000000000000000000000000000000000000000815260040160405180910390fd5b6000600460003373ffffffffffffffffffffffffffffffffffffffff1673ffffffffffffffffffffffffffffffffffffffff16815260200190815260200160002060009054906101000a900473ffffffffffffffffffffffffffffffffffffffff1690508073ffffffffffffffffffffffffffffffffffffffff1663372f9101856040518263ffffffff1660e01b815260040162000b9b919062001c73565b6000604051808303816000875af115801562000bbb573d6000803e3d6000fd5b505050506040513d6000823e3d601f19601f8201168201806040525081019062000be6919062001f1d565b50600192505050919050565b60065481565b33600073ffffffffffffffffffffffffffffffffffffffff16600460008373ffffffffffffffffffffffffffffffffffffffff1673ffffffffffffffffffffffffffffffffffffffff16815260200190815260200160002060009054906101000a900473ffffffffffffffffffffffffffffffffffffffff1673ffffffffffffffffffffffffffffffffffffffff160362000cbf576040517f2163950f00000000000000000000000000000000000000000000000000000000815260040160405180910390fd5b655af3107a400034101562000d00576040517fd0c279a200000000000000000000000000000000000000000000000000000000815260040160405180910390fd5b8542111562000d3b576040517f6f7eac2600000000000000000000000000000000000000000000000000000000815260040160405180910390fd5b831562000d7f576040517f329e2f1500000000000000000000000000000000000000000000000000000000815260040162000d769062001fbe565b60405180910390fd5b600062000d8c3362001266565b9050600062000d9d848684620012cf565b905060008290508073ffffffffffffffffffffffffffffffffffffffff1663436d4a6d600073ffffffffffffffffffffffffffffffffffffffff168873ffffffffffffffffffffffffffffffffffffffff161462000e10576014655af3107a400062000e0a919062001dca565b62000e33565b836014655af3107a400062000e26919062001dca565b62000e32919062001baf565b5b8c8c428d8c898f6006546007546040518b63ffffffff1660e01b815260040162000e669998979695949392919062001ff1565b60206040518083038185885af115801562000e85573d6000803e3d6000fd5b50505050506040513d601f19601f8201168201806040525081019062000eac919062001e6d565b507f4ad85a69286191006ea05981ae1848070dbf232e5e00ffdda4b857c16097f0d78a838860405162000ee29392919062002097565b60405180910390a150505050505050505050565b60035481565b655af3107a400081565b60008054906101000a900473ffffffffffffffffffffffffffffffffffffffff1681565b600260009054906101000a900473ffffffffffffffffffffffffffffffffffffffff1673ffffffffffffffffffffffffffffffffffffffff163373ffffffffffffffffffffffffffffffffffffffff161462000fb2576040517f33662b3400000000000000000000000000000000000000000000000000000000815260040160405180910390fd5b81600681905550806007819055505050565b6014655af3107a400062000fd9919062001dca565b81565b600260009054906101000a900473ffffffffffffffffffffffffffffffffffffffff1681565b806000600460008373ffffffffffffffffffffffffffffffffffffffff1673ffffffffffffffffffffffffffffffffffffffff16815260200190815260200160002060009054906101000a900473ffffffffffffffffffffffffffffffffffffffff169050600073ffffffffffffffffffffffffffffffffffffffff168173ffffffffffffffffffffffffffffffffffffffff161480620010cf57503373ffffffffffffffffffffffffffffffffffffffff168173ffffffffffffffffffffffffffffffffffffffff1614155b1562001107576040517f229e1dbd00000000000000000000000000000000000000000000000000000000815260040160405180910390fd5b620011343360008054906101000a900473ffffffffffffffffffffffffffffffffffffffff168662001422565b505050505050565b600160009054906101000a900473ffffffffffffffffffffffffffffffffffffffff1681565b6000600460003373ffffffffffffffffffffffffffffffffffffffff1673ffffffffffffffffffffffffffffffffffffffff16815260200190815260200160002060009054906101000a900473ffffffffffffffffffffffffffffffffffffffff16905090565b655af3107a400081565b6000808290508073ffffffffffffffffffffffffffffffffffffffff1663095ea7b386866040518363ffffffff1660e01b815260040162001216929190620020db565b6020604051808303816000875af115801562001236573d6000803e3d6000fd5b505050506040513d601f19601f820116820180604052508101906200125c919062001cf7565b9150509392505050565b6000600460008373ffffffffffffffffffffffffffffffffffffffff1673ffffffffffffffffffffffffffffffffffffffff16815260200190815260200160002060009054906101000a900473ffffffffffffffffffffffffffffffffffffffff169050919050565b60008073ffffffffffffffffffffffffffffffffffffffff168373ffffffffffffffffffffffffffffffffffffffff1614620014015760006200131433858762001422565b90508062001359576040517fec866729000000000000000000000000000000000000000000000000000000008152600401620013509062002158565b60405180910390fd5b3373ffffffffffffffffffffffffffffffffffffffff167f42856d0378dde02337bb59ae41747abc77ded8ebdbbc5cbdd1e53693b75549383087604051620013a3929190620020db565b60405180910390a2620013b8838686620011d3565b620013fa576040517f08c379a0000000000000000000000000000000000000000000000000000000008152600401620013f19062001d79565b60405180910390fd5b5062001418565b655af3107a4000346200141591906200217a565b93505b8390509392505050565b6000818373ffffffffffffffffffffffffffffffffffffffff1663dd62ed3e86306040518363ffffffff1660e01b81526004016200146292919062001b53565b602060405180830381865afa15801562001480573d6000803e3d6000fd5b505050506040513d601f19601f82011682018060405250810190620014a6919062001e6d565b1015620014ea576040517f08c379a0000000000000000000000000000000000000000000000000000000008152600401620014e19062002205565b60405180910390fd5b8273ffffffffffffffffffffffffffffffffffffffff166323b872dd8530856040518463ffffffff1660e01b8152600401620015299392919062002227565b6020604051808303816000875af115801562001549573d6000803e3d6000fd5b505050506040513d601f19601f820116820180604052508101906200156f919062001cf7565b90509392505050565b6129eb806200226583390190565b6000819050919050565b6200159b8162001586565b82525050565b6000602082019050620015b8600083018462001590565b92915050565b600073ffffffffffffffffffffffffffffffffffffffff82169050919050565b6000620015eb82620015be565b9050919050565b620015fd81620015de565b82525050565b60006020820190506200161a6000830184620015f2565b92915050565b6000604051905090565b600080fd5b600080fd5b600080fd5b600080fd5b6000601f19601f8301169050919050565b7f4e487b7100000000000000000000000000000000000000000000000000000000600052604160045260246000fd5b62001689826200163e565b810181811067ffffffffffffffff82111715620016ab57620016aa6200164f565b5b80604052505050565b6000620016c062001620565b9050620016ce82826200167e565b919050565b600067ffffffffffffffff821115620016f157620016f06200164f565b5b620016fc826200163e565b9050602081019050919050565b82818337600083830152505050565b60006200172f6200172984620016d3565b620016b4565b9050828152602081018484840111156200174e576200174d62001639565b5b6200175b84828562001709565b509392505050565b600082601f8301126200177b576200177a62001634565b5b81356200178d84826020860162001718565b91505092915050565b620017a181620015de565b8114620017ad57600080fd5b50565b600081359050620017c18162001796565b92915050565b620017d28162001586565b8114620017de57600080fd5b50565b600081359050620017f281620017c7565b92915050565b6000806000606084860312156200181457620018136200162a565b5b600084013567ffffffffffffffff8111156200183557620018346200162f565b5b620018438682870162001763565b93505060206200185686828701620017b0565b92505060406200186986828701620017e1565b9150509250925092565b6000602082840312156200188c576200188b6200162a565b5b600082013567ffffffffffffffff811115620018ad57620018ac6200162f565b5b620018bb8482850162001763565b91505092915050565b60008115159050919050565b620018db81620018c4565b82525050565b6000602082019050620018f86000830184620018d0565b92915050565b600060ff82169050919050565b6200191681620018fe565b81146200192257600080fd5b50565b60008135905062001936816200190b565b92915050565b6200194781620018c4565b81146200195357600080fd5b50565b60008135905062001967816200193c565b92915050565b60008060008060008060c087890312156200198d576200198c6200162a565b5b600087013567ffffffffffffffff811115620019ae57620019ad6200162f565b5b620019bc89828a0162001763565b9650506020620019cf89828a01620017e1565b9550506040620019e289828a0162001925565b9450506060620019f589828a0162001956565b935050608062001a0889828a01620017b0565b92505060a062001a1b89828a01620017e1565b9150509295509295509295565b6000819050919050565b600062001a5362001a4d62001a4784620015be565b62001a28565b620015be565b9050919050565b600062001a678262001a32565b9050919050565b600062001a7b8262001a5a565b9050919050565b62001a8d8162001a6e565b82525050565b600060208201905062001aaa600083018462001a82565b92915050565b6000806040838503121562001aca5762001ac96200162a565b5b600062001ada85828601620017e1565b925050602062001aed85828601620017e1565b9150509250929050565b60008060006060848603121562001b135762001b126200162a565b5b600062001b2386828701620017b0565b935050602062001b3686828701620017e1565b925050604062001b4986828701620017b0565b9150509250925092565b600060408201905062001b6a6000830185620015f2565b62001b796020830184620015f2565b9392505050565b7f4e487b7100000000000000000000000000000000000000000000000000000000600052601160045260246000fd5b600062001bbc8262001586565b915062001bc98362001586565b925082820190508082111562001be45762001be362001b80565b5b92915050565b600081519050919050565b600082825260208201905092915050565b60005b8381101562001c2657808201518184015260208101905062001c09565b60008484015250505050565b600062001c3f8262001bea565b62001c4b818562001bf5565b935062001c5d81856020860162001c06565b62001c68816200163e565b840191505092915050565b6000602082019050818103600083015262001c8f818462001c32565b905092915050565b60008151905062001ca88162001796565b92915050565b60006020828403121562001cc75762001cc66200162a565b5b600062001cd78482850162001c97565b91505092915050565b60008151905062001cf1816200193c565b92915050565b60006020828403121562001d105762001d0f6200162a565b5b600062001d208482850162001ce0565b91505092915050565b7f536176696e677320696e76616c69640000000000000000000000000000000000600082015250565b600062001d61600f8362001bf5565b915062001d6e8262001d29565b602082019050919050565b6000602082019050818103600083015262001d948162001d52565b9050919050565b7f4e487b7100000000000000000000000000000000000000000000000000000000600052601260045260246000fd5b600062001dd78262001586565b915062001de48362001586565b92508262001df75762001df662001d9b565b5b828204905092915050565b6000608082019050818103600083015262001e1e818762001c32565b905062001e2f602083018662001590565b62001e3e604083018562001590565b62001e4d606083018462001590565b95945050505050565b60008151905062001e6781620017c7565b92915050565b60006020828403121562001e865762001e856200162a565b5b600062001e968482850162001e56565b91505092915050565b600062001eb662001eb084620016d3565b620016b4565b90508281526020810184848401111562001ed55762001ed462001639565b5b62001ee284828562001c06565b509392505050565b600082601f83011262001f025762001f0162001634565b5b815162001f1484826020860162001e9f565b91505092915050565b60006020828403121562001f365762001f356200162a565b5b600082015167ffffffffffffffff81111562001f575762001f566200162f565b5b62001f658482850162001eea565b91505092915050565b7f4e6f2073616665206d6f64652079657421000000000000000000000000000000600082015250565b600062001fa660118362001bf5565b915062001fb38262001f6e565b602082019050919050565b6000602082019050818103600083015262001fd98162001f97565b9050919050565b62001feb81620018fe565b82525050565b60006101208201905081810360008301526200200e818c62001c32565b90506200201f602083018b62001590565b6200202e604083018a62001590565b6200203d606083018962001fe0565b6200204c6080830188620015f2565b6200205b60a083018762001590565b6200206a60c0830186620018d0565b6200207960e083018562001590565b6200208961010083018462001590565b9a9950505050505050505050565b60006060820190508181036000830152620020b3818662001c32565b9050620020c4602083018562001590565b620020d36040830184620015f2565b949350505050565b6000604082019050620020f26000830185620015f2565b62002101602083018462001590565b9392505050565b7f54786e206661696c656400000000000000000000000000000000000000000000600082015250565b600062002140600a8362001bf5565b91506200214d8262002108565b602082019050919050565b60006020820190508181036000830152620021738162002131565b9050919050565b6000620021878262001586565b9150620021948362001586565b9250828203905081811115620021af57620021ae62001b80565b5b92915050565b7f546f6b656e20636f756c64206e6f742062652077697468647261776e00000000600082015250565b6000620021ed601c8362001bf5565b9150620021fa82620021b5565b602082019050919050565b600060208201905081810360008301526200222081620021de565b9050919050565b60006060820190506200223e6000830186620015f2565b6200224d6020830185620015f2565b6200225c604083018462001590565b94935050505056fe6080604052604051620029eb380380620029eb83398181016040528101906200002991906200015d565b336000806101000a81548173ffffffffffffffffffffffffffffffffffffffff021916908373ffffffffffffffffffffffffffffffffffffffff16021790555081600260006101000a81548173ffffffffffffffffffffffffffffffffffffffff021916908373ffffffffffffffffffffffffffffffffffffffff16021790555080600160006101000a81548173ffffffffffffffffffffffffffffffffffffffff021916908373ffffffffffffffffffffffffffffffffffffffff1602179055505050620001a4565b600080fd5b600073ffffffffffffffffffffffffffffffffffffffff82169050919050565b60006200012582620000f8565b9050919050565b620001378162000118565b81146200014357600080fd5b50565b60008151905062000157816200012c565b92915050565b60008060408385031215620001775762000176620000f3565b5b6000620001878582860162000146565b92505060206200019a8582860162000146565b9150509250929050565b61283780620001b46000396000f3fe6080604052600436106100a75760003560e01c806384febb691161006457806384febb69146101f55780638f84aa0914610232578063992642e51461025d578063d1ece79014610288578063dc2379b9146102b3578063e18f5f65146102e3576100a7565b806313203929146100ac5780631bb862a5146100f05780632ae3c90f1461012d578063372f910114610158578063436d4a6d14610188578063585dbffe146101b8575b600080fd5b3480156100b857600080fd5b506100d360048036038101906100ce91906118d6565b610320565b6040516100e7989796959493929190611994565b60405180910390f35b3480156100fc57600080fd5b50610117600480360381019061011291906118d6565b6103b8565b6040516101249190611a12565b60405180910390f35b34801561013957600080fd5b506101426103f0565b60405161014f9190611a4e565b60405180910390f35b610172600480360381019061016d91906118d6565b610414565b60405161017f9190611ae8565b60405180910390f35b6101a2600480360381019061019d9190611bc7565b6108a8565b6040516101af9190611cad565b60405180910390f35b3480156101c457600080fd5b506101df60048036038101906101da91906118d6565b610c76565b6040516101ec9190611d97565b60405180910390f35b34801561020157600080fd5b5061021c600480360381019061021791906118d6565b610d6d565b6040516102299190611cad565b60405180910390f35b34801561023e57600080fd5b50610247610d98565b6040516102549190611db3565b60405180910390f35b34801561026957600080fd5b50610272610dbe565b60405161027f9190611e2d565b60405180910390f35b34801561029457600080fd5b5061029d610de4565b6040516102aa9190611f7e565b60405180910390f35b6102cd60048036038101906102c89190611fa0565b610ed7565b6040516102da9190611cad565b60405180910390f35b3480156102ef57600080fd5b5061030a600480360381019061030591906118d6565b611345565b6040516103179190611db3565b60405180910390f35b6003818051602081018201805184825260208301602085012081835280955050505050506000915090508060000160009054906101000a900460ff16908060010154908060020160009054906101000a900473ffffffffffffffffffffffffffffffffffffffff16908060030154908060040154908060050154908060060154908060070160009054906101000a900460ff16905088565b60006003826040516103ca919061205f565b908152602001604051809103902060070160009054906101000a900460ff169050919050565b60008054906101000a900473ffffffffffffffffffffffffffffffffffffffff1681565b606060008054906101000a900473ffffffffffffffffffffffffffffffffffffffff1673ffffffffffffffffffffffffffffffffffffffff163373ffffffffffffffffffffffffffffffffffffffff161461049b576040517f229e1dbd00000000000000000000000000000000000000000000000000000000815260040160405180910390fd5b60006003836040516104ad919061205f565b908152602001604051809103902090508060000160009054906101000a900460ff16610505576040517fd63d1e4800000000000000000000000000000000000000000000000000000000815260040160405180910390fd5b60008160010154905060008060009054906101000a900473ffffffffffffffffffffffffffffffffffffffff16905082600601544210156105735760648360050154606461055391906120a5565b846001015461056291906120d9565b61056c919061214a565b9150610574565b5b60008360020160009054906101000a900473ffffffffffffffffffffffffffffffffffffffff1690508360070160009054906101000a900460ff16156106985761060160008054906101000a900473ffffffffffffffffffffffffffffffffffffffff1684600160009054906101000a900473ffffffffffffffffffffffffffffffffffffffff16611390565b508173ffffffffffffffffffffffffffffffffffffffff1663de35c3728285600260009054906101000a900473ffffffffffffffffffffffffffffffffffffffff166040518463ffffffff1660e01b81526004016106619392919061217b565b600060405180830381600087803b15801561067b57600080fd5b505af115801561068f573d6000803e3d6000fd5b505050506107f6565b600073ffffffffffffffffffffffffffffffffffffffff168173ffffffffffffffffffffffffffffffffffffffff16036107a357600080600260009054906101000a900473ffffffffffffffffffffffffffffffffffffffff1673ffffffffffffffffffffffffffffffffffffffff1685604051610715906121e3565b60006040518083038185875af1925050503d8060008114610752576040519150601f19603f3d011682016040523d82523d6000602084013e610757565b606091505b50915091508161079c576040517f08c379a000000000000000000000000000000000000000000000000000000000815260040161079390612244565b60405180910390fd5b50506107f5565b6107f48460020160009054906101000a900473ffffffffffffffffffffffffffffffffffffffff16600260009054906101000a900473ffffffffffffffffffffffffffffffffffffffff168561141e565b5b5b6000600387604051610808919061205f565b908152602001604051809103902060000160006101000a81548160ff0219169083151502179055507f5b059b7fe1fea38d4de595079621498a365a8f1fa13e49af9f1e4b7197ab049a8660405161085f9190611ae8565b60405180910390a16040518060400160405280601e81526020017f736176696e67732077697468647261776e207375636365737366756c6c790000815250945050505050919050565b60008060009054906101000a900473ffffffffffffffffffffffffffffffffffffffff1673ffffffffffffffffffffffffffffffffffffffff163373ffffffffffffffffffffffffffffffffffffffff1614610930576040517f229e1dbd00000000000000000000000000000000000000000000000000000000815260040160405180910390fd5b60038a604051610940919061205f565b908152602001604051809103902060000160009054906101000a900460ff1615610996576040517fd63d1e4800000000000000000000000000000000000000000000000000000000815260040160405180910390fd5b878910156109d0576040517f6f7eac2600000000000000000000000000000000000000000000000000000000815260040160405180910390fd5b42891015610a0a576040517f6f7eac2600000000000000000000000000000000000000000000000000000000815260040160405180910390fd5b60008590508415610a6857610a6260008054906101000a900473ffffffffffffffffffffffffffffffffffffffff16600160009054906101000a900473ffffffffffffffffffffffffffffffffffffffff16886114f8565b50610ad2565b600073ffffffffffffffffffffffffffffffffffffffff168773ffffffffffffffffffffffffffffffffffffffff1614610acd57610ac760008054906101000a900473ffffffffffffffffffffffffffffffffffffffff1688886114f8565b50610ad1565b3490505b5b6000610aeb828b8d610ae491906120a5565b8787611641565b90506040518061010001604052806001151581526020018381526020018973ffffffffffffffffffffffffffffffffffffffff1681526020018281526020018b81526020018a60ff1681526020018c815260200187151581525060038d604051610b55919061205f565b908152602001604051809103902060008201518160000160006101000a81548160ff0219169083151502179055506020820151816001015560408201518160020160006101000a81548173ffffffffffffffffffffffffffffffffffffffff021916908373ffffffffffffffffffffffffffffffffffffffff160217905550606082015181600301556080820151816004015560a0820151816005015560c0820151816006015560e08201518160070160006101000a81548160ff021916908315150217905550905050610c288c6116cf565b7f4ad85a69286191006ea05981ae1848070dbf232e5e00ffdda4b857c16097f0d78c888a604051610c5b93929190612264565b60405180910390a16001925050509998505050505050505050565b610c7e61170a565b600382604051610c8e919061205f565b9081526020016040518091039020604051806101000160405290816000820160009054906101000a900460ff16151515158152602001600182015481526020016002820160009054906101000a900473ffffffffffffffffffffffffffffffffffffffff1673ffffffffffffffffffffffffffffffffffffffff1673ffffffffffffffffffffffffffffffffffffffff168152602001600382015481526020016004820154815260200160058201548152602001600682015481526020016007820160009054906101000a900460ff1615151515815250509050919050565b6000600382604051610d7f919061205f565b9081526020016040518091039020600301549050919050565b600260009054906101000a900473ffffffffffffffffffffffffffffffffffffffff1681565b600160009054906101000a900473ffffffffffffffffffffffffffffffffffffffff1681565b610dec611769565b600460405180602001604052908160008201805480602002602001604051908101604052809291908181526020016000905b82821015610eca578382906000526020600020018054610e3d906122d1565b80601f0160208091040260200160405190810160405280929190818152602001828054610e69906122d1565b8015610eb65780601f10610e8b57610100808354040283529160200191610eb6565b820191906000526020600020905b815481529060010190602001808311610e9957829003601f168201915b505050505081526020019060010190610e1e565b5050505081525050905090565b60008060009054906101000a900473ffffffffffffffffffffffffffffffffffffffff1673ffffffffffffffffffffffffffffffffffffffff163373ffffffffffffffffffffffffffffffffffffffff1614610f5f576040517f229e1dbd00000000000000000000000000000000000000000000000000000000815260040160405180910390fd5b6000600386604051610f71919061205f565b908152602001604051809103902090508060000160009054906101000a900460ff16610fc9576040517fd63d1e4800000000000000000000000000000000000000000000000000000000815260040160405180910390fd5b8060060154421115611007576040517f6f7eac2600000000000000000000000000000000000000000000000000000000815260040160405180910390fd5b60008073ffffffffffffffffffffffffffffffffffffffff168260020160009054906101000a900473ffffffffffffffffffffffffffffffffffffffff1673ffffffffffffffffffffffffffffffffffffffff161490508160070160009054906101000a900460ff16156110c8576110c260008054906101000a900473ffffffffffffffffffffffffffffffffffffffff16600160009054906101000a900473ffffffffffffffffffffffffffffffffffffffff16886114f8565b5061116a565b806111225761111c60008054906101000a900473ffffffffffffffffffffffffffffffffffffffff168360020160009054906101000a900473ffffffffffffffffffffffffffffffffffffffff16886114f8565b50611169565b85341015611165576040517f08c379a000000000000000000000000000000000000000000000000000000000815260040161115c90612374565b60405180910390fd5b3495505b5b60006111878742856006015461118091906120a5565b8888611641565b90508083600301546111999190612394565b83600301819055508683600101546111b19190612394565b8360010181905550826003896040516111ca919061205f565b90815260200160405180910390206000820160009054906101000a900460ff168160000160006101000a81548160ff021916908315150217905550600182015481600101556002820160009054906101000a900473ffffffffffffffffffffffffffffffffffffffff168160020160006101000a81548173ffffffffffffffffffffffffffffffffffffffff021916908373ffffffffffffffffffffffffffffffffffffffff160217905550600382015481600301556004820154816004015560058201548160050155600682015481600601556007820160009054906101000a900460ff168160070160006101000a81548160ff0219169083151502179055509050507ff6b98d8e0d83f8b1d1ff03a2fa36aba2c77ccf20e4ff035c0cf4aa92762e9eec888885600101548660020160009054906101000a900473ffffffffffffffffffffffffffffffffffffffff1660405161132b94939291906123c8565b60405180910390a182600301549350505050949350505050565b6000600382604051611357919061205f565b908152602001604051809103902060020160009054906101000a900473ffffffffffffffffffffffffffffffffffffffff169050919050565b6000808290508073ffffffffffffffffffffffffffffffffffffffff1663095ea7b386866040518363ffffffff1660e01b81526004016113d1929190612414565b6020604051808303816000875af11580156113f0573d6000803e3d6000fd5b505050506040513d601f19601f820116820180604052508101906114149190612452565b9150509392505050565b60008390508073ffffffffffffffffffffffffffffffffffffffff1663a9059cbb84846040518363ffffffff1660e01b815260040161145e929190612414565b6020604051808303816000875af115801561147d573d6000803e3d6000fd5b505050506040513d601f19601f820116820180604052508101906114a19190612452565b503073ffffffffffffffffffffffffffffffffffffffff167f42856d0378dde02337bb59ae41747abc77ded8ebdbbc5cbdd1e53693b755493884846040516114ea929190612414565b60405180910390a250505050565b6000818373ffffffffffffffffffffffffffffffffffffffff1663dd62ed3e86306040518363ffffffff1660e01b815260040161153692919061247f565b602060405180830381865afa158015611553573d6000803e3d6000fd5b505050506040513d601f19601f8201168201806040525081019061157791906124bd565b10156115b8576040517f08c379a00000000000000000000000000000000000000000000000000000000081526004016115af90612536565b60405180910390fd5b8273ffffffffffffffffffffffffffffffffffffffff166323b872dd8530856040518463ffffffff1660e01b81526004016115f593929190612556565b6020604051808303816000875af1158015611614573d6000803e3d6000fd5b505050506040513d601f19601f820116820180604052508101906116389190612452565b90509392505050565b6000806064848562e4e1c061165691906120a5565b611660919061214a565b61166a91906120d9565b90506000838261167a91906120d9565b6305f5e100611689919061214a565b905060006301e133808761169d919061214a565b9050606481838a6116ae91906120d9565b6116b891906120d9565b6116c2919061214a565b9350505050949350505050565b600460000181908060018154018082558091505060019003906000526020600020016000909190919091509081611706919061272f565b5050565b60405180610100016040528060001515815260200160008152602001600073ffffffffffffffffffffffffffffffffffffffff168152602001600081526020016000815260200160008152602001600081526020016000151581525090565b6040518060200160405280606081525090565b6000604051905090565b600080fd5b600080fd5b600080fd5b600080fd5b6000601f19601f8301169050919050565b7f4e487b7100000000000000000000000000000000000000000000000000000000600052604160045260246000fd5b6117e38261179a565b810181811067ffffffffffffffff82111715611802576118016117ab565b5b80604052505050565b600061181561177c565b905061182182826117da565b919050565b600067ffffffffffffffff821115611841576118406117ab565b5b61184a8261179a565b9050602081019050919050565b82818337600083830152505050565b600061187961187484611826565b61180b565b90508281526020810184848401111561189557611894611795565b5b6118a0848285611857565b509392505050565b600082601f8301126118bd576118bc611790565b5b81356118cd848260208601611866565b91505092915050565b6000602082840312156118ec576118eb611786565b5b600082013567ffffffffffffffff81111561190a5761190961178b565b5b611916848285016118a8565b91505092915050565b60008115159050919050565b6119348161191f565b82525050565b6000819050919050565b61194d8161193a565b82525050565b600073ffffffffffffffffffffffffffffffffffffffff82169050919050565b600061197e82611953565b9050919050565b61198e81611973565b82525050565b6000610100820190506119aa600083018b61192b565b6119b7602083018a611944565b6119c46040830189611985565b6119d16060830188611944565b6119de6080830187611944565b6119eb60a0830186611944565b6119f860c0830185611944565b611a0560e083018461192b565b9998505050505050505050565b6000602082019050611a27600083018461192b565b92915050565b6000611a3882611953565b9050919050565b611a4881611a2d565b82525050565b6000602082019050611a636000830184611a3f565b92915050565b600081519050919050565b600082825260208201905092915050565b60005b83811015611aa3578082015181840152602081019050611a88565b60008484015250505050565b6000611aba82611a69565b611ac48185611a74565b9350611ad4818560208601611a85565b611add8161179a565b840191505092915050565b60006020820190508181036000830152611b028184611aaf565b905092915050565b611b138161193a565b8114611b1e57600080fd5b50565b600081359050611b3081611b0a565b92915050565b600060ff82169050919050565b611b4c81611b36565b8114611b5757600080fd5b50565b600081359050611b6981611b43565b92915050565b611b7881611973565b8114611b8357600080fd5b50565b600081359050611b9581611b6f565b92915050565b611ba48161191f565b8114611baf57600080fd5b50565b600081359050611bc181611b9b565b92915050565b60008060008060008060008060006101208a8c031215611bea57611be9611786565b5b60008a013567ffffffffffffffff811115611c0857611c0761178b565b5b611c148c828d016118a8565b9950506020611c258c828d01611b21565b9850506040611c368c828d01611b21565b9750506060611c478c828d01611b5a565b9650506080611c588c828d01611b86565b95505060a0611c698c828d01611b21565b94505060c0611c7a8c828d01611bb2565b93505060e0611c8b8c828d01611b21565b925050610100611c9d8c828d01611b21565b9150509295985092959850929598565b6000602082019050611cc26000830184611944565b92915050565b611cd18161191f565b82525050565b611ce08161193a565b82525050565b611cef81611973565b82525050565b61010082016000820151611d0c6000850182611cc8565b506020820151611d1f6020850182611cd7565b506040820151611d326040850182611ce6565b506060820151611d456060850182611cd7565b506080820151611d586080850182611cd7565b5060a0820151611d6b60a0850182611cd7565b5060c0820151611d7e60c0850182611cd7565b5060e0820151611d9160e0850182611cc8565b50505050565b600061010082019050611dad6000830184611cf5565b92915050565b6000602082019050611dc86000830184611985565b92915050565b6000819050919050565b6000611df3611dee611de984611953565b611dce565b611953565b9050919050565b6000611e0582611dd8565b9050919050565b6000611e1782611dfa565b9050919050565b611e2781611e0c565b82525050565b6000602082019050611e426000830184611e1e565b92915050565b600081519050919050565b600082825260208201905092915050565b6000819050602082019050919050565b600082825260208201905092915050565b6000611e9082611a69565b611e9a8185611e74565b9350611eaa818560208601611a85565b611eb38161179a565b840191505092915050565b6000611eca8383611e85565b905092915050565b6000602082019050919050565b6000611eea82611e48565b611ef48185611e53565b935083602082028501611f0685611e64565b8060005b85811015611f425784840389528151611f238582611ebe565b9450611f2e83611ed2565b925060208a01995050600181019050611f0a565b50829750879550505050505092915050565b60006020830160008301518482036000860152611f718282611edf565b9150508091505092915050565b60006020820190508181036000830152611f988184611f54565b905092915050565b60008060008060808587031215611fba57611fb9611786565b5b600085013567ffffffffffffffff811115611fd857611fd761178b565b5b611fe4878288016118a8565b9450506020611ff587828801611b21565b935050604061200687828801611b21565b925050606061201787828801611b21565b91505092959194509250565b600081905092915050565b600061203982611a69565b6120438185612023565b9350612053818560208601611a85565b80840191505092915050565b600061206b828461202e565b915081905092915050565b7f4e487b7100000000000000000000000000000000000000000000000000000000600052601160045260246000fd5b60006120b08261193a565b91506120bb8361193a565b92508282039050818111156120d3576120d2612076565b5b92915050565b60006120e48261193a565b91506120ef8361193a565b92508282026120fd8161193a565b9150828204841483151761211457612113612076565b5b5092915050565b7f4e487b7100000000000000000000000000000000000000000000000000000000600052601260045260246000fd5b60006121558261193a565b91506121608361193a565b9250826121705761216f61211b565b5b828204905092915050565b60006060820190506121906000830186611985565b61219d6020830185611944565b6121aa6040830184611985565b949350505050565b600081905092915050565b50565b60006121cd6000836121b2565b91506121d8826121bd565b600082019050919050565b60006121ee826121c0565b9150819050919050565b7f436f756c646e27742073656e642066756e647300000000000000000000000000600082015250565b600061222e601383611a74565b9150612239826121f8565b602082019050919050565b6000602082019050818103600083015261225d81612221565b9050919050565b6000606082019050818103600083015261227e8186611aaf565b905061228d6020830185611944565b61229a6040830184611985565b949350505050565b7f4e487b7100000000000000000000000000000000000000000000000000000000600052602260045260246000fd5b600060028204905060018216806122e957607f821691505b6020821081036122fc576122fb6122a2565b5b50919050565b7f496e76616c696420736176696e6720696e6372656d656e742076616c7565207360008201527f656e740000000000000000000000000000000000000000000000000000000000602082015250565b600061235e602383611a74565b915061236982612302565b604082019050919050565b6000602082019050818103600083015261238d81612351565b9050919050565b600061239f8261193a565b91506123aa8361193a565b92508282019050808211156123c2576123c1612076565b5b92915050565b600060808201905081810360008301526123e28187611aaf565b90506123f16020830186611944565b6123fe6040830185611944565b61240b6060830184611985565b95945050505050565b60006040820190506124296000830185611985565b6124366020830184611944565b9392505050565b60008151905061244c81611b9b565b92915050565b60006020828403121561246857612467611786565b5b60006124768482850161243d565b91505092915050565b60006040820190506124946000830185611985565b6124a16020830184611985565b9392505050565b6000815190506124b781611b0a565b92915050565b6000602082840312156124d3576124d2611786565b5b60006124e1848285016124a8565b91505092915050565b7f546f6b656e20636f756c64206e6f742062652077697468647261776e00000000600082015250565b6000612520601c83611a74565b915061252b826124ea565b602082019050919050565b6000602082019050818103600083015261254f81612513565b9050919050565b600060608201905061256b6000830186611985565b6125786020830185611985565b6125856040830184611944565b949350505050565b60008190508160005260206000209050919050565b60006020601f8301049050919050565b600082821b905092915050565b6000600883026125ef7fffffffffffffffffffffffffffffffffffffffffffffffffffffffffffffffff826125b2565b6125f986836125b2565b95508019841693508086168417925050509392505050565b600061262c6126276126228461193a565b611dce565b61193a565b9050919050565b6000819050919050565b61264683612611565b61265a61265282612633565b8484546125bf565b825550505050565b600090565b61266f612662565b61267a81848461263d565b505050565b5b8181101561269e57612693600082612667565b600181019050612680565b5050565b601f8211156126e3576126b48161258d565b6126bd846125a2565b810160208510156126cc578190505b6126e06126d8856125a2565b83018261267f565b50505b505050565b600082821c905092915050565b6000612706600019846008026126e8565b1980831691505092915050565b600061271f83836126f5565b9150826002028217905092915050565b61273882611a69565b67ffffffffffffffff811115612751576127506117ab565b5b61275b82546122d1565b6127668282856126a2565b600060209050601f8311600181146127995760008415612787578287015190505b6127918582612713565b8655506127f9565b601f1984166127a78661258d565b60005b828110156127cf578489015182556001820191506020850194506020810190506127aa565b868310156127ec57848901516127e8601f8916826126f5565b8355505b6001600288020188555050505b50505050505056fea26469706673582212208b53b2c761b1d3b625a5486691c884267bc0d4b8b82b4cc3b4dfe9022f853ee964736f6c63430008170033a26469706673582212201fb18ca9f7e44b2bf8434dec12c0a3fb4adc1d4ced36af42cf208b0a44800b1164736f6c63430008170033",
  "linkReferences": {},
  "deployedLinkReferences": {}
}