{
  "_format": "hh-sol-artifact-1",
  "contractName": "Bitsave",
  "sourceName": "contracts/Bitsave.sol",
  "abi": [
    {
      "inputs": [
        {
          "internalType": "address",
          "name": "_stableCoin",
          "type": "address"
        },
        {
          "internalType": "address",
          "name": "_csToken",
          "type": "address"
        }
      ],
      "stateMutability": "payable",
      "type": "constructor"
    },
    {
      "inputs": [],
      "name": "AmountNotEnough",
      "type": "error"
    },
    {
      "inputs": [],
      "name": "CallNotFromBitsave",
      "type": "error"
    },
    {
      "inputs": [
        {
          "internalType": "string",
          "name": "",
          "type": "string"
        }
      ],
      "name": "CanNotWithdrawToken",
      "type": "error"
    },
    {
      "inputs": [],
      "name": "InvalidTime",
      "type": "error"
    },
    {
      "inputs": [],
      "name": "MasterCallRequired",
      "type": "error"
    },
    {
      "inputs": [],
      "name": "NotEnoughToPayGasFee",
      "type": "error"
    },
    {
      "inputs": [
        {
          "internalType": "string",
          "name": "",
          "type": "string"
        }
      ],
      "name": "NotSupported",
      "type": "error"
    },
    {
      "inputs": [],
      "name": "UserNotRegistered",
      "type": "error"
    },
    {
      "anonymous": false,
      "inputs": [
        {
          "indexed": false,
          "internalType": "address",
          "name": "userAddress",
          "type": "address"
        }
      ],
      "name": "JoinedBitsave",
      "type": "event"
    },
    {
      "anonymous": false,
      "inputs": [
        {
          "indexed": false,
          "internalType": "string",
          "name": "nameOfSaving",
          "type": "string"
        },
        {
          "indexed": false,
          "internalType": "uint256",
          "name": "amount",
          "type": "uint256"
        },
        {
          "indexed": false,
          "internalType": "address",
          "name": "token",
          "type": "address"
        }
      ],
      "name": "SavingCreated",
      "type": "event"
    },
    {
      "anonymous": false,
      "inputs": [
        {
          "indexed": true,
          "internalType": "address",
          "name": "from",
          "type": "address"
        },
        {
          "indexed": false,
          "internalType": "address",
          "name": "to",
          "type": "address"
        },
        {
          "indexed": false,
          "internalType": "uint256",
          "name": "amount",
          "type": "uint256"
        }
      ],
      "name": "TokenWithdrawal",
      "type": "event"
    },
    {
      "inputs": [],
      "name": "ChildContractGasFee",
      "outputs": [
        {
          "internalType": "uint256",
          "name": "",
          "type": "uint256"
        }
      ],
      "stateMutability": "view",
      "type": "function"
    },
    {
      "inputs": [],
      "name": "JoinLimitFee",
      "outputs": [
        {
          "internalType": "uint256",
          "name": "",
          "type": "uint256"
        }
      ],
      "stateMutability": "view",
      "type": "function"
    },
    {
      "inputs": [],
      "name": "SavingFee",
      "outputs": [
        {
          "internalType": "uint256",
          "name": "",
          "type": "uint256"
        }
      ],
      "stateMutability": "view",
      "type": "function"
    },
    {
      "inputs": [
        {
          "internalType": "string",
          "name": "nameOfSaving",
          "type": "string"
        },
        {
          "internalType": "uint256",
          "name": "maturityTime",
          "type": "uint256"
        },
        {
          "internalType": "uint8",
          "name": "penaltyPercentage",
          "type": "uint8"
        },
        {
          "internalType": "bool",
          "name": "safeMode",
          "type": "bool"
        },
        {
          "internalType": "address",
          "name": "tokenToSave",
          "type": "address"
        },
        {
          "internalType": "uint256",
          "name": "amount",
          "type": "uint256"
        }
      ],
      "name": "createSaving",
      "outputs": [],
      "stateMutability": "payable",
      "type": "function"
    },
    {
      "inputs": [],
      "name": "csToken",
      "outputs": [
        {
          "internalType": "contract IERC20",
          "name": "",
          "type": "address"
        }
      ],
      "stateMutability": "view",
      "type": "function"
    },
    {
      "inputs": [],
      "name": "currentTotalValueLocked",
      "outputs": [
        {
          "internalType": "uint256",
          "name": "",
          "type": "uint256"
        }
      ],
      "stateMutability": "view",
      "type": "function"
    },
    {
      "inputs": [],
      "name": "currentVaultState",
      "outputs": [
        {
          "internalType": "uint256",
          "name": "",
          "type": "uint256"
        }
      ],
      "stateMutability": "view",
      "type": "function"
    },
    {
      "inputs": [
        {
          "internalType": "uint256",
          "name": "_newCurrentVaultState",
          "type": "uint256"
        },
        {
          "internalType": "uint256",
          "name": "_newTotalValueLocked",
          "type": "uint256"
        }
      ],
      "name": "editInternalData",
      "outputs": [],
      "stateMutability": "nonpayable",
      "type": "function"
    },
    {
      "inputs": [],
      "name": "getUserChildContractAddress",
      "outputs": [
        {
          "internalType": "address",
          "name": "",
          "type": "address"
        }
      ],
      "stateMutability": "view",
      "type": "function"
    },
    {
      "inputs": [
        {
          "internalType": "string",
          "name": "nameOfSavings",
          "type": "string"
        },
        {
          "internalType": "address",
          "name": "tokenToRetrieve",
          "type": "address"
        },
        {
          "internalType": "uint256",
          "name": "amount",
          "type": "uint256"
        }
      ],
      "name": "incrementSaving",
      "outputs": [],
      "stateMutability": "payable",
      "type": "function"
    },
    {
      "inputs": [],
      "name": "joinBitsave",
      "outputs": [
        {
          "internalType": "address",
          "name": "",
          "type": "address"
        }
      ],
      "stateMutability": "payable",
      "type": "function"
    },
    {
      "inputs": [],
      "name": "masterAddress",
      "outputs": [
        {
          "internalType": "address",
          "name": "",
          "type": "address"
        }
      ],
      "stateMutability": "view",
      "type": "function"
    },
    {
      "inputs": [],
      "name": "rewardPool",
      "outputs": [
        {
          "internalType": "uint256",
          "name": "",
          "type": "uint256"
        }
      ],
      "stateMutability": "view",
      "type": "function"
    },
    {
      "inputs": [
        {
          "internalType": "address",
          "name": "originalToken",
          "type": "address"
        },
        {
          "internalType": "uint256",
          "name": "amount",
          "type": "uint256"
        },
        {
          "internalType": "address",
          "name": "ownerAddress",
          "type": "address"
        }
      ],
      "name": "sendAsOriginalToken",
      "outputs": [],
      "stateMutability": "payable",
      "type": "function"
    },
    {
      "inputs": [],
      "name": "stableCoin",
      "outputs": [
        {
          "internalType": "contract IERC20",
          "name": "",
          "type": "address"
        }
      ],
      "stateMutability": "view",
      "type": "function"
    },
    {
      "inputs": [],
      "name": "userCount",
      "outputs": [
        {
          "internalType": "uint256",
          "name": "",
          "type": "uint256"
        }
      ],
      "stateMutability": "view",
      "type": "function"
    },
    {
      "inputs": [
        {
          "internalType": "string",
          "name": "nameOfSavings",
          "type": "string"
        }
      ],
      "name": "withdrawSaving",
      "outputs": [
        {
          "internalType": "bool",
          "name": "",
          "type": "bool"
        }
      ],
      "stateMutability": "nonpayable",
      "type": "function"
    },
    {
      "stateMutability": "payable",
      "type": "receive"
    }
  ],
  "bytecode": "0x60806040526040516200518238038062005182833981810160405281019062000029919062000182565b816000806101000a81548173ffffffffffffffffffffffffffffffffffffffff021916908373ffffffffffffffffffffffffffffffffffffffff16021790555080600160006101000a81548173ffffffffffffffffffffffffffffffffffffffff021916908373ffffffffffffffffffffffffffffffffffffffff16021790555033600260006101000a81548173ffffffffffffffffffffffffffffffffffffffff021916908373ffffffffffffffffffffffffffffffffffffffff16021790555060006003819055506000600581905550629896806006819055506301c9c3806007819055505050620001c9565b600080fd5b600073ffffffffffffffffffffffffffffffffffffffff82169050919050565b60006200014a826200011d565b9050919050565b6200015c816200013d565b81146200016857600080fd5b50565b6000815190506200017c8162000151565b92915050565b600080604083850312156200019c576200019b62000118565b5b6000620001ac858286016200016b565b9250506020620001bf858286016200016b565b9150509250929050565b614fa980620001d96000396000f3fe6080604052600436106200011b5760003560e01c806384762b0b11620000a3578063d365a08e116200006d578063d365a08e146200034c578063de35c372146200037c578063e04605fd146200039c578063ea41367214620003cc578063fed0b92514620003fc5762000123565b806384762b0b146200028e578063992642e514620002be578063a9e944ac14620002ee578063bf66bfc7146200031c5762000123565b8063372f910111620000e5578063372f910114620001ca5780634c3fa304146200020e5780636405350a146200023e57806366666aa9146200025e5762000123565b806302500739146200012857806307973ccf146200015857806316f94d5d14620001885780631fdc181f14620001aa5762000123565b366200012357005b600080fd5b3480156200013557600080fd5b50620001406200042c565b6040516200014f9190620015a1565b60405180910390f35b3480156200016557600080fd5b506200017062000432565b6040516200017f9190620015a1565b60405180910390f35b6200019262000438565b604051620001a1919062001603565b60405180910390f35b620001c86004803603810190620001c29190620017f8565b6200065f565b005b348015620001d757600080fd5b50620001f66004803603810190620001f0919062001873565b62000a33565b604051620002059190620018e1565b60405180910390f35b3480156200021b57600080fd5b506200022662000bf2565b604051620002359190620015a1565b60405180910390f35b6200025c60048036038101906200025691906200196d565b62000bf8565b005b3480156200026b57600080fd5b506200027662000ef6565b604051620002859190620015a1565b60405180910390f35b3480156200029b57600080fd5b50620002a662000efc565b604051620002b59190620015a1565b60405180910390f35b348015620002cb57600080fd5b50620002d662000f06565b604051620002e5919062001a93565b60405180910390f35b348015620002fb57600080fd5b506200031a600480360381019062000314919062001ab0565b62000f2a565b005b3480156200032957600080fd5b506200033462000fc4565b604051620003439190620015a1565b60405180910390f35b3480156200035957600080fd5b506200036462000fdc565b60405162000373919062001603565b60405180910390f35b6200039a600480360381019062000394919062001af7565b62001002565b005b348015620003a957600080fd5b50620003b46200113c565b604051620003c3919062001a93565b60405180910390f35b348015620003d957600080fd5b50620003e462001162565b604051620003f3919062001603565b60405180910390f35b3480156200040957600080fd5b5062000414620011c9565b604051620004239190620015a1565b60405180910390f35b60075481565b60055481565b6000803390506000600460008373ffffffffffffffffffffffffffffffffffffffff1673ffffffffffffffffffffffffffffffffffffffff16815260200190815260200160002060009054906101000a900473ffffffffffffffffffffffffffffffffffffffff169050600073ffffffffffffffffffffffffffffffffffffffff168173ffffffffffffffffffffffffffffffffffffffff1614620004e25780925050506200065c565b655af3107a400034101562000523576040517fcb6e851c00000000000000000000000000000000000000000000000000000000815260040160405180910390fd5b60003360008054906101000a900473ffffffffffffffffffffffffffffffffffffffff16604051620005559062001578565b6200056292919062001b53565b604051809103906000f0801580156200057f573d6000803e3d6000fd5b50905080600460008573ffffffffffffffffffffffffffffffffffffffff1673ffffffffffffffffffffffffffffffffffffffff16815260200190815260200160002060006101000a81548173ffffffffffffffffffffffffffffffffffffffff021916908373ffffffffffffffffffffffffffffffffffffffff16021790555060016005600082825462000615919062001baf565b925050819055507f0c5c0c4d53b63790e32770cf47fd115d706000fd7ab63fbdc8d176c5020d6b46836040516200064d919062001603565b60405180910390a18093505050505b90565b33600073ffffffffffffffffffffffffffffffffffffffff16600460008373ffffffffffffffffffffffffffffffffffffffff1673ffffffffffffffffffffffffffffffffffffffff16815260200190815260200160002060009054906101000a900473ffffffffffffffffffffffffffffffffffffffff1673ffffffffffffffffffffffffffffffffffffffff160362000726576040517f2163950f00000000000000000000000000000000000000000000000000000000815260040160405180910390fd5b6000600460003373ffffffffffffffffffffffffffffffffffffffff1673ffffffffffffffffffffffffffffffffffffffff16815260200190815260200160002060009054906101000a900473ffffffffffffffffffffffffffffffffffffffff169050600081905060008173ffffffffffffffffffffffffffffffffffffffff1663e18f5f65886040518263ffffffff1660e01b8152600401620007cc919062001c73565b602060405180830381865afa158015620007ea573d6000803e3d6000fd5b505050506040513d601f19601f8201168201806040525081019062000810919062001cae565b905060008073ffffffffffffffffffffffffffffffffffffffff168273ffffffffffffffffffffffffffffffffffffffff16149050600086905060008473ffffffffffffffffffffffffffffffffffffffff16631bb862a58b6040518263ffffffff1660e01b815260040162000887919062001c73565b602060405180830381865afa158015620008a5573d6000803e3d6000fd5b505050506040513d601f19601f82011682018060405250810190620008cb919062001cf7565b90508015620008f85760008054906101000a900473ffffffffffffffffffffffffffffffffffffffff1698505b8262000953576200090b86838b620011d3565b6200094d576040517f08c379a0000000000000000000000000000000000000000000000000000000008152600401620009449062001d79565b60405180910390fd5b62000957565b3491505b8473ffffffffffffffffffffffffffffffffffffffff1663dc2379b98462000994576014655af3107a40006200098e919062001dca565b620009b7565b836014655af3107a4000620009aa919062001dca565b620009b6919062001baf565b5b8c8b6006546007546040518663ffffffff1660e01b8152600401620009e0949392919062001e02565b60206040518083038185885af1158015620009ff573d6000803e3d6000fd5b50505050506040513d601f19601f8201168201806040525081019062000a26919062001e6d565b5050505050505050505050565b600033600073ffffffffffffffffffffffffffffffffffffffff16600460008373ffffffffffffffffffffffffffffffffffffffff1673ffffffffffffffffffffffffffffffffffffffff16815260200190815260200160002060009054906101000a900473ffffffffffffffffffffffffffffffffffffffff1673ffffffffffffffffffffffffffffffffffffffff160362000afc576040517f2163950f00000000000000000000000000000000000000000000000000000000815260040160405180910390fd5b6000600460003373ffffffffffffffffffffffffffffffffffffffff1673ffffffffffffffffffffffffffffffffffffffff16815260200190815260200160002060009054906101000a900473ffffffffffffffffffffffffffffffffffffffff1690508073ffffffffffffffffffffffffffffffffffffffff1663372f9101856040518263ffffffff1660e01b815260040162000b9b919062001c73565b6000604051808303816000875af115801562000bbb573d6000803e3d6000fd5b505050506040513d6000823e3d601f19601f8201168201806040525081019062000be6919062001f1d565b50600192505050919050565b60065481565b33600073ffffffffffffffffffffffffffffffffffffffff16600460008373ffffffffffffffffffffffffffffffffffffffff1673ffffffffffffffffffffffffffffffffffffffff16815260200190815260200160002060009054906101000a900473ffffffffffffffffffffffffffffffffffffffff1673ffffffffffffffffffffffffffffffffffffffff160362000cbf576040517f2163950f00000000000000000000000000000000000000000000000000000000815260040160405180910390fd5b655af3107a400034101562000d00576040517fd0c279a200000000000000000000000000000000000000000000000000000000815260040160405180910390fd5b8542111562000d3b576040517f6f7eac2600000000000000000000000000000000000000000000000000000000815260040160405180910390fd5b831562000d7f576040517f329e2f1500000000000000000000000000000000000000000000000000000000815260040162000d769062001fbe565b60405180910390fd5b600062000d8c3362001266565b9050600062000d9d848684620012cf565b905060008290508073ffffffffffffffffffffffffffffffffffffffff1663436d4a6d600073ffffffffffffffffffffffffffffffffffffffff168873ffffffffffffffffffffffffffffffffffffffff161462000e10576014655af3107a400062000e0a919062001dca565b62000e33565b836014655af3107a400062000e26919062001dca565b62000e32919062001baf565b5b8c8c428d8c898f6006546007546040518b63ffffffff1660e01b815260040162000e669998979695949392919062001ff1565b60206040518083038185885af115801562000e85573d6000803e3d6000fd5b50505050506040513d601f19601f8201168201806040525081019062000eac919062001e6d565b507f4ad85a69286191006ea05981ae1848070dbf232e5e00ffdda4b857c16097f0d78a838860405162000ee29392919062002097565b60405180910390a150505050505050505050565b60035481565b655af3107a400081565b60008054906101000a900473ffffffffffffffffffffffffffffffffffffffff1681565b600260009054906101000a900473ffffffffffffffffffffffffffffffffffffffff1673ffffffffffffffffffffffffffffffffffffffff163373ffffffffffffffffffffffffffffffffffffffff161462000fb2576040517f33662b3400000000000000000000000000000000000000000000000000000000815260040160405180910390fd5b81600681905550806007819055505050565b6014655af3107a400062000fd9919062001dca565b81565b600260009054906101000a900473ffffffffffffffffffffffffffffffffffffffff1681565b806000600460008373ffffffffffffffffffffffffffffffffffffffff1673ffffffffffffffffffffffffffffffffffffffff16815260200190815260200160002060009054906101000a900473ffffffffffffffffffffffffffffffffffffffff169050600073ffffffffffffffffffffffffffffffffffffffff168173ffffffffffffffffffffffffffffffffffffffff161480620010cf57503373ffffffffffffffffffffffffffffffffffffffff168173ffffffffffffffffffffffffffffffffffffffff1614155b1562001107576040517f229e1dbd00000000000000000000000000000000000000000000000000000000815260040160405180910390fd5b620011343360008054906101000a900473ffffffffffffffffffffffffffffffffffffffff168662001422565b505050505050565b600160009054906101000a900473ffffffffffffffffffffffffffffffffffffffff1681565b6000600460003373ffffffffffffffffffffffffffffffffffffffff1673ffffffffffffffffffffffffffffffffffffffff16815260200190815260200160002060009054906101000a900473ffffffffffffffffffffffffffffffffffffffff16905090565b655af3107a400081565b6000808290508073ffffffffffffffffffffffffffffffffffffffff1663095ea7b386866040518363ffffffff1660e01b815260040162001216929190620020db565b6020604051808303816000875af115801562001236573d6000803e3d6000fd5b505050506040513d601f19601f820116820180604052508101906200125c919062001cf7565b9150509392505050565b6000600460008373ffffffffffffffffffffffffffffffffffffffff1673ffffffffffffffffffffffffffffffffffffffff16815260200190815260200160002060009054906101000a900473ffffffffffffffffffffffffffffffffffffffff169050919050565b60008073ffffffffffffffffffffffffffffffffffffffff168373ffffffffffffffffffffffffffffffffffffffff1614620014015760006200131433858762001422565b90508062001359576040517fec866729000000000000000000000000000000000000000000000000000000008152600401620013509062002158565b60405180910390fd5b3373ffffffffffffffffffffffffffffffffffffffff167f42856d0378dde02337bb59ae41747abc77ded8ebdbbc5cbdd1e53693b75549383087604051620013a3929190620020db565b60405180910390a2620013b8838686620011d3565b620013fa576040517f08c379a0000000000000000000000000000000000000000000000000000000008152600401620013f19062001d79565b60405180910390fd5b5062001418565b655af3107a4000346200141591906200217a565b93505b8390509392505050565b6000818373ffffffffffffffffffffffffffffffffffffffff1663dd62ed3e86306040518363ffffffff1660e01b81526004016200146292919062001b53565b602060405180830381865afa15801562001480573d6000803e3d6000fd5b505050506040513d601f19601f82011682018060405250810190620014a6919062001e6d565b1015620014ea576040517f08c379a0000000000000000000000000000000000000000000000000000000008152600401620014e19062002205565b60405180910390fd5b8273ffffffffffffffffffffffffffffffffffffffff166323b872dd8530856040518463ffffffff1660e01b8152600401620015299392919062002227565b6020604051808303816000875af115801562001549573d6000803e3d6000fd5b505050506040513d601f19601f820116820180604052508101906200156f919062001cf7565b90509392505050565b612d0f806200226583390190565b6000819050919050565b6200159b8162001586565b82525050565b6000602082019050620015b8600083018462001590565b92915050565b600073ffffffffffffffffffffffffffffffffffffffff82169050919050565b6000620015eb82620015be565b9050919050565b620015fd81620015de565b82525050565b60006020820190506200161a6000830184620015f2565b92915050565b6000604051905090565b600080fd5b600080fd5b600080fd5b600080fd5b6000601f19601f8301169050919050565b7f4e487b7100000000000000000000000000000000000000000000000000000000600052604160045260246000fd5b62001689826200163e565b810181811067ffffffffffffffff82111715620016ab57620016aa6200164f565b5b80604052505050565b6000620016c062001620565b9050620016ce82826200167e565b919050565b600067ffffffffffffffff821115620016f157620016f06200164f565b5b620016fc826200163e565b9050602081019050919050565b82818337600083830152505050565b60006200172f6200172984620016d3565b620016b4565b9050828152602081018484840111156200174e576200174d62001639565b5b6200175b84828562001709565b509392505050565b600082601f8301126200177b576200177a62001634565b5b81356200178d84826020860162001718565b91505092915050565b620017a181620015de565b8114620017ad57600080fd5b50565b600081359050620017c18162001796565b92915050565b620017d28162001586565b8114620017de57600080fd5b50565b600081359050620017f281620017c7565b92915050565b6000806000606084860312156200181457620018136200162a565b5b600084013567ffffffffffffffff8111156200183557620018346200162f565b5b620018438682870162001763565b93505060206200185686828701620017b0565b92505060406200186986828701620017e1565b9150509250925092565b6000602082840312156200188c576200188b6200162a565b5b600082013567ffffffffffffffff811115620018ad57620018ac6200162f565b5b620018bb8482850162001763565b91505092915050565b60008115159050919050565b620018db81620018c4565b82525050565b6000602082019050620018f86000830184620018d0565b92915050565b600060ff82169050919050565b6200191681620018fe565b81146200192257600080fd5b50565b60008135905062001936816200190b565b92915050565b6200194781620018c4565b81146200195357600080fd5b50565b60008135905062001967816200193c565b92915050565b60008060008060008060c087890312156200198d576200198c6200162a565b5b600087013567ffffffffffffffff811115620019ae57620019ad6200162f565b5b620019bc89828a0162001763565b9650506020620019cf89828a01620017e1565b9550506040620019e289828a0162001925565b9450506060620019f589828a0162001956565b935050608062001a0889828a01620017b0565b92505060a062001a1b89828a01620017e1565b9150509295509295509295565b6000819050919050565b600062001a5362001a4d62001a4784620015be565b62001a28565b620015be565b9050919050565b600062001a678262001a32565b9050919050565b600062001a7b8262001a5a565b9050919050565b62001a8d8162001a6e565b82525050565b600060208201905062001aaa600083018462001a82565b92915050565b6000806040838503121562001aca5762001ac96200162a565b5b600062001ada85828601620017e1565b925050602062001aed85828601620017e1565b9150509250929050565b60008060006060848603121562001b135762001b126200162a565b5b600062001b2386828701620017b0565b935050602062001b3686828701620017e1565b925050604062001b4986828701620017b0565b9150509250925092565b600060408201905062001b6a6000830185620015f2565b62001b796020830184620015f2565b9392505050565b7f4e487b7100000000000000000000000000000000000000000000000000000000600052601160045260246000fd5b600062001bbc8262001586565b915062001bc98362001586565b925082820190508082111562001be45762001be362001b80565b5b92915050565b600081519050919050565b600082825260208201905092915050565b60005b8381101562001c2657808201518184015260208101905062001c09565b60008484015250505050565b600062001c3f8262001bea565b62001c4b818562001bf5565b935062001c5d81856020860162001c06565b62001c68816200163e565b840191505092915050565b6000602082019050818103600083015262001c8f818462001c32565b905092915050565b60008151905062001ca88162001796565b92915050565b60006020828403121562001cc75762001cc66200162a565b5b600062001cd78482850162001c97565b91505092915050565b60008151905062001cf1816200193c565b92915050565b60006020828403121562001d105762001d0f6200162a565b5b600062001d208482850162001ce0565b91505092915050565b7f536176696e677320696e76616c69640000000000000000000000000000000000600082015250565b600062001d61600f8362001bf5565b915062001d6e8262001d29565b602082019050919050565b6000602082019050818103600083015262001d948162001d52565b9050919050565b7f4e487b7100000000000000000000000000000000000000000000000000000000600052601260045260246000fd5b600062001dd78262001586565b915062001de48362001586565b92508262001df75762001df662001d9b565b5b828204905092915050565b6000608082019050818103600083015262001e1e818762001c32565b905062001e2f602083018662001590565b62001e3e604083018562001590565b62001e4d606083018462001590565b95945050505050565b60008151905062001e6781620017c7565b92915050565b60006020828403121562001e865762001e856200162a565b5b600062001e968482850162001e56565b91505092915050565b600062001eb662001eb084620016d3565b620016b4565b90508281526020810184848401111562001ed55762001ed462001639565b5b62001ee284828562001c06565b509392505050565b600082601f83011262001f025762001f0162001634565b5b815162001f1484826020860162001e9f565b91505092915050565b60006020828403121562001f365762001f356200162a565b5b600082015167ffffffffffffffff81111562001f575762001f566200162f565b5b62001f658482850162001eea565b91505092915050565b7f4e6f2073616665206d6f64652079657421000000000000000000000000000000600082015250565b600062001fa660118362001bf5565b915062001fb38262001f6e565b602082019050919050565b6000602082019050818103600083015262001fd98162001f97565b9050919050565b62001feb81620018fe565b82525050565b60006101208201905081810360008301526200200e818c62001c32565b90506200201f602083018b62001590565b6200202e604083018a62001590565b6200203d606083018962001fe0565b6200204c6080830188620015f2565b6200205b60a083018762001590565b6200206a60c0830186620018d0565b6200207960e083018562001590565b6200208961010083018462001590565b9a9950505050505050505050565b60006060820190508181036000830152620020b3818662001c32565b9050620020c4602083018562001590565b620020d36040830184620015f2565b949350505050565b6000604082019050620020f26000830185620015f2565b62002101602083018462001590565b9392505050565b7f54786e206661696c656400000000000000000000000000000000000000000000600082015250565b600062002140600a8362001bf5565b91506200214d8262002108565b602082019050919050565b60006020820190508181036000830152620021738162002131565b9050919050565b6000620021878262001586565b9150620021948362001586565b9250828203905081811115620021af57620021ae62001b80565b5b92915050565b7f546f6b656e20636f756c64206e6f742062652077697468647261776e00000000600082015250565b6000620021ed601c8362001bf5565b9150620021fa82620021b5565b602082019050919050565b600060208201905081810360008301526200222081620021de565b9050919050565b60006060820190506200223e6000830186620015f2565b6200224d6020830185620015f2565b6200225c604083018462001590565b94935050505056fe608060405260405162002d0f38038062002d0f833981810160405281019062000029919062000165565b336000806101000a81548173ffffffffffffffffffffffffffffffffffffffff021916908373ffffffffffffffffffffffffffffffffffffffff16021790555081600260006101000a81548173ffffffffffffffffffffffffffffffffffffffff021916908373ffffffffffffffffffffffffffffffffffffffff16021790555080600160006101000a81548173ffffffffffffffffffffffffffffffffffffffff021916908373ffffffffffffffffffffffffffffffffffffffff16021790555060006003819055505050620001ac565b600080fd5b600073ffffffffffffffffffffffffffffffffffffffff82169050919050565b60006200012d8262000100565b9050919050565b6200013f8162000120565b81146200014b57600080fd5b50565b6000815190506200015f8162000134565b92915050565b600080604083850312156200017f576200017e620000fb565b5b60006200018f858286016200014e565b9250506020620001a2858286016200014e565b9150509250929050565b612b5380620001bc6000396000f3fe6080604052600436106100c25760003560e01c8063585dbffe1161007f578063992642e511610059578063992642e5146102a3578063d1ece790146102ce578063dc2379b9146102f9578063e18f5f6514610329576100c2565b8063585dbffe146101fe57806384febb691461023b5780638f84aa0914610278576100c2565b806313203929146100c75780631bb862a51461010b5780632ae3c90f14610148578063372f910114610173578063436d4a6d146101a3578063567142be146101d3575b600080fd5b3480156100d357600080fd5b506100ee60048036038101906100e99190611bc9565b610366565b604051610102989796959493929190611c87565b60405180910390f35b34801561011757600080fd5b50610132600480360381019061012d9190611bc9565b6103fe565b60405161013f9190611d05565b60405180910390f35b34801561015457600080fd5b5061015d610436565b60405161016a9190611d41565b60405180910390f35b61018d60048036038101906101889190611bc9565b61045a565b60405161019a9190611ddb565b60405180910390f35b6101bd60048036038101906101b89190611eba565b6108ee565b6040516101ca9190611fa0565b60405180910390f35b3480156101df57600080fd5b506101e8610cb2565b6040516101f59190611fa0565b60405180910390f35b34801561020a57600080fd5b5061022560048036038101906102209190611bc9565b610cb8565b604051610232919061208a565b60405180910390f35b34801561024757600080fd5b50610262600480360381019061025d9190611bc9565b610daf565b60405161026f9190611fa0565b60405180910390f35b34801561028457600080fd5b5061028d610dda565b60405161029a91906120a6565b60405180910390f35b3480156102af57600080fd5b506102b8610e00565b6040516102c59190612120565b60405180910390f35b3480156102da57600080fd5b506102e3610e26565b6040516102f09190612271565b60405180910390f35b610313600480360381019061030e9190612293565b610f19565b6040516103209190611fa0565b60405180910390f35b34801561033557600080fd5b50610350600480360381019061034b9190611bc9565b61137d565b60405161035d91906120a6565b60405180910390f35b6004818051602081018201805184825260208301602085012081835280955050505050506000915090508060000160009054906101000a900460ff16908060010154908060020160009054906101000a900473ffffffffffffffffffffffffffffffffffffffff16908060030154908060040154908060050154908060060154908060070160009054906101000a900460ff16905088565b60006004826040516104109190612352565b908152602001604051809103902060070160009054906101000a900460ff169050919050565b60008054906101000a900473ffffffffffffffffffffffffffffffffffffffff1681565b606060008054906101000a900473ffffffffffffffffffffffffffffffffffffffff1673ffffffffffffffffffffffffffffffffffffffff163373ffffffffffffffffffffffffffffffffffffffff16146104e1576040517f229e1dbd00000000000000000000000000000000000000000000000000000000815260040160405180910390fd5b60006004836040516104f39190612352565b908152602001604051809103902090508060000160009054906101000a900460ff1661054b576040517fd63d1e4800000000000000000000000000000000000000000000000000000000815260040160405180910390fd5b60008160010154905060008060009054906101000a900473ffffffffffffffffffffffffffffffffffffffff16905082600601544210156105b9576064836005015460646105999190612398565b84600101546105a891906123cc565b6105b2919061243d565b91506105ba565b5b60008360020160009054906101000a900473ffffffffffffffffffffffffffffffffffffffff1690508360070160009054906101000a900460ff16156106de5761064760008054906101000a900473ffffffffffffffffffffffffffffffffffffffff1684600160009054906101000a900473ffffffffffffffffffffffffffffffffffffffff166113c8565b508173ffffffffffffffffffffffffffffffffffffffff1663de35c3728285600260009054906101000a900473ffffffffffffffffffffffffffffffffffffffff166040518463ffffffff1660e01b81526004016106a79392919061246e565b600060405180830381600087803b1580156106c157600080fd5b505af11580156106d5573d6000803e3d6000fd5b5050505061083c565b600073ffffffffffffffffffffffffffffffffffffffff168173ffffffffffffffffffffffffffffffffffffffff16036107e957600080600260009054906101000a900473ffffffffffffffffffffffffffffffffffffffff1673ffffffffffffffffffffffffffffffffffffffff168560405161075b906124d6565b60006040518083038185875af1925050503d8060008114610798576040519150601f19603f3d011682016040523d82523d6000602084013e61079d565b606091505b5091509150816107e2576040517f08c379a00000000000000000000000000000000000000000000000000000000081526004016107d990612537565b60405180910390fd5b505061083b565b61083a8460020160009054906101000a900473ffffffffffffffffffffffffffffffffffffffff16600260009054906101000a900473ffffffffffffffffffffffffffffffffffffffff1685611456565b5b5b600060048760405161084e9190612352565b908152602001604051809103902060000160006101000a81548160ff0219169083151502179055507f5b059b7fe1fea38d4de595079621498a365a8f1fa13e49af9f1e4b7197ab049a866040516108a59190611ddb565b60405180910390a16040518060400160405280601e81526020017f736176696e67732077697468647261776e207375636365737366756c6c790000815250945050505050919050565b60008060009054906101000a900473ffffffffffffffffffffffffffffffffffffffff1673ffffffffffffffffffffffffffffffffffffffff163373ffffffffffffffffffffffffffffffffffffffff1614610976576040517f229e1dbd00000000000000000000000000000000000000000000000000000000815260040160405180910390fd5b60048a6040516109869190612352565b908152602001604051809103902060000160009054906101000a900460ff16156109dc576040517fd63d1e4800000000000000000000000000000000000000000000000000000000815260040160405180910390fd5b87891015610a16576040517f6f7eac2600000000000000000000000000000000000000000000000000000000815260040160405180910390fd5b42891015610a50576040517f6f7eac2600000000000000000000000000000000000000000000000000000000815260040160405180910390fd5b60008590508415610aae57610aa860008054906101000a900473ffffffffffffffffffffffffffffffffffffffff16600160009054906101000a900473ffffffffffffffffffffffffffffffffffffffff1688611530565b50610b18565b600073ffffffffffffffffffffffffffffffffffffffff168773ffffffffffffffffffffffffffffffffffffffff1614610b1357610b0d60008054906101000a900473ffffffffffffffffffffffffffffffffffffffff168888611530565b50610b17565b3490505b5b6000610b27828c8c8888611679565b90506040518061010001604052806001151581526020018381526020018973ffffffffffffffffffffffffffffffffffffffff1681526020018281526020018b81526020018a60ff1681526020018c815260200187151581525060048d604051610b919190612352565b908152602001604051809103902060008201518160000160006101000a81548160ff0219169083151502179055506020820151816001015560408201518160020160006101000a81548173ffffffffffffffffffffffffffffffffffffffff021916908373ffffffffffffffffffffffffffffffffffffffff160217905550606082015181600301556080820151816004015560a0820151816005015560c0820151816006015560e08201518160070160006101000a81548160ff021916908315150217905550905050610c648c6116a4565b7f4ad85a69286191006ea05981ae1848070dbf232e5e00ffdda4b857c16097f0d78c888a604051610c9793929190612557565b60405180910390a16001925050509998505050505050505050565b60035481565b610cc06119fd565b600482604051610cd09190612352565b9081526020016040518091039020604051806101000160405290816000820160009054906101000a900460ff16151515158152602001600182015481526020016002820160009054906101000a900473ffffffffffffffffffffffffffffffffffffffff1673ffffffffffffffffffffffffffffffffffffffff1673ffffffffffffffffffffffffffffffffffffffff168152602001600382015481526020016004820154815260200160058201548152602001600682015481526020016007820160009054906101000a900460ff1615151515815250509050919050565b6000600482604051610dc19190612352565b9081526020016040518091039020600301549050919050565b600260009054906101000a900473ffffffffffffffffffffffffffffffffffffffff1681565b600160009054906101000a900473ffffffffffffffffffffffffffffffffffffffff1681565b610e2e611a5c565b600560405180602001604052908160008201805480602002602001604051908101604052809291908181526020016000905b82821015610f0c578382906000526020600020018054610e7f906125c4565b80601f0160208091040260200160405190810160405280929190818152602001828054610eab906125c4565b8015610ef85780601f10610ecd57610100808354040283529160200191610ef8565b820191906000526020600020905b815481529060010190602001808311610edb57829003601f168201915b505050505081526020019060010190610e60565b5050505081525050905090565b60008060009054906101000a900473ffffffffffffffffffffffffffffffffffffffff1673ffffffffffffffffffffffffffffffffffffffff163373ffffffffffffffffffffffffffffffffffffffff1614610fa1576040517f229e1dbd00000000000000000000000000000000000000000000000000000000815260040160405180910390fd5b6000600486604051610fb39190612352565b908152602001604051809103902090508060000160009054906101000a900460ff1661100b576040517fd63d1e4800000000000000000000000000000000000000000000000000000000815260040160405180910390fd5b8060060154421115611049576040517f6f7eac2600000000000000000000000000000000000000000000000000000000815260040160405180910390fd5b60008073ffffffffffffffffffffffffffffffffffffffff168260020160009054906101000a900473ffffffffffffffffffffffffffffffffffffffff1673ffffffffffffffffffffffffffffffffffffffff161490508160070160009054906101000a900460ff161561110a5761110460008054906101000a900473ffffffffffffffffffffffffffffffffffffffff16600160009054906101000a900473ffffffffffffffffffffffffffffffffffffffff1688611530565b506111ac565b806111645761115e60008054906101000a900473ffffffffffffffffffffffffffffffffffffffff168360020160009054906101000a900473ffffffffffffffffffffffffffffffffffffffff1688611530565b506111ab565b853410156111a7576040517f08c379a000000000000000000000000000000000000000000000000000000000815260040161119e90612667565b60405180910390fd5b3495505b5b60006111bf878460060154428989611679565b90508083600301546111d19190612687565b83600301819055508683600101546111e99190612687565b8360010181905550826004896040516112029190612352565b90815260200160405180910390206000820160009054906101000a900460ff168160000160006101000a81548160ff021916908315150217905550600182015481600101556002820160009054906101000a900473ffffffffffffffffffffffffffffffffffffffff168160020160006101000a81548173ffffffffffffffffffffffffffffffffffffffff021916908373ffffffffffffffffffffffffffffffffffffffff160217905550600382015481600301556004820154816004015560058201548160050155600682015481600601556007820160009054906101000a900460ff168160070160006101000a81548160ff0219169083151502179055509050507ff6b98d8e0d83f8b1d1ff03a2fa36aba2c77ccf20e4ff035c0cf4aa92762e9eec888885600101548660020160009054906101000a900473ffffffffffffffffffffffffffffffffffffffff1660405161136394939291906126bb565b60405180910390a182600301549350505050949350505050565b600060048260405161138f9190612352565b908152602001604051809103902060020160009054906101000a900473ffffffffffffffffffffffffffffffffffffffff169050919050565b6000808290508073ffffffffffffffffffffffffffffffffffffffff1663095ea7b386866040518363ffffffff1660e01b8152600401611409929190612707565b6020604051808303816000875af1158015611428573d6000803e3d6000fd5b505050506040513d601f19601f8201168201806040525081019061144c9190612745565b9150509392505050565b60008390508073ffffffffffffffffffffffffffffffffffffffff1663a9059cbb84846040518363ffffffff1660e01b8152600401611496929190612707565b6020604051808303816000875af11580156114b5573d6000803e3d6000fd5b505050506040513d601f19601f820116820180604052508101906114d99190612745565b503073ffffffffffffffffffffffffffffffffffffffff167f42856d0378dde02337bb59ae41747abc77ded8ebdbbc5cbdd1e53693b75549388484604051611522929190612707565b60405180910390a250505050565b6000818373ffffffffffffffffffffffffffffffffffffffff1663dd62ed3e86306040518363ffffffff1660e01b815260040161156e929190612772565b602060405180830381865afa15801561158b573d6000803e3d6000fd5b505050506040513d601f19601f820116820180604052508101906115af91906127b0565b10156115f0576040517f08c379a00000000000000000000000000000000000000000000000000000000081526004016115e790612829565b60405180910390fd5b8273ffffffffffffffffffffffffffffffffffffffff166323b872dd8530856040518463ffffffff1660e01b815260040161162d93929190612849565b6020604051808303816000875af115801561164c573d6000803e3d6000fd5b505050506040513d601f19601f820116820180604052508101906116709190612745565b90509392505050565b600061169286858761168b9190612398565b85856116df565b90508060038190555095945050505050565b6005600001819080600181540180825580915050600190039060005260206000200160009091909190915090816116db9190612a22565b5050565b6000806117166064611708868762e4e1c06116fa9190612398565b61179890919063ffffffff16565b6117b590919063ffffffff16565b9050600061173c848361172991906123cc565b6305f5e10061179890919063ffffffff16565b905060006117576301e133808861179890919063ffffffff16565b905061178b611786606483858c61176e91906123cc565b61177891906123cc565b61179890919063ffffffff16565b6117c9565b9350505050949350505050565b60006117ad83670de0b6b3a7640000846117eb565b905092915050565b60006117c18383611900565b905092915050565b6000670de0b6b3a764000082816117e3576117e261240e565b5b049050919050565b60008060008019858709858702925082811083820303915050600081036118265783828161181c5761181b61240e565b5b04925050506118f9565b83811061186c5780846040517f773cc18c000000000000000000000000000000000000000000000000000000008152600401611863929190612af4565b60405180910390fd5b60008486880990508281118203915080830392506000600186190186169050808604955080840493506001818260000304019050808302841793506000600287600302189050808702600203810290508087026002038102905080870260020381029050808702600203810290508087026002038102905080870260020381029050808502955050505050505b9392505050565b60008060008019848609848602925082811083820303915050670de0b6b3a7640000811061196557806040517fd31b340200000000000000000000000000000000000000000000000000000000815260040161195c9190611fa0565b60405180910390fd5b600080670de0b6b3a764000086880991506706f05b59d3b1ffff82119050600083036119b15780670de0b6b3a764000085816119a4576119a361240e565b5b04019450505050506119f7565b807faccb18165bd6fe31ae1cf318dc5b51eee0e1ba569b88cd74c1773b91fac1066960016204000080600003040186851186030262040000858803041702019450505050505b92915050565b60405180610100016040528060001515815260200160008152602001600073ffffffffffffffffffffffffffffffffffffffff168152602001600081526020016000815260200160008152602001600081526020016000151581525090565b6040518060200160405280606081525090565b6000604051905090565b600080fd5b600080fd5b600080fd5b600080fd5b6000601f19601f8301169050919050565b7f4e487b7100000000000000000000000000000000000000000000000000000000600052604160045260246000fd5b611ad682611a8d565b810181811067ffffffffffffffff82111715611af557611af4611a9e565b5b80604052505050565b6000611b08611a6f565b9050611b148282611acd565b919050565b600067ffffffffffffffff821115611b3457611b33611a9e565b5b611b3d82611a8d565b9050602081019050919050565b82818337600083830152505050565b6000611b6c611b6784611b19565b611afe565b905082815260208101848484011115611b8857611b87611a88565b5b611b93848285611b4a565b509392505050565b600082601f830112611bb057611baf611a83565b5b8135611bc0848260208601611b59565b91505092915050565b600060208284031215611bdf57611bde611a79565b5b600082013567ffffffffffffffff811115611bfd57611bfc611a7e565b5b611c0984828501611b9b565b91505092915050565b60008115159050919050565b611c2781611c12565b82525050565b6000819050919050565b611c4081611c2d565b82525050565b600073ffffffffffffffffffffffffffffffffffffffff82169050919050565b6000611c7182611c46565b9050919050565b611c8181611c66565b82525050565b600061010082019050611c9d600083018b611c1e565b611caa602083018a611c37565b611cb76040830189611c78565b611cc46060830188611c37565b611cd16080830187611c37565b611cde60a0830186611c37565b611ceb60c0830185611c37565b611cf860e0830184611c1e565b9998505050505050505050565b6000602082019050611d1a6000830184611c1e565b92915050565b6000611d2b82611c46565b9050919050565b611d3b81611d20565b82525050565b6000602082019050611d566000830184611d32565b92915050565b600081519050919050565b600082825260208201905092915050565b60005b83811015611d96578082015181840152602081019050611d7b565b60008484015250505050565b6000611dad82611d5c565b611db78185611d67565b9350611dc7818560208601611d78565b611dd081611a8d565b840191505092915050565b60006020820190508181036000830152611df58184611da2565b905092915050565b611e0681611c2d565b8114611e1157600080fd5b50565b600081359050611e2381611dfd565b92915050565b600060ff82169050919050565b611e3f81611e29565b8114611e4a57600080fd5b50565b600081359050611e5c81611e36565b92915050565b611e6b81611c66565b8114611e7657600080fd5b50565b600081359050611e8881611e62565b92915050565b611e9781611c12565b8114611ea257600080fd5b50565b600081359050611eb481611e8e565b92915050565b60008060008060008060008060006101208a8c031215611edd57611edc611a79565b5b60008a013567ffffffffffffffff811115611efb57611efa611a7e565b5b611f078c828d01611b9b565b9950506020611f188c828d01611e14565b9850506040611f298c828d01611e14565b9750506060611f3a8c828d01611e4d565b9650506080611f4b8c828d01611e79565b95505060a0611f5c8c828d01611e14565b94505060c0611f6d8c828d01611ea5565b93505060e0611f7e8c828d01611e14565b925050610100611f908c828d01611e14565b9150509295985092959850929598565b6000602082019050611fb56000830184611c37565b92915050565b611fc481611c12565b82525050565b611fd381611c2d565b82525050565b611fe281611c66565b82525050565b61010082016000820151611fff6000850182611fbb565b5060208201516120126020850182611fca565b5060408201516120256040850182611fd9565b5060608201516120386060850182611fca565b50608082015161204b6080850182611fca565b5060a082015161205e60a0850182611fca565b5060c082015161207160c0850182611fca565b5060e082015161208460e0850182611fbb565b50505050565b6000610100820190506120a06000830184611fe8565b92915050565b60006020820190506120bb6000830184611c78565b92915050565b6000819050919050565b60006120e66120e16120dc84611c46565b6120c1565b611c46565b9050919050565b60006120f8826120cb565b9050919050565b600061210a826120ed565b9050919050565b61211a816120ff565b82525050565b60006020820190506121356000830184612111565b92915050565b600081519050919050565b600082825260208201905092915050565b6000819050602082019050919050565b600082825260208201905092915050565b600061218382611d5c565b61218d8185612167565b935061219d818560208601611d78565b6121a681611a8d565b840191505092915050565b60006121bd8383612178565b905092915050565b6000602082019050919050565b60006121dd8261213b565b6121e78185612146565b9350836020820285016121f985612157565b8060005b85811015612235578484038952815161221685826121b1565b9450612221836121c5565b925060208a019950506001810190506121fd565b50829750879550505050505092915050565b6000602083016000830151848203600086015261226482826121d2565b9150508091505092915050565b6000602082019050818103600083015261228b8184612247565b905092915050565b600080600080608085870312156122ad576122ac611a79565b5b600085013567ffffffffffffffff8111156122cb576122ca611a7e565b5b6122d787828801611b9b565b94505060206122e887828801611e14565b93505060406122f987828801611e14565b925050606061230a87828801611e14565b91505092959194509250565b600081905092915050565b600061232c82611d5c565b6123368185612316565b9350612346818560208601611d78565b80840191505092915050565b600061235e8284612321565b915081905092915050565b7f4e487b7100000000000000000000000000000000000000000000000000000000600052601160045260246000fd5b60006123a382611c2d565b91506123ae83611c2d565b92508282039050818111156123c6576123c5612369565b5b92915050565b60006123d782611c2d565b91506123e283611c2d565b92508282026123f081611c2d565b9150828204841483151761240757612406612369565b5b5092915050565b7f4e487b7100000000000000000000000000000000000000000000000000000000600052601260045260246000fd5b600061244882611c2d565b915061245383611c2d565b9250826124635761246261240e565b5b828204905092915050565b60006060820190506124836000830186611c78565b6124906020830185611c37565b61249d6040830184611c78565b949350505050565b600081905092915050565b50565b60006124c06000836124a5565b91506124cb826124b0565b600082019050919050565b60006124e1826124b3565b9150819050919050565b7f436f756c646e27742073656e642066756e647300000000000000000000000000600082015250565b6000612521601383611d67565b915061252c826124eb565b602082019050919050565b6000602082019050818103600083015261255081612514565b9050919050565b600060608201905081810360008301526125718186611da2565b90506125806020830185611c37565b61258d6040830184611c78565b949350505050565b7f4e487b7100000000000000000000000000000000000000000000000000000000600052602260045260246000fd5b600060028204905060018216806125dc57607f821691505b6020821081036125ef576125ee612595565b5b50919050565b7f496e76616c696420736176696e6720696e6372656d656e742076616c7565207360008201527f656e740000000000000000000000000000000000000000000000000000000000602082015250565b6000612651602383611d67565b915061265c826125f5565b604082019050919050565b6000602082019050818103600083015261268081612644565b9050919050565b600061269282611c2d565b915061269d83611c2d565b92508282019050808211156126b5576126b4612369565b5b92915050565b600060808201905081810360008301526126d58187611da2565b90506126e46020830186611c37565b6126f16040830185611c37565b6126fe6060830184611c78565b95945050505050565b600060408201905061271c6000830185611c78565b6127296020830184611c37565b9392505050565b60008151905061273f81611e8e565b92915050565b60006020828403121561275b5761275a611a79565b5b600061276984828501612730565b91505092915050565b60006040820190506127876000830185611c78565b6127946020830184611c78565b9392505050565b6000815190506127aa81611dfd565b92915050565b6000602082840312156127c6576127c5611a79565b5b60006127d48482850161279b565b91505092915050565b7f546f6b656e20636f756c64206e6f742062652077697468647261776e00000000600082015250565b6000612813601c83611d67565b915061281e826127dd565b602082019050919050565b6000602082019050818103600083015261284281612806565b9050919050565b600060608201905061285e6000830186611c78565b61286b6020830185611c78565b6128786040830184611c37565b949350505050565b60008190508160005260206000209050919050565b60006020601f8301049050919050565b600082821b905092915050565b6000600883026128e27fffffffffffffffffffffffffffffffffffffffffffffffffffffffffffffffff826128a5565b6128ec86836128a5565b95508019841693508086168417925050509392505050565b600061291f61291a61291584611c2d565b6120c1565b611c2d565b9050919050565b6000819050919050565b61293983612904565b61294d61294582612926565b8484546128b2565b825550505050565b600090565b612962612955565b61296d818484612930565b505050565b5b818110156129915761298660008261295a565b600181019050612973565b5050565b601f8211156129d6576129a781612880565b6129b084612895565b810160208510156129bf578190505b6129d36129cb85612895565b830182612972565b50505b505050565b600082821c905092915050565b60006129f9600019846008026129db565b1980831691505092915050565b6000612a1283836129e8565b9150826002028217905092915050565b612a2b82611d5c565b67ffffffffffffffff811115612a4457612a43611a9e565b5b612a4e82546125c4565b612a59828285612995565b600060209050601f831160018114612a8c5760008415612a7a578287015190505b612a848582612a06565b865550612aec565b601f198416612a9a86612880565b60005b82811015612ac257848901518255600182019150602085019450602081019050612a9d565b86831015612adf5784890151612adb601f8916826129e8565b8355505b6001600288020188555050505b505050505050565b6000604082019050612b096000830185611c37565b612b166020830184611c37565b939250505056fea2646970667358221220885beafeeb4da6254d0208288c0861b6740cff4a82cd6e9b2876416b78c1667764736f6c63430008170033a264697066735822122040adf3fd6796c497934618f20f2c8d8dd1c4ed9edbf32d2f0b9bc180e8bc9abf64736f6c63430008170033",
  "linkReferences": {},
  "deployedLinkReferences": {}
}