{
  "_format": "hh-sol-artifact-1",
  "contractName": "ChildBitsave",
  "sourceName": "contracts/childContract.sol",
  "abi": [
    {
      "inputs": [
        {
          "internalType": "address",
          "name": "_ownerAddress",
          "type": "address"
        },
        {
          "internalType": "address",
          "name": "_stableCoin",
          "type": "address"
        }
      ],
      "stateMutability": "payable",
      "type": "constructor"
    },
    {
      "inputs": [],
      "name": "CallNotFromBitsave",
      "type": "error"
    },
    {
      "inputs": [],
      "name": "InvalidSaving",
      "type": "error"
    },
    {
      "inputs": [],
      "name": "InvalidTime",
      "type": "error"
    },
    {
      "inputs": [
        {
          "internalType": "uint256",
          "name": "prod1",
          "type": "uint256"
        }
      ],
      "name": "PRBMath__MulDivFixedPointOverflow",
      "type": "error"
    },
    {
      "inputs": [
        {
          "internalType": "uint256",
          "name": "prod1",
          "type": "uint256"
        },
        {
          "internalType": "uint256",
          "name": "denominator",
          "type": "uint256"
        }
      ],
      "name": "PRBMath__MulDivOverflow",
      "type": "error"
    },
    {
      "anonymous": false,
      "inputs": [
        {
          "indexed": false,
          "internalType": "string",
          "name": "nameOfSaving",
          "type": "string"
        },
        {
          "indexed": false,
          "internalType": "uint256",
          "name": "amount",
          "type": "uint256"
        },
        {
          "indexed": false,
          "internalType": "address",
          "name": "token",
          "type": "address"
        }
      ],
      "name": "SavingCreated",
      "type": "event"
    },
    {
      "anonymous": false,
      "inputs": [
        {
          "indexed": false,
          "internalType": "string",
          "name": "nameOfSaving",
          "type": "string"
        },
        {
          "indexed": false,
          "internalType": "uint256",
          "name": "amountAdded",
          "type": "uint256"
        },
        {
          "indexed": false,
          "internalType": "uint256",
          "name": "totalAmountNow",
          "type": "uint256"
        },
        {
          "indexed": false,
          "internalType": "address",
          "name": "token",
          "type": "address"
        }
      ],
      "name": "SavingIncremented",
      "type": "event"
    },
    {
      "anonymous": false,
      "inputs": [
        {
          "indexed": false,
          "internalType": "string",
          "name": "nameOfSaving",
          "type": "string"
        }
      ],
      "name": "SavingWithdrawn",
      "type": "event"
    },
    {
      "anonymous": false,
      "inputs": [
        {
          "indexed": true,
          "internalType": "address",
          "name": "from",
          "type": "address"
        },
        {
          "indexed": false,
          "internalType": "address",
          "name": "to",
          "type": "address"
        },
        {
          "indexed": false,
          "internalType": "uint256",
          "name": "amount",
          "type": "uint256"
        }
      ],
      "name": "TokenWithdrawal",
      "type": "event"
    },
    {
      "inputs": [],
      "name": "bitsaveAddress",
      "outputs": [
        {
          "internalType": "address payable",
          "name": "",
          "type": "address"
        }
      ],
      "stateMutability": "view",
      "type": "function"
    },
    {
      "inputs": [
        {
          "internalType": "string",
          "name": "name",
          "type": "string"
        },
        {
          "internalType": "uint256",
          "name": "maturityTime",
          "type": "uint256"
        },
        {
          "internalType": "uint256",
          "name": "startTime",
          "type": "uint256"
        },
        {
          "internalType": "uint8",
          "name": "penaltyPercentage",
          "type": "uint8"
        },
        {
          "internalType": "address",
          "name": "tokenId",
          "type": "address"
        },
        {
          "internalType": "uint256",
          "name": "amountToRetrieve",
          "type": "uint256"
        },
        {
          "internalType": "bool",
          "name": "isSafeMode",
          "type": "bool"
        },
        {
          "internalType": "uint256",
          "name": "currentVaultState",
          "type": "uint256"
        },
        {
          "internalType": "uint256",
          "name": "currentTotalValueLocked",
          "type": "uint256"
        }
      ],
      "name": "createSaving",
      "outputs": [
        {
          "internalType": "uint256",
          "name": "",
          "type": "uint256"
        }
      ],
      "stateMutability": "payable",
      "type": "function"
    },
    {
      "inputs": [
        {
          "internalType": "string",
          "name": "nameOfSaving",
          "type": "string"
        }
      ],
      "name": "getSaving",
      "outputs": [
        {
          "components": [
            {
              "internalType": "bool",
              "name": "isValid",
              "type": "bool"
            },
            {
              "internalType": "uint256",
              "name": "amount",
              "type": "uint256"
            },
            {
              "internalType": "address",
              "name": "tokenId",
              "type": "address"
            },
            {
              "internalType": "uint256",
              "name": "interestAccumulated",
              "type": "uint256"
            },
            {
              "internalType": "uint256",
              "name": "startTime",
              "type": "uint256"
            },
            {
              "internalType": "uint256",
              "name": "penaltyPercentage",
              "type": "uint256"
            },
            {
              "internalType": "uint256",
              "name": "maturityTime",
              "type": "uint256"
            },
            {
              "internalType": "bool",
              "name": "isSafeMode",
              "type": "bool"
            }
          ],
          "internalType": "struct ChildBitsave.SavingDataStruct",
          "name": "",
          "type": "tuple"
        }
      ],
      "stateMutability": "view",
      "type": "function"
    },
    {
      "inputs": [
        {
          "internalType": "string",
          "name": "nameOfSaving",
          "type": "string"
        }
      ],
      "name": "getSavingInterest",
      "outputs": [
        {
          "internalType": "uint256",
          "name": "",
          "type": "uint256"
        }
      ],
      "stateMutability": "view",
      "type": "function"
    },
    {
      "inputs": [
        {
          "internalType": "string",
          "name": "nameOfSaving",
          "type": "string"
        }
      ],
      "name": "getSavingMode",
      "outputs": [
        {
          "internalType": "bool",
          "name": "",
          "type": "bool"
        }
      ],
      "stateMutability": "view",
      "type": "function"
    },
    {
      "inputs": [
        {
          "internalType": "string",
          "name": "nameOfSaving",
          "type": "string"
        }
      ],
      "name": "getSavingTokenId",
      "outputs": [
        {
          "internalType": "address",
          "name": "",
          "type": "address"
        }
      ],
      "stateMutability": "view",
      "type": "function"
    },
    {
      "inputs": [],
      "name": "getSavingsNames",
      "outputs": [
        {
          "components": [
            {
              "internalType": "string[]",
              "name": "savingsNames",
              "type": "string[]"
            }
          ],
          "internalType": "struct ChildBitsave.SavingsNamesObj",
          "name": "",
          "type": "tuple"
        }
      ],
      "stateMutability": "view",
      "type": "function"
    },
    {
      "inputs": [
        {
          "internalType": "string",
          "name": "name",
          "type": "string"
        },
        {
          "internalType": "uint256",
          "name": "savingPlusAmount",
          "type": "uint256"
        },
        {
          "internalType": "uint256",
          "name": "currentVaultState",
          "type": "uint256"
        },
        {
          "internalType": "uint256",
          "name": "currentTotalValueLocked",
          "type": "uint256"
        }
      ],
      "name": "incrementSaving",
      "outputs": [
        {
          "internalType": "uint256",
          "name": "",
          "type": "uint256"
        }
      ],
      "stateMutability": "payable",
      "type": "function"
    },
    {
      "inputs": [],
      "name": "ownerAddress",
      "outputs": [
        {
          "internalType": "address",
          "name": "",
          "type": "address"
        }
      ],
      "stateMutability": "view",
      "type": "function"
    },
    {
      "inputs": [
        {
          "internalType": "string",
          "name": "",
          "type": "string"
        }
      ],
      "name": "savings",
      "outputs": [
        {
          "internalType": "bool",
          "name": "isValid",
          "type": "bool"
        },
        {
          "internalType": "uint256",
          "name": "amount",
          "type": "uint256"
        },
        {
          "internalType": "address",
          "name": "tokenId",
          "type": "address"
        },
        {
          "internalType": "uint256",
          "name": "interestAccumulated",
          "type": "uint256"
        },
        {
          "internalType": "uint256",
          "name": "startTime",
          "type": "uint256"
        },
        {
          "internalType": "uint256",
          "name": "penaltyPercentage",
          "type": "uint256"
        },
        {
          "internalType": "uint256",
          "name": "maturityTime",
          "type": "uint256"
        },
        {
          "internalType": "bool",
          "name": "isSafeMode",
          "type": "bool"
        }
      ],
      "stateMutability": "view",
      "type": "function"
    },
    {
      "inputs": [],
      "name": "stableCoin",
      "outputs": [
        {
          "internalType": "contract IERC20",
          "name": "",
          "type": "address"
        }
      ],
      "stateMutability": "view",
      "type": "function"
    },
    {
      "inputs": [],
      "name": "totalPoints",
      "outputs": [
        {
          "internalType": "uint256",
          "name": "",
          "type": "uint256"
        }
      ],
      "stateMutability": "view",
      "type": "function"
    },
    {
      "inputs": [
        {
          "internalType": "string",
          "name": "name",
          "type": "string"
        }
      ],
      "name": "withdrawSaving",
      "outputs": [
        {
          "internalType": "string",
          "name": "",
          "type": "string"
        }
      ],
      "stateMutability": "payable",
      "type": "function"
    }
  ],
  "bytecode": "0x608060405260405162002d0f38038062002d0f833981810160405281019062000029919062000165565b336000806101000a81548173ffffffffffffffffffffffffffffffffffffffff021916908373ffffffffffffffffffffffffffffffffffffffff16021790555081600260006101000a81548173ffffffffffffffffffffffffffffffffffffffff021916908373ffffffffffffffffffffffffffffffffffffffff16021790555080600160006101000a81548173ffffffffffffffffffffffffffffffffffffffff021916908373ffffffffffffffffffffffffffffffffffffffff16021790555060006003819055505050620001ac565b600080fd5b600073ffffffffffffffffffffffffffffffffffffffff82169050919050565b60006200012d8262000100565b9050919050565b6200013f8162000120565b81146200014b57600080fd5b50565b6000815190506200015f8162000134565b92915050565b600080604083850312156200017f576200017e620000fb565b5b60006200018f858286016200014e565b9250506020620001a2858286016200014e565b9150509250929050565b612b5380620001bc6000396000f3fe6080604052600436106100c25760003560e01c8063585dbffe1161007f578063992642e511610059578063992642e5146102a3578063d1ece790146102ce578063dc2379b9146102f9578063e18f5f6514610329576100c2565b8063585dbffe146101fe57806384febb691461023b5780638f84aa0914610278576100c2565b806313203929146100c75780631bb862a51461010b5780632ae3c90f14610148578063372f910114610173578063436d4a6d146101a3578063567142be146101d3575b600080fd5b3480156100d357600080fd5b506100ee60048036038101906100e99190611bc9565b610366565b604051610102989796959493929190611c87565b60405180910390f35b34801561011757600080fd5b50610132600480360381019061012d9190611bc9565b6103fe565b60405161013f9190611d05565b60405180910390f35b34801561015457600080fd5b5061015d610436565b60405161016a9190611d41565b60405180910390f35b61018d60048036038101906101889190611bc9565b61045a565b60405161019a9190611ddb565b60405180910390f35b6101bd60048036038101906101b89190611eba565b6108ee565b6040516101ca9190611fa0565b60405180910390f35b3480156101df57600080fd5b506101e8610cb2565b6040516101f59190611fa0565b60405180910390f35b34801561020a57600080fd5b5061022560048036038101906102209190611bc9565b610cb8565b604051610232919061208a565b60405180910390f35b34801561024757600080fd5b50610262600480360381019061025d9190611bc9565b610daf565b60405161026f9190611fa0565b60405180910390f35b34801561028457600080fd5b5061028d610dda565b60405161029a91906120a6565b60405180910390f35b3480156102af57600080fd5b506102b8610e00565b6040516102c59190612120565b60405180910390f35b3480156102da57600080fd5b506102e3610e26565b6040516102f09190612271565b60405180910390f35b610313600480360381019061030e9190612293565b610f19565b6040516103209190611fa0565b60405180910390f35b34801561033557600080fd5b50610350600480360381019061034b9190611bc9565b61137d565b60405161035d91906120a6565b60405180910390f35b6004818051602081018201805184825260208301602085012081835280955050505050506000915090508060000160009054906101000a900460ff16908060010154908060020160009054906101000a900473ffffffffffffffffffffffffffffffffffffffff16908060030154908060040154908060050154908060060154908060070160009054906101000a900460ff16905088565b60006004826040516104109190612352565b908152602001604051809103902060070160009054906101000a900460ff169050919050565b60008054906101000a900473ffffffffffffffffffffffffffffffffffffffff1681565b606060008054906101000a900473ffffffffffffffffffffffffffffffffffffffff1673ffffffffffffffffffffffffffffffffffffffff163373ffffffffffffffffffffffffffffffffffffffff16146104e1576040517f229e1dbd00000000000000000000000000000000000000000000000000000000815260040160405180910390fd5b60006004836040516104f39190612352565b908152602001604051809103902090508060000160009054906101000a900460ff1661054b576040517fd63d1e4800000000000000000000000000000000000000000000000000000000815260040160405180910390fd5b60008160010154905060008060009054906101000a900473ffffffffffffffffffffffffffffffffffffffff16905082600601544210156105b9576064836005015460646105999190612398565b84600101546105a891906123cc565b6105b2919061243d565b91506105ba565b5b60008360020160009054906101000a900473ffffffffffffffffffffffffffffffffffffffff1690508360070160009054906101000a900460ff16156106de5761064760008054906101000a900473ffffffffffffffffffffffffffffffffffffffff1684600160009054906101000a900473ffffffffffffffffffffffffffffffffffffffff166113c8565b508173ffffffffffffffffffffffffffffffffffffffff1663de35c3728285600260009054906101000a900473ffffffffffffffffffffffffffffffffffffffff166040518463ffffffff1660e01b81526004016106a79392919061246e565b600060405180830381600087803b1580156106c157600080fd5b505af11580156106d5573d6000803e3d6000fd5b5050505061083c565b600073ffffffffffffffffffffffffffffffffffffffff168173ffffffffffffffffffffffffffffffffffffffff16036107e957600080600260009054906101000a900473ffffffffffffffffffffffffffffffffffffffff1673ffffffffffffffffffffffffffffffffffffffff168560405161075b906124d6565b60006040518083038185875af1925050503d8060008114610798576040519150601f19603f3d011682016040523d82523d6000602084013e61079d565b606091505b5091509150816107e2576040517f08c379a00000000000000000000000000000000000000000000000000000000081526004016107d990612537565b60405180910390fd5b505061083b565b61083a8460020160009054906101000a900473ffffffffffffffffffffffffffffffffffffffff16600260009054906101000a900473ffffffffffffffffffffffffffffffffffffffff1685611456565b5b5b600060048760405161084e9190612352565b908152602001604051809103902060000160006101000a81548160ff0219169083151502179055507f5b059b7fe1fea38d4de595079621498a365a8f1fa13e49af9f1e4b7197ab049a866040516108a59190611ddb565b60405180910390a16040518060400160405280601e81526020017f736176696e67732077697468647261776e207375636365737366756c6c790000815250945050505050919050565b60008060009054906101000a900473ffffffffffffffffffffffffffffffffffffffff1673ffffffffffffffffffffffffffffffffffffffff163373ffffffffffffffffffffffffffffffffffffffff1614610976576040517f229e1dbd00000000000000000000000000000000000000000000000000000000815260040160405180910390fd5b60048a6040516109869190612352565b908152602001604051809103902060000160009054906101000a900460ff16156109dc576040517fd63d1e4800000000000000000000000000000000000000000000000000000000815260040160405180910390fd5b87891015610a16576040517f6f7eac2600000000000000000000000000000000000000000000000000000000815260040160405180910390fd5b42891015610a50576040517f6f7eac2600000000000000000000000000000000000000000000000000000000815260040160405180910390fd5b60008590508415610aae57610aa860008054906101000a900473ffffffffffffffffffffffffffffffffffffffff16600160009054906101000a900473ffffffffffffffffffffffffffffffffffffffff1688611530565b50610b18565b600073ffffffffffffffffffffffffffffffffffffffff168773ffffffffffffffffffffffffffffffffffffffff1614610b1357610b0d60008054906101000a900473ffffffffffffffffffffffffffffffffffffffff168888611530565b50610b17565b3490505b5b6000610b27828c8c8888611679565b90506040518061010001604052806001151581526020018381526020018973ffffffffffffffffffffffffffffffffffffffff1681526020018281526020018b81526020018a60ff1681526020018c815260200187151581525060048d604051610b919190612352565b908152602001604051809103902060008201518160000160006101000a81548160ff0219169083151502179055506020820151816001015560408201518160020160006101000a81548173ffffffffffffffffffffffffffffffffffffffff021916908373ffffffffffffffffffffffffffffffffffffffff160217905550606082015181600301556080820151816004015560a0820151816005015560c0820151816006015560e08201518160070160006101000a81548160ff021916908315150217905550905050610c648c6116a4565b7f4ad85a69286191006ea05981ae1848070dbf232e5e00ffdda4b857c16097f0d78c888a604051610c9793929190612557565b60405180910390a16001925050509998505050505050505050565b60035481565b610cc06119fd565b600482604051610cd09190612352565b9081526020016040518091039020604051806101000160405290816000820160009054906101000a900460ff16151515158152602001600182015481526020016002820160009054906101000a900473ffffffffffffffffffffffffffffffffffffffff1673ffffffffffffffffffffffffffffffffffffffff1673ffffffffffffffffffffffffffffffffffffffff168152602001600382015481526020016004820154815260200160058201548152602001600682015481526020016007820160009054906101000a900460ff1615151515815250509050919050565b6000600482604051610dc19190612352565b9081526020016040518091039020600301549050919050565b600260009054906101000a900473ffffffffffffffffffffffffffffffffffffffff1681565b600160009054906101000a900473ffffffffffffffffffffffffffffffffffffffff1681565b610e2e611a5c565b600560405180602001604052908160008201805480602002602001604051908101604052809291908181526020016000905b82821015610f0c578382906000526020600020018054610e7f906125c4565b80601f0160208091040260200160405190810160405280929190818152602001828054610eab906125c4565b8015610ef85780601f10610ecd57610100808354040283529160200191610ef8565b820191906000526020600020905b815481529060010190602001808311610edb57829003601f168201915b505050505081526020019060010190610e60565b5050505081525050905090565b60008060009054906101000a900473ffffffffffffffffffffffffffffffffffffffff1673ffffffffffffffffffffffffffffffffffffffff163373ffffffffffffffffffffffffffffffffffffffff1614610fa1576040517f229e1dbd00000000000000000000000000000000000000000000000000000000815260040160405180910390fd5b6000600486604051610fb39190612352565b908152602001604051809103902090508060000160009054906101000a900460ff1661100b576040517fd63d1e4800000000000000000000000000000000000000000000000000000000815260040160405180910390fd5b8060060154421115611049576040517f6f7eac2600000000000000000000000000000000000000000000000000000000815260040160405180910390fd5b60008073ffffffffffffffffffffffffffffffffffffffff168260020160009054906101000a900473ffffffffffffffffffffffffffffffffffffffff1673ffffffffffffffffffffffffffffffffffffffff161490508160070160009054906101000a900460ff161561110a5761110460008054906101000a900473ffffffffffffffffffffffffffffffffffffffff16600160009054906101000a900473ffffffffffffffffffffffffffffffffffffffff1688611530565b506111ac565b806111645761115e60008054906101000a900473ffffffffffffffffffffffffffffffffffffffff168360020160009054906101000a900473ffffffffffffffffffffffffffffffffffffffff1688611530565b506111ab565b853410156111a7576040517f08c379a000000000000000000000000000000000000000000000000000000000815260040161119e90612667565b60405180910390fd5b3495505b5b60006111bf878460060154428989611679565b90508083600301546111d19190612687565b83600301819055508683600101546111e99190612687565b8360010181905550826004896040516112029190612352565b90815260200160405180910390206000820160009054906101000a900460ff168160000160006101000a81548160ff021916908315150217905550600182015481600101556002820160009054906101000a900473ffffffffffffffffffffffffffffffffffffffff168160020160006101000a81548173ffffffffffffffffffffffffffffffffffffffff021916908373ffffffffffffffffffffffffffffffffffffffff160217905550600382015481600301556004820154816004015560058201548160050155600682015481600601556007820160009054906101000a900460ff168160070160006101000a81548160ff0219169083151502179055509050507ff6b98d8e0d83f8b1d1ff03a2fa36aba2c77ccf20e4ff035c0cf4aa92762e9eec888885600101548660020160009054906101000a900473ffffffffffffffffffffffffffffffffffffffff1660405161136394939291906126bb565b60405180910390a182600301549350505050949350505050565b600060048260405161138f9190612352565b908152602001604051809103902060020160009054906101000a900473ffffffffffffffffffffffffffffffffffffffff169050919050565b6000808290508073ffffffffffffffffffffffffffffffffffffffff1663095ea7b386866040518363ffffffff1660e01b8152600401611409929190612707565b6020604051808303816000875af1158015611428573d6000803e3d6000fd5b505050506040513d601f19601f8201168201806040525081019061144c9190612745565b9150509392505050565b60008390508073ffffffffffffffffffffffffffffffffffffffff1663a9059cbb84846040518363ffffffff1660e01b8152600401611496929190612707565b6020604051808303816000875af11580156114b5573d6000803e3d6000fd5b505050506040513d601f19601f820116820180604052508101906114d99190612745565b503073ffffffffffffffffffffffffffffffffffffffff167f42856d0378dde02337bb59ae41747abc77ded8ebdbbc5cbdd1e53693b75549388484604051611522929190612707565b60405180910390a250505050565b6000818373ffffffffffffffffffffffffffffffffffffffff1663dd62ed3e86306040518363ffffffff1660e01b815260040161156e929190612772565b602060405180830381865afa15801561158b573d6000803e3d6000fd5b505050506040513d601f19601f820116820180604052508101906115af91906127b0565b10156115f0576040517f08c379a00000000000000000000000000000000000000000000000000000000081526004016115e790612829565b60405180910390fd5b8273ffffffffffffffffffffffffffffffffffffffff166323b872dd8530856040518463ffffffff1660e01b815260040161162d93929190612849565b6020604051808303816000875af115801561164c573d6000803e3d6000fd5b505050506040513d601f19601f820116820180604052508101906116709190612745565b90509392505050565b600061169286858761168b9190612398565b85856116df565b90508060038190555095945050505050565b6005600001819080600181540180825580915050600190039060005260206000200160009091909190915090816116db9190612a22565b5050565b6000806117166064611708868762e4e1c06116fa9190612398565b61179890919063ffffffff16565b6117b590919063ffffffff16565b9050600061173c848361172991906123cc565b6305f5e10061179890919063ffffffff16565b905060006117576301e133808861179890919063ffffffff16565b905061178b611786606483858c61176e91906123cc565b61177891906123cc565b61179890919063ffffffff16565b6117c9565b9350505050949350505050565b60006117ad83670de0b6b3a7640000846117eb565b905092915050565b60006117c18383611900565b905092915050565b6000670de0b6b3a764000082816117e3576117e261240e565b5b049050919050565b60008060008019858709858702925082811083820303915050600081036118265783828161181c5761181b61240e565b5b04925050506118f9565b83811061186c5780846040517f773cc18c000000000000000000000000000000000000000000000000000000008152600401611863929190612af4565b60405180910390fd5b60008486880990508281118203915080830392506000600186190186169050808604955080840493506001818260000304019050808302841793506000600287600302189050808702600203810290508087026002038102905080870260020381029050808702600203810290508087026002038102905080870260020381029050808502955050505050505b9392505050565b60008060008019848609848602925082811083820303915050670de0b6b3a7640000811061196557806040517fd31b340200000000000000000000000000000000000000000000000000000000815260040161195c9190611fa0565b60405180910390fd5b600080670de0b6b3a764000086880991506706f05b59d3b1ffff82119050600083036119b15780670de0b6b3a764000085816119a4576119a361240e565b5b04019450505050506119f7565b807faccb18165bd6fe31ae1cf318dc5b51eee0e1ba569b88cd74c1773b91fac1066960016204000080600003040186851186030262040000858803041702019450505050505b92915050565b60405180610100016040528060001515815260200160008152602001600073ffffffffffffffffffffffffffffffffffffffff168152602001600081526020016000815260200160008152602001600081526020016000151581525090565b6040518060200160405280606081525090565b6000604051905090565b600080fd5b600080fd5b600080fd5b600080fd5b6000601f19601f8301169050919050565b7f4e487b7100000000000000000000000000000000000000000000000000000000600052604160045260246000fd5b611ad682611a8d565b810181811067ffffffffffffffff82111715611af557611af4611a9e565b5b80604052505050565b6000611b08611a6f565b9050611b148282611acd565b919050565b600067ffffffffffffffff821115611b3457611b33611a9e565b5b611b3d82611a8d565b9050602081019050919050565b82818337600083830152505050565b6000611b6c611b6784611b19565b611afe565b905082815260208101848484011115611b8857611b87611a88565b5b611b93848285611b4a565b509392505050565b600082601f830112611bb057611baf611a83565b5b8135611bc0848260208601611b59565b91505092915050565b600060208284031215611bdf57611bde611a79565b5b600082013567ffffffffffffffff811115611bfd57611bfc611a7e565b5b611c0984828501611b9b565b91505092915050565b60008115159050919050565b611c2781611c12565b82525050565b6000819050919050565b611c4081611c2d565b82525050565b600073ffffffffffffffffffffffffffffffffffffffff82169050919050565b6000611c7182611c46565b9050919050565b611c8181611c66565b82525050565b600061010082019050611c9d600083018b611c1e565b611caa602083018a611c37565b611cb76040830189611c78565b611cc46060830188611c37565b611cd16080830187611c37565b611cde60a0830186611c37565b611ceb60c0830185611c37565b611cf860e0830184611c1e565b9998505050505050505050565b6000602082019050611d1a6000830184611c1e565b92915050565b6000611d2b82611c46565b9050919050565b611d3b81611d20565b82525050565b6000602082019050611d566000830184611d32565b92915050565b600081519050919050565b600082825260208201905092915050565b60005b83811015611d96578082015181840152602081019050611d7b565b60008484015250505050565b6000611dad82611d5c565b611db78185611d67565b9350611dc7818560208601611d78565b611dd081611a8d565b840191505092915050565b60006020820190508181036000830152611df58184611da2565b905092915050565b611e0681611c2d565b8114611e1157600080fd5b50565b600081359050611e2381611dfd565b92915050565b600060ff82169050919050565b611e3f81611e29565b8114611e4a57600080fd5b50565b600081359050611e5c81611e36565b92915050565b611e6b81611c66565b8114611e7657600080fd5b50565b600081359050611e8881611e62565b92915050565b611e9781611c12565b8114611ea257600080fd5b50565b600081359050611eb481611e8e565b92915050565b60008060008060008060008060006101208a8c031215611edd57611edc611a79565b5b60008a013567ffffffffffffffff811115611efb57611efa611a7e565b5b611f078c828d01611b9b565b9950506020611f188c828d01611e14565b9850506040611f298c828d01611e14565b9750506060611f3a8c828d01611e4d565b9650506080611f4b8c828d01611e79565b95505060a0611f5c8c828d01611e14565b94505060c0611f6d8c828d01611ea5565b93505060e0611f7e8c828d01611e14565b925050610100611f908c828d01611e14565b9150509295985092959850929598565b6000602082019050611fb56000830184611c37565b92915050565b611fc481611c12565b82525050565b611fd381611c2d565b82525050565b611fe281611c66565b82525050565b61010082016000820151611fff6000850182611fbb565b5060208201516120126020850182611fca565b5060408201516120256040850182611fd9565b5060608201516120386060850182611fca565b50608082015161204b6080850182611fca565b5060a082015161205e60a0850182611fca565b5060c082015161207160c0850182611fca565b5060e082015161208460e0850182611fbb565b50505050565b6000610100820190506120a06000830184611fe8565b92915050565b60006020820190506120bb6000830184611c78565b92915050565b6000819050919050565b60006120e66120e16120dc84611c46565b6120c1565b611c46565b9050919050565b60006120f8826120cb565b9050919050565b600061210a826120ed565b9050919050565b61211a816120ff565b82525050565b60006020820190506121356000830184612111565b92915050565b600081519050919050565b600082825260208201905092915050565b6000819050602082019050919050565b600082825260208201905092915050565b600061218382611d5c565b61218d8185612167565b935061219d818560208601611d78565b6121a681611a8d565b840191505092915050565b60006121bd8383612178565b905092915050565b6000602082019050919050565b60006121dd8261213b565b6121e78185612146565b9350836020820285016121f985612157565b8060005b85811015612235578484038952815161221685826121b1565b9450612221836121c5565b925060208a019950506001810190506121fd565b50829750879550505050505092915050565b6000602083016000830151848203600086015261226482826121d2565b9150508091505092915050565b6000602082019050818103600083015261228b8184612247565b905092915050565b600080600080608085870312156122ad576122ac611a79565b5b600085013567ffffffffffffffff8111156122cb576122ca611a7e565b5b6122d787828801611b9b565b94505060206122e887828801611e14565b93505060406122f987828801611e14565b925050606061230a87828801611e14565b91505092959194509250565b600081905092915050565b600061232c82611d5c565b6123368185612316565b9350612346818560208601611d78565b80840191505092915050565b600061235e8284612321565b915081905092915050565b7f4e487b7100000000000000000000000000000000000000000000000000000000600052601160045260246000fd5b60006123a382611c2d565b91506123ae83611c2d565b92508282039050818111156123c6576123c5612369565b5b92915050565b60006123d782611c2d565b91506123e283611c2d565b92508282026123f081611c2d565b9150828204841483151761240757612406612369565b5b5092915050565b7f4e487b7100000000000000000000000000000000000000000000000000000000600052601260045260246000fd5b600061244882611c2d565b915061245383611c2d565b9250826124635761246261240e565b5b828204905092915050565b60006060820190506124836000830186611c78565b6124906020830185611c37565b61249d6040830184611c78565b949350505050565b600081905092915050565b50565b60006124c06000836124a5565b91506124cb826124b0565b600082019050919050565b60006124e1826124b3565b9150819050919050565b7f436f756c646e27742073656e642066756e647300000000000000000000000000600082015250565b6000612521601383611d67565b915061252c826124eb565b602082019050919050565b6000602082019050818103600083015261255081612514565b9050919050565b600060608201905081810360008301526125718186611da2565b90506125806020830185611c37565b61258d6040830184611c78565b949350505050565b7f4e487b7100000000000000000000000000000000000000000000000000000000600052602260045260246000fd5b600060028204905060018216806125dc57607f821691505b6020821081036125ef576125ee612595565b5b50919050565b7f496e76616c696420736176696e6720696e6372656d656e742076616c7565207360008201527f656e740000000000000000000000000000000000000000000000000000000000602082015250565b6000612651602383611d67565b915061265c826125f5565b604082019050919050565b6000602082019050818103600083015261268081612644565b9050919050565b600061269282611c2d565b915061269d83611c2d565b92508282019050808211156126b5576126b4612369565b5b92915050565b600060808201905081810360008301526126d58187611da2565b90506126e46020830186611c37565b6126f16040830185611c37565b6126fe6060830184611c78565b95945050505050565b600060408201905061271c6000830185611c78565b6127296020830184611c37565b9392505050565b60008151905061273f81611e8e565b92915050565b60006020828403121561275b5761275a611a79565b5b600061276984828501612730565b91505092915050565b60006040820190506127876000830185611c78565b6127946020830184611c78565b9392505050565b6000815190506127aa81611dfd565b92915050565b6000602082840312156127c6576127c5611a79565b5b60006127d48482850161279b565b91505092915050565b7f546f6b656e20636f756c64206e6f742062652077697468647261776e00000000600082015250565b6000612813601c83611d67565b915061281e826127dd565b602082019050919050565b6000602082019050818103600083015261284281612806565b9050919050565b600060608201905061285e6000830186611c78565b61286b6020830185611c78565b6128786040830184611c37565b949350505050565b60008190508160005260206000209050919050565b60006020601f8301049050919050565b600082821b905092915050565b6000600883026128e27fffffffffffffffffffffffffffffffffffffffffffffffffffffffffffffffff826128a5565b6128ec86836128a5565b95508019841693508086168417925050509392505050565b600061291f61291a61291584611c2d565b6120c1565b611c2d565b9050919050565b6000819050919050565b61293983612904565b61294d61294582612926565b8484546128b2565b825550505050565b600090565b612962612955565b61296d818484612930565b505050565b5b818110156129915761298660008261295a565b600181019050612973565b5050565b601f8211156129d6576129a781612880565b6129b084612895565b810160208510156129bf578190505b6129d36129cb85612895565b830182612972565b50505b505050565b600082821c905092915050565b60006129f9600019846008026129db565b1980831691505092915050565b6000612a1283836129e8565b9150826002028217905092915050565b612a2b82611d5c565b67ffffffffffffffff811115612a4457612a43611a9e565b5b612a4e82546125c4565b612a59828285612995565b600060209050601f831160018114612a8c5760008415612a7a578287015190505b612a848582612a06565b865550612aec565b601f198416612a9a86612880565b60005b82811015612ac257848901518255600182019150602085019450602081019050612a9d565b86831015612adf5784890151612adb601f8916826129e8565b8355505b6001600288020188555050505b505050505050565b6000604082019050612b096000830185611c37565b612b166020830184611c37565b939250505056fea2646970667358221220885beafeeb4da6254d0208288c0861b6740cff4a82cd6e9b2876416b78c1667764736f6c63430008170033",
  "linkReferences": {},
  "deployedLinkReferences": {}
}