{
  "_format": "hh-sol-artifact-1",
  "contractName": "ChildBitsave",
  "sourceName": "contracts/childContract.sol",
  "abi": [
    {
      "inputs": [
        {
          "internalType": "address",
          "name": "_ownerAddress",
          "type": "address"
        },
        {
          "internalType": "address",
          "name": "_stableCoin",
          "type": "address"
        }
      ],
      "stateMutability": "payable",
      "type": "constructor"
    },
    {
      "inputs": [],
      "name": "CallNotFromBitsave",
      "type": "error"
    },
    {
      "inputs": [],
      "name": "InvalidSaving",
      "type": "error"
    },
    {
      "inputs": [],
      "name": "InvalidTime",
      "type": "error"
    },
    {
      "anonymous": false,
      "inputs": [
        {
          "indexed": false,
          "internalType": "string",
          "name": "nameOfSaving",
          "type": "string"
        },
        {
          "indexed": false,
          "internalType": "uint256",
          "name": "amount",
          "type": "uint256"
        },
        {
          "indexed": false,
          "internalType": "address",
          "name": "token",
          "type": "address"
        }
      ],
      "name": "SavingCreated",
      "type": "event"
    },
    {
      "anonymous": false,
      "inputs": [
        {
          "indexed": false,
          "internalType": "string",
          "name": "nameOfSaving",
          "type": "string"
        },
        {
          "indexed": false,
          "internalType": "uint256",
          "name": "amountAdded",
          "type": "uint256"
        },
        {
          "indexed": false,
          "internalType": "uint256",
          "name": "totalAmountNow",
          "type": "uint256"
        },
        {
          "indexed": false,
          "internalType": "address",
          "name": "token",
          "type": "address"
        }
      ],
      "name": "SavingIncremented",
      "type": "event"
    },
    {
      "anonymous": false,
      "inputs": [
        {
          "indexed": false,
          "internalType": "string",
          "name": "nameOfSaving",
          "type": "string"
        }
      ],
      "name": "SavingWithdrawn",
      "type": "event"
    },
    {
      "anonymous": false,
      "inputs": [
        {
          "indexed": true,
          "internalType": "address",
          "name": "from",
          "type": "address"
        },
        {
          "indexed": false,
          "internalType": "address",
          "name": "to",
          "type": "address"
        },
        {
          "indexed": false,
          "internalType": "uint256",
          "name": "amount",
          "type": "uint256"
        }
      ],
      "name": "TokenWithdrawal",
      "type": "event"
    },
    {
      "inputs": [],
      "name": "bitsaveAddress",
      "outputs": [
        {
          "internalType": "address payable",
          "name": "",
          "type": "address"
        }
      ],
      "stateMutability": "view",
      "type": "function"
    },
    {
      "inputs": [
        {
          "internalType": "string",
          "name": "name",
          "type": "string"
        },
        {
          "internalType": "uint256",
          "name": "maturityTime",
          "type": "uint256"
        },
        {
          "internalType": "uint256",
          "name": "startTime",
          "type": "uint256"
        },
        {
          "internalType": "uint8",
          "name": "penaltyPercentage",
          "type": "uint8"
        },
        {
          "internalType": "address",
          "name": "tokenId",
          "type": "address"
        },
        {
          "internalType": "uint256",
          "name": "amountToRetrieve",
          "type": "uint256"
        },
        {
          "internalType": "bool",
          "name": "isSafeMode",
          "type": "bool"
        },
        {
          "internalType": "uint256",
          "name": "currentVaultState",
          "type": "uint256"
        },
        {
          "internalType": "uint256",
          "name": "currentTotalValueLocked",
          "type": "uint256"
        }
      ],
      "name": "createSaving",
      "outputs": [
        {
          "internalType": "uint256",
          "name": "",
          "type": "uint256"
        }
      ],
      "stateMutability": "payable",
      "type": "function"
    },
    {
      "inputs": [
        {
          "internalType": "string",
          "name": "nameOfSaving",
          "type": "string"
        }
      ],
      "name": "getSaving",
      "outputs": [
        {
          "components": [
            {
              "internalType": "bool",
              "name": "isValid",
              "type": "bool"
            },
            {
              "internalType": "uint256",
              "name": "amount",
              "type": "uint256"
            },
            {
              "internalType": "address",
              "name": "tokenId",
              "type": "address"
            },
            {
              "internalType": "uint256",
              "name": "interestAccumulated",
              "type": "uint256"
            },
            {
              "internalType": "uint256",
              "name": "startTime",
              "type": "uint256"
            },
            {
              "internalType": "uint256",
              "name": "penaltyPercentage",
              "type": "uint256"
            },
            {
              "internalType": "uint256",
              "name": "maturityTime",
              "type": "uint256"
            },
            {
              "internalType": "bool",
              "name": "isSafeMode",
              "type": "bool"
            }
          ],
          "internalType": "struct ChildBitsave.SavingDataStruct",
          "name": "",
          "type": "tuple"
        }
      ],
      "stateMutability": "view",
      "type": "function"
    },
    {
      "inputs": [
        {
          "internalType": "string",
          "name": "nameOfSaving",
          "type": "string"
        }
      ],
      "name": "getSavingInterest",
      "outputs": [
        {
          "internalType": "uint256",
          "name": "",
          "type": "uint256"
        }
      ],
      "stateMutability": "view",
      "type": "function"
    },
    {
      "inputs": [
        {
          "internalType": "string",
          "name": "nameOfSaving",
          "type": "string"
        }
      ],
      "name": "getSavingMode",
      "outputs": [
        {
          "internalType": "bool",
          "name": "",
          "type": "bool"
        }
      ],
      "stateMutability": "view",
      "type": "function"
    },
    {
      "inputs": [
        {
          "internalType": "string",
          "name": "nameOfSaving",
          "type": "string"
        }
      ],
      "name": "getSavingTokenId",
      "outputs": [
        {
          "internalType": "address",
          "name": "",
          "type": "address"
        }
      ],
      "stateMutability": "view",
      "type": "function"
    },
    {
      "inputs": [],
      "name": "getSavingsNames",
      "outputs": [
        {
          "components": [
            {
              "internalType": "string[]",
              "name": "savingsNames",
              "type": "string[]"
            }
          ],
          "internalType": "struct ChildBitsave.SavingsNamesObj",
          "name": "",
          "type": "tuple"
        }
      ],
      "stateMutability": "view",
      "type": "function"
    },
    {
      "inputs": [
        {
          "internalType": "string",
          "name": "name",
          "type": "string"
        },
        {
          "internalType": "uint256",
          "name": "savingPlusAmount",
          "type": "uint256"
        },
        {
          "internalType": "uint256",
          "name": "currentVaultState",
          "type": "uint256"
        },
        {
          "internalType": "uint256",
          "name": "currentTotalValueLocked",
          "type": "uint256"
        }
      ],
      "name": "incrementSaving",
      "outputs": [
        {
          "internalType": "uint256",
          "name": "",
          "type": "uint256"
        }
      ],
      "stateMutability": "payable",
      "type": "function"
    },
    {
      "inputs": [],
      "name": "ownerAddress",
      "outputs": [
        {
          "internalType": "address",
          "name": "",
          "type": "address"
        }
      ],
      "stateMutability": "view",
      "type": "function"
    },
    {
      "inputs": [
        {
          "internalType": "string",
          "name": "",
          "type": "string"
        }
      ],
      "name": "savings",
      "outputs": [
        {
          "internalType": "bool",
          "name": "isValid",
          "type": "bool"
        },
        {
          "internalType": "uint256",
          "name": "amount",
          "type": "uint256"
        },
        {
          "internalType": "address",
          "name": "tokenId",
          "type": "address"
        },
        {
          "internalType": "uint256",
          "name": "interestAccumulated",
          "type": "uint256"
        },
        {
          "internalType": "uint256",
          "name": "startTime",
          "type": "uint256"
        },
        {
          "internalType": "uint256",
          "name": "penaltyPercentage",
          "type": "uint256"
        },
        {
          "internalType": "uint256",
          "name": "maturityTime",
          "type": "uint256"
        },
        {
          "internalType": "bool",
          "name": "isSafeMode",
          "type": "bool"
        }
      ],
      "stateMutability": "view",
      "type": "function"
    },
    {
      "inputs": [],
      "name": "stableCoin",
      "outputs": [
        {
          "internalType": "contract IERC20",
          "name": "",
          "type": "address"
        }
      ],
      "stateMutability": "view",
      "type": "function"
    },
    {
      "inputs": [],
      "name": "totalPoints",
      "outputs": [
        {
          "internalType": "uint256",
          "name": "",
          "type": "uint256"
        }
      ],
      "stateMutability": "view",
      "type": "function"
    },
    {
      "inputs": [
        {
          "internalType": "string",
          "name": "name",
          "type": "string"
        }
      ],
      "name": "withdrawSaving",
      "outputs": [
        {
          "internalType": "string",
          "name": "",
          "type": "string"
        }
      ],
      "stateMutability": "payable",
      "type": "function"
    }
  ],
  "bytecode": "0x6080604052600060035560405162002a6c38038062002a6c83398181016040528101906200002e919062000162565b336000806101000a81548173ffffffffffffffffffffffffffffffffffffffff021916908373ffffffffffffffffffffffffffffffffffffffff16021790555081600260006101000a81548173ffffffffffffffffffffffffffffffffffffffff021916908373ffffffffffffffffffffffffffffffffffffffff16021790555080600160006101000a81548173ffffffffffffffffffffffffffffffffffffffff021916908373ffffffffffffffffffffffffffffffffffffffff1602179055505050620001a9565b600080fd5b600073ffffffffffffffffffffffffffffffffffffffff82169050919050565b60006200012a82620000fd565b9050919050565b6200013c816200011d565b81146200014857600080fd5b50565b6000815190506200015c8162000131565b92915050565b600080604083850312156200017c576200017b620000f8565b5b60006200018c858286016200014b565b92505060206200019f858286016200014b565b9150509250929050565b6128b380620001b96000396000f3fe6080604052600436106100c25760003560e01c8063585dbffe1161007f578063992642e511610059578063992642e5146102a3578063d1ece790146102ce578063dc2379b9146102f9578063e18f5f6514610329576100c2565b8063585dbffe146101fe57806384febb691461023b5780638f84aa0914610278576100c2565b806313203929146100c75780631bb862a51461010b5780632ae3c90f14610148578063372f910114610173578063436d4a6d146101a3578063567142be146101d3575b600080fd5b3480156100d357600080fd5b506100ee60048036038101906100e99190611952565b610366565b604051610102989796959493929190611a10565b60405180910390f35b34801561011757600080fd5b50610132600480360381019061012d9190611952565b6103fe565b60405161013f9190611a8e565b60405180910390f35b34801561015457600080fd5b5061015d610436565b60405161016a9190611aca565b60405180910390f35b61018d60048036038101906101889190611952565b61045a565b60405161019a9190611b64565b60405180910390f35b6101bd60048036038101906101b89190611c43565b6108ee565b6040516101ca9190611d29565b60405180910390f35b3480156101df57600080fd5b506101e8610cb2565b6040516101f59190611d29565b60405180910390f35b34801561020a57600080fd5b5061022560048036038101906102209190611952565b610cb8565b6040516102329190611e13565b60405180910390f35b34801561024757600080fd5b50610262600480360381019061025d9190611952565b610daf565b60405161026f9190611d29565b60405180910390f35b34801561028457600080fd5b5061028d610dda565b60405161029a9190611e2f565b60405180910390f35b3480156102af57600080fd5b506102b8610e00565b6040516102c59190611ea9565b60405180910390f35b3480156102da57600080fd5b506102e3610e26565b6040516102f09190611ffa565b60405180910390f35b610313600480360381019061030e919061201c565b610f19565b6040516103209190611d29565b60405180910390f35b34801561033557600080fd5b50610350600480360381019061034b9190611952565b61137d565b60405161035d9190611e2f565b60405180910390f35b6004818051602081018201805184825260208301602085012081835280955050505050506000915090508060000160009054906101000a900460ff16908060010154908060020160009054906101000a900473ffffffffffffffffffffffffffffffffffffffff16908060030154908060040154908060050154908060060154908060070160009054906101000a900460ff16905088565b600060048260405161041091906120db565b908152602001604051809103902060070160009054906101000a900460ff169050919050565b60008054906101000a900473ffffffffffffffffffffffffffffffffffffffff1681565b606060008054906101000a900473ffffffffffffffffffffffffffffffffffffffff1673ffffffffffffffffffffffffffffffffffffffff163373ffffffffffffffffffffffffffffffffffffffff16146104e1576040517f229e1dbd00000000000000000000000000000000000000000000000000000000815260040160405180910390fd5b60006004836040516104f391906120db565b908152602001604051809103902090508060000160009054906101000a900460ff1661054b576040517fd63d1e4800000000000000000000000000000000000000000000000000000000815260040160405180910390fd5b60008160010154905060008060009054906101000a900473ffffffffffffffffffffffffffffffffffffffff16905082600601544210156105b9576064836005015460646105999190612121565b84600101546105a89190612155565b6105b291906121c6565b91506105ba565b5b60008360020160009054906101000a900473ffffffffffffffffffffffffffffffffffffffff1690508360070160009054906101000a900460ff16156106de5761064760008054906101000a900473ffffffffffffffffffffffffffffffffffffffff1684600160009054906101000a900473ffffffffffffffffffffffffffffffffffffffff166113c8565b508173ffffffffffffffffffffffffffffffffffffffff1663de35c3728285600260009054906101000a900473ffffffffffffffffffffffffffffffffffffffff166040518463ffffffff1660e01b81526004016106a7939291906121f7565b600060405180830381600087803b1580156106c157600080fd5b505af11580156106d5573d6000803e3d6000fd5b5050505061083c565b600073ffffffffffffffffffffffffffffffffffffffff168173ffffffffffffffffffffffffffffffffffffffff16036107e957600080600260009054906101000a900473ffffffffffffffffffffffffffffffffffffffff1673ffffffffffffffffffffffffffffffffffffffff168560405161075b9061225f565b60006040518083038185875af1925050503d8060008114610798576040519150601f19603f3d011682016040523d82523d6000602084013e61079d565b606091505b5091509150816107e2576040517f08c379a00000000000000000000000000000000000000000000000000000000081526004016107d9906122c0565b60405180910390fd5b505061083b565b61083a8460020160009054906101000a900473ffffffffffffffffffffffffffffffffffffffff16600260009054906101000a900473ffffffffffffffffffffffffffffffffffffffff1685611456565b5b5b600060048760405161084e91906120db565b908152602001604051809103902060000160006101000a81548160ff0219169083151502179055507f5b059b7fe1fea38d4de595079621498a365a8f1fa13e49af9f1e4b7197ab049a866040516108a59190611b64565b60405180910390a16040518060400160405280601e81526020017f736176696e67732077697468647261776e207375636365737366756c6c790000815250945050505050919050565b60008060009054906101000a900473ffffffffffffffffffffffffffffffffffffffff1673ffffffffffffffffffffffffffffffffffffffff163373ffffffffffffffffffffffffffffffffffffffff1614610976576040517f229e1dbd00000000000000000000000000000000000000000000000000000000815260040160405180910390fd5b60048a60405161098691906120db565b908152602001604051809103902060000160009054906101000a900460ff16156109dc576040517fd63d1e4800000000000000000000000000000000000000000000000000000000815260040160405180910390fd5b87891015610a16576040517f6f7eac2600000000000000000000000000000000000000000000000000000000815260040160405180910390fd5b42891015610a50576040517f6f7eac2600000000000000000000000000000000000000000000000000000000815260040160405180910390fd5b60008590508415610aae57610aa860008054906101000a900473ffffffffffffffffffffffffffffffffffffffff16600160009054906101000a900473ffffffffffffffffffffffffffffffffffffffff1688611530565b50610b18565b600073ffffffffffffffffffffffffffffffffffffffff168773ffffffffffffffffffffffffffffffffffffffff1614610b1357610b0d60008054906101000a900473ffffffffffffffffffffffffffffffffffffffff168888611530565b50610b17565b3490505b5b6000610b27828c8c8888611679565b90506040518061010001604052806001151581526020018381526020018973ffffffffffffffffffffffffffffffffffffffff1681526020018281526020018b81526020018a60ff1681526020018c815260200187151581525060048d604051610b9191906120db565b908152602001604051809103902060008201518160000160006101000a81548160ff0219169083151502179055506020820151816001015560408201518160020160006101000a81548173ffffffffffffffffffffffffffffffffffffffff021916908373ffffffffffffffffffffffffffffffffffffffff160217905550606082015181600301556080820151816004015560a0820151816005015560c0820151816006015560e08201518160070160006101000a81548160ff021916908315150217905550905050610c648c6116a6565b7f4ad85a69286191006ea05981ae1848070dbf232e5e00ffdda4b857c16097f0d78c888a604051610c97939291906122e0565b60405180910390a16001925050509998505050505050505050565b60035481565b610cc0611786565b600482604051610cd091906120db565b9081526020016040518091039020604051806101000160405290816000820160009054906101000a900460ff16151515158152602001600182015481526020016002820160009054906101000a900473ffffffffffffffffffffffffffffffffffffffff1673ffffffffffffffffffffffffffffffffffffffff1673ffffffffffffffffffffffffffffffffffffffff168152602001600382015481526020016004820154815260200160058201548152602001600682015481526020016007820160009054906101000a900460ff1615151515815250509050919050565b6000600482604051610dc191906120db565b9081526020016040518091039020600301549050919050565b600260009054906101000a900473ffffffffffffffffffffffffffffffffffffffff1681565b600160009054906101000a900473ffffffffffffffffffffffffffffffffffffffff1681565b610e2e6117e5565b600560405180602001604052908160008201805480602002602001604051908101604052809291908181526020016000905b82821015610f0c578382906000526020600020018054610e7f9061234d565b80601f0160208091040260200160405190810160405280929190818152602001828054610eab9061234d565b8015610ef85780601f10610ecd57610100808354040283529160200191610ef8565b820191906000526020600020905b815481529060010190602001808311610edb57829003601f168201915b505050505081526020019060010190610e60565b5050505081525050905090565b60008060009054906101000a900473ffffffffffffffffffffffffffffffffffffffff1673ffffffffffffffffffffffffffffffffffffffff163373ffffffffffffffffffffffffffffffffffffffff1614610fa1576040517f229e1dbd00000000000000000000000000000000000000000000000000000000815260040160405180910390fd5b6000600486604051610fb391906120db565b908152602001604051809103902090508060000160009054906101000a900460ff1661100b576040517fd63d1e4800000000000000000000000000000000000000000000000000000000815260040160405180910390fd5b8060060154421115611049576040517f6f7eac2600000000000000000000000000000000000000000000000000000000815260040160405180910390fd5b60008073ffffffffffffffffffffffffffffffffffffffff168260020160009054906101000a900473ffffffffffffffffffffffffffffffffffffffff1673ffffffffffffffffffffffffffffffffffffffff161490508160070160009054906101000a900460ff161561110a5761110460008054906101000a900473ffffffffffffffffffffffffffffffffffffffff16600160009054906101000a900473ffffffffffffffffffffffffffffffffffffffff1688611530565b506111ac565b806111645761115e60008054906101000a900473ffffffffffffffffffffffffffffffffffffffff168360020160009054906101000a900473ffffffffffffffffffffffffffffffffffffffff1688611530565b506111ab565b853410156111a7576040517f08c379a000000000000000000000000000000000000000000000000000000000815260040161119e906123f0565b60405180910390fd5b3495505b5b60006111bf878460060154428989611679565b90508083600301546111d19190612410565b83600301819055508683600101546111e99190612410565b83600101819055508260048960405161120291906120db565b90815260200160405180910390206000820160009054906101000a900460ff168160000160006101000a81548160ff021916908315150217905550600182015481600101556002820160009054906101000a900473ffffffffffffffffffffffffffffffffffffffff168160020160006101000a81548173ffffffffffffffffffffffffffffffffffffffff021916908373ffffffffffffffffffffffffffffffffffffffff160217905550600382015481600301556004820154816004015560058201548160050155600682015481600601556007820160009054906101000a900460ff168160070160006101000a81548160ff0219169083151502179055509050507ff6b98d8e0d83f8b1d1ff03a2fa36aba2c77ccf20e4ff035c0cf4aa92762e9eec888885600101548660020160009054906101000a900473ffffffffffffffffffffffffffffffffffffffff166040516113639493929190612444565b60405180910390a182600301549350505050949350505050565b600060048260405161138f91906120db565b908152602001604051809103902060020160009054906101000a900473ffffffffffffffffffffffffffffffffffffffff169050919050565b6000808290508073ffffffffffffffffffffffffffffffffffffffff1663095ea7b386866040518363ffffffff1660e01b8152600401611409929190612490565b6020604051808303816000875af1158015611428573d6000803e3d6000fd5b505050506040513d601f19601f8201168201806040525081019061144c91906124ce565b9150509392505050565b60008390508073ffffffffffffffffffffffffffffffffffffffff1663a9059cbb84846040518363ffffffff1660e01b8152600401611496929190612490565b6020604051808303816000875af11580156114b5573d6000803e3d6000fd5b505050506040513d601f19601f820116820180604052508101906114d991906124ce565b503073ffffffffffffffffffffffffffffffffffffffff167f42856d0378dde02337bb59ae41747abc77ded8ebdbbc5cbdd1e53693b75549388484604051611522929190612490565b60405180910390a250505050565b6000818373ffffffffffffffffffffffffffffffffffffffff1663dd62ed3e86306040518363ffffffff1660e01b815260040161156e9291906124fb565b602060405180830381865afa15801561158b573d6000803e3d6000fd5b505050506040513d601f19601f820116820180604052508101906115af9190612539565b10156115f0576040517f08c379a00000000000000000000000000000000000000000000000000000000081526004016115e7906125b2565b60405180910390fd5b8273ffffffffffffffffffffffffffffffffffffffff166323b872dd8530856040518463ffffffff1660e01b815260040161162d939291906125d2565b6020604051808303816000875af115801561164c573d6000803e3d6000fd5b505050506040513d601f19601f8201168201806040525081019061167091906124ce565b90509392505050565b600061169286858761168b9190612121565b85856116e1565b905061169d8161176f565b95945050505050565b6005600001819080600181540180825580915050600190039060005260206000200160009091909190915090816116dd91906127ab565b5050565b6000806064848562e4e1c06116f69190612121565b61170091906121c6565b61170a9190612155565b90506000838261171a9190612155565b6305f5e10061172991906121c6565b905060006301e133808761173d91906121c6565b9050606481838a61174e9190612155565b6117589190612155565b61176291906121c6565b9350505050949350505050565b8060035461177d9190612410565b60038190555050565b60405180610100016040528060001515815260200160008152602001600073ffffffffffffffffffffffffffffffffffffffff168152602001600081526020016000815260200160008152602001600081526020016000151581525090565b6040518060200160405280606081525090565b6000604051905090565b600080fd5b600080fd5b600080fd5b600080fd5b6000601f19601f8301169050919050565b7f4e487b7100000000000000000000000000000000000000000000000000000000600052604160045260246000fd5b61185f82611816565b810181811067ffffffffffffffff8211171561187e5761187d611827565b5b80604052505050565b60006118916117f8565b905061189d8282611856565b919050565b600067ffffffffffffffff8211156118bd576118bc611827565b5b6118c682611816565b9050602081019050919050565b82818337600083830152505050565b60006118f56118f0846118a2565b611887565b90508281526020810184848401111561191157611910611811565b5b61191c8482856118d3565b509392505050565b600082601f8301126119395761193861180c565b5b81356119498482602086016118e2565b91505092915050565b60006020828403121561196857611967611802565b5b600082013567ffffffffffffffff81111561198657611985611807565b5b61199284828501611924565b91505092915050565b60008115159050919050565b6119b08161199b565b82525050565b6000819050919050565b6119c9816119b6565b82525050565b600073ffffffffffffffffffffffffffffffffffffffff82169050919050565b60006119fa826119cf565b9050919050565b611a0a816119ef565b82525050565b600061010082019050611a26600083018b6119a7565b611a33602083018a6119c0565b611a406040830189611a01565b611a4d60608301886119c0565b611a5a60808301876119c0565b611a6760a08301866119c0565b611a7460c08301856119c0565b611a8160e08301846119a7565b9998505050505050505050565b6000602082019050611aa360008301846119a7565b92915050565b6000611ab4826119cf565b9050919050565b611ac481611aa9565b82525050565b6000602082019050611adf6000830184611abb565b92915050565b600081519050919050565b600082825260208201905092915050565b60005b83811015611b1f578082015181840152602081019050611b04565b60008484015250505050565b6000611b3682611ae5565b611b408185611af0565b9350611b50818560208601611b01565b611b5981611816565b840191505092915050565b60006020820190508181036000830152611b7e8184611b2b565b905092915050565b611b8f816119b6565b8114611b9a57600080fd5b50565b600081359050611bac81611b86565b92915050565b600060ff82169050919050565b611bc881611bb2565b8114611bd357600080fd5b50565b600081359050611be581611bbf565b92915050565b611bf4816119ef565b8114611bff57600080fd5b50565b600081359050611c1181611beb565b92915050565b611c208161199b565b8114611c2b57600080fd5b50565b600081359050611c3d81611c17565b92915050565b60008060008060008060008060006101208a8c031215611c6657611c65611802565b5b60008a013567ffffffffffffffff811115611c8457611c83611807565b5b611c908c828d01611924565b9950506020611ca18c828d01611b9d565b9850506040611cb28c828d01611b9d565b9750506060611cc38c828d01611bd6565b9650506080611cd48c828d01611c02565b95505060a0611ce58c828d01611b9d565b94505060c0611cf68c828d01611c2e565b93505060e0611d078c828d01611b9d565b925050610100611d198c828d01611b9d565b9150509295985092959850929598565b6000602082019050611d3e60008301846119c0565b92915050565b611d4d8161199b565b82525050565b611d5c816119b6565b82525050565b611d6b816119ef565b82525050565b61010082016000820151611d886000850182611d44565b506020820151611d9b6020850182611d53565b506040820151611dae6040850182611d62565b506060820151611dc16060850182611d53565b506080820151611dd46080850182611d53565b5060a0820151611de760a0850182611d53565b5060c0820151611dfa60c0850182611d53565b5060e0820151611e0d60e0850182611d44565b50505050565b600061010082019050611e296000830184611d71565b92915050565b6000602082019050611e446000830184611a01565b92915050565b6000819050919050565b6000611e6f611e6a611e65846119cf565b611e4a565b6119cf565b9050919050565b6000611e8182611e54565b9050919050565b6000611e9382611e76565b9050919050565b611ea381611e88565b82525050565b6000602082019050611ebe6000830184611e9a565b92915050565b600081519050919050565b600082825260208201905092915050565b6000819050602082019050919050565b600082825260208201905092915050565b6000611f0c82611ae5565b611f168185611ef0565b9350611f26818560208601611b01565b611f2f81611816565b840191505092915050565b6000611f468383611f01565b905092915050565b6000602082019050919050565b6000611f6682611ec4565b611f708185611ecf565b935083602082028501611f8285611ee0565b8060005b85811015611fbe5784840389528151611f9f8582611f3a565b9450611faa83611f4e565b925060208a01995050600181019050611f86565b50829750879550505050505092915050565b60006020830160008301518482036000860152611fed8282611f5b565b9150508091505092915050565b600060208201905081810360008301526120148184611fd0565b905092915050565b6000806000806080858703121561203657612035611802565b5b600085013567ffffffffffffffff81111561205457612053611807565b5b61206087828801611924565b945050602061207187828801611b9d565b935050604061208287828801611b9d565b925050606061209387828801611b9d565b91505092959194509250565b600081905092915050565b60006120b582611ae5565b6120bf818561209f565b93506120cf818560208601611b01565b80840191505092915050565b60006120e782846120aa565b915081905092915050565b7f4e487b7100000000000000000000000000000000000000000000000000000000600052601160045260246000fd5b600061212c826119b6565b9150612137836119b6565b925082820390508181111561214f5761214e6120f2565b5b92915050565b6000612160826119b6565b915061216b836119b6565b9250828202612179816119b6565b915082820484148315176121905761218f6120f2565b5b5092915050565b7f4e487b7100000000000000000000000000000000000000000000000000000000600052601260045260246000fd5b60006121d1826119b6565b91506121dc836119b6565b9250826121ec576121eb612197565b5b828204905092915050565b600060608201905061220c6000830186611a01565b61221960208301856119c0565b6122266040830184611a01565b949350505050565b600081905092915050565b50565b600061224960008361222e565b915061225482612239565b600082019050919050565b600061226a8261223c565b9150819050919050565b7f436f756c646e27742073656e642066756e647300000000000000000000000000600082015250565b60006122aa601383611af0565b91506122b582612274565b602082019050919050565b600060208201905081810360008301526122d98161229d565b9050919050565b600060608201905081810360008301526122fa8186611b2b565b905061230960208301856119c0565b6123166040830184611a01565b949350505050565b7f4e487b7100000000000000000000000000000000000000000000000000000000600052602260045260246000fd5b6000600282049050600182168061236557607f821691505b6020821081036123785761237761231e565b5b50919050565b7f496e76616c696420736176696e6720696e6372656d656e742076616c7565207360008201527f656e740000000000000000000000000000000000000000000000000000000000602082015250565b60006123da602383611af0565b91506123e58261237e565b604082019050919050565b60006020820190508181036000830152612409816123cd565b9050919050565b600061241b826119b6565b9150612426836119b6565b925082820190508082111561243e5761243d6120f2565b5b92915050565b6000608082019050818103600083015261245e8187611b2b565b905061246d60208301866119c0565b61247a60408301856119c0565b6124876060830184611a01565b95945050505050565b60006040820190506124a56000830185611a01565b6124b260208301846119c0565b9392505050565b6000815190506124c881611c17565b92915050565b6000602082840312156124e4576124e3611802565b5b60006124f2848285016124b9565b91505092915050565b60006040820190506125106000830185611a01565b61251d6020830184611a01565b9392505050565b60008151905061253381611b86565b92915050565b60006020828403121561254f5761254e611802565b5b600061255d84828501612524565b91505092915050565b7f546f6b656e20636f756c64206e6f742062652077697468647261776e00000000600082015250565b600061259c601c83611af0565b91506125a782612566565b602082019050919050565b600060208201905081810360008301526125cb8161258f565b9050919050565b60006060820190506125e76000830186611a01565b6125f46020830185611a01565b61260160408301846119c0565b949350505050565b60008190508160005260206000209050919050565b60006020601f8301049050919050565b600082821b905092915050565b60006008830261266b7fffffffffffffffffffffffffffffffffffffffffffffffffffffffffffffffff8261262e565b612675868361262e565b95508019841693508086168417925050509392505050565b60006126a86126a361269e846119b6565b611e4a565b6119b6565b9050919050565b6000819050919050565b6126c28361268d565b6126d66126ce826126af565b84845461263b565b825550505050565b600090565b6126eb6126de565b6126f68184846126b9565b505050565b5b8181101561271a5761270f6000826126e3565b6001810190506126fc565b5050565b601f82111561275f5761273081612609565b6127398461261e565b81016020851015612748578190505b61275c6127548561261e565b8301826126fb565b50505b505050565b600082821c905092915050565b600061278260001984600802612764565b1980831691505092915050565b600061279b8383612771565b9150826002028217905092915050565b6127b482611ae5565b67ffffffffffffffff8111156127cd576127cc611827565b5b6127d7825461234d565b6127e282828561271e565b600060209050601f8311600181146128155760008415612803578287015190505b61280d858261278f565b865550612875565b601f19841661282386612609565b60005b8281101561284b57848901518255600182019150602085019450602081019050612826565b868310156128685784890151612864601f891682612771565b8355505b6001600288020188555050505b50505050505056fea2646970667358221220a5d9b3fcf9b9ae3ce5ba8a95ec0a953e1f2a420504c0270bcbecadf1ea5f3fbc64736f6c63430008170033",
  "linkReferences": {},
  "deployedLinkReferences": {}
}